:100000000C949D010C94CE010C94CE010C94CE0165
:100010000C94CE010C94CE010C94CE010C94CE0124
:100020000C94CE010C94CE010C94CE010C94CE0114
:100030000C94CE010C94BB420C94CE010C94CE01D6
:100040000C94CE010C94CE010C94CE010C94CE01F4
:100050000C94CE010C9416680C94CE010C94CE0135
:100060000C94CE010C94200E0C94CE010C94CE0175
:100070000C94CE010C94CE010C94CE010C94CE01C4
:100080000C94CE010C94CE010C94CE010C94CE01B4
:100090000C94844B0C94CE010C94CE010C94CE01A4
:1000A0000C94CE010C94CE010C94CE010C94CE0194
:1000B0000C94CE010C94CE010C94FA1D0C94CE013C
:1000C0000C94CE010C94CE010C94CE010C94CE0174
:1000D0000C94CE010C94CE010C94CE010C94CE0164
:1000E0000C94CE01036EDB363D9A9999993DABAAEB
:1000F000AA2A3E000000803F084AD73B3BCE016E53
:1001000084BCBFFDC12F3D6C74319ABD56833DDA6E
:100110003D00C77F11BED9E4BB4C3E916BAAAABE7D
:10012000000000803F072C7AA5BA6CC590DA3B939B
:1001300065FC8BBC53F810FD3C5692834DBD879DEA
:100140003AB63DCBC9BF5BBE73DA0FC93F05A84CB9
:10015000CDB2D44EB93836A9020C50B99186880870
:100160003CA6AAAA2ABE000000803F08000000BEEC
:10017000922449123EABAAAA2ABECDCCCC4C3E005A
:10018000000080BEABAAAAAA3E00000000BF00008B
:1001900000803F0000000000084178D3BB4387D1B6
:1001A000133D190E3CC3BD4282AD2B3E68EC8276F6
:1001B000BED98FE1A93E4C80EFFFBE01C4FF7F3F57
:1001C000000000000007634236B79BD8A71A3968C1
:1001D0005618AEBAAB558C1D3CB7CC5763BD6DED10
:1001E000FD753EF6177231BF000000803F000C9491
:1001F00081260C9432540C9438580C940F540C945F
:10020000D85D0C94212C0C94D25D0C9440540C9429
:10021000B75D0C94482C0C9461540C94FC560C94CF
:1002200038540C9465260C947D560C94D80A0C9482
:100230002B0B0C9438280C9489260C9430590C9470
:100240001F0A0C94680F0C9407540C94290C0C94FE
:10025000670A0C94A1570C94890A0C94850D0C9490
:1002600028590C946F260C94BA290C946B260C9484
:100270005B0F0C94940C0C9402570C9446580C94FD
:10028000BF5D0C94A7570C9422530C94530E0C94FE
:1002900022590C94B1580C9410230C9432280C94CD
:1002A0003A2C0C9483560C94250A0C9478230C94C5
:1002B0000F2C0C940A570C94AF570C94152C0C94DB
:1002C00001540C9492300C9431530C944C0E0C94B9
:1002D000B15D0C9469540C947B260C941F270C94EC
:1002E0008B560C94322C0C94E05D0C946E260C947E
:1002F0009A240C94900F0C94402C0C9480230C9412
:100300000A230C943E580C9418230C9447230C9405
:10031000B05D0C9440280C9429530C94DC0C0C9484
:10032000BF580C948A0F0C94B7580C945B540C94DF
:1003300072230C9423534C0E530E11241FBECFEF87
:10034000D1E2DEBFCDBF00E00CBF13E0A0E0B2E021
:10035000EAE7FEED00E00BBF02C007900D92AE3859
:10036000B107D9F720E1AEE8B3E001C01D92A43790
:10037000B207E1F713E0C8E3D3E000E006C022973C
:100380000109FE010BBF0E94A86DC633D10780E0B2
:100390000807A9F70E9431130C942B6F0C940000EE
:1003A000FC01208531858281938128173907C4F4A7
:1003B00086819781A081B181A80FB91F6C930196A6
:1003C00097838683228133818217930714F01782E3
:1003D00016828085918501969187808781E00895B6
:1003E00080E00895FC01DB011C9280859185892BBA
:1003F000D1F084819581A081B181A80FB91F2C9182
:10040000DB012C93019695838483228133818217AB
:10041000930714F015821482808591850197918746
:10042000808781E0089580E00895FC0171836083F6
:100430001282138214821582168217821086118608
:10044000128613861486158616861786108A118AD8
:10045000128A138A148A158A168A178A108E118EA8
:10046000128E138E148E158E168E178E10A211A258
:1004700012A213A214A215A212A613A614A615A6C0
:1004800016A617A610AA11AA12AA13AA14AA15AA88
:1004900016AA17AA10AE11AE12AE13AE14AE15AE58
:1004A000DC01AE5BBF4F1D921D921D921C921397F3
:1004B000DC01AA5BBF4F1D921D921D921C921397E7
:1004C000DC01A65BBF4F1D921D921D921C921397DB
:1004D000DC01A25BBF4F1D921D921D921C921397CF
:1004E000DC01AE5ABF4F1D921D921D921C921397B4
:1004F000DC01AA5ABF4F1D921D921D921C921397A8
:10050000DC01A65ABF4F1D921D921D921C9213979B
:10051000DC01A25ABF4F1D921D921D921C9213978F
:10052000DC01AE59BF4F1D921D921D921C92139774
:10053000DC01AA59BF4F1D921D921D921C92139768
:10054000DC01A659BF4F1D921D921D921C9213975C
:10055000DC01A259BF4F1D921D921D921C92139750
:10056000DC01AE57BF4F1D921D921D921C92139736
:10057000DC01AA57BF4F1D921D921D921C9213972A
:10058000E657FF4F108211821282138208954F9214
:100590005F926F927F928F929F92AF92BF92CF9213
:1005A000DF92EF92FF920F931F93CF93DF93CDB71C
:1005B000DEB728970FB6F894DEBF0FBECDBF2A0175
:1005C0003B0109831A832B833C8368A179A1882787
:1005D00077FD8095982F0E94AD696D837E838F8310
:1005E0009887A5019401C301B2010E94906BA701F5
:1005F00096010E942E684B015C012C8D3D8D4E8D25
:100600005F8D69817A818B819C810E94906B9B01B7
:10061000AC01C501B4010E942E689B01AC016D8143
:100620007E818F8198850E94906B28960FB6F894F2
:10063000DEBF0FBECDBFDF91CF911F910F91FF9015
:10064000EF90DF90CF90BF90AF909F908F907F9072
:100650006F905F904F9008958F929F92AF92BF924C
:10066000CF92DF92EF92FF920F931F93CF93DF937E
:10067000A42EB52ED62FC72F822E932E2C2D3D2D96
:100680004E2D5F2D6A2D7B2D8D2F9C2F0E943A6B56
:1006900018166CF0202F312F482D592D6A2D7B2DE7
:1006A0008D2F9C2F0E940B69882334F009C0AC2C3D
:1006B000BD2CDE2DCF2D04C0A02EB12ED82DC92DDE
:1006C0006A2D7B2D8D2F9C2FDF91CF911F910F9144
:1006D000FF90EF90DF90CF90BF90AF909F908F9062
:1006E00008954F925F926F927F92AF92BF92CF9296
:1006F000DF92EF92FF920F931F93CF93DF93CDB7CB
:10070000DEB70E942D68A80197010E94906B2B0113
:100710003C012A893B894C895D89C601B5010E944B
:10072000906B9B01AC01C301B2010E942D68DF9167
:10073000CF911F910F91FF90EF90DF90CF90BF90DE
:10074000AF907F906F905F904F9008958F929F929F
:10075000AF92BF92CF92DF92EF92FF920F931F93CF
:10076000CF93DF93A42EB52ED62FC72F822E932E94
:10077000202F312F482D592D6A2D7B2D8D2F9C2F09
:100780000E940B6988236CF02C2D3D2D4E2D5F2D82
:100790006A2D7B2D8D2F9C2F0E943A6B181634F0FA
:1007A00009C0A02EB12ED82DC92D04C0AC2CBD2C53
:1007B000DE2DCF2D6A2D7B2D8D2F9C2FDF91CF919C
:1007C0001F910F91FF90EF90DF90CF90BF90AF906F
:1007D0009F908F900895DC01ED91FC91EA54FF4FBA
:1007E00080819181A281B3810196A11DB11D808379
:1007F0009183A283B38308952F923F924F925F9289
:100800006F927F928F929F92AF92BF92CF92DF9220
:10081000EF92FF920F931F93CF93DF93CDB7DEB785
:100820002A970FB6F894DEBF0FBECDBF9A8789878F
:10083000DC012D903C90F101EA52FF4FD101169658
:100840002D913D914D915C911997608171818281CB
:1008500093810E942D68E62EF72E082F192F462E21
:10086000572E682E792E2BED3FE049E450E40E948C
:100870003A6B88237CF02BED3FE049EC50E46E2D81
:100880007F2D802F912F0E942D68462E572E682E87
:10089000792E1AC02BED3FE049E450EC6E2D7F2DF0
:1008A000802F912F0E940B69882374F42BED3FE079
:1008B00049EC50E46E2D7F2D802F912F0E942E68E1
:1008C000462E572E682E792EF101268537854089D0
:1008D000518962857385848595850E942D68A985D7
:1008E000BA851E962D913D914D915C9151970E9434
:1008F000906B6B017C01E985FA852281338144810B
:100900005581642D752D862D972D0E94906B9B012E
:10091000AC01C701B6010E942E68E985FA85EE5741
:10092000FF4F20813181428153810E94906BD10120
:1009300056962D913D914D915C9159970E942E684C
:1009400069837A838B839C83F101EE51FF4FD10140
:1009500052962D913D914D915C9155976081718199
:10096000828193810E942D686D837E838F83988717
:10097000E985FA8582849384A484B5841F9281E0FA
:100980008F9381858F9380858F9387818F938681C5
:100990008F9339812A819B818C81C32ED22EE92E9F
:1009A000F82E5D814E819F818885052F142F292F78
:1009B000382F442D552D662D772D89859A850E94D7
:1009C000C7020F900F900F900F900F900F904B0158
:1009D0005C01E985FA85EA5AFF4FC080D180E28048
:1009E000F380E985FA85EE5AFF4F0081118122815B
:1009F0003381AB01BC0189859A850E942C03DC01FF
:100A0000CB01B058F10182879387A487B587A98568
:100A1000BA85ED91FC91119786869786A08AB18A56
:100A2000ED91FC9159814A813B812C81852F942F36
:100A3000A32FB22F868B978BA08FB18FA985BA85F4
:100A4000ED91FC91842D952DA62DB72D828F938F3E
:100A5000A48FB58FA985BA85ED91FC915D814E81FA
:100A60003F812885852F942FA32FB22F868F978FB4
:100A7000A0A3B1A32A960FB6F894DEBF0FBECDBFD8
:100A8000DF91CF911F910F91FF90EF90DF90CF906A
:100A9000BF90AF909F908F907F906F905F904F909E
:100AA0003F902F9008952F923F924F925F926F92B6
:100AB0007F928F929F92AF92BF92CF92DF92EF92EE
:100AC000FF920F931F93CF93DF93CDB7DEB72A9793
:100AD0000FB6F894DEBF0FBECDBF9A8789872A0173
:100AE0003B01DC010D911C917801B6E9EB0EF11C84
:100AF0006C01EEE4CE0ED11CC8018A579F4F9A8339
:100B00008983F801E657FF4F20813181428153816B
:100B1000DC016D917D918D919C910E942D68F60173
:100B200020813181428153810E94906B4B015C0195
:100B3000E985FA85EE5BFF4F208131814281538147
:100B4000C301B2010E94906B9B01AC01C501B401CD
:100B50000E942E68E985FA85EE57FF4F208131818A
:100B6000428153810E94906BD7012D913D914D910F
:100B70005C910E942E68262E372E8B839C83F80171
:100B8000E257FF4FD801AE56BF4F2D913D914D9189
:100B90005C9160817181828193810E942D686D8357
:100BA0007E838F839887E985FA85E65BFF4F808097
:100BB0009180A280B3801F9281E08F93E985FA85AE
:100BC000EA5BFF4F83818F9382818F9381818F9323
:100BD00080818F939B818C81C22CD32CE92EF82E9F
:100BE0005D814E819F818885052F142F292F382FF5
:100BF000B301A20189859A850E94C7020F900F90C8
:100C00000F900F900F900F904B015C01E985FA85D2
:100C1000E259FF4FC080D180E280F380E985FA85F8
:100C2000E659FF4F0081118122813381AB01BC0164
:100C300089859A850E942C03E981FA8160837183FA
:100C400082839383A985BA85ED91FC911197E6572C
:100C5000FF4F80829182A282B382ED91FC91EA568D
:100C6000FF4F3B812C81822D932DA32FB22F8083A8
:100C70009183A283B383A985BA85ED91FC911197E5
:100C8000E656FF4F4082518262827382ED91FC9161
:100C9000E256FF4F5D814E813F812885852F942F3D
:100CA000A32FB22F80839183A283B3832A960FB69A
:100CB000F894DEBF0FBECDBFDF91CF911F910F9192
:100CC000FF90EF90DF90CF90BF90AF909F908F906C
:100CD0007F906F905F904F903F902F9008952F924C
:100CE0003F924F925F926F927F928F929F92AF92BC
:100CF000BF92CF92DF92EF92FF920F931F93CF9309
:100D0000DF93CDB7DEB72A970FB6F894DEBF0FBEDC
:100D1000CDBF9A8789872A013B01DC012D903C9049
:100D200081010E5B1F4FF10122A533A544A555A5F6
:100D300066A577A580A991A90E942D68A985BA8585
:100D40005E962D913D914D915C9191970E94906B93
:100D50006B017C01E985FA852289338944895589AB
:100D6000C301B2010E94906B9B01AC01C701B601A7
:100D70000E942E68E985FA85EE57FF4F2081318168
:100D8000428153810E94906BD8012D913D914D91EC
:100D90005C910E942E6869837A838B839C83F10126
:100DA00026A937A940AD51AD62A973A984A995A917
:100DB0000E942D686D837E838F839887A985BA856D
:100DC0005A968D909D90AD90BC905D971F9281E05A
:100DD0008F9359968C9159978F9358968C915897D9
:100DE0008F9357968C9157978F9356968C918F939C
:100DF00039812A819B818C81C32ED22EE92EF82E37
:100E00005D814E819F818885052F142F292F382FD2
:100E1000B301A20189859A850E94C7020F900F90A5
:100E20000F900F900F900F90AB01BC01E985FA85F0
:100E3000EA58FF4FC080D180E280F380E985FA85CF
:100E4000EE58FF4F008111812281338189859A8577
:100E50000E94A603F10162AF73AF84AF95AFA9857D
:100E6000BA85ED91FC91EE5BFF4F59814A813B8140
:100E70002C81852F942FA32FB22F80839183A2835F
:100E8000B383A985BA85ED91FC911197FE964082B6
:100E9000518262827382ED91FC91EA5BFF4F5D812A
:100EA0004E813F812885852F942FA32FB22F8083D9
:100EB0009183A283B3832A960FB6F894DEBF0FBE48
:100EC000CDBFDF91CF911F910F91FF90EF90DF90F9
:100ED000CF90BF90AF909F908F907F906F905F90DA
:100EE0004F903F902F9008952F923F924F925F9294
:100EF0006F927F928F929F92AF92BF92CF92DF922A
:100F0000EF92FF920F931F93CF93DF93CDB7DEB78E
:100F10002A970FB6F894DEBF0FBECDBF9A87898798
:100F20002A013B01DC012D903C90810102591F4FA9
:100F3000F101E65AFF4FD101AA5ABF4F2D913D91C1
:100F40004D915C9160817181828193810E942D68B5
:100F5000E985FA8526A937A940AD51AD0E94906B6D
:100F60006B017C01A985BA859A962D913D914D9191
:100F70005C919D97C301B2010E94906B9B01AC01F3
:100F8000C701B6010E942E68E985FA85EE57FF4F2A
:100F900020813181428153810E94906BF801208130
:100FA0003181428153810E942E6869837A838B83C9
:100FB0009C83F101E25AFF4FD101AE59BF4F2D91F1
:100FC0003D914D915C9160817181828193810E94FC
:100FD0002D686D837E838F839887A985BA85D29685
:100FE0008D909D90AD90BC90D5978FEF8F938F9300
:100FF000D1968C91D1978F93D0968C91D0978F93D7
:101000009F968C919F978F939E968C918F93398109
:101010002A819B818C81C32ED22EE92EF82E5D81F0
:101020004E819F818885052F142F292F382FB301DA
:10103000A20189859A850E94C7020F900F900F9098
:101040000F900F900F90AB01BC01E985FA85E25833
:10105000FF4FC080D180E280F380E985FA85E658B1
:10106000FF4F008111812281338189859A850E94F9
:10107000A603F101EA59FF4F608371838283938352
:10108000A985BA85ED91FC91E259FF4F59814A81BA
:101090003B812C81852F942FA32FB22F80839183A6
:1010A000A283B383A985BA85ED91FC911197E65986
:1010B000FF4F4082518262827382ED91FC91EE5823
:1010C000FF4F5D814E813F812885852F942FA32F6F
:1010D000B22F80839183A283B3832A960FB6F894AC
:1010E000DEBF0FBECDBFDF91CF911F910F91FF905B
:1010F000EF90DF90CF90BF90AF909F908F907F90B8
:101100006F905F904F903F902F9008952F923F9255
:101110004F925F926F927F928F929F92AF92BF9207
:10112000CF92DF92EF92FF920F931F93CF93DF93B3
:10113000CDB7DEB768970FB6F894DEBF0FBECDBF50
:101140008C01FC01A080B180F5018281813009F021
:1011500078C026A137A140A551A562A173A184A1A1
:1011600095A10E942D68262E372E482E592EF50166
:10117000E25BFF4FD501AE5ABF4F2D913D914D918E
:101180005C9160817181828193810E942D68C62E5D
:10119000D72EE82EF92EF501E258FF4FD501AE57B4
:1011A000BF4F2D913D914D915C9160817181828104
:1011B00093810E942D68662E772E882E992EAE017F
:1011C000435F5F4F8CE0FA0111928A95E9F7822D17
:1011D000932DA42DB52D89839A83AB83BC838C2D4D
:1011E0009D2DAE2DBF2D8D839E83AF83B887C62CDA
:1011F000D72CE82CF92CC986DA86EB86FC86F5011B
:1012000080819181BE016F5F7F4F805C9F4F0E9404
:101210001A664D855E856F857889C8010E946F06C4
:1012200049895A896B897C89C8010E947407462DB7
:10123000572D682D792DC8010E945305C8010E94C1
:10124000FC0368960FB6F894DEBF0FBECDBFDF91EA
:10125000CF911F910F91FF90EF90DF90CF90BF90B3
:10126000AF909F908F907F906F905F904F903F9046
:101270002F9008954F925F926F927F928F929F92DC
:10128000AF92BF92CF92DF92EF92FF920F931F9394
:10129000CF93DF93EC0188809980F40182818130C3
:1012A00009F047C0E652FF4FA080B180C280D380D2
:1012B000EAA0FBA00CA11DA1F401EE52FF4F20817A
:1012C000318142815381F40162AD73AD84AD95AD3E
:1012D000E9A5EF93E8A5EF93EFA1EF93EEA1EF93CC
:1012E0000E9471030F900F900F900F902B013C0103
:1012F000FE01E25AFF4FC080D180E280F380FE0100
:10130000E65AFF4F0081118122813381AB01BC017C
:10131000CE010E942C03F40142A653A664A675A632
:10132000E881F981DC01CB01B05886A797A7A0AB73
:10133000B1ABDF91CF911F910F91FF90EF90DF90B4
:10134000CF90BF90AF909F908F907F906F905F9065
:101350004F9008954F925F926F927F928F929F92DB
:10136000AF92BF92CF92DF92EF92FF920F931F93B3
:10137000CF93DF93EC0188809980F40182818130E2
:1013800009F04CC0E252FF4FA080B180C280D380F0
:10139000EAACFBAC0CAD1DADF401E253FF4F208174
:1013A000318142815381F401EA59FF4F608171819B
:1013B00082819381FE01FE96A381AF93A281AF93B8
:1013C000A181AF93E081EF930E9471030F900F9082
:1013D0000F900F902B013C01FE01EA59FF4FC08096
:1013E000D180E280F380FE01EE59FF4F0081118130
:1013F00022813381AB01BC01CE010E942C03F40198
:10140000EA5AFF4F4082518262827382E881F981F9
:10141000E65AFF4F6083718382839383DF91CF917C
:101420001F910F91FF90EF90DF90CF90BF90AF9002
:101430009F908F907F906F905F904F90089522E1E2
:1014400032E0FC01318320830895BF92CF92DF9276
:10145000EF92FF920F931F93CF93DF93EC01052F31
:10146000162FB72EE881F9810680F781E02D642FD1
:1014700019957C01E881F9810680F781E02D602FC4
:10148000CE0119956C01E881F9810680F781E02D84
:10149000612FCE0119958C01E881F9810680F781D1
:1014A000E02D6B2DCE01199596012E293F29202B79
:1014B000312B282B392B822F932FDF91CF911F9126
:1014C0000F91FF90EF90DF90CF90BF900895FF9223
:1014D0000F931F93CF93DF93EC01F62E672FE881D4
:1014E000F9810680F781E02D19958C01E881F98159
:1014F0000680F781E02D6F2DCE0119959C01202BE0
:10150000312B822F932FDF91CF911F910F91FF905D
:1015100008958F929F92AF92BF92CF92DF92EF92F7
:10152000FF920F931F93CF93DF93EC014A015B016E
:10153000E881F981672F7727882799270680F78127
:10154000E02DCE0119957C01E881F981B50188274C
:1015500099270680F781E02DCE0119956C01E8816D
:10156000F98199278B2D7A2D692D0680F781E02D41
:10157000CE0119958C01E881F9810680F781E02D73
:10158000682DCE011995EC28FD280E291F29082B5E
:10159000192B802F912FDF91CF911F910F91FF90E9
:1015A000EF90DF90CF90BF90AF909F908F90089575
:1015B0008F929F92AF92BF92CF92DF92EF92FF9263
:1015C0000F931F93CF93DF93EC014A015B01E881F6
:1015D000F981672F7727882799270680F781E02DE3
:1015E000CE0119957C01E881F981B501992777FD34
:1015F0009095892F0680F781E02DCE0119956C0119
:10160000E881F9819927B7FC9A958B2D7A2D692D60
:101610000680F781E02DCE0119958C01E881F981D2
:101620000680F781E02D682DCE011995EC28FD2864
:101630000E291F29082B192B802F912FDF91CF9175
:101640001F910F91FF90EF90DF90CF90BF90AF90E0
:101650009F908F9008953F924F925F926F927F92EA
:101660008F929F92AF92BF92CF92DF92EF92FF92B2
:101670000F931F93CF93DF93CDB7DEB728970FB6A5
:10168000F894DEBF0FBECDBF98878F83702E322EA9
:10169000432E542E652EE62EF72EDC01ED91FC91A3
:1016A0001197202F312F432D542D652D762D8E2D02
:1016B0009F2D08E30E94BB6D0680F781E02D622F0D
:1016C000CD0119955C01AF81B885ED91FC91119721
:1016D000272D312F432D542D652D762D8E2D9F2DA9
:1016E00000E30E94BB6D0680F781E02D622FCD01E3
:1016F00019954C01AF81B885ED91FC911197272D7B
:10170000312F432D542D652D762D8E2D9F2D08E2E2
:101710000E94BB6D0680F781E02D622FCD011995E7
:101720009A838983AF81B885ED91FC911197272D1C
:10173000312F432D542D652D762D8E2D9F2D00E2BA
:101740000E94BB6D0680F781E02D622FCD011995B7
:101750009C838B83AF81B885ED91FC911197272DE8
:10176000312F432D542D652D762D8E2D9F2D08E183
:101770000E94BB6D0680F781E02D622FCD01199587
:101780009E838D83AF81B885ED91FC911197272DB4
:10179000312F432D542D652D762D8E2D9F2D00E15B
:1017A0000E94BB6D0680F781E02D622FCD01199557
:1017B0006C01AF81B885ED91FC911197272D312FE8
:1017C000432D542D652D762D8E2D9F2D08E00E94E2
:1017D000BB6D0680F781E02D622FCD0119957C014C
:1017E000AF81B885ED91FC9111970680F781E02DCE
:1017F000672DCD011995A828B928E981FA81AE2A6B
:10180000BF2A2B813C81A22AB32AAD81BE81AA2A9C
:10181000BB2ACA28DB28EC28FD28E82AF92A8E2DC5
:101820009F2D28960FB6F894DEBF0FBECDBFDF9177
:10183000CF911F910F91FF90EF90DF90CF90BF90CD
:10184000AF909F908F907F906F905F904F903F9060
:101850000895EF92FF920F931F93CF93DF93EC01C4
:101860007B018885882349F08EE893E00E94F2018D
:1018700081113AC02FEF3FEF3FC08E81882351F096
:1018800017C089859A85009739F00E94A66788233A
:1018900019F02DC000EC10E0F801808188238CF74E
:1018A0002EC02EEF3FEF8091C600F701808324C049
:1018B000813061F020E030E01FC089859A85009773
:1018C00039F00E94A667882319F014C008EC10E0D4
:1018D000F801808188238CF719C02EEF3FEF8091AB
:1018E000CE00F701808308C020E030E005C02FEF74
:1018F0003FEF02C02FEF3FEF822F932F0EC080915A
:10190000C0008C7171F620E030E0CDCF8091C8002E
:101910008C7119F720E030E0E2CFDF91CF911F9179
:101920000F91FF90EF900895FF920F931F93CF9325
:10193000DF93EC01F62E8E81882351F010C089854B
:101940009A85009739F00E94A667882319F01CC079
:1019500000EC10E0F801808185FFF1CF1DC08130DF
:1019600061F020E030E015C089859A85009739F054
:101970000E94A667882319F00AC008EC10E0F8015D
:10198000808185FFF1CF0DC02FEF3FEF02C02FEF19
:101990003FEF822F932F0AC0F092C60020E030E084
:1019A000F8CFF092CE0020E030E0F3CFDF91CF917E
:1019B0001F910F91FF900895CF93DF93EC018F81DA
:1019C000882329F18A819B81AC81BD81880F991F71
:1019D000AA1FBB1F880F991FAA1FBB1F9C01AD0127
:1019E000220F331F441F551F60E074E284EF90E024
:1019F0000E942F6DCA01B9016150710981099109D5
:101A00000E94AB690E94E8690E947F6928C08A81B0
:101A10009B81AC81BD81880F991FAA1FBB1F880FB6
:101A2000991FAA1FBB1F9C01AD01220F331F441F2A
:101A3000551F220F331F441F551F60E074E284EFCF
:101A400090E00E942F6DCA01B901615071098109AE
:101A500091090E94AB690E94E8690E947F698E81AA
:101A600081111DC07093C5006093C400E2ECF0E0EA
:101A70008081866080838F81882331F0E0ECF0E004
:101A800080818260808305C0E0ECF0E080818D7F02
:101A90008083E1ECF0E08081886180831EC081302A
:101AA000E1F47093CD006093CC00EAECF0E080812B
:101AB000866080838F81882331F0E8ECF0E08081BC
:101AC0008260808305C0E8ECF0E080818D7F8083B8
:101AD000E9ECF0E08081886180838885882391F03B
:101AE000F8948E81811106C0E1ECF0E0808180687D
:101AF000808307C0813029F4E9ECF0E080818068C0
:101B000080837894DF91CF91089522E132E0FC0147
:101B1000318320830E9442620895CF93DF93813006
:101B20009105F1F46F3F7F4F41F5CEE8D3E0198284
:101B3000188288EE93E09093910380939003109223
:101B400093031092920310929503109294031092B3
:101B50009703109296030E944762998388830DC071
:101B6000892B59F46F3F7F4F41F480918E03909100
:101B70008F03009711F00E944A62DF91CF91089580
:101B8000FC0181859285009711F00E94C16708953C
:101B9000FC0181859285009711F00E94B467089539
:101BA000CF92DF92EF92FF920F931F93CF93DF9329
:101BB0006C018A01E62EF72EC0E0D0E020E030E094
:101BC000C017D1071CF42115310519F0822F932F6E
:101BD0000EC0D7016D917D01D601ED91FC9106807B
:101BE000F781E02DC60119959C012196E9CFDF917F
:101BF000CF911F910F91FF90EF90DF90CF900895BC
:101C0000FC01868181110DC08091C0008823BCF445
:101C1000A6ECB0E0E0ECF0E08C9180818823E4F366
:101C20000895813061F48091C800882344F4AEECBB
:101C3000B0E0E8ECF0E08C9180818823E4F3089533
:101C40001F920F920FB60F9211240BB60F922F9383
:101C50003F934F935F936F937F938F939F93AF9334
:101C6000BF93EF93FF936091C6008EE893E00E94CC
:101C7000D001FF91EF91BF91AF919F918F917F9193
:101C80006F915F914F913F912F910F900BBE0F90ED
:101C90000FBE0F901F9018956FEF7FEF81E090E0DF
:101CA0000E948D0D08956FEF7FEF80E090E00E941D
:101CB0008D0D089587E084B9999A289AA19A8CB5D8
:101CC00081658CBD0895FC018081813011F42898D4
:101CD0000895823009F4A1980895FC018081813033
:101CE00011F4289A0895823009F4A19A08951EBC2F
:101CF0000DB407FEFDCF8EB508951F93CF93DF93EC
:101D0000EC010E94770E182FCE010E94770E20E082
:101D1000282B822F912FDF91CF911F9108951F9330
:101D2000CF93DF93EC010E94770E182FCE010E9413
:101D3000770E20E0282B822F912FDF91CF911F91DA
:101D400008956EBD0DB407FEFDCF08951F93CF9388
:101D5000DF93EC01162F0E94630E612FCE010E94CB
:101D6000A10ECE010E946D0EDF91CF911F910895BB
:101D70000F931F93CF93DF93EC01062F142F0E9434
:101D8000630E602FCE010E94A10E612FCE010E9432
:101D9000A10ECE010E946D0EDF91CF911F910F9188
:101DA0000895509A519AE9EBF0E080818E7F80830C
:101DB00080818D7F80838CE08093B800089584EAD1
:101DC0008093BC0084E690E0ECEBF0E020812223DD
:101DD000BCF411C02091B900287F30E028303105D3
:101DE00031F081E02031310571F080E0089581E02B
:101DF000089580E008958091BC008823D4F7EACF4D
:101E00000197C9F3E3CF089584E98093BC00089556
:101E10000E94040FECEBF0E080818B7F80830895BB
:101E20006093BB0084E88093BC0084E690E0ECEB18
:101E3000F0E020812223CCF413C0442359F02091F8
:101E4000B900287F30E050E081E02417350719F40D
:101E500080E001C080E091E08927089580E0089546
:101E60008091BC008823D4F7E8CF0197C9F3E1CF74
:101E7000662321F084EC8093BC0003C084E8809347
:101E8000BC0084E690E0ECEBF0E02081222384F4B7
:101E90000AC0FA01108280E008958091BB00FA0127
:101EA000808381E008958091BC00882394F7F5CF6A
:101EB0000197C9F3EACF41B121E030E0FC01008491
:101EC00002C0220F331F0A94E2F7242B21B9089590
:101ED000FC018781882379F042B121E030E0C9011B
:101EE000008402C0880F991F0A94E2F7809584232A
:101EF00082B91782089542B121E030E0C90100841F
:101F000002C0880F991F0A94E2F7842B82B981E0FE
:101F10008783089526E733E0FC0131832083089509
:101F200026E733E0FC01318320830E94426208955A
:101F3000FC01118210821282138214821582168291
:101F400017821086118612861386148615861686C9
:101F50001786108A118A128A138A148A158A168A99
:101F6000178A108E118E128E138E148E158E168E69
:101F7000178E10A211A212A213A214A215A216A2C9
:101F800017A210A611A612A613A614A615A616A689
:101F900017A610AA11AA12AA13AA14AA15AA16AA59
:101FA00017AA10AE11AE12AE13AE14AE15AEDC0110
:101FB000DE961D921D921D921C921397DC01AE5B62
:101FC000BF4F1D921D921D921C921397DC01AA5BBC
:101FD000BF4F1D921D921D921C921397DC01A65BB0
:101FE000BF4F1D921D921D921C921397DC01A25BA4
:101FF000BF4F1D921D921D921C921397DC01AE5A89
:10200000BF4F1D921D921D921C921397DC01AA5A7C
:10201000BF4F1D921D921D921C921397DC01A65A70
:10202000BF4F1D921D921D921C921397DC01A25A64
:10203000BF4F1D921D921D921C921397DC01AE5949
:10204000BF4F1D921D921D921C921397DC01AA593D
:10205000BF4F1D921D921D921C921397DC01A65931
:10206000BF4F1D921D921D921C921397DC01A25925
:10207000BF4F1D921D921D921C921397DC01AE580A
:10208000BF4F1D921D921D921C921397DC01AA58FE
:10209000BF4F1D921D921D921C921397DC01A658F2
:1020A000BF4F1D921D921D921C921397DC01A258E6
:1020B000BF4F1D921D921D921C921397DC01AE57CB
:1020C000BF4F1D921D921D921C921397DC01AA57BF
:1020D000BF4F1D921D921D921C921397DC01A657B3
:1020E000BF4F1D921D921D921C921397DC01A257A7
:1020F000BF4F1D921D921D921C921397DC01AE568C
:10210000BF4F1D921D921D921C921397DC01AA567F
:10211000BF4F1D921D921D921C921397DC01A65673
:10212000BF4F1D921D921D921C921397DC01A25667
:10213000BF4F1D921D921D921C921397DC01AE554C
:10214000BF4F1D921D921D921C921397DC01AA5540
:10215000BF4F1D921D921D921C921397DC01A65534
:10216000BF4F1D921D921D921C921397DC01A25528
:10217000BF4F1D921D921D921C921397DC01AE540D
:10218000BF4F1D921D921D921C921397DC01AA5401
:10219000BF4F1D921D921D921C921397DC01A654F5
:1021A000BF4F1D921D921D921C921397DC01A254E9
:1021B000BF4F1D921D921D921C921397DC01AE53CE
:1021C000BF4F1D921D921D921C921397DC01AA53C2
:1021D000BF4F1D921D921D921C921397DC01A253BA
:1021E000BF4F1D921D921D921C921397DC01AE529F
:1021F000BF4F1D921D921D921C921397DC01AA5293
:10220000BF4F1D921D921D921C921397DC01A65286
:10221000BF4F1D921D921D921C921397DC01A2527A
:10222000BF4F1D921D921D921C921397DC01AE515F
:10223000BF4F1D921D921D921C921397DC01AA5153
:10224000BF4F1D921D921D921C921397DC01A65147
:10225000BF4F1D921D921D921C921397DC01A2513B
:10226000BF4F1D921D921D921C921397DC01AE5020
:10227000BF4F1D921D921D921C921397DC01AA5014
:10228000BF4F1D921D921D921C921397DC01A65008
:10229000BF4F1D921D921D921C921397DC01A65FE9
:1022A000BE4F1D921D921D921C921397DC01A25FDE
:1022B000BE4F1D921D921D921C921397DC01AE5EC3
:1022C000BE4F1D921D921D921C921397DC01AA5EB7
:1022D000BE4F1D921D921D921C921397DC01A65EAB
:1022E000BE4F1D921D921D921C921397DC01A25E9F
:1022F000BE4F1D921D921D921C921397DC01AE5D84
:10230000BE4F1D921D921D921C921397DC01AA5D77
:10231000BE4F1D921D921D921C921397DC01A65D6B
:10232000BE4F1D921D921D921C921397DC01A25D5F
:10233000BE4F1D921D921D921C921397DC01AE5C44
:10234000BE4F1D921D921D921C921397DC01AA5C38
:10235000BE4F1D921D921D921C921397DC01A65C2C
:10236000BE4F1D921D921D921C921397E25CFE4F70
:10237000108211821282138208950F931F93CF93BC
:10238000DF93DC01FB014CE55FE862EC7FE316962E
:102390004D935D936D937C93199752961D921D9268
:1023A0001D921C925597EC01CE57DF4F4AE959E92F
:1023B00064E674EC488359836A837B83EC01CE56D0
:1023C000DF4F188219821A821B8296961D921D92E7
:1023D0001D921C929997D6961D921D921D921C9249
:1023E000D997EC01CE5ADF4F188219821A821B82CC
:1023F000AE59BF4F1D921D921D921C92139786EDF0
:1024000095EEA4E9B8E3828F938FA48FB58F128ADB
:10241000138A148A158A8FE692E1A3E8B9E3868BC2
:10242000978BA08FB18F168E178E10A211A286E9FE
:1024300093E4ABE8BEE382A393A3A4A3B5A38EEF7A
:1024400094EDA8E7BFE386A397A3A0A7B1A789E46B
:1024500093E1AFEEB8E382AB93ABA4ABB5AB12A6FE
:1024600013A614A615A689E394EBA8E4BDE386A7FA
:1024700097A7A0ABB1AB16AA17AA10AE11AE86EF04
:1024800098E2ACEDBEE382AF93AFA4AFB5AFEF017E
:10249000EE9682E490E6A5E6BCE388839983AA835E
:1024A000BB83EF01C65BDF4F86EA9BE9A4ECBAE38E
:1024B00088839983AA83BB83DF01AE5BBF4F1D92E4
:1024C0001D921D921C921397EF01CA5BDF4F8EEA9B
:1024D00097E4A1E6BEE388839983AA83BB83EF01D7
:1024E000C25BDF4F81ED92E2ABE2BFE38883998369
:1024F000AA83BB8381E398E0ACE4BFE38287938740
:10250000A487B58780EF97EAA6E8BEE3828393832A
:10251000A483B58385EC90E2A0E3BEE38683978332
:10252000A087B1878EEA97E4A1EEBDE386879787FF
:10253000A08BB18BEF01CE57DF4F8DEC9CECACE460
:10254000BDE388839983AA83BB83DF01AA57BF4F6A
:1025500040E050E060E87FE34D935D936D937C93A2
:102560001397EF01C657DF4F80E090E0A0E8BFEB84
:1025700088839983AA83BB83EF01CE5ADF4F0FE88C
:1025800012EC25E73FEB088319832A833B83EF0195
:10259000CA5ADF4F0FE812EC25E73FE3088319839F
:1025A0002A833B83EF01C25ADF4F488359836A83F2
:1025B0007B83EF01C65ADF4F88839983AA83BB834D
:1025C000EF01CA59DF4F488359836A837B83EF0148
:1025D000CE59DF4F88839983AA83BB83EF01C25909
:1025E000DF4F80E090E0A0E0BFE388839983AA8377
:1025F000BB83DF01A659BF4F1D921D921D921C92F5
:102600001397EF01C258DF4F82EC98EBA2EBBDE3CA
:1026100088839983AA83BB83EF01C658DF4F82EC7E
:1026200098EBA2EBBDEB88839983AA83BB83EF0170
:10263000CA58DF4F86E996E5A8E6BEE3888399830A
:10264000AA83BB83EE58FF4F86E996E5A8E6BEEB6A
:1026500080839183A283B383DF91CF911F910F91E8
:102660000895CF93DF93CDB7DEB76C970FB6F8948C
:10267000DEBF0FBECDBF0E949C630E94C5419C8FF0
:102680008B8F8EE491E00E943F622C010E94980F94
:1026900081E0D20113968C93139714968C93149720
:1026A00015968C938EE890E00E943F623C01B20147
:1026B0000E941502B301C2010E94BD11F201858181
:1026C000811134C08AE090E00E943F628C0180E07A
:1026D00094E2A4EFB0E0F80180839183A283B383F6
:1026E00080E094E09583848382E390E097838683FF
:1026F00085E090E0918780878BE090E00E943F62C8
:102700001C0182E192E0D1018D939C9380E990EDD0
:10271000A3E0B0E0F10182839383A483B5831682A2
:10272000178281E080871287018738C08130A1F548
:102730008AE090E00E943F628C0180E094E2A4EF86
:10274000B0E0F80180839183A283B38380E094E0BA
:102750009583848388EC90E09783868384E190E07E
:10276000918780878BE090E00E943F621C0182E1AC
:1027700092E0D1018D939C9380E092ECA1E0B0E0D7
:10278000F10182839383A483B583168281E08783DA
:1027900080871287018702C0212C312CD101ED9155
:1027A000FC910480F581E02DC10119958BE090E04A
:1027B0000E943F629A83898382E192E0E981FA81F3
:1027C0009183808380E096E9A0E0B0E082839383E8
:1027D000A483B58381E08683878310861286118661
:1027E000CF010E94DC0C81E090E00E943F629E8B52
:1027F0008D8B0E94D10E82E090E00E943F625C01CE
:10280000DC012D923C92F2018381813031F58CE024
:1028100090E00E943F629E878D870F2EF4E6EF2E98
:10282000F12CF02D01E010E022E0A201B5010E94A0
:1028300017628EE090E00E943F6298878F830F2E90
:10284000F8ECCF2ED12CF02DE12CF12C02E09301ED
:10285000A201B5010E94825D54C0811126C08CE0A6
:1028600090E00E943F629E878D870F2EFAE0EF2E48
:10287000F12CF02D01E010E020E0A201B5010E9452
:1028800017628EE090E00E943F6298878F830F2E40
:10289000FAE0CF2ED12CF02DE12CF12C00E09301A9
:1028A000A201B5010E94825D2CC0823031F58CE01E
:1028B00090E00E943F629E878D870F2EFAE0EF2EF8
:1028C000F12CF02D01E010E021E0A201B5010E9401
:1028D00017628EE090E00E943F6298878F830F2EF0
:1028E000FAE0CF2ED12CF02DE12CF12C01E0930158
:1028F000A201B5010E94825D04C01E861D86188655
:102900001F828AE090E00E943F62988B8F8748EC9C
:1029100050E062E070E00E94C75D8AE292E0AF851D
:10292000B88911969C938E9317961C92179783E003
:1029300090E019969C938E93189789E090E00E94FE
:102940003F62988F8F8B2AE030E043E050E0B30184
:102950000E94465489E090E00E943F629A8F898FDE
:102960002AE030E044E050E0B3010E941D54F2013F
:10297000848181110FC00F2EFDECCF2EFCECDF2ED9
:10298000FCE4EF2EFDE3FF2EF02DCB82DC82ED8206
:10299000FE8212C00F2EF5E0CF2EFFE2DF2EF7E20F
:1029A000EF2EFCE3FF2EF02D8AE097EDA3EABCE3C7
:1029B0008B839C83AD83BE8380E790E00E943F625F
:1029C0005C01DC01CD92DD92ED92FC921397FC014B
:1029D000148215821682178218961D921D921D92DE
:1029E0001C921B97148615861686178650961D9284
:1029F0001D921D921C925397148A158A168A178A63
:102A000058961D921D921D921C925B97148E158EE6
:102A1000168E178E90961D921D921D921C92939762
:102A200014A215A216A217A298961D921D921D928D
:102A30001C929B9714A615A616A617A6D0961D92B3
:102A40001D921D921C92D39714AA15AA16AA17AA12
:102A5000D8961D921D921D921C92DB9714AE15AE56
:102A600016AE17AEE05CFF4F80E090E0A0E8BFE359
:102A700080839183A283B383F501EC5BFF4F1082C7
:102A8000118212821382F501E85BFF4F10821182DE
:102A900012821382F501E45BFF4F108211821282D1
:102AA0001382F501E05BFF4F80839183A283B383A0
:102AB000F501EC5AFF4F1082118212821382F50148
:102AC000E85AFF4F1082118212821382F501E45AF4
:102AD000FF4F1082118212821382F501E05AFF4FDC
:102AE00080839183A283B383D201AD92BC928FE0A5
:102AF00090E00E943F629A8B898B20E030E048E4AE
:102B000053E4C701B6010E94906B0E947A696B0181
:102B10000F2EF5E0EF2EF12CF02D820195014B8167
:102B20005C816D817E8189899A890E94D0538FE072
:102B300090E00E943F629C8B8B8B20E030E048E469
:102B400053E46B817C818D819E810E94906B0E94F9
:102B50007A696B0195014B815C816D817E818B89E6
:102B60009C890E944C5681E090E00E943F628C015B
:102B700021E0FC0120830E945A0E81E090E00E9437
:102B80003F629C838B8382E0AB81BC818C93CD01BF
:102B90000E945A0E86E590E00E943F625C01FC01B3
:102BA00015A304A317A216A211A610A613A612A677
:102BB00015A614A617A616A611AA10AA12AA13AA39
:102BC00014AA15AA16AA17AA10AE11AE12AE13AE09
:102BD00014AE15AEFE961082118212821382FC0191
:102BE000EE5BFF4F1082118212821382FC01EA5BBE
:102BF000FF4F1082118212821382E82FFB2D84E294
:102C0000DF011D928A95E9F7CA2CDB2C1BEDE12E22
:102C10001FE0F12E09EC1FE320E030E0A9016BED8D
:102C20007FE089E490E40E94DA64F501E65BFF4FFF
:102C30001082118212821382F501E25BFF4F108233
:102C4000118212821382F501EE5AFF4F1082118217
:102C500012821382C5010E94224D8BE290E00E94F5
:102C60003F624C0189819A81F401918380831282B1
:102C7000138214821582168217821086118612869C
:102C800013861486158616861786108A118A128A6C
:102C9000138A148A158A168A178A108E118E128E3C
:102CA000138E148E158E168E178E10A211A212A2DC
:102CB00013A214A215A216A217A210A611A621E013
:102CC00022A7C4010E94E24A82E490E00E943F628F
:102CD0007C01EB81FC81DC011196FC93EE93129652
:102CE0001D921D921D921C921597FC01168217824F
:102CF000108611861A961D921D921D921C921D9788
:102D000016861786108A118A128A138A148A158ADF
:102D1000168A178A108E118E128E138E148E158EAF
:102D2000168E178E10A211A212A213A214A215A21F
:102D300016A217A210A611A612A613A614A615A6CF
:102D400016A617A610AA11AA12AA13AA14AA15AA9F
:102D500016AA17AA10AE11AEFA96DA961C92118234
:102D60001282138214821582168217820E940E43E9
:102D700088E390E00E943F629C878B876D897E8903
:102D80000E94784E8B859C850E943A508CE090E0A2
:102D90000E943F629A83898304E110E027E030E0DB
:102DA000A401B2010E947F578BE090E00E943F6235
:102DB0009C838B8302E010E028E030E0A501B201A3
:102DC0000E9418588DE090E00E943F626C0104E080
:102DD00010E029E030E0A701B2010E94DA568BE052
:102DE00090E00E943F625C012AE030E04B855C8508
:102DF000B2010E9491580E94971D9C878B87FC010D
:102E0000E95AFF4F518240828BE090E00E943F627E
:102E10007C012BE030E04B855C85B2010E940259B9
:102E20006F8578898B8D9C8D0E94EB4169817A81B9
:102E30008B8D9C8D0E94EB416B817C818B8D9C8D59
:102E40000E94EB41B6018B8D9C8D0E94EB41B50138
:102E50008B8D9C8D0E94EB416F8178858B8D9C8D35
:102E60000E94EB416D857E858B8D9C8D0E94EB4190
:102E70006F89788D8B8D9C8D0E94EB41698D7A8D49
:102E80008B8D9C8D0E94EB4169897A898B8D9C8DFD
:102E90000E94EB416B897C898B8D9C8D0E94EB415C
:102EA000B7018B8D9C8D0E94EB41F20112820D9A2D
:102EB00015988481813009F0FFC1EB8CFC8C80C0B7
:102EC000C4010E948D4AC4010E94534AC4010E9459
:102ED00090498C01FFEF24E38CE0F15020408040CA
:102EE000E1F700C00000D101ED91FC910680F7816F
:102EF000E02D64E5C1011995D101ED91FC91A80186
:102F0000662757FD6095762F0484F585E02DC10175
:102F10001995D101ED91FC91D40116964D915D91D9
:102F20006D917C9119970484F585E02DC101199567
:102F3000D101ED91FC91D40156964D915D916D9129
:102F40007C9159970284F385E02DC1011995D10137
:102F5000ED91FC91D4019A966C910084F185E02D5D
:102F600070E0C1011995D101ED91FC91D4011A963F
:102F70004D915D916D917C911D970484F585E02DB7
:102F8000C1011995D101ED91FC91D4011E964D918D
:102F90005D916D917C9151970484F585E02DC1017F
:102FA0001995D101ED91FC91D40152964D915D910D
:102FB0006D917C9155970484F585E02DC10119959B
:102FC000C4010E947C4B882309F47ACFF4018689DE
:102FD0009789A08DB18D81329E44A105B10568F01D
:102FE0006FCFC4010E948D4A2FEF84E39CE02150F3
:102FF00080409040E1F700C00000F401828193819D
:10300000A481B581892B8A2B8B2B59F386819781DB
:10301000A085B185892B8A2B8B2B19F3FC8EEB8E27
:10302000820102541F4F62857385848595850E94B5
:10303000AD69F801608371838283938382010E53AB
:103040001F4FD4011E966D917D918D919C9151974A
:103050000E94AD69F801608371838283938382014A
:103060000A531F4FD40152966D917D918D919C9181
:1030700055970E94AD69F8016083718382839383C1
:103080008201025E1E4FF201EA55FF4F208131811D
:1030900042815381F201EE55FF4F6081718182813F
:1030A00093810E944F62FFEF29E688E1F1502040B2
:1030B0008040E1F700C000000F2EF5E02F2E312CEC
:1030C000F02D03E010E0EB8CFC8C19C0D601ED91E3
:1030D000FC910190F081E02DC6011995EFE3FCE928
:1030E0003197F1F700C000008F819885019798878C
:1030F0008F83892B59F791E0291A310819F0188725
:103100000F83E4CFFC8EEB8EF201EA5EFE4F20E0EF
:1031100030E54DE754E460817181828193810E94A2
:1031200012690E94456B2BE230E348EA50E40E94AA
:1031300012699B01AC0160E070E080E291E40E94C2
:10314000F36B820106531F4F20E030E040E85FE35D
:103150000E942D6824ED34EB46EE56EB0E94126976
:1031600028E439EF41E550E40E94126920E030E0A4
:1031700048EC52EC0E94906BD8016D937D938D9337
:103180009C93139720900A0230900B0240900C02FF
:1031900050900D028091060290910702A0910802C2
:1031A000B09109028F839887A987BA878DEC9CEC30
:1031B000ACECBDE380930A0290930B02A0930C0247
:1031C000B0930D028093060290930702A093080229
:1031D000B09309020F2EF5E0EF2EF12CF02D0B8DA0
:1031E0001C8DD501ED91FC910190F081E02DC50180
:1031F0001995A981BA81ED91FC9111970190F08107
:10320000E02DCD011995E3E0F0E0FE87ED87D601D2
:10321000ED91FC910190F081E02DC6011995EFE34D
:10322000FCE93197F1F700C000008D859E8501977C
:103230009E878D87892B59F7AB81BC81ED91FC91DD
:1032400011970190F081E02DCD011995A989BA89D6
:10325000ED91FC9111970190F081E02DCD01199530
:10326000AB89BC89ED91FC9111970190F081E02D23
:10327000CD011995EFE3FCE93197F1F700C00000AB
:10328000F1E0EF1AF10809F0ACCF1C8F0B8F209200
:103290000A0230920B0240920C0250920D028F8172
:1032A0009885A985BA858093060290930702A0931A
:1032B0000802B0930902F8C082E090E00E943F62E9
:1032C0005C01DC012D923C928EE090E00E943F6216
:1032D0001C010F2EFAE0CF2ED12CF02DE12CF12C79
:1032E00000E09301A201B5010E94825DF201EE555A
:1032F000FF4FFA83E98382010A551F4FD101ED91F7
:10330000FC910190F081E02DC1011995E981FA81CC
:10331000C080D180E280F38020E030E0A901C701C5
:10332000B6010E940B69882361F020E030E0A9011A
:10333000D8016D917D918D919C910E940B698111B5
:1033400025C0BFEFE1EEF4E0B150E040F040E1F71E
:1033500000C00000D3CFD101ED91FC910480F58134
:10336000E02DC1011995A114B10409F49DC0C50156
:103370000E94426299C0C8010E944142F80180AD9A
:103380008823C9F3C3010E94EB03F5CF82010254E5
:103390001F4FF201E250FF4F608171818281938162
:1033A0000E94AD69D8016D937D938D939C93139783
:1033B00082010E531F4FF201EE5FFE4F608171815B
:1033C000828193810E94AD69F80160837183828359
:1033D000938382010A531F4FF201EA5FFE4F60811F
:1033E0007181828193810E94AD69D8016D937D9333
:1033F0008D939C9313978201025E1E4FF201EA5552
:10340000FF4F2081318142815381C701B6010E9463
:103410004F62F201EA5EFE4F20E030E54DE754E4F2
:1034200060817181828193810E9412690E94456B43
:103430002BE230E348EA50E40E9412699B01AC01A0
:1034400060E070E080E291E40E94F36BBAEC4B0E16
:10345000511C20E030E040E85FE30E942D6824ED3D
:1034600034EB46EE56EB0E94126928E439EF41E551
:1034700050E40E94126920E030E048EC52EC0E94D7
:10348000906BF2016083718382839383FFEF21EE5F
:1034900084E0F15020408040E1F700C0000021149A
:1034A000310409F058CF5FCF159AC4010E944E4BEA
:1034B0008B8D9C8D0E9405428B8D9C8D0E9482423B
:1034C0008B859C850E94D01E8B859C850E94312017
:1034D0000B8D1C8D50CF0F931F93CF93DF93D9018A
:1034E000E8011416150674F4E62FF72F4E0F5F1F30
:1034F00091918C91890F8C939881890F8883E4171F
:10350000F507B1F7DF91CF911F910F9108952F9299
:103510003F924F925F926F927F928F929F92AF9263
:10352000BF92CF92DF92EF92FF920F931F93CF93B0
:10353000DF9300D01F92CDB7DEB77C018B014DB673
:103540005EB66115710509F473C04B829EB79C830A
:10355000DB01ED91FC910480F581E02DCB01199503
:103560005C01C8010E9477264C016C01B5E0CB0ECE
:10357000D11C1C01E4E02E0E311C8DB79EB78C19B6
:103580009D090FB6F8949EBF0FBE8DBF6DB67EB677
:10359000A1E0B0E06A0E7B1E85EBEDB7FEB781833C
:1035A00082E6D30111968C93119787ED12968C9336
:1035B0002DB73EB72C5F3F4F482D592D6A2D7B2DDF
:1035C000822F932F0E94226F1A8219828E010F5F21
:1035D0001F4F9E012E5F3F4FA401B501C7010E94FE
:1035E0006B1AF301E80DF91D8A818383F301E20D63
:1035F000F31D89818083F701808191810E94C00D34
:1036000000E010E0812C912C0C151D05A4F4811410
:103610009104D1F010C0C5010E944A623B812C8107
:10362000832F922F0FB6F8949EBF0FBE8DBF1DC083
:10363000812C912C1AC0D7018D919C910E94C80DAC
:10364000A114B10441F7EACFF70180819181D30140
:103650006D913D01DC01ED91FC910680F781E02D3B
:1036600019954C010F5F1F4FCFCF882D992D0FB6A5
:10367000F8945EBE0FBE4DBE0F900F900F900F904E
:10368000DF91CF911F910F91FF90EF90DF90CF903E
:10369000BF90AF909F908F907F906F905F904F9072
:1036A0003F902F9008952F923F924F925F926F928A
:1036B0007F928F929F92AF92BF92CF92DF92EF92C2
:1036C000FF920F931F93CF93DF93CDB7DEB7289769
:1036D0000FB6F894DEBF0FBECDBF6C014B01ADB687
:1036E000BEB61E82DC018D919C910E94C00D00E04F
:1036F000EDC0123621F48E81873D09F4FAC0BFEF88
:10370000EB16FB0609F0E1C0DCC01D82F6018081EA
:103710009181DC01ED91FC910288F389E02DBE01DD
:103720006B5F7F4F19957C01009709F0CAC08D81AE
:10373000843009F4E3C020F4823009F0B9C00CC031
:10374000863009F4E1C0873009F0B2C00F2EF1E6EF
:103750006F2E712CF02D06C00F2EFDE26F2E7724F8
:103760007394F02DBDB7BF83EEB7E8872DB73EB792
:10377000261937090FB6F8943EBF0FBE2DBF2DB6E0
:103780003EB6A1E0B0E02A0E3B1E2101EDB7FEB728
:10379000818301E010E0061517050CF0BBC0E114B1
:1037A000F10409F4BBC07AC01C821B821A82198200
:1037B000D6018D919C91DC01ED91FC910288F389F9
:1037C000E02DBE016C5F7F4F19957C01009709F0D9
:1037D00065C0F60180819181DC01ED91FC91028848
:1037E000F389E02DBE016D5F7F4F19957C01009735
:1037F00009F054C08E010F5F1F4F9E012E5F3F4F97
:10380000A301622D732DC6010E946B1A9A818C81CF
:10381000981330C099818B81981333C08D81843087
:1038200089F018F48230A1F505C0863099F0873010
:1038300079F518C0822D932D0E94F134F401918303
:1038400080832CC0822D932D0E94CE27D4018D938E
:103850009C9324C0822D932D0E94492BF4019183C7
:1038600080831CC0822D932D0E94C925D4018D9385
:103870009C9314C00F2EFCEFEF2EFF24FA94F02D32
:103880000DC00F2EFCEFEF2EFF24FA94F02D06C092
:103890000F2EFDEFEF2EFF24FA94F02D3F812885A7
:1038A000832F922F0FB6F8949EBF0FBE8DBF06C018
:1038B0000F2EFDEFEF2EFF24FA94F02DE114F1040A
:1038C000F1F1F401118210823AC0012F1E81F6013C
:1038D00080819181DC01ED91FC910288F389E02DDA
:1038E000BE016A5F7F4F19957C01053B09F007CF48
:1038F00000CFE114F10409F408CFE3CF0F2EF1E477
:103900006F2E712CF02D2ECF0F2EF9E76F2E712C0C
:10391000F02D28CFE114F10409F646CFF60180819D
:103920009181DC01ED91FC91B201600F711F028861
:10393000F389E02D19957C010F5F1F4F2CCFD60125
:103940008D919C910E94C80D8E2D9F2D0FB6F894DD
:10395000BEBE0FBEADBE28960FB6F894DEBF0FBE3A
:10396000CDBFDF91CF911F910F91FF90EF90DF902E
:10397000CF90BF90AF909F908F907F906F905F900F
:103980004F903F902F900895CF92DF92EF92FF9249
:103990000F931F93CF93DF93CB01BA0120E030E068
:1039A00040E85FE30E942E6820E030E04AEF53ECED
:1039B0000E94906B20E030E744E956E40E942E68B4
:1039C000062F172FD82FC92FC62ED72EE82EF92E47
:1039D00020E030E744E956E40E943A6B18166CF098
:1039E00020E030EA4CE856E4602F712F8D2F9C2F99
:1039F0000E940B6988237CF01BC0C12C0F2EF0E7BE
:103A0000DF2EF02D0F2EF4E9EF2EF02D0F2EF6E421
:103A1000FF2EF02D0DC0C12C0F2EF0EADF2EF02D61
:103A20000F2EFCE8EF2EF02D0F2EF6E4FF2EF02DDA
:103A30006C2D7D2D8E2D9F2DDF91CF911F910F919C
:103A4000FF90EF90DF90CF900895CF92DF92EF92AA
:103A5000FF920F931F93CF93DF93CB01BA01605D69
:103A60007740810991090E94AD692FE632E143E870
:103A70005AE30E94906B20E030E040E85FE30E9450
:103A80002D68062F172FD82FC92FC62ED72EE82E18
:103A9000F92E20E030E040E85FE30E943A6B181610
:103AA0006CF020E030E040E85FEB602F712F8D2F4D
:103AB0009C2F0E940B698823A4F40AC0C12CD12C2E
:103AC0006894EE24E7F80F2EFFE3FF2EF02D09C0D7
:103AD000C12CD12C6894EE24E7F80F2EFFEBFF2EBB
:103AE000F02D6C2D7D2D8E2D9F2DDF91CF911F916F
:103AF0000F91FF90EF90DF90CF9008950F931F9359
:103B000080E49CE9A0E0B0E08C019D01041B150B52
:103B1000260B370BC901B8010E94AD6920E030E0E7
:103B200040E05FE30E94906B1F910F910895809198
:103B3000980390919903892B09F057C089E590E08B
:103B40000E943F62FC01E95AFF4F118210829C01E2
:103B50002F5F3F4F40E2E22FF32FDF01242F1D9212
:103B60002A95E9F79C012F5D3F4FE22FF32FDF01EC
:103B70001D924A95E9F7FC01EF5BFF4F108211821D
:103B800012821382FC01EB5BFF4F11821082FC0159
:103B9000E95BFF4F11821082FC01E75BFF4F11824E
:103BA0001082FC01E55BFF4F11821082FC01E35B98
:103BB000FF4F11821082FC01E15BFF4F11821082E6
:103BC000FC01EF5AFF4F11821082FC01ED5AFF4FAA
:103BD00011821082FC01EB5AFF4F11821082FC010E
:103BE0001082909399038093980380919803909109
:103BF000990308951F920F920FB60F9211240BB6DE
:103C00000F92CF92DF92EF92FF920F931F932F9319
:103C10003F934F935F936F937F938F939F93AF9354
:103C2000BF93CF93DF93EF93FF930E94971DEC0117
:103C3000409126015091270160E070E0FC01EF5BAC
:103C4000FF4F0081118122813381401751076207A4
:103C500073075CF4DB01CA01805C9346AF4FBF4F32
:103C6000801B910BA20BB30B06C0DB01CA01801BAA
:103C7000910BA20BB30BFE01EF5BFF4F408351830F
:103C80006283738381342FE19207A105B1052CF083
:103C9000CB5BDF4F1982188268C0AC01BD01475C65
:103CA000574061097109433E57406105710508F0AD
:103CB00055C0FE01EB5BFF4F20813181211531059D
:103CC00069F440ED57E060E070E049835A836B830C
:103CD0007C838D839E83AF83B88740C028303105B5
:103CE000ECF5FE01E95AFF4F00811181F901EE0F59
:103CF000FF1FEE0FFF1FEC0FFD1F81839283A38335
:103D0000B4832730310551F5498D5A8D6B8D7C8DEB
:103D1000CE010E94251D6B017C0123E333E343E3C5
:103D20005FE30E940B6918161CF0F801128203C0B1
:103D300081E0F8018283F801E65EFE4FC082D18205
:103D4000E282F3828881811109C0DE019196FE0131
:103D5000319680E201900D928A95E1F7CB5BDF4FBF
:103D600088819981019699838883FF91EF91DF91F2
:103D7000CF91BF91AF919F918F917F916F915F9103
:103D80004F913F912F911F910F91FF90EF90DF90F6
:103D9000CF900F900BBE0F900FBE0F901F901895F5
:103DA000CF93DF93EC0184B1806684B9E1E0F1E068
:103DB0008081886380838DB188638DB980E890E0CD
:103DC000FC01208122602083E1E8F0E02081206175
:103DD0002083A0E9B0E02C9122602C93E1E9F0E08F
:103DE00020812061208360EA70E0FB012081226055
:103DF000208321EA30E0F901408140614083FC01E9
:103E00002081206F20838C918C6F8C93FB018081AB
:103E10008C6F808340E050E060E87FEBCE010E9431
:103E2000C41C0E947F6970938B0060938A0040E0FD
:103E300050E0BA01CE010E94C41C0E947F697093B9
:103E400089006093880070939D0060939C0070933C
:103E50009B0060939A007093990060939800709310
:103E6000AD006093AC007093AB006093AA007093B8
:103E7000A9006093A80080E29EE49093870080935D
:103E8000860090939700809396009093A70080936C
:103E9000A600EAE0F1E080818D7F808383E080935B
:103EA0002001E1E2F1E088E1808380818064808309
:103EB00080E49CE990932901809328017894E3E7BA
:103EC000F0E0808180628083DF91CF9108952F920E
:103ED0003F924F925F926F927F928F929F92AF929A
:103EE000BF92CF92DF92EF92FF920F931F93CF93E7
:103EF000DF93CDB7DEB72C970FB6F894DEBF0FBEB9
:103F0000CDBF4D835E836F83788728013901BA86E0
:103F1000A9869C868B8620E030E04CE053E4C70104
:103F2000B6010E94906B20E038E840E956E40E9418
:103F30002E68E62EF72E082F192F862F9F2DA02FE3
:103F4000B12F89839A83AB83BC8320E030E04CE2BD
:103F500052E4C301B2010E94906B462E572E682E88
:103F6000792E762F272F352D462D572D642D752D23
:103F7000862D972D0E942E68A62EB72EC82ED92EDC
:103F800020E030E041E153E46D817E818F819885AE
:103F90000E94906B262E372E882E992E2E2D3F2D87
:103FA000402F512F6A2D7B2D8C2D9D2D0E942D6829
:103FB000222D332D482D592D0E942D68EAA1FBA1F9
:103FC00060837183828393832A2D3B2D4C2D5D2D3D
:103FD0006E2D7F2D802F912F0E942D68222D332D45
:103FE000482D592D0E942D68E985FA8560837183DB
:103FF00082839383C980DA80EB80FC80F7FAF094A7
:10400000F7F8F09420E030E040E850E4642D752D9E
:10401000862D972D0E94906B9B01AC01C701B601C4
:104020000E942D68EB85FC85608371838283938376
:104030002C960FB6F894DEBF0FBECDBFDF91CF91A7
:104040001F910F91FF90EF90DF90CF90BF90AF90B6
:104050009F908F907F906F905F904F903F902F90A8
:1040600008956F927F928F929F92AF92BF92CF925C
:10407000DF92EF92FF920F931F93CF93DF93CDB711
:10408000DEB72C970FB6F894DEBF0FBECDBF3C0154
:10409000E1E2F1E0808182608083F301FD962FEF01
:1040A00083ED90E3215080409040E1F700C0000094
:1040B00080819181A281B381892B8A2B8B2B79F30B
:1040C00019861A861B861C861D821E821F821886F0
:1040D00019821A821B821C82CE0109969F938F93AC
:1040E00088248394912C8C0E9D1E0F2EF5E0AF2E0C
:1040F000B12CF02DAC0EBD1E0F2EC12CD12CF0E832
:10410000EF2EFFEBFF2EF02D00E010E09801B9013B
:10411000A801C3010E94671F40E050E0BA01C3013B
:104120000E94C41C6B017C01F301E95BFF4F11820B
:1041300010828D809E80AF80B884F30145A156A186
:1041400067A170A5C3010E947E1D9B01AC01830184
:10415000075B1F4FC501B4010E942D680E947A6958
:10416000F8017183608389809A80AB80BC80F30101
:1041700041A552A563A574A5C3010E947E1D9B01A4
:10418000AC018301055B1F4FC501B4010E942D687E
:104190000E947A69F80171836083C701B6010E94A9
:1041A0007A69882777FD8095982F0E94AD696B0109
:1041B0007C01F30145A556A567A570A9C3010E941E
:1041C0007E1D9B01AC018301035B1F4FC701B6013C
:1041D0000E942D680E947A69F80171836083F3015F
:1041E00041A952A963A974A9C3010E947E1D9B0124
:1041F000AC018301015B1F4FC701B6010E942D680E
:104200000E947A69F8017183608389849A84AB84FF
:10421000BC84F30145A956A967A970ADC3010E94EA
:104220007E1D9B01AC0183010F5A1F4FC501B401D4
:104230000E942D680E947A69F80171836083F301FE
:10424000ED5AFF4F11821082F301FD96408151819A
:1042500062817381C3010E947E1D9B01AC01F5E563
:104260006F0E711CC701B6010E942D680E947A6909
:10427000F30171836083E1E8F0E0808182608083F4
:10428000E1E9F0E0808182608083E1EAF0E0808112
:10429000826080830F900F902C960FB6F894DEBF4B
:1042A0000FBECDBFDF91CF911F910F91FF90EF9087
:1042B000DF90CF90BF90AF909F908F907F906F9046
:1042C00008952F923F924F925F926F927F928F92BA
:1042D0009F92AF92BF92CF92DF92EF92FF920F9395
:1042E0001F93CF93DF93CDB7DEB72C970FB6F8941B
:1042F000DEBF0FBECDBF3C0114012501FC01E95A10
:10430000FF4F0190F081E02D8281811176C081E024
:10431000F301808341A152A163A174A1C3010E9452
:104320007E1D0E947F6970938B0060938A00F30169
:1043300045A156A167A170A5C3010E947E1D0E94E0
:104340007F697093890060938800F30141A552A5AD
:1043500063A574A5C3010E947E1D0E947F697093AE
:10436000AD006093AC00F30145A556A567A570A903
:10437000C3010E947E1D0E947F697093AB00609311
:10438000AA00F30141A952A963A974A9C3010E941B
:104390007E1D0E947F697093A9006093A800F301BD
:1043A00045A956A967A970ADC3010E947E1D0E9450
:1043B0007F6970939D0060939C00F30141AD52AD05
:1043C00063AD74ADC3010E947E1D0E947F6970932E
:1043D0009B0060939A00F301FD96408151816281B8
:1043E0007381C3010E947E1D0E947F6970939900B2
:1043F00060939800F3011082F4C0813009F0F1C09D
:1044000019861A861B861C861D821E821F821886AC
:1044100019821A821B821C82CE0109969F938F9368
:1044200088248394912C8C0E9D1E0F2EF5E0AF2EC8
:10443000B12CF02DAC0EBD1EC3010E94671F81E0A0
:10444000F301808341A152A163A174A1C3010E9421
:104450007E1D0E947F6970938B0060938A00F30138
:104460001082E75BFF4F60817181882777FD80951F
:10447000982F0E94AD699B01AC016D817E818F8177
:1044800098850E942D680E947F69709389006093CF
:104490008800F301E55BFF4F60817181882777FD1C
:1044A0008095982F0E94AD699B01AC0169817A814A
:1044B0008B819C810E942D680E947F697093AD0062
:1044C0006093AC00B201A101C3010E94C41C6B0146
:1044D0007C01F301E35BFF4F60817181882777FDE9
:1044E0008095982F0E94AD699B01AC01C701B60170
:1044F0000E942D680E947F697093AB006093AA00B0
:1045000040E050E0BA01C3010E94C41C6B017C0171
:10451000F301E15BFF4F60817181882777FD809512
:10452000982F0E94AD699B01AC01C701B6010E94A2
:104530002D680E947F697093A9006093A800F30121
:10454000EF5AFF4F60817181882777FD8095982F02
:104550000E94AD699B01AC0169857A858B859C853C
:104560000E942D680E947F6970939D0060939C005B
:104570004AA15BA16CA17DA1C3010E94C41C4B0197
:104580005C01F301ED5AFF4F60817181882777FD4F
:104590008095982F0E94AD699B01AC01C501B401C3
:1045A0000E942D680E947F6970939B0060939A001F
:1045B000F301EB5AFF4F60817181882777FD809569
:1045C000982F0E94AD699B01AC01C701B6010E9402
:1045D0002D680E947F6970939900609398000F90F6
:1045E0000F902C960FB6F894DEBF0FBECDBFDF91B3
:1045F000CF911F910F91FF90EF90DF90CF90BF90E0
:10460000AF909F908F907F906F905F904F903F9072
:104610002F90089520E532E0FC0131832083089536
:1046200020E532E0FC01318320830E94426208953C
:10463000CF93DF93EC0181E190E00E944762FC019F
:104640008A8180838D819E81AF81B88581839283A9
:10465000A383B48349855A856B857C8545835683BE
:10466000678370874D855E856F857889418752871E
:104670006387748749895A896B897C8945875687FE
:104680006787708B8E2F9F2FDF91CF910895CF93E7
:10469000DF93FC01EB01209711F1888182838981EE
:1046A0009A81AB81BC8185839683A783B0874D8136
:1046B0005E816F81788541875287638774874985DA
:1046C0005A856B857C85458756876787708B4D85B6
:1046D0005E856F857889418B528B638B748BDF91FC
:1046E000CF91089520E532E0FC01318320830895C5
:1046F00020E532E0FC01318320830E94426208956C
:10470000CF93DF93EC0181E690E00E944762FC01C9
:104710008A8180838D819E81AF81B88581839283D8
:10472000A383B48389859A85AB85BC85858396836D
:10473000A783B0878D859E85AF85B889818792874D
:10474000A387B48789899A89AB89BC89858796872D
:10475000A787B08B8D899E89AF89B88D818B928B0D
:10476000A38BB48B898D9A8DAB8DBC8D858B968BED
:10477000A78BB08F8D8D9E8DAF8DB8A1818F928FBD
:10478000A38FB48F89A19AA1ABA1BCA1858F968F6D
:10479000A78FB0A38DA19EA1AFA1B8A581A392A31D
:1047A000A3A3B4A389A59AA5ABA5BCA585A396A3ED
:1047B000A7A3B0A78DA59EA5AFA5B8A981A792A7CD
:1047C000A3A7B4A789A99AA9ABA9BCA985A796A7AD
:1047D000A7A7B0AB8DA99EA9AFA9B8AD81AB92AB8D
:1047E000A3ABB4AB89AD9AADABADBCAD85AB96AB6D
:1047F000A7ABB0AFDE01DD968D919D910D90BC9180
:10480000A02D81AF92AFA3AFB4AF9F01235C3F4F08
:10481000DE01AF5BBF4F4D915D916D917C91D901F0
:104820004D935D936D937C9313979F012F5B3F4F47
:10483000DE01AB5BBF4F4D915D916D917C91D901D4
:104840004D935D936D937C9313979F012B5B3F4F2B
:10485000DE01A75BBF4F4D915D916D917C91D901B8
:104860004D935D936D937C9313979F01275B3F4F0F
:10487000DE01A35BBF4F4D915D916D917C91D9019C
:104880004D935D936D937C9313979F01235B3F4FF3
:10489000DE01AF5ABF4F4D915D916D917C91D90171
:1048A0004D935D936D937C9313979F012F5A3F4FC8
:1048B000DE01AB5ABF4F4D915D916D917C91D90155
:1048C0004D935D936D937C9313979F012B5A3F4FAC
:1048D000CE01875A9F4FDC014D915D916D917C9186
:1048E000D9014D935D936D937C9313979F01275A44
:1048F0003F4FCE01835A9F4FDC014D915D916D91E9
:104900007C91D9014D935D936D937C931397DF0157
:10491000A35ABF4FCF59DF4F488159816A817B81AC
:104920004D935D936D937C9313978E2F9F2FDF9103
:10493000CF910895CF93DF93FC01DB01109709F429
:1049400025C18C91828311964D915D916D917C91E1
:104950001497458356836783708715964D915D91B3
:104960006D917C9118974187528763877487199658
:104970004D915D916D917C911C9745875687678716
:10498000708B1D964D915D916D917C915097418BEF
:10499000528B638B748B51964D915D916D917C918F
:1049A0005497458B568B678B708F55964D915D91C3
:1049B0006D917C915897418F528F638F748F599668
:1049C0004D915D916D917C915C97458F568F678F6E
:1049D00070A35D964D915D916D917C91909741A3EF
:1049E00052A363A374A391964D915D916D917C91B7
:1049F000949745A356A367A370A795964D915D9193
:104A00006D917C91989741A752A763A774A7999637
:104A10004D915D916D917C919C9745A756A767A795
:104A200070AB9D964D915D916D917C91D09741AB0E
:104A300052AB63AB74ABD1964D915D916D917C910E
:104A4000D49745AB56AB67AB70AFD5964D915D91A2
:104A50006D917C91D89741AF52AF63AF74AFEF01C6
:104A6000ED96D9964D915D916D917C91DC9748833F
:104A700059836A837B839F012F5B3F4FCD01CD9686
:104A8000EC01488159816A817B81E901488359831E
:104A90006A837B839F012B5B3F4FCD018F5B9F4FD1
:104AA000EC01488159816A817B81E90148835983FE
:104AB0006A837B839F01275B3F4FCD018B5B9F4FB9
:104AC000EC01488159816A817B81E90148835983DE
:104AD0006A837B839F01235B3F4FCD01875B9F4FA1
:104AE000EC01488159816A817B81E90148835983BE
:104AF0006A837B839F012F5A3F4FCD01835B9F4F7A
:104B0000EC01488159816A817B81E901488359839D
:104B10006A837B839F012B5A3F4FCD018F5A9F4F52
:104B2000EC01488159816A817B81E901488359837D
:104B30006A837B839F01275A3F4FCD018B5A9F4F3A
:104B4000EC01488159816A817B81E901488359835D
:104B50006A837B839F01235A3F4FCD01875A9F4F22
:104B6000EC01488159816A817B81E901488359833D
:104B70006A837B83EF59FF4FA35ABF4F4D915D91DD
:104B80006D917C914083518362837383DF91CF91D8
:104B900008950F931F93CF93DF938C0185E690E0E8
:104BA0000E943F62EC0187E08A8381E690E09C836B
:104BB0008B8384E492E0998388831D821E821F8206
:104BC000188619861A861B861C861D861E861F86D9
:104BD000188A198A1A8A1B8A1C8A1D8A1E8A1F8AA9
:104BE000188E198E1A8E1B8E1C8E1D8E1E8E1F8E79
:104BF00018A219A21AA21BA21CA21DA21EA21FA2C9
:104C000018A619A61AA61BA61CA61DA61EA61FA698
:104C100018AA19AA1AAA1BAA1CAA1DAA1EAA1FAA68
:104C200018AE19AE1AAE1BAE1CAEFE01FD96108278
:104C3000118212821382FE01EF5BFF4F10821182FC
:104C400012821382FE01EB5BFF4F108211821282EF
:104C50001382FE01E75BFF4F1082118212821382E2
:104C6000FE01E35BFF4F1082118212821382FE016C
:104C7000EF5AFF4F1082118212821382FE01EB5A0B
:104C8000FF4F1082118212821382FE01E75AFF4FFA
:104C90001082118212821382FE01E35AFF4F1082AA
:104CA000118212821382FE01EF59FF4F108211828E
:104CB00012821382B801CE010E949A248C2F9D2F5C
:104CC000DF91CF911F910F91089520E532E0FC0113
:104CD00031832083089580E090E00895089520E5D1
:104CE00032E0FC01318320830E9442620895FC017E
:104CF00083819481089520E532E0FC013183208393
:104D0000089520E532E0FC01318320830E94426255
:104D10000895CF93DF93EC0181E490E00E94476215
:104D2000FC018A8180838D819E81AF81B8858183DA
:104D30009283A383B48389859A85AB85BC8585835B
:104D40009683A783B0878D859E85AF85B889818737
:104D50009287A387B48789899A89AB89BC8985871B
:104D60009687A787B08B8D899E89AF89B88D818BF7
:104D7000928BA38BB48B898D9A8DAB8DBC8D858BDB
:104D8000968BA78BB08F8D8D9E8DAF8DB8A1818FA7
:104D9000928FA38FB48F89A19AA1ABA1BCA1858F5B
:104DA000968FA78FB0A38DA19EA1AFA1B8A581A317
:104DB00092A3A3A3B4A389A59AA5ABA5BCA585A3DB
:104DC00096A3A7A3B0A78DA59EA5AFA5B8A981A7B7
:104DD00092A7A3A7B4A789A99AA9ABA9BCA985A79B
:104DE00096A7A7A7B0AB8DA99EA9AFA9B8AD81AB77
:104DF00092ABA3ABB4AB49AD5AAD6BAD7CAD45AB9B
:104E000056AB67AB70AFDE01DD964D915D916D9154
:104E10007C9141AF52AF63AF74AFDF01DD96CF5BE2
:104E2000DF4F488159816A817B814D935D936D93FA
:104E30007C9313978E2F9F2FDF91CF910895CF935F
:104E4000DF93FC01DB01109709F4A5C08C918283EC
:104E500011964D915D916D917C9114974583568388
:104E60006783708715964D915D916D917C91189730
:104E7000418752876387748719964D915D916D9133
:104E80007C911C97458756876787708B1D964D913F
:104E90005D916D917C915097418B528B638B748B9C
:104EA00051964D915D916D917C915497458B568BA8
:104EB000678B708F55964D915D916D917C91589750
:104EC000418F528F638F748F59964D915D916D9183
:104ED0007C915C97458F568F678F70A35D964D913F
:104EE0005D916D917C91909741A352A363A374A3AC
:104EF00091964D915D916D917C91949745A356A3A8
:104F000067A370A795964D915D916D917C9198974F
:104F100041A752A763A774A799964D915D916D9192
:104F20007C919C9745A756A767A770AB9D964D911E
:104F30005D916D917C91D09741AB52AB63AB74ABFB
:104F4000D1964D915D916D917C91D49745AB56ABC7
:104F500067AB70AFD5964D915D916D917C91D8976F
:104F600041AF52AF63AF74AFEF01ED96D9964D915B
:104F70005D916D917C91DC97488359836A837B8333
:104F8000EF5BFF4FDD964D915D916D917C9140837C
:104F9000518362837383DF91CF9108950F931F93A1
:104FA000CF93DF938C0185E490E00E943F62EC0197
:104FB00084E08A8381E490E09C838B838CE592E09B
:104FC000998388831D821E821F82188619861A86FD
:104FD0001B861C861D861E861F86188A198A1A8AB9
:104FE0001B8A1C8A1D8A1E8A1F8A188E198E1A8E89
:104FF0001B8E1C8E1D8E1E8E1F8E18A219A21AA229
:105000001BA21CA21DA21EA21FA218A619A61AA6A8
:105010001BA61CA61DA61EA61FA618AA19AA1AAA78
:105020001BAA1CAA1DAA1EAA1FAA18AE19AE1AAE48
:105030001BAE1CAEFE01FD961082118212821382FD
:10504000FE01EF5BFF4F1082118212821382B801C2
:10505000CE010E941F278C2F9D2FDF91CF911F9192
:105060000F91089520E532E0FC01318320830895FB
:1050700020E532E0FC01318320830E9442620895E2
:10508000CF93DF93EC0189E790E00E944762FC0137
:105090008A8180838D819E81AF81B885818392834F
:1050A000A383B48389859A85AB85BC8585839683E4
:1050B000A783B0878D859E85AF85B88981879287C4
:1050C000A387B48789899A89AB89BC8985879687A4
:1050D000A787B08B8D899E89AF89B88D818B928B84
:1050E000A38BB48B898D9A8DAB8DBC8D858B968B64
:1050F000A78BB08F8D8D9E8DAF8DB8A1818F928F34
:10510000A38FB48F89A19AA1ABA1BCA1858F968FE3
:10511000A78FB0A38DA19EA1AFA1B8A581A392A393
:10512000A3A3B4A389A59AA5ABA5BCA585A396A363
:10513000A7A3B0A78DA59EA5AFA5B8A981A792A743
:10514000A3A7B4A789A99AA9ABA9BCA985A796A723
:10515000A7A7B0AB8DA99EA9AFA9B8AD81AB92AB03
:10516000A3ABB4AB89AD9AADABADBCAD85AB96ABE3
:10517000A7ABB0AFDE01DD968D919D910D90BC91F6
:10518000A02D81AF92AFA3AFB4AF9F01235C3F4F7F
:10519000DE01AF5BBF4F4D915D916D917C91D90167
:1051A0004D935D936D937C9313979F012F5B3F4FBE
:1051B000DE01AB5BBF4F4D915D916D917C91D9014B
:1051C0004D935D936D937C9313979F012B5B3F4FA2
:1051D000DE01A75BBF4F4D915D916D917C91D9012F
:1051E0004D935D936D937C9313979F01275B3F4F86
:1051F000DE01A35BBF4F4D915D916D917C91D90113
:105200004D935D936D937C9313979F01235B3F4F69
:10521000DE01AF5ABF4F4D915D916D917C91D901E7
:105220004D935D936D937C9313979F012F5A3F4F3E
:10523000DE01AB5ABF4F4D915D916D917C91D901CB
:105240004D935D936D937C9313979F012B5A3F4F22
:10525000DE01A75ABF4F4D915D916D917C91D901AF
:105260004D935D936D937C9313979F01275A3F4F06
:10527000DE01A35ABF4F4D915D916D917C91D90193
:105280004D935D936D937C9313979F01235A3F4FEA
:10529000DE01AF59BF4F4D915D916D917C91D90168
:1052A0004D935D936D937C9313979F012F593F4FBF
:1052B000DE01AB59BF4F4D915D916D917C91D9014C
:1052C0004D935D936D937C9313979F012B593F4FA3
:1052D000DE01A759BF4F4D915D916D917C91D90130
:1052E0004D935D936D937C9313979F0127593F4F87
:1052F000DE01A359BF4F4D915D916D917C91D90114
:105300004D935D936D937C9313979F0123593F4F6A
:10531000CE018F589F4FDC014D915D916D917C9135
:10532000D9014D935D936D937C9313979F012F58F3
:105330003F4FCE018B589F4FDC014D915D916D9198
:105340007C91D9014D935D936D937C931397DF010D
:10535000AB58BF4FC758DF4F488159816A817B8165
:105360004D935D936D937C9313978E2F9F2FDF91B9
:10537000CF910895CF93DF93FC01DB01109709F4DF
:1053800085C18C91828311964D915D916D917C9137
:105390001497458356836783708715964D915D9169
:1053A0006D917C911897418752876387748719960E
:1053B0004D915D916D917C911C97458756876787CC
:1053C000708B1D964D915D916D917C915097418BA5
:1053D000528B638B748B51964D915D916D917C9145
:1053E0005497458B568B678B708F55964D915D9179
:1053F0006D917C915897418F528F638F748F59961E
:105400004D915D916D917C915C97458F568F678F23
:1054100070A35D964D915D916D917C91909741A3A4
:1054200052A363A374A391964D915D916D917C916C
:10543000949745A356A367A370A795964D915D9148
:105440006D917C91989741A752A763A774A79996ED
:105450004D915D916D917C919C9745A756A767A74B
:1054600070AB9D964D915D916D917C91D09741ABC4
:1054700052AB63AB74ABD1964D915D916D917C91C4
:10548000D49745AB56AB67AB70AFD5964D915D9158
:105490006D917C91D89741AF52AF63AF74AFEF017C
:1054A000ED96D9964D915D916D917C91DC974883F5
:1054B00059836A837B839F012F5B3F4FCD01CD963C
:1054C000EC01488159816A817B81E90148835983D4
:1054D0006A837B839F012B5B3F4FCD018F5B9F4F87
:1054E000EC01488159816A817B81E90148835983B4
:1054F0006A837B839F01275B3F4FCD018B5B9F4F6F
:10550000EC01488159816A817B81E9014883598393
:105510006A837B839F01235B3F4FCD01875B9F4F56
:10552000EC01488159816A817B81E9014883598373
:105530006A837B839F012F5A3F4FCD01835B9F4F2F
:10554000EC01488159816A817B81E9014883598353
:105550006A837B839F012B5A3F4FCD018F5A9F4F08
:10556000EC01488159816A817B81E9014883598333
:105570006A837B839F01275A3F4FCD018B5A9F4FF0
:10558000EC01488159816A817B81E9014883598313
:105590006A837B839F01235A3F4FCD01875A9F4FD8
:1055A000EC01488159816A817B81E90148835983F3
:1055B0006A837B839F012F593F4FCD01835A9F4FB1
:1055C000EC01488159816A817B81E90148835983D3
:1055D0006A837B839F012B593F4FCD018F599F4F8A
:1055E000EC01488159816A817B81E90148835983B3
:1055F0006A837B839F0127593F4FCD018B599F4F72
:10560000EC01488159816A817B81E9014883598392
:105610006A837B839F0123593F4FCD0187599F4F59
:10562000EC01488159816A817B81E9014883598372
:105630006A837B839F012F583F4FCD0183599F4F32
:10564000EC01488159816A817B81E9014883598352
:105650006A837B839F012B583F4FCD018F589F4F0B
:10566000EC01488159816A817B81E9014883598332
:105670006A837B83E758FF4FAB58BF4F4D915D91D5
:105680006D917C914083518362837383DF91CF91CD
:1056900008950F931F93CF93DF938C018DE790E0D4
:1056A0000E943F62EC0186E08A8389E790E09C8358
:1056B0008B8388E692E0998388831D821E821F82F5
:1056C000188619861A861B861C861D861E861F86CE
:1056D000188A198A1A8A1B8A1C8A1D8A1E8A1F8A9E
:1056E000188E198E1A8E1B8E1C8E1D8E1E8E1F8E6E
:1056F00018A219A21AA21BA21CA21DA21EA21FA2BE
:1057000018A619A61AA61BA61CA61DA61EA61FA68D
:1057100018AA19AA1AAA1BAA1CAA1DAA1EAA1FAA5D
:1057200018AE19AE1AAE1BAE1CAEFE01FD9610826D
:10573000118212821382FE01EF5BFF4F10821182F1
:1057400012821382FE01EB5BFF4F108211821282E4
:105750001382FE01E75BFF4F1082118212821382D7
:10576000FE01E35BFF4F1082118212821382FE0161
:10577000EF5AFF4F1082118212821382FE01EB5A00
:10578000FF4F1082118212821382FE01E75AFF4FEF
:105790001082118212821382FE01E35AFF4F10829F
:1057A000118212821382FE01EF59FF4F1082118283
:1057B00012821382FE01EB59FF4F10821182128276
:1057C0001382FE01E759FF4F108211821282138269
:1057D000FE01E359FF4F1082118212821382FE01F3
:1057E000EF58FF4F1082118212821382FE01EB5894
:1057F000FF4F1082118212821382FE01E758FF4F81
:105800001082118212821382B801CE010E94BA293D
:105810008C2F9D2FDF91CF911F910F91089520E53F
:1058200032E0FC013183208308956115710541F058
:10583000FB012081FC012283FB012181FC012583E6
:105840000895CF93DF93EC0182E090E00E944762DD
:10585000FC018A8180838D8181838E2F9F2FDF9130
:10586000CF91089520E532E0FC01318320830E942E
:105870004262089520E532E0FC01318320830895DF
:1058800020E532E0FC01318320830E9442620895CA
:10589000CF93DF93EC018DE291E00E944762FC011F
:1058A0008A8180838D819E81AF81B8858183928337
:1058B000A383B48389859A85AB85BC8585839683CC
:1058C000A783B0878D859E85AF85B88981879287AC
:1058D000A387B48789899A89AB89BC89858796878C
:1058E000A787B08B8D899E89AF89B88D818B928B6C
:1058F000A38BB48B898D9A8DAB8DBC8D858B968B4C
:10590000A78BB08F8D8D9E8DAF8DB8A1818F928F1B
:10591000A38FB48F89A19AA1ABA1BCA1858F968FCB
:10592000A78FB0A38DA19EA1AFA1B8A581A392A37B
:10593000A3A3B4A389A59AA5ABA5BCA585A396A34B
:10594000A7A3B0A78DA59EA5AFA5B8A981A792A72B
:10595000A3A7B4A789A99AA9ABA9BCA985A796A70B
:10596000A7A7B0AB8DA99EA9AFA9B8AD81AB92ABEB
:10597000A3ABB4AB89AD9AADABADBCAD85AB96ABCB
:10598000A7ABB0AFDE01DD968D919D910D90BC91DE
:10599000A02D81AF92AFA3AFB4AF9F01235C3F4F67
:1059A000DE01AF5BBF4F4D915D916D917C91D9014F
:1059B0004D935D936D937C9313979F012F5B3F4FA6
:1059C000DE01AB5BBF4F4D915D916D917C91D90133
:1059D0004D935D936D937C9313979F012B5B3F4F8A
:1059E000DE01A75BBF4F4D915D916D917C91D90117
:1059F0004D935D936D937C9313979F01275B3F4F6E
:105A0000DE01A35BBF4F4D915D916D917C91D901FA
:105A10004D935D936D937C9313979F01235B3F4F51
:105A2000DE01AF5ABF4F4D915D916D917C91D901CF
:105A30004D935D936D937C9313979F012F5A3F4F26
:105A4000DE01AB5ABF4F4D915D916D917C91D901B3
:105A50004D935D936D937C9313979F012B5A3F4F0A
:105A6000DE01A75ABF4F4D915D916D917C91D90197
:105A70004D935D936D937C9313979F01275A3F4FEE
:105A8000DE01A35ABF4F4D915D916D917C91D9017B
:105A90004D935D936D937C9313979F01235A3F4FD2
:105AA000DE01AF59BF4F4D915D916D917C91D90150
:105AB0004D935D936D937C9313979F012F593F4FA7
:105AC000DE01AB59BF4F4D915D916D917C91D90134
:105AD0004D935D936D937C9313979F012B593F4F8B
