:100000000C9472000C9493000C9493000C94930045
:100010000C9493000C9493000C9493000C94930014
:100020000C9493000C9493000C9493000C94930004
:100030000C9493000C9493000C9493000C949300F4
:100040000C9493000C9419020C9493000C9493005C
:100050000C9493000C9493000C9493000C949300D4
:100060000C9493000C9493000C9493000C949300C4
:100070000C9493000C9493000C9493000C949300B4
:100080000C9493000C9493000C9493000C949300A4
:100090000C9493000C9493000C9493000C94930094
:1000A0000C9493000C9493000C9493000C94930084
:1000B0000C9493000C9493000C9493000C94930074
:1000C0000C9493000C9493000C9493000C94930064
:1000D0000C9493000C9493000C9493000C94930054
:1000E0000C94930011241FBECFEFD1E2DEBFCDBF31
:1000F00000E00CBF12E0A0E0B2E0EAEEF9E000E0C0
:100100000BBF02C007900D92A630B107D9F722E0CD
:10011000A6E0B2E001C01D92AC30B207E1F70E9448
:1001200095000C94F3040C9400000F931F93CF934D
:10013000DF93CDB7DEB72F970FB6F894DEBF0FBEB3
:10014000CDBF198281E290E021E230E0F901208107
:100150002860FC0120838981882359F082E290E0A5
:1001600022E230E0F9012081277FFC0120831982FF
:100170000BC082E290E022E230E0F90120812860A9
:10018000FC01208381E0898380E090E0AAEFB4E461
:100190008A839B83AC83BD8320E030E04AE753E44D
:1001A0006A817B818C819D810E942E03DC01CB01C1
:1001B0008E839F83A887B98720E030E040E85FE323
:1001C0006E817F81888599850E94AD0288232CF4F9
:1001D00081E090E09B878A8746C020E03FEF4FE7B1
:1001E00057E46E817F81888599850E942A031816BD
:1001F00084F520E030E040E251E46A817B818C812B
:100200009D810E942E03DC01CB01BC01CD010E9427
:10021000B102DC01CB019B878A8712C089E190E0A3
:100220009D878C878C859D858C01C8010197F1F78E
:100230008C011D870C878A859B8501979B878A8700
:1002400021E08A859B85009709F420E0222331F77D
:1002500018C06E817F81888599850E94B102DC017A
:10026000CB019B878A878A859B859F878E878E8512
:100270009F858C01F8013197F1F78F011F870E8759
:1002800061CF60CFCF93DF931F921F92CDB7DEB7C0
:100290009A83898389819A81FC01828193810F905D
:1002A0000F90DF91CF910895CF93DF931F921F920C
:1002B000CDB7DEB79A83898389819A81FC018481D5
:1002C00095810F900F90DF91CF910895CF93DF9399
:1002D00000D01F92CDB7DEB79A8389837C836B836E
:1002E00089819A812B813C81FC01338322830F9089
:1002F0000F900F900F90DF91CF910895CF93DF93E0
:1003000000D0CDB7DEB79A8389836B8389819A81C8
:100310002B81FC0126830F900F900F90DF91CF91DE
:100320000895CF93DF931F921F92CDB7DEB79A83C4
:10033000898389819A81FC01828193819C0121506A
:10034000310989819A81FC01338322830F900F90B8
:10035000DF91CF910895CF93DF931F921F92CDB776
:10036000DEB79A83898389819A81FC018489958982
:100370000F900F90DF91CF910895CF93DF931F924D
:100380001F92CDB7DEB79A83898389819A810F90B6
:100390000F90DF91CF9108950F931F93CF93DF9329
:1003A000CDB7DEB78091060290910702009781F4E5
:1003B0008AE190E00E949C028C0140E450E062EEF1
:1003C00074E0C8010E94F101109307020093060235
:1003D0008091060290910702DF91CF911F910F91BA
:1003E0000895CF93DF9300D000D0CDB7DEB79A83C6
:1003F00089837C836B835E834D8389819A812B8182
:100400003C81FC01378B268B89819A812D813E812D
:10041000FC01318F208F89819A81FC01158A148A11
:1004200026960FB6F894DEBF0FBECDBFDF91CF91F9
:1004300008951F920F9200905F000F921124009078
:100440005B000F922F933F934F935F936F937F9334
:100450008F939F93AF93BF93EF93FF93CF93DF93CC
:1004600000D000D0CDB7DEB70E94CC019C838B8337
:100470001E821D821A82198233C08B819C810E9448
:10048000BD019C0189819A81880F991F820F931F5A
:10049000FC01808191819E838D838D819E810E944C
:1004A000420121E0009709F020E0222381F08D81B4
:1004B0009E8161E00E947E018D819E810E94540197
:1004C0009C018D819E81B9010E94660104C08D81CD
:1004D0009E810E94910189819A8101969A838983E4
:1004E0008B819C810E94AB019C0141E089819A81B2
:1004F000821793070CF040E0442309F0BECF269604
:100500000FB6F894DEBF0FBECDBFDF91CF91FF9144
:10051000EF91BF91AF919F918F917F916F915F917B
:100520004F913F912F910F9000925B000F9000929E
:100530005F000F901F901895CF93DF931F921F922B
:10054000CDB7DEB79A83898389819A810E94B903E6
:100550000F900F90DF91CF9108952FD008F481E094
:10056000089557D088F09F5790F0B92F9927B75129
:10057000A0F0D1F0660F771F881F991F1AF0BA9567
:10058000C9F712C0B13081F05ED0B1E008955BC010
:10059000672F782F8827B85F39F0B93FCCF386955D
:1005A00077956795B395D9F73EF4909580957095BA
:1005B00061957F4F8F4F9F4F0895990F0008550FFA
:1005C000AA0BE0E8FEEF16161706E807F907C0F0D9
:1005D00012161306E407F50798F0621B730B840BE1
:1005E000950B39F40A2661F0232B242B252B21F4BB
:1005F00008950A2609F4A140A6958FEF811D811D5B
:10060000089557FD9058440F551F59F05F3F71F002
:100610004795880F97FB991F61F09F3F79F0879569
:100620000895121613061406551FF2CF4695F1DFF2
:1006300008C0161617061806991FF1CF8695710582
:10064000610508940895E894BB2766277727CB01B6
:1006500097F90895B2DF08F48FEF08950BD078C0B2
:1006600069D028F06ED018F0952309F05AC05FC009
:100670001124EACFC6DFA0F3959FD1F3950F50E088
:10068000551F629FF001729FBB27F00DB11D639F44
:10069000AA27F00DB11DAA1F649F6627B00DA11DEA
:1006A000661F829F2227B00DA11D621F739FB00D90
:1006B000A11D621F839FA00D611D221F749F332700
:1006C000A00D611D231F849F600D211D822F762F99
:1006D0006A2F11249F5750408AF0E1F088234AF096
:1006E000EE0FFF1FBB1F661F771F881F91505040E2
:1006F000A9F79E3F510570F014C0A6CF5F3FECF301
:10070000983EDCF3869577956795B795F795E795CD
:100710009F5FC1F7FE2B880F911D9695879597F9DE
:10072000089597F99F6780E870E060E008959FEF73
:1007300080EC089500240A94161617061806090678
:10074000089500240A941216130614060506089547
:10075000092E0394000C11F4882352F0BB0F40F4CF
:10076000BF2B11F460FF04C06F5F7F4F8F4F9F4F0F
:1007700008950F931F93CF93DF938230910510F468
:1007800082E090E0E0910A02F0910B0220E030E07C
:10079000C0E0D0E023C04081518148175907A8F03C
:1007A0004817590761F482819381209719F09B8340
:1007B0008A832EC090930B0280930A0229C02115D0
:1007C000310529F04217530710F0A90102C0BE01FC
:1007D000DF0102811381EF019A01F8013097D9F608
:1007E0002115310509F1281B390B2430310590F40E
:1007F00012968D919C9113976115710521F0FB0163
:100800009383828304C090930B0280930A02FD01BC
:10081000329644C0FD01E20FF31F81939193225061
:1008200031092D933C933AC020910802309109027E
:10083000232B41F4209102023091030230930902EC
:100840002093080220910002309101022115310508
:1008500041F42DB73EB74091040250910502241B8C
:10086000350BE0910802F0910902E217F307A0F4BA
:100870002E1B3F0B2817390778F0AC014E5F5F4FF6
:100880002417350748F04E0F5F1F5093090240931D
:1008900008028193919302C0E0E0F0E0CF01DF9184
:1008A000CF911F910F910895EF92FF920F931F9395
:1008B000CF93DF93009709F48FC0DC011297139652
:1008C0001C921E921297E0900A02F0900B02E11423
:1008D000F10489F42D913C911197280F391F8091D3
:1008E0000802909109028217930789F5B0930902D3
:1008F000A093080271C0E70120E030E001C0EA01E6
:10090000CA17DB0738F44A815B819E014115510506
:10091000B1F722C0BC0162507109FB01D383C283CD
:1009200000811181AC01400F511F4C175D0761F42C
:1009300048815981400F511F4E5F5F4F5183408363
:100940004A815B81538342832115310529F4B09399
:100950000B02A0930A0240C0F901B383A283E9010C
:1009600069917991C60FD71FAC17BD0779F4DC01E7
:100970005E914E91460F571F4E5F5F4F51834083EC
:1009800012968D919C91139793838283A0E0B0E09F
:1009900002C0D7017C01F701828193810097C9F7DA
:1009A000C701029620813181820F931F2091080296
:1009B000309109022817390779F4109729F4109219
:1009C0000B0210920A0204C013961C921E921297F8
:1009D000F0920902E0920802DF91CF911F910F91EE
:0A09E000FF90EF900895F894FFCF08
:0609EA0000000C022000D9
:00000001FF
