S012000048656C69636F707465722E7372656303
S11300000C9414010C9435010C9435010C943501B5
S11300100C9435010C9435010C9435010C94350184
S11300200C9435010C9435010C9435010C94350174
S11300300C9435010C9435010C9435010C94350164
S11300400C9435010C94F4370C9435010C9435015F
S11300500C9435010C9435010C9435010C94350144
S11300600C9435010C9435010C9435010C94350134
S11300700C9435010C9435010C9435010C94350124
S11300800C9435010C9435010C9435010C94350114
S11300900C9435010C9435010C9435010C94350104
S11300A00C9435010C9435010C9435010C943501F4
S11300B00C9435010C9435010C9435010C943501E4
S11300C00C9435010C9435010C9435010C943501D4
S11300D00C9435010C9435010C9435010C943501C4
S11300E00C94350105A84CCDB2D44EB93836A902CA
S11300F00C50B9918688083CA6AAAA2ABE00000022
S1130100803F07634236B79BD8A71A39685618AEA2
S1130110BAAB558C1D3CB7CC5763BD6DEDFD753E38
S1130120F6177231BF000000803F08000000BE9245
S11301302449123EABAAAA2ABECDCCCC4C3E000028
S11301400080BEABAAAAAA3E00000000BF000000C7
S1130150803F0000000000084178D3BB4387D113DF
S11301603D190E3CC3BD4282AD2B3E68EC8276BE87
S1130170D98FE1A93E4C80EFFFBE01C4FF7F3F0051
S1130180000000000C941D150C9487250C94DC3E93
S11301900C94BD2B0C942B250C9448390C94AA2157
S11301A00C94DF2B0C944E3F0C94D8240C94A33C59
S11301B00C94CC210C94943B0C94032F0C94133F7B
S11301C00C94FE3E0C94B63B0C94DF380C94E9126C
S11301D00C944D250C94A2240C9471390C94DB3F9F
S11301E00C949A3A0C9401390C9484240C942B1496
S11301F00C94F42B0C9490140C9462250C94071317
S11302000C94C9240C94C4380C9493390C94A83FCE
S11302100C941C130C94D2130C9485380C94AE14C7
S11302200C94FD3F0C94F91411241FBECFEFD1E2BE
S1130230DEBFCDBF00E00CBF12E0A0E0B2E0E4E01E
S1130240F8E900E00BBF02C007900D92AA39B1078C
S1130250D9F722E0AAE9B2E001C01D92A03AB207A0
S1130260E1F70E94451F0C94004C0C940000CF93BE
S1130270DF931F921F92CDB7DEB79A83898389815A
S11302809A81FC0180819181A281B381BC01CD015D
S11302900F900F90DF91CF910895CF93DF931F922A
S11302A01F92CDB7DEB79A83898389819A81FC0135
S11302B084819581A681B781BC01CD010F900F90F7
S11302C0DF91CF910895CF93DF931F921F92CDB703
S11302D0DEB79A83898389819A81FC01808591851F
S11302E0A285B385BC01CD010F900F90DF91CF9112
S11302F00895CF93DF9300D000D0CDB7DEB79A83B3
S113030089834B835C836D837E8329813A818B81CE
S11303109C81AD81BE81F90180879187A287B387D3
S113032026960FB6F894DEBF0FBECDBFDF91CF91F6
S11303300895CF93DF931F921F92CDB7DEB79A83B0
S1130340898389819A81FC0184859585A685B785F1
S1130350BC01CD010F900F90DF91CF910895CF9301
S1130360DF9300D000D0CDB7DEB79A8389834B8367
S11303705C836D837E8329813A818B819C81AD81ED
S1130380BE81F90184879587A687B78726960FB61D
S1130390F894DEBF0FBECDBFDF91CF910895CF9308
S11303A0DF931F921F92CDB7DEB79A838983898129
S11303B09A81FC0180899189A289B389BC01CD010C
S11303C00F900F90DF91CF910895CF93DF931F92F9
S11303D01F92CDB7DEB79A83898389819A81FC0104
S11303E084899589A689B789BC01CD010F900F90A6
S11303F0DF91CF910895CF93DF931F921F92CDB7D2
S1130400DEB79A83898389819A81FC01808D918DDD
S1130410A28DB38DBC01CD010F900F90DF91CF91D0
S11304200895CF93DF9300D000D0CDB7DEB79A8381
S113043089834B835C836D837E8329813A818B819D
S11304409C81AD81BE81F901808F918FA28FB38F82
S113045026960FB6F894DEBF0FBECDBFDF91CF91C5
S11304600895CF93DF9300D000D0CDB7DEB79A8341
S113047089834B835C836D837E8329813A818B815D
S11304809C81AD81BE81F901848F958FA68FB78F32
S113049026960FB6F894DEBF0FBECDBFDF91CF9185
S11304A00895CF93DF9300D000D0CDB7DEB79A8301
S11304B089834B835C836D837E8329813A818B811D
S11304C09C81AD81BE81F90180A391A3A2A3B3A3B2
S11304D026960FB6F894DEBF0FBECDBFDF91CF9145
S11304E00895CF93DF931F921F92CDB7DEB79A83FF
S11304F0898389819A81FC0184A195A1A6A1B7A1D0
S1130500BC01CD010F900F90DF91CF910895CF934F
S1130510DF931F921F92CDB7DEB79A8389838981B7
S11305209A81FC0180A591A5A2A5B3A5BC01CD012A
S11305300F900F90DF91CF910895CF93DF931F9287
S11305401F92CDB7DEB79A83898389819A81FC0192
S113055084A595A5A6A5B7A5BC01CD010F900F90C4
S1130560DF91CF910895CF93DF9300D000D0CDB722
S1130570DEB79A8389834B835C836D837E83298171
S11305803A818B819C81AD81BE81F90184A795A7B5
S1130590A6A7B7A726960FB6F894DEBF0FBECDBFA9
S11305A0DF91CF910895CF93DF931F921F92CDB720
S11305B0DEB79A83898389819A81FC0180A991A9F4
S11305C0A2A9B3A9BC01CD010F900F90DF91CF91E7
S11305D00895CF93DF9300D000D0CDB7DEB79A83D0
S11305E089834B835C836D837E8329813A818B81EC
S11305F09C81AD81BE81F90180AB91ABA2ABB3AB61
S113060026960FB6F894DEBF0FBECDBFDF91CF9113
S11306100895CF93DF931F921F92CDB7DEB79A83CD
S1130620898389819A81FC0184A995A9A6A9B7A97E
S1130630BC01CD010F900F90DF91CF910895CF931E
S1130640DF931F921F92CDB7DEB79A838983898186
S11306509A81FC0180AD91ADA2ADB3ADBC01CD01D9
S11306600F900F90DF91CF910895CF93DF931F9256
S11306701F92CDB7DEB79A83898389819A81FC0161
S113068084AD95ADA6ADB7ADBC01CD010F900F9073
S1130690DF91CF910895CF93DF9300D000D0CDB7F1
S11306A0DEB79A8389834B835C836D837E83298140
S11306B03A818B819C81AD81BE81F90184AF95AF74
S11306C0A6AFB7AF26960FB6F894DEBF0FBECDBF68
S11306D0DF91CF910895CF93DF9300D000D0CDB7B1
S11306E0DEB79A8389834B835C836D837E838981A0
S11306F09A819C01205C3F4F8B819C81AD81BE819E
S1130700F90180839183A283B38326960FB6F8946C
S1130710DEBF0FBECDBFDF91CF910895CF93DF939E
S11307201F921F92CDB7DEB79A83898389819A81FC
S11307308C5B9F4FFC0180819181A281B381BC01BC
S1130740CD010F900F90DF91CF910895CF93DF9358
S113075000D000D0CDB7DEB79A8389834B835C8306
S11307606D837E8389819A819C012C5B3F4F8B81B1
S11307709C81AD81BE81F90180839183A283B3837F
S113078026960FB6F894DEBF0FBECDBFDF91CF9192
S11307900895CF93DF9300D000D0CDB7DEB79A830E
S11307A089834B835C836D837E8389819A819C01D9
S11307B0285B3F4F8B819C81AD81BE81F901808391
S11307C09183A283B38326960FB6F894DEBF0FBE3F
S11307D0CDBFDF91CF910895CF93DF931F921F92E6
S11307E0CDB7DEB79A83898389819A81845B9F4FD1
S11307F0FC0180819181A281B381BC01CD010F9064
S11308000F90DF91CF910895CF93DF931F921F92A2
S1130810CDB7DEB79A83898389819A81805B9F4FA4
S1130820FC0180819181A281B381BC01CD010F9033
S11308300F90DF91CF910895CF93DF931F921F9272
S1130840CDB7DEB79A83898389819A818C5A9F4F69
S1130850FC0180819181A281B381BC01CD010F9003
S11308600F90DF91CF910895CF93DF931F921F9242
S1130870CDB7DEB79A83898389819A81885A9F4F3D
S1130880FC0180819181A281B381BC01CD010F90D3
S11308900F90DF91CF910895CF93DF931F921F9212
S11308A0CDB7DEB79A83898389819A81845A9F4F11
S11308B0FC0180819181A281B381BC01CD010F90A3
S11308C00F90DF91CF910895CF93DF9300D000D0A4
S11308D0CDB7DEB79A8389834B835C836D837E8334
S11308E089819A819C01245A3F4F8B819C81AD81DF
S11308F0BE81F90180839183A283B38326960FB6C8
S1130900F894DEBF0FBECDBFDF91CF910895CF9392
S1130910DF931F921F92CDB7DEB79A8389838981B3
S11309209A81805A9F4FFC0180819181A281B38179
S1130930BC01CD010F900F90DF91CF910895CF931B
S1130940DF9300D000D0CDB7DEB79A8389834B8381
S11309505C836D837E8389819A819C01205A3F4FF9
S11309608B819C81AD81BE81F90180839183A283B7
S1130970B38326960FB6F894DEBF0FBECDBFDF91CA
S1130980CF910895CF93DF931F921F92CDB7DEB717
S11309909A83898389819A818C599F4FFC01808134
S11309A09181A281B381BC01CD010F900F90DF91A1
S11309B0CF910895CF93DF931F921F92CDB7DEB7E7
S11309C09A83898389819A8188599F4FFC01808108
S11309D09181A281B381BC01CD010F900F90DF9171
S11309E0CF910895CF93DF931F921F92CDB7DEB7B7
S11309F09A83898389819A8184599F4FFC018081DC
S1130A009181A281B381BC01CD010F900F90DF9140
S1130A10CF910895CF93DF9300D000D0CDB7DEB748
S1130A209A8389834B835C836D837E8389819A81D6
S1130A309C0124593F4F8B819C81AD81BE81F9017A
S1130A4080839183A283B38326960FB6F894DEBF86
S1130A500FBECDBFDF91CF910895CF93DF9300D028
S1130A6000D0CDB7DEB79A8389834B835C836D83D3
S1130A707E8389819A819C0120593F4F8B819C817F
S1130A80AD81BE81F90180839183A283B3832696CD
S1130A900FB6F894DEBF0FBECDBFDF91CF9108959E
S1130AA0CF93DF931F921F92CDB7DEB79A838983CA
S1130AB089819A818C589F4FFC0180819181A28108
S1130AC0B381BC01CD010F900F90DF91CF910895B8
S1130AD0CF93DF9300D000D0CDB7DEB79A8389835C
S1130AE04B835C836D837E8389819A819C012C581E
S1130AF03F4F8B819C81AD81BE81F90180839183BD
S1130B00A283B38326960FB6F894DEBF0FBECDBF83
S1130B10DF91CF910895CF93DF9300D000D0CDB76C
S1130B20DEB79A8389834B835C836D837E8389815B
S1130B309A819C0128583F4F8B819C81AD81BE8155
S1130B40F90180839183A283B38326960FB6F89428
S1130B50DEBF0FBECDBFDF91CF910895CF93DF935A
S1130B601F921F92CDB7DEB79A83898389819A81B8
S1130B7084589F4FFC0180819181A281B381BC0183
S1130B80CD010F900F90DF91CF910895CF93DF9314
S1130B901F921F92CDB7DEB79A83898389819A8188
S1130BA080589F4FFC0180819181A281B381BC0157
S1130BB0CD010F900F90DF91CF910895CF93DF93E4
S1130BC01F921F92CDB7DEB79A83898389819A8158
S1130BD088579F4FFC0180819181A281B381BC0120
S1130BE0CD010F900F90DF91CF910895CF93DF93B4
S1130BF01F921F92CDB7DEB79A83898389819A8128
S1130C0084579F4FFC0180819181A281B381BC01F3
S1130C10CD010F900F90DF91CF910895CF93DF9383
S1130C201F921F92CDB7DEB79A83898389819A81F7
S1130C3080579F4FFC0180819181A281B381BC01C7
S1130C40CD010F900F90DF91CF910895CF93DF9353
S1130C5000D000D0CDB7DEB79A8389834B835C8301
S1130C606D837E8389819A819C0120573F4F8B81BC
S1130C709C81AD81BE81F90180839183A283B3837A
S1130C8026960FB6F894DEBF0FBECDBFDF91CF918D
S1130C900895CF93DF931F921F92CDB7DEB79A8347
S1130CA0898389819A818C569F4FFC01808191812F
S1130CB0A281B381BC01CD010F900F90DF91CF9140
S1130CC00895CF93DF9300D000D0CDB7DEB79A83D9
S1130CD089834B835C836D837E8389819A819C01A4
S1130CE02C563F4F8B819C81AD81BE81F90180835D
S1130CF09183A283B38326960FB6F894DEBF0FBE0A
S1130D00CDBFDF91CF910895CF93DF931F921F92B0
S1130D10CDB7DEB79A83898389819A8188569F4F9C
S1130D20FC0180819181A281B381BC01CD010F902E
S1130D300F90DF91CF910895CF93DF931F921F926D
S1130D40CDB7DEB79A83898389819A8184569F4F70
S1130D50FC0180819181A281B381BC01CD010F90FE
S1130D600F90DF91CF910895CF93DF931F921F923D
S1130D70CDB7DEB79A83898389819A8180569F4F44
S1130D80FC0180819181A281B381BC01CD010F90CE
S1130D900F90DF91CF910895CF93DF9300D000D0CF
S1130DA0CDB7DEB79A8389834B835C836D837E835F
S1130DB089819A819C0120563F4F8B819C81AD8112
S1130DC0BE81F90180839183A283B38326960FB6F3
S1130DD0F894DEBF0FBECDBFDF91CF910895CF93BE
S1130DE0DF9300D000D0CDB7DEB79A8389834B83DD
S1130DF05C836D837E8389819A819C012C553F4F4E
S1130E008B819C81AD81BE81F90180839183A28312
S1130E10B38326960FB6F894DEBF0FBECDBFDF9125
S1130E20CF910895CF93DF9300D000D0CDB7DEB734
S1130E309A8389834B835C836D837E8389819A81C2
S1130E409C0128553F4F8B819C81AD81BE81F90166
S1130E5080839183A283B38326960FB6F894DEBF72
S1130E600FBECDBFDF91CF910895CF93DF931F9233
S1130E701F92CDB7DEB79A83898389819A81805482
S1130E809F4FFC0180819181A281B381BC01CD017E
S1130E900F900F90DF91CF910895CF93DF9300D0FF
S1130EA000D0CDB7DEB79A8389834B835C836D838F
S1130EB07E8389819A819C0120543F4F8B819C8140
S1130EC0AD81BE81F90180839183A283B383269689
S1130ED00FB6F894DEBF0FBECDBFDF91CF9108955A
S1130EE0CF93DF9300D01F92CDB7DEB79A83898367
S1130EF07C836B8389819A812B813C81FC013183C2
S1130F00208389819A81FC011282138214821582C2
S1130F1089819A81FC011682178210861186898143
S1130F209A81FC01128613861486158689819A811A
S1130F30FC0116861786108A118A89819A81FC0120
S1130F40128A138A148A158A89819A81FC01168A65
S1130F50178A108E118E89819A81FC01128E138E4C
S1130F60148E158E89819A81FC01168E178E10A21B
S1130F7011A289819A81FC0112A213A214A215A2C2
S1130F8089819A81FC0112A613A614A615A689814B
S1130F909A81FC0116A617A610AA11AA89819A8122
S1130FA0FC0112AA13AA14AA15AA89819A81FC0128
S1130FB016AA17AA10AE11AE89819A81FC0112AE4D
S1130FC013AE14AE15AE89819A818E5B9F4FFC01DE
S1130FD0108211821282138289819A818A5B9F4FC7
S1130FE0FC01108211821282138289819A81865BAC
S1130FF09F4FFC01108211821282138289819A818F
S1131000825B9F4FFC0110821182128213828981BC
S11310109A818E5A9F4FFC01108211821282138290
S113102089819A818A5A9F4FFC011082118212820F
S1131030138289819A81865A9F4FFC011082118202
S11310401282138289819A81825A9F4FFC011082F5
S113105011821282138289819A818E599F4FFC01D9
S1131060108211821282138289819A818A599F4F38
S1131070FC01108211821282138289819A8186591D
S11310809F4FFC01108211821282138289819A81FE
S113109082599F4FFC01108211821282138289812E
S11310A09A818E579F4FFC01108211821282138203
S11310B089819A818A579F4FFC0110821182128282
S11310C0138289819A8186579F4FFC011082118275
S11310D0128213820F900F900F900F90DF91CF9197
S11310E008950F931F93CF93DF93CDB7DEB72A975D
S11310F00FB6F894DEBF0FBECDBF9A8389834B83AE
S11311005C836D837E830F83188729873A872F81B9
S1131110388549855A856B817C818D819E810E94A9
S11311201246DC01CB01BC01CD012A960FB6F8941E
S1131130DEBF0FBECDBFDF91CF911F910F910895F8
S1131140CF92DF92EF92FF920F931F93CF93DF938F
S1131150CDB7DEB762970FB6F894DEBF0FBECDBF32
S11311609E838D834F83588769877A870B871C8773
S11311702D873E87CF86D88AE98AFA8A19821A820D
S11311801B821C822B853C854D855E856F8178850D
S113119089859A850E941246DC01CB012F85388906
S11311A049895A89BC01CD010E945948DC01CB010F
S11311B089839A83AB83BC8389819A81AB81BC8107
S11311C0BC01CD0162960FB6F894DEBF0FBECDBF51
S11311D0DF91CF911F910F91FF90EF90DF90CF900F
S11311E008958F929F92AF92BF92CF92DF92EF9227
S11311F0FF920F931F93CF93DF93CDB7DEB766971C
S11312000FB6F894DEBF0FBECDBF9E838D834F8390
S1131210588769877A870B871C872D873E87CF86F7
S1131220D88AE98AFA8A8B8A9C8AAD8ABE8A19820C
S11312301A821B821C828D819E818E579F4FFC01D6
S113124080819181A281B3812F81388549855A8516
S1131250BC01CD010E945948DC01CB012B893C899A
S11312604D895E89BC01CD010E945948DC01CB0146
S113127089839A83AB83BC832B853C854D855E85AE
S113128069817A818B819C810E941346DC01CB01A8
S113129089839A83AB83BC8320E030E0A9016F8506
S11312A0788989899A890E947746882309F452C0EB
S11312B020E030E0A90169817A818B819C810E94C0
S11312C0554818168CF429813A814B815C816F85CD
S11312D0788989899A890E94554818162CF41982AC
S11312E01A821B821C821BC020E030E0A9016981A4
S11312F07A818B819C810E947746882384F429819A
S11313003A814B815C816F85788989899A890E94A9
S11313107746882324F419821A821B821C8220E0D7
S113132030E0A90169817A818B819C810E94774692
S1131330882381F02F85388949895A8969817A817E
S11313408B819C810E941246DC01CB0189839A83A4
S1131350AB83BC8389819A81AB81BC81BC01CD0103
S113136066960FB6F894DEBF0FBECDBFDF91CF9166
S11313701F910F91FF90EF90DF90CF90BF90AF90AF
S11313809F908F9008950F931F93CF93DF93CDB7C2
S1131390DEB72A970FB6F894DEBF0FBECDBF9A838F
S11313A089834B835C836D837E830F8318872987AE
S11313B03A872F81388549855A856B817C818D8157
S11313C09E810E941246DC01CB01BC01CD012A960C
S11313D00FB6F894DEBF0FBECDBFDF91CF911F9142
S11313E00F9108958F929F92AF92BF92CF92DF9206
S11313F0EF92FF920F931F93CF93DF93CDB7DEB796
S113140066970FB6F894DEBF0FBECDBF9E838D8363
S11314104F83588769877A870B871C872D873E8778
S1131420CF86D88AE98AFA8A8B8A9C8AAD8ABE8A50
S113143019821A821B821C822B893C894D895E8900
S11314406F81788589859A850E945948DC01CB0192
S11314502F85388949895A89BC01CD010E941346D8
S1131460DC01CB016C017D012EA13FA148A559A54A
S11314706B857C858D859E850E945948DC01CB0156
S11314809C01AD01C701B6010E941346DC01CB01EA
S113149089839A83AB83BC8389819A81AB81BC8124
S11314A0BC01CD0166960FB6F894DEBF0FBECDBF6A
S11314B0DF91CF911F910F91FF90EF90DF90CF902C
S11314C0BF90AF909F908F900895CF92DF92EF924C
S11314D0FF920F931F93CF93DF93CDB7DEB72E9771
S11314E00FB6F894DEBF0FBECDBF9A8389834B83BA
S11314F05C836D837E830F83188729873A87CB8625
S1131500DC86ED86FE862B853C854D855E856B816C
S11315107C818D819E810E94554818164CF48B85E0
S11315209C85AD85BE858B839C83AD83BE8314C0AF
S11315302F81388549855A856B817C818D819E8177
S11315400E947746882344F48F819885A985BA85BB
S11315508B839C83AD83BE838B819C81AD81BE8153
S1131560BC01CD012E960FB6F894DEBF0FBECDBFE1
S1131570DF91CF911F910F91FF90EF90DF90CF906B
S11315800895AF92BF92CF92DF92EF92FF920F93A2
S11315901F93CF93DF93CDB7DEB760970FB6F89460
S11315A0DEBF0FBECDBF69837A838B839C832D837B
S11315B03E834F835887E986FA860B871C87AD865E
S11315C0BE86CF86D88A2D813E814F815885698118
S11315D07A818B819C810E941246DC01CB01298592
S11315E03A854B855C85BC01CD010E945948DC01DC
S11315F0CB016C017D012E8D3F8D48A159A16D85D4
S11316007E858F8598890E945948DC01CB019C0115
S1131610AD01C701B6010E941246DC01CB01BC0139
S1131620CD0160960FB6F894DEBF0FBECDBFDF913B
S1131630CF911F910F91FF90EF90DF90CF90BF90CB
S1131640AF900895CF92DF92EF92FF920F931F9382
S1131650CF93DF93CDB7DEB72E970FB6F894DEBFE6
S11316600FBECDBF9A8389834B835C836D837E8356
S11316700F83188729873A87CB86DC86ED86FE861A
S11316802F81388549855A856B817C818D819E8126
S11316900E94774688234CF48F819885A985BA8562
S11316A08B839C83AD83BE8314C02B853C854D8581
S11316B05E856B817C818D819E810E9455481816C0
S11316C044F48B859C85AD85BE858B839C83AD83DB
S11316D0BE838B819C81AD81BE81BC01CD012E96E0
S11316E00FB6F894DEBF0FBECDBFDF91CF911F912F
S11316F00F91FF90EF90DF90CF900895CF93DF93F9
S11317001F921F92CDB7DEB79A83898389819A810C
S1131710FC01808191810E943507DC01CB01019697
S1131720A11DB11D29813A81F90120813181AC01CA
S1131730BD01C9010E944D070F900F90DF91CF9119
S11317400895CF93DF9300D000D0CDB7DEB79A834E
S113175089834B835C836D837E8320E030E044E3A4
S113176053E46B817C818D819E810E94554888233E
S11317708CF020E030E044EB53E46B817C818D817C
S11317809E810E941246DC01CB018B839C83AD8336
S1131790BE831CC020E030E044E353EC6B817C81C9
S11317A08D819E810E947746882384F420E030E076
S11317B044EB53E46B817C818D819E810E941346AE
S11317C0DC01CB018B839C83AD83BE838B819C81A5
S11317D0AD81BE81BC01CD0126960FB6F894DEBF63
S11317E00FBECDBFDF91CF9108957F928F929F92CC
S11317F0AF92BF92CF92DF92EF92FF920F931F931B
S1131800CF93DF93CDB7DEB76A970FB6F894DEBFF8
S11318100FBECDBF9A8F898F898D9A8DFC018081EF
S113182091810E944D016B017C01898D9A8DFC018F
S1131830808191810E943701DC01CB01E98DFA8D11
S113184097018601AC01BD01CF010E947108DC0142
S1131850CB0189839A83AB83BC8389819A81AB81D1
S1131860BC81298D3A8DAC01BD01C9010E94A10B37
S1131870DC01CB0189839A83AB83BC83898D9A8DE8
S1131880FC01C684D784E088F188898D9A8DFC0197
S1131890808191810E9463014B015C01898D9A8D45
S11318A0FC01808191810E949901DC01CB01E98DC9
S11318B0FA8D95018401AC01BD01CF010E94A008FD
S11318C0DC01CB018D839E83AF83B887898D9A8D8C
S11318D0FC01A280B380C480D580898D9A8DFC01DF
S11318E0808191810E94FB019B01AC01ED80FE800F
S11318F00F81188589819A81AB81BC81E98DFA8D2C
S1131900450156016701780189019A01AC01BD01C5
S1131910CF010E94F108DC01CB0189879A87AB874C
S1131920BC87898D9A8DFC01808191810E94E5019B
S11319306B017C01898D9A8DFC01808191810E94CB
S1131940CF01DC01CB01E98DFA8D97018601AC0151
S1131950BD01CF010E94C309DC01CB018D879E87A5
S1131960AF87B88B898D9A8DFC0186819781A0857C
S1131970B185298D3A8DF90182849384A484B58438
S1131980C984DA84EB84FC840D851E852F8538890F
S113199049815A816B817C81E98DFA8D7B2E7F92FE
S11319A07A2E7F92792E7F928F93CF010E94F20933
S11319B00F900F900F900F90DC01CB01898B9A8BC5
S11319C0AB8BBC8B898D9A8D8A5A9F4FFC01E0802A
S11319D0F18002811381898D9A8D8E5A9F4FFC016B
S11319E0208131814281538189899A89AB89BC895B
S11319F0E98DFA8D6701780189019A01AC01BD0175
S1131A00CF010E94650ADC01CB018D8B9E8BAF8BCD
S1131A10B88F898D9A8DFC01208131818D899E89B1
S1131A20AF89B88DAC01BD01C9010E947901898DCE
S1131A309A8DFC012081318189899A89AB89BC897D
S1131A40AC01BD01C9010E94AF01898D9A8DFC01D1
S1131A502081318189859A85AB85BC85AC01BD0126
S1131A60C9010E941102898D9A8DFC012081318166
S1131A7089819A81AB81BC81AC01BD01C9010E94FD
S1131A803102898D9A8DFC01208131818D859E855D
S1131A90AF85B889AC01BD01C9010E9451026A96A3
S1131AA00FB6F894DEBF0FBECDBFDF91CF911F916B
S1131AB00F91FF90EF90DF90CF90BF90AF909F90E9
S1131AC08F907F9008957F928F929F92AF92BF9252
S1131AD0CF92DF92EF92FF920F931F93CF93DF93F6
S1131AE0CDB7DEB76A970FB6F894DEBF0FBECDBF91
S1131AF09A8F898F898D9A8DFC01808191810E94B2
S1131B00F6056B017C01898D9A8DFC0180819181A0
S1131B100E94DE05DC01CB01E98DFA8D9701860177
S1131B20AC01BD01CF010E947108DC01CB018983A6
S1131B309A83AB83BC83898D9A8D825B9F4FFC0112
S1131B40C080D180E280F380898D9A8DFC018081F0
S1131B5091810E940E064B015C01898D9A8DFC01D6
S1131B60808191810E944906DC01CB01E98DFA8DC7
S1131B7095018401AC01BD01CF010E94A008DC01E4
S1131B80CB018D839E83AF83B887898D9A8D8E5BBD
S1131B909F4FFC01A080B180C280D380898D9A8D33
S1131BA0FC01808191810E94B4069B01AC01ED800F
S1131BB0FE800F81188589819A81AB81BC81E98D72
S1131BC0FA8D450156016701780189019A01AC013A
S1131BD0BD01CF010E94F108DC01CB0189879A87FE
S1131BE0AB87BC87898D9A8DFC01808191810E948D
S1131BF09C066B017C01898D9A8DFC018081918109
S1131C000E948406DC01CB01E98DFA8D97018601DF
S1131C10AC01BD01CF010E94C309DC01CB018D875A
S1131C209E87AF87B88B898D9A8D8A5B9F4FFC0105
S1131C3080819181A281B381298D3A8D265B3F4FAA
S1131C40F90180809180A280B380C984DA84EB8416
S1131C50FC840D851E852F85388949815A816B81C5
S1131C607C81E98DFA8D7B2E7F927A2E7F92792E5C
S1131C707F928F93CF010E94F2090F900F900F90E3
S1131C800F90DC01CB01898B9A8BAB8BBC8B898D3C
S1131C909A8D82599F4FFC01E080F180028113816B
S1131CA0898D9A8D86599F4FFC0120813181428113
S1131CB0538189899A89AB89BC89E98DFA8D670139
S1131CC0780189019A01AC01BD01CF010E94650A26
S1131CD0DC01CB018D8B9E8BAF8BB88F898D9A8D58
S1131CE0FC01208131818D899E89AF89B88DAC0139
S1131CF0BD01C9010E942606898D9A8DFC012081AF
S1131D00318189899A89AB89BC89AC01BD01C9013A
S1131D100E946106898D9A8DFC012081318189851B
S1131D209A85AB85BC85AC01BD01C9010E94CC0676
S1131D30898D9A8DFC012081318189819A81AB81C1
S1131D40BC81AC01BD01C9010E94EF06898D9A8D49
S1131D50FC01208131818D859E85AF85B889AC01D8
S1131D60BD01C9010E9412076A960FB6F894DEBF3E
S1131D700FBECDBFDF91CF911F910F91FF90EF90D8
S1131D80DF90CF90BF90AF909F908F907F900895F9
S1131D907F928F929F92AF92BF92CF92DF92EF92F7
S1131DA0FF920F931F93CF93DF93CDB7DEB7669760
S1131DB00FB6F894DEBF0FBECDBF9E8B8D8B8D8981
S1131DC09E89FC01808191810E9487026B017C01C4
S1131DD08D899E89FC01808191810E947102DC01C0
S1131DE0CB01ED89FE8997018601AC01BD01CF01CC
S1131DF00E947108DC01CB0189839A83AB83BC8385
S1131E008D899E89FC01C68CD78CE0A0F1A08D89B8
S1131E109E89FC01808191810E94D3024B015C0167
S1131E208D899E89FC01808191810E949D02DC0143
S1131E30CB01ED89FE8995018401AC01BD01CF017F
S1131E400E94A008DC01CB018D839E83AF83B887F9
S1131E508D899E89FC01A288B388C488D5888D8920
S1131E609E89FC01808191810E948E039B01AC01BB
S1131E70ED80FE800F81188589819A81AB81BC81B8
S1131E80ED89FE89450156016701780189019A01AE
S1131E90AC01BD01CF010E94F108DC01CB018987AF
S1131EA09A87AB87BC878D899E89FC01808191814B
S1131EB00E941F036B017C018D899E89FC01808136
S1131EC091810E940903DC01CB01ED89FE89970110
S1131ED08601AC01BD01CF010E94C309DC01CB0125
S1131EE08D879E87AF87B88B8D899E89FC018689F3
S1131EF09789A08DB18D2D893E89F901828C938CAF
S1131F00A48CB58CC984DA84EB84FC840D851E858D
S1131F102F85388949815A816B817C81ED89FE89BD
S1131F207B2E7F927A2E7F92792E7F928F93CF0190
S1131F300E94F2090F900F900F900F90DC01CB01DB
S1131F40898B9A8BAB8BBC8B8D899E898A589F4FCA
S1131F50FC01E080F180028113818D899E898E5875
S1131F609F4FFC01208131814281538189899A8963
S1131F70AB89BC89ED89FE896701780189019A01E1
S1131F80AC01BD01CF010E94220BDC01CB01898B86
S1131F909A8BAB8BBC8B8D899E89FC01208131810E
S1131FA089899A89AB89BC89AC01BD01C9010E94A8
S1131FB04B038D899E89FC012081318189859A8515
S1131FC0AB85BC85AC01BD01C9010E94A6038D8906
S1131FD09E89FC012081318189819A81AB81BC81F8
S1131FE0AC01BD01C9010E946B038D899E89FC016E
S1131FF0208131818D859E85AF85B889AC01BD0175
S1132000C9010E94C90366960FB6F894DEBF0FBEDD
S1132010CDBFDF91CF911F910F91FF90EF90DF9093
S1132020CF90BF90AF909F908F907F9008957F92B4
S11320308F929F92AF92BF92CF92DF92EF92FF92D4
S11320400F931F93CF93DF93CDB7DEB766970FB689
S1132050F894DEBF0FBECDBF9E8B8D8B8D899E897C
S1132060FC01808191810E9434046B017C018D8983
S11320709E89FC01808191810E941C04DC01CB01BA
S1132080ED89FE8997018601AC01BD01CF010E9453
S11320907108DC01CB0189839A83AB83BC838D896E
S11320A09E89FC01C6A8D7A8E0ACF1AC8D899E89B5
S11320B0FC01808191810E9487044B015C018D8920
S11320C09E89FC01808191810E944C04DC01CB013A
S11320D0ED89FE8995018401AC01BD01CF010E9407
S11320E0A008DC01CB018D839E83AF83B8878D89E3
S11320F09E89FC01A2A4B3A4C4A4D5A48D899E89FD
S1132100FC01808191810E9450059B01AC01ED800E
S1132110FE800F81188589819A81AB81BC81ED890C
S1132120FE89450156016701780189019A01AC01D4
S1132130BD01CF010E94F108DC01CB0189879A8798
S1132140AB87BC878D899E89FC01808191810E9427
S1132150DA046B017C018D899E89FC018081918167
S11321600E94C204DC01CB01ED89FE89970186013E
S1132170AC01BD01CF010E94C309DC01CB018D87F5
S11321809E87AF87B88B8D899E89FC0186A597A50C
S1132190A0A9B1A92D893E89F90182A893A8A4A870
S11321A0B5A8C984DA84EB84FC840D851E852F854B
S11321B0388949815A816B817C81ED89FE897B2E26
S11321C07F927A2E7F92792E7F928F93CF010E94F5
S11321D0F2090F900F900F900F90DC01CB01898BC7
S11321E09A8BAB8BBC8B8D899E8982589F4FFC0147
S11321F0E080F180028113818D899E8986589F4FEA
S1132200FC01208131814281538189899A89AB897A
S1132210BC89ED89FE896701780189019A01AC01C5
S1132220BD01CF010E94220BDC01CB01898B9A8B6B
S1132230AB8BBC8B8D899E89FC012081318189897E
S11322409A89AB89BC89AC01BD01C9010E940A0508
S11322508D899E89FC012081318189859A85AB8590
S1132260BC85AC01BD01C9010E9468058D899E89A8
S1132270FC012081318189819A81AB81BC81AC01CF
S1132280BD01C9010E942D058D899E89FC01208113
S113229031818D859E85AF85B889AC01BD01C901A9
S11322A00E948B0566960FB6F894DEBF0FBECDBFB5
S11322B0DF91CF911F910F91FF90EF90DF90CF901E
S11322C0BF90AF909F908F907F9008952F923F92F0
S11322D04F925F926F927F928F929F92AF92BF9232
S11322E0CF92DF92EF92FF920F931F93CF93DF93DE
S11322F0CDB7DEB72E970FB6F894DEBF0FBECDBFB5
S11323009A87898789859A85FC01C6A0D7A0E0A40D
S1132310F1A489859A85FC01808191810E9404043D
S11323206B877C878D879E8789859A85FC0122A08F
S113233033A044A055A089859A85FC0180819181B0
S11323400E94EC033B014C0189859A85FC01808144
S113235091810E943503DC01CB012F2D2F932E2D6B
S11323602F932D2D2F932C2D2F93AB84BC84CD84B0
S1132370DE8482017101A4019301BC01CD010E949C
S1132380C10A0F900F900F900F90DC01CB0189834D
S11323909A83AB83BC8389859A85825A9F4FFC01BB
S11323A0E080F1800281138189859A85865A9F4F46
S11323B0FC01208131814281538189819A81AB81E1
S11323C0BC81E985FA856701780189019A01AC012C
S11323D0BD01CF010E94650ADC01CB018D839E8380
S11323E0AF83B88789859A85FC01208131818981F1
S11323F09A81AB81BC81AC01BD01C9010E94B302C9
S113240089859A85FC01208131818D819E81AF81EE
S1132410B885AC01BD01C9010E94E9022E960FB630
S1132420F894DEBF0FBECDBFDF91CF911F910F9106
S1132430FF90EF90DF90CF90BF90AF909F908F90E0
S11324407F906F905F904F903F902F9008952F92C0
S11324503F924F925F926F927F928F929F92AF9230
S1132460BF92CF92DF92EF92FF920F931F93CF937D
S1132470DF93CDB7DEB72E970FB6F894DEBF0FBE4D
S1132480CDBF9A87898789859A85CE96FC01C080BD
S1132490D180E280F38089859A85FC0180819181D5
S11324A00E94C6056B877C878D879E8789859A8560
S11324B0FC0122AC33AC44AC55AC89859A85FC0153
S11324C0808191810E94AE053B014C0189859A85EA
S11324D0FC01808191810E94F204DC01CB012F2D4B
S11324E02F932E2D2F932D2D2F932C2D2F93AB84A3
S11324F0BC84CD84DE8482017101A4019301BC01FA
S1132500CD010E94C10A0F900F900F900F90DC0133
S1132510CB0189839A83AB83BC8389859A858A5945
S11325209F4FFC01E080F1800281138189859A85A7
S11325308E599F4FFC0120813181428153818981D1
S11325409A81AB81BC81E985FA85670178018901AB
S11325509A01AC01BD01CF010E94650ADC01CB01E7
S11325608D839E83AF83B88789859A85FC012081FA
S1132570318189819A81AB81BC81AC01BD01C901E2
S11325800E94640489859A85FC01208131818D81B2
S11325909E81AF81B885AC01BD01C9010E949F0431
S11325A02E960FB6F894DEBF0FBECDBFDF91CF914C
S11325B01F910F91FF90EF90DF90CF90BF90AF905D
S11325C09F908F907F906F905F904F903F902F904F
S11325D00895CF93DF931F921F92CDB7DEB79A83EE
S11325E0898389819A812AE032E0FC013183208346
S11325F080E090E081709927009721F089819A8189
S11326000E9423400F900F90DF91CF910895CF93B4
S1132610DF931F921F92CDB7DEB79A838983898196
S11326209A810E94E91289819A810E9423400F9025
S11326300F90DF91CF910895CF93DF9300D01F9235
S1132640CDB7DEB79C838B831A8219828B819C81E0
S1132650FC0182858823B9F18B819C81FC018281F4
S11326609381A481B581880F991FAA1FBB1F880F6E
S1132670991FAA1FBB1F880F991FAA1FBB1F9C016C
S1132680AD0180E094E2A4EFB0E0BC01CD010E9472
S1132690874ADA01C9010197A109B109BC01CD0139
S11326A00E941747DC01CB01BC01CD010E945447B5
S11326B0DC01CB01BC01CD010E94EB46DC01CB0166
S11326C09A8389833AC08B819C81FC0182819381A6
S11326D0A481B581880F991FAA1FBB1F880F991F5A
S11326E0AA1FBB1F880F991FAA1FBB1F880F991F02
S11326F0AA1FBB1F9C01AD0180E094E2A4EFB0E0EF
S1132700BC01CD010E94874ADA01C9010197A109E0
S1132710B109BC01CD010E941747DC01CB01BC010A
S1132720CD010E945447DC01CB01BC01CD010E94C4
S1132730EB46DC01CB019A8389838B819C81FC016C
S11327408681882341F584EC90E029813A81FC015B
S11327503183208382EC90E022EC30E0F901208187
S11327602660FC0120838B819C81FC018285882367
S113277049F080EC90E020EC30E0F9012081226007
S1132780FC01208381EC90E021EC30E0F901208110
S11327902861FC0120830F900F900F900F90DF9120
S11327A0CF910895CF93DF9300D0CDB7DEB79A834E
S11327B089836B8389819A81FC018681882309F04E
S11327C042C089819A81FC018185882309F189812C
S11327D09A81FC01878190850E941F4519C08981D7
S11327E09A81FC0181858823A1F089819A81FC0169
S11327F0878190850E94D945882359F089819A81DF
S1132800FC01878190850E94F3458FEF9FEF1DC0E7
S1132810000080EC90E0FC018081882F90E08072C1
S1132820992721E0009709F020E02223C1F686ECE5
S113283090E02B81FC01208389819A81FC018781AE
S113284090850E94F34580E090E00F900F900F90E8
S1132850DF91CF910895CF93DF9300D01F921F9201
S1132860CDB7DEB79B838A837D836C8319828A818B
S11328709B81FC018681882309F041C08A819B8168
S1132880FC0181858823D9F08A819B81FC018781A1
S113289090850E941F4513C08A819B81FC0187811A
S11328A090850E94D945882359F08A819B81FC0137
S11328B0878190850E94F3458FEF9FEF29C0000028
S11328C080EC90E0FC0180818095881F8827881F18
S11328D0882311F780EC90E0FC018081882F90E040
S11328E08870992721E0009709F420E0298386EC79
S11328F090E0FC0120818C819D81FC0120838A81F0
S11329009B81FC01878190850E94F34580E090E0E3
S11329100F900F900F900F900F90DF91CF9108952B
S1132920CF93DF931F921F92CDB7DEB79A8389832B
S113293089819A8122E832E0FC013183208380E09E
S113294090E081709927009721F089819A810E94F3
S113295023400F900F90DF91CF910895CF93DF9391
S11329601F921F92CDB7DEB79A83898389819A819A
S11329700E94901489819A810E9423400F900F90A5
S1132980DF91CF910895CF93DF93CDB7DEB728972A
S11329900FB6F894DEBF0FBECDBF9A8389837C83C4
S11329A06B835E834D8338872F8389819A814D8120
S11329B05E812B813C81B9010E94203F89819A81EB
S11329C028E132E0FC013183208389819A81FC0172
S11329D0178289819A812F813885FC01318720876C
S11329E028960FB6F894DEBF0FBECDBFDF91CF910E
S11329F00895CF93DF931F921F92CDB7DEB79A83CA
S1132A00898381E290E021E230E0F9012081622FA4
S1132A1029813A81F9014085518521E030E0042E75
S1132A2002C0220F331F0A94E2F7262BFC012083F5
S1132A300F900F90DF91CF910895CF93DF931F9262
S1132A401F92CDB7DEB79A83898389819A81FC016D
S1132A5087818823E9F082E290E022E230E0F90104
S1132A602081622F29813A81F9014085518521E035
S1132A7030E0042E02C0220F331F0A94E2F720959F
S1132A802623FC01208389819A81FC0117821CC0C2
S1132A9082E290E022E230E0F9012081622F298174
S1132AA03A81F9014085518521E030E0042E02C0CD
S1132AB0220F331F0A94E2F7262BFC01208389811D
S1132AC09A8121E0FC0127830F900F90DF91CF9131
S1132AD00895CF93DF931F921F92CDB7DEB79A83E9
S1132AE0898389819A81FC01828D0F900F90DF91F7
S1132AF0CF910895EF92FF920F931F93CF93DF939B
S1132B00CDB7DEB72C970FB6F894DEBF0FBECDBF9E
S1132B109A8389834B835C836D837E8338872F8379
S1132B20E986FA860B871C8729813A818B819C81EF
S1132B30AD81BE81F90180839183A283B3838981AE
S1132B409A812F813885FC013583248329853A8530
S1132B5089819A81FC01378326832C960FB6F894D9
S1132B60DEBF0FBECDBFDF91CF911F910F91FF90BC
S1132B70EF900895CF92EF920F931F93CF93DF932B
S1132B80CDB7DEB72B970FB6F894DEBF0FBECDBF1F
S1132B909A8389834B835C836D837E832F83198718
S1132BA00887EA86CB8689819A812AE032E0FC0193
S1132BB03183208329813A818B819C81AD81BE81BF
S1132BC0F90182839383A483B58389819A812F81B8
S1132BD0FC01268389819A8128853985FC01308707
S1132BE0278389819A812A85FC01218789819A8199
S1132BF02B85FC0122872B960FB6F894DEBF0FBEFF
S1132C00CDBFDF91CF911F910F91EF90CF90089599
S1132C10CF93DF9300D01F92CDB7DEB79A83898319
S1132C207C836B8389819A812B813C81FC01318374
S1132C3020830F900F900F900F90DF91CF91089504
S1132C40CF93DF931F921F92CDB7DEB79A83898308
S1132C5089819A81FC0110821182128213828981F6
S1132C609A81FC01148215821682178289819A81C5
S1132C70FC01108611861286138689819A81FC01D3
S1132C80148615861686178689819A81FC01108A16
S1132C90118A128A138A89819A81FC01148A158AFD
S1132CA0168A178A89819A81FC01108E118E128EE0
S1132CB0138E89819A81FC01148E158E168E178EBF
S1132CC089819A81FC0110A211A212A213A2898106
S1132CD09A81FC0114A215A216A217A289819A81D5
S1132CE0FC0110A611A612A613A689819A81FC01E3
S1132CF014A615A616A617A689819A81FC0110AA06
S1132D0011AA12AA13AA89819A81FC0114AA15AAEC
S1132D1016AA17AA89819A81FC0110AE11AE12AECF
S1132D2013AE89819A81FC0114AE15AE16AE17AEAE
S1132D3089819A81805C9F4FFC01108211821282EA
S1132D40138289819A818C5B9F4FFC0110821182CE
S1132D501282138289819A81885B9F4FFC011082C1
S1132D6011821282138289819A81845B9F4FFC01B4
S1132D70108211821282138289819A81805B9F4F13
S1132D80FC01108211821282138289819A818C5AE9
S1132D909F4FFC01108211821282138289819A81D1
S1132DA0885A9F4FFC0110821182128213828981FA
S1132DB09A81845A9F4FFC011082118212821382DD
S1132DC089819A81805A9F4FFC011082118212825C
S1132DD0138289819A818C599F4FFC011082118240
S1132DE01282138289819A8188599F4FFC01108233
S1132DF011821282138289819A8184599F4FFC0126
S1132E00108211821282138289819A8180599F4F84
S1132E10FC01108211821282138289819A818C585A
S1132E209F4FFC01108211821282138289819A8140
S1132E3088589F4FFC01108211821282138289816B
S1132E409A8184589F4FFC0110821182128213824E
S1132E5089819A8180589F4FFC01108211821282CD
S1132E60138289819A818C579F4FFC0110821182B1
S1132E701282138289819A8188579F4FFC011082A4
S1132E8011821282138289819A8184579F4FFC0197
S1132E90108211821282138289819A8180579F4FF6
S1132EA0FC01108211821282138289819A818C56CC
S1132EB09F4FFC01108211821282138289819A81B0
S1132EC088569F4FFC0110821182128213828981DD
S1132ED09A8184569F4FFC011082118212821382C0
S1132EE089819A8180569F4FFC011082118212823F
S1132EF0138289819A818C559F4FFC011082118223
S1132F001282138289819A8188559F4FFC01108215
S1132F1011821282138289819A8184559F4FFC0108
S1132F20108211821282138289819A8180559F4F67
S1132F30FC01108211821282138289819A818C543D
S1132F409F4FFC01108211821282138289819A811F
S1132F5088549F4FFC01108211821282138289814E
S1132F609A8184549F4FFC01108211821282138231
S1132F7089819A8180549F4FFC01108211821282B0
S1132F80138289819A818C539F4FFC011082118294
S1132F901282138289819A8188539F4FFC01108287
S1132FA011821282138289819A8184539F4FFC017A
S1132FB0108211821282138289819A8180539F4FD9
S1132FC0FC01108211821282138289819A818C52AF
S1132FD09F4FFC01108211821282138289819A818F
S1132FE088529F4FFC0110821182128213828981C0
S1132FF09A8184529F4FFC011082118212821382A3
S113300089819A8180529F4FFC0110821182128221
S1133010138289819A818C519F4FFC011082118205
S11330201282138289819A8188519F4FFC011082F8
S113303011821282138289819A8184519F4FFC01EB
S1133040108211821282138289819A8180519F4F4A
S1133050FC0110821182128213820F900F90DF9173
S1133060CF910895CF93DF9300D000D0CDB7DEB7D2
S11330709A8389834B835C836D837E8329813A8120
S11330808B819C81AD81BE81F90184839583A68364
S1133090B78326960FB6F894DEBF0FBECDBFDF917F
S11330A0CF910895CF93DF9300D000D0CDB7DEB792
S11330B09A8389834B835C836D837E8329813A81E0
S11330C08B819C81AD81BE81F901848B958BA68B0C
S11330D0B78B26960FB6F894DEBF0FBECDBFDF9137
S11330E0CF910895CF93DF9300D000D0CDB7DEB752
S11330F09A8389834B835C836D837E8329813A81A0
S11331008B819C81AD81BE81F90180A791A7A2A783
S1133110B3A726960FB6F894DEBF0FBECDBFDF91DE
S1133120CF910895CF93DF9300D000D0CDB7DEB711
S11331309A8389834B835C836D837E8329813A815F
S11331408B819C81AD81BE81F90180AF91AFA2AF2B
S1133150B3AF26960FB6F894DEBF0FBECDBFDF9196
S1133160CF910895CF93DF9300D000D0CDB7DEB7D1
S11331709A8389834B835C836D837E8389819A815F
S11331809C01285A3F4F8B819C81AD81BE81F901FE
S113319080839183A283B38326960FB6F894DEBF0F
S11331A00FBECDBFDF91CF910895CF93DF9300D0B1
S11331B000D0CDB7DEB79A8389834B835C836D835C
S11331C07E8389819A819C0128593F4F8B819C8100
S11331D0AD81BE81F90180839183A283B383269656
S11331E00FB6F894DEBF0FBECDBFDF91CF91089527
S11331F0CF93DF931F921F92CDB7DEB79A83898353
S113320089819A818C579F4FFC0180819181A28191
S1133210B381BC01CD010F900F90DF91CF91089540
S1133220CF93DF9300D000D0CDB7DEB79A838983E4
S11332304B835C836D837E8389819A819C012457AF
S11332403F4F8B819C81AD81BE81F9018083918345
S1133250A283B38326960FB6F894DEBF0FBECDBF0C
S1133260DF91CF910895CF93DF9300D000D0CDB7F5
S1133270DEB79A8389834B835C836D837E838981E4
S11332809A819C0124563F4F8B819C81AD81BE81E4
S1133290F90180839183A283B38326960FB6F894B1
S11332A0DEBF0FBECDBFDF91CF910895CF93DF93E3
S11332B01F921F92CDB7DEB79A83898389819A8141
S11332C084559F4FFC0180819181A281B381BC010F
S11332D0CD010F900F90DF91CF910895CF93DF939D
S11332E01F921F92CDB7DEB79A83898389819A8111
S11332F080559F4FFC0180819181A281B381BC01E3
S1133300CD010F900F90DF91CF910895CF93DF936C
S113331000D000D0CDB7DEB79A8389834B835C831A
S11333206D837E836B817C818D819E810E94194790
S1133330DC01CB0129813A812C533F4FF901808371
S11333409183A283B38326960FB6F894DEBF0FBE93
S1133350CDBFDF91CF910895CF93DF9300D000D0FC
S1133360CDB7DEB79A8389834B835C836D837E8379
S11333706B817C818D819E810E941947DC01CB0188
S113338029813A8128533F4FF90180839183A28395
S1133390B38326960FB6F894DEBF0FBECDBFDF9180
S11333A0CF910895CF93DF9300D000D0CDB7DEB78F
S11333B09A8389834B835C836D837E836B817C8159
S11333C08D819E810E941947DC01CB0129813A81BC
S11333D024533F4FF90180839183A283B3832696BC
S11333E00FB6F894DEBF0FBECDBFDF91CF91089525
S11333F0CF93DF9300D000D0CDB7DEB79A83898313
S11334004B835C836D837E8329813A818B819C818C
S1133410AD81BE81F901828B938BA48BB58B2696EB
S11334200FB6F894DEBF0FBECDBFDF91CF910895E4
S1133430CF93DF9300D000D0CDB7DEB79A838983D2
S11334404B835C836D837E8329813A818B819C814C
S1133450AD81BE81F901868B978BA08FB18F2696A3
S11334600FB6F894DEBF0FBECDBFDF91CF910895A4
S1133470CF93DF9300D000D0CDB7DEB79A83898392
S11334804B835C836D837E8329813A818B819C810C
S1133490AD81BE81F901828F938FA48FB58F26965B
S11334A00FB6F894DEBF0FBECDBFDF91CF91089564
S11334B0CF93DF9300D000D0CDB7DEB79A83898352
S11334C04B835C836D837E8329813A818B819C81CC
S11334D0AD81BE81F901868F978FA0A3B1A32696F3
S11334E00FB6F894DEBF0FBECDBFDF91CF91089524
S11334F0CF93DF9300D000D0CDB7DEB79A83898312
S11335004B835C836D837E8329813A818B819C818B
S1133510AD81BE81F90182A393A3A4A3B5A326968A
S11335200FB6F894DEBF0FBECDBFDF91CF910895E3
S1133530CF93DF9300D000D0CDB7DEB79A838983D1
S11335404B835C836D837E8329813A818B819C814B
S1133550AD81BE81F90186A397A3A0A7B1A7269642
S11335600FB6F894DEBF0FBECDBFDF91CF910895A3
S1133570CF93DF9300D000D0CDB7DEB79A83898391
S11335804B835C836D837E8389819A819C01265A57
S11335903F4F8B819C81AD81BE81F90180839183F2
S11335A0A283B38326960FB6F894DEBF0FBECDBFB9
S11335B0DF91CF910895CF93DF9300D000D0CDB7A2
S11335C0DEB79A8389834B835C836D837E83898191
S11335D09A819C01225A3F4F8B819C81AD81BE818F
S11335E0F90180839183A283B38326960FB6F8945E
S11335F0DEBF0FBECDBFDF91CF910895CF93DF9390
S113360000D000D0CDB7DEB79A8389834B835C8327
S11336106D837E8329813A818B819C81AD81BE81BA
S1133620F90182A793A7A4A7B5A726960FB6F89485
S1133630DEBF0FBECDBFDF91CF910895CF93DF934F
S113364000D000D0CDB7DEB79A8389834B835C83E7
S11336506D837E8329813A818B819C81AD81BE817A
S1133660F90186A797A7A0ABB1AB26960FB6F8943D
S1133670DEBF0FBECDBFDF91CF910895CF93DF930F
S113368000D000D0CDB7DEB79A8389834B835C83A7
S11336906D837E8329813A818B819C81AD81BE813A
S11336A0F90182AB93ABA4ABB5AB26960FB6F894F5
S11336B0DEBF0FBECDBFDF91CF910895CF93DF93CF
S11336C000D000D0CDB7DEB79A8389834B835C8367
S11336D06D837E8329813A818B819C81AD81BE81FA
S11336E0F90186AB97ABA0AFB1AF26960FB6F894AD
S11336F0DEBF0FBECDBFDF91CF910895CF93DF938F
S113370000D000D0CDB7DEB79A8389834B835C8326
S11337106D837E8329813A818B819C81AD81BE81B9
S1133720F90182AF93AFA4AFB5AF26960FB6F89464
S1133730DEBF0FBECDBFDF91CF910895CF93DF934E
S113374000D000D0CDB7DEB79A8389834B835C83E6
S11337506D837E8389819A819C01225C3F4F8B819A
S11337609C81AD81BE81F90180839183A283B3835F
S113377026960FB6F894DEBF0FBECDBFDF91CF9172
S11337800895CF93DF9300D000D0CDB7DEB79A83EE
S113379089834B835C836D837E8389819A819C01B9
S11337A02E593F4F8B819C81AD81BE81F90180836D
S11337B09183A283B38326960FB6F894DEBF0FBE1F
S11337C0CDBFDF91CF910895CF93DF9300D000D088
S11337D0CDB7DEB79A8389834B835C836D837E8305
S11337E089819A819C012A593F4F8B819C81AD81AB
S11337F0BE81F90180839183A283B38326960FB699
S1133800F894DEBF0FBECDBFDF91CF910895CF9363
S1133810DF9300D000D0CDB7DEB79A8389834B8382
S11338205C836D837E8389819A819C0126593F4FF5
S11338308B819C81AD81BE81F90180839183A283B8
S1133840B38326960FB6F894DEBF0FBECDBFDF91CB
S1133850CF910895CF93DF9300D000D0CDB7DEB7DA
S11338609A8389834B835C836D837E8389819A8168
S11338709C0122593F4F8B819C81AD81BE81F9010E
S113388080839183A283B38326960FB6F894DEBF18
S11338900FBECDBFDF91CF910895CF93DF9300D0BA
S11338A000D0CDB7DEB79A8389834B835C836D8365
S11338B07E8389819A819C0122583F4F8B819C8110
S11338C0AD81BE81F90180839183A283B38326965F
S11338D00FB6F894DEBF0FBECDBFDF91CF91089530
S11338E0CF93DF9300D000D0CDB7DEB79A8389831E
S11338F04B835C836D837E8389819A819C012658E6
S11339003F4F8B819C81AD81BE81F901808391837E
S1133910A283B38326960FB6F894DEBF0FBECDBF45
S1133920DF91CF910895CF93DF9300D000D0CDB72E
S1133930DEB79A8389834B835C836D837E8389811D
S11339409A819C012A583F4F8B819C81AD81BE8115
S1133950F90180839183A283B38326960FB6F894EA
S1133960DEBF0FBECDBFDF91CF910895CF93DF931C
S113397000D000D0CDB7DEB79A8389834B835C83B4
S11339806D837E8389819A819C012E583F4F8B8160
S11339909C81AD81BE81F90180839183A283B3832D
S11339A026960FB6F894DEBF0FBECDBFDF91CF9140
S11339B00895CF93DF9300D000D0CDB7DEB79A83BC
S11339C089834B835C836D837E8329813A818B81D8
S11339D09C81AD81BE81F90182879387A487B587D5
S11339E026960FB6F894DEBF0FBECDBFDF91CF9100
S11339F00895CF93DF9300D000D0CDB7DEB79A837C
S1133A0089834B835C836D837E8329813A818B8197
S1133A109C81AD81BE81F90182839383A483B583A4
S1133A2026960FB6F894DEBF0FBECDBFDF91CF91BF
S1133A300895CF93DF9300D000D0CDB7DEB79A833B
S1133A4089834B835C836D837E8329813A818B8157
S1133A509C81AD81BE81F90186839783A087B1875C
S1133A6026960FB6F894DEBF0FBECDBFDF91CF917F
S1133A700895CF93DF9300D000D0CDB7DEB79A83FB
S1133A8089834B835C836D837E8389819A819C01C6
S1133A902E573F4F8B819C81AD81BE81F90180837C
S1133AA09183A283B38326960FB6F894DEBF0FBE2C
S1133AB0CDBFDF91CF910895CF93DF9300D000D095
S1133AC0CDB7DEB79A8389834B835C836D837E8312
S1133AD029813A818B819C81AD81BE81F9018687E0
S1133AE09787A08BB18B26960FB6F894DEBF0FBED6
S1133AF0CDBFDF91CF910895CF93DF9300D000D055
S1133B00CDB7DEB79A8389834B835C836D837E83D1
S1133B1089819A819C012E5A3F4F8B819C81AD8172
S1133B20BE81F90180839183A283B38326960FB665
S1133B30F894DEBF0FBECDBFDF91CF910895CF9330
S1133B40DF9300D000D0CDB7DEB79A8389834B834F
S1133B505C836D837E8389819A819C012A5A3F4FBD
S1133B608B819C81AD81BE81F90180839183A28385
S1133B70B38326960FB6F894DEBF0FBECDBFDF9198
S1133B80CF910895CF93DF9300D000D0CDB7DEB7A7
S1133B909A8389834B835C836D837E8389819A8135
S1133BA09C012A573F4F8B819C81AD81BE81F901D5
S1133BB080839183A283B38326960FB6F894DEBFE5
S1133BC00FBECDBFDF91CF910895CF93DF9300D087
S1133BD000D0CDB7DEB79A8389834B835C836D8332
S1133BE07E8389819A819C0126573F4F8B819C81DA
S1133BF0AD81BE81F90180839183A283B38326962C
S1133C000FB6F894DEBF0FBECDBFDF91CF910895FC
S1133C10CF93DF9300D01F92CDB7DEB79A83898309
S1133C207C836B8389819A8140E050E0BA010E94D1
S1133C30321889819A8140E050E0BA010E945218FA
S1133C4089819A8140E050E068EC72EC0E9410197E
S1133C5089819A8140E050E0BA010E943319898138
S1133C609A8140E050E0BA010E94721889819A81D9
S1133C7040E050E0BA010E94921889819A8140E0A4
S1133C8050E0BA010E94B21889819A8140E050E064
S1133C90BA010E94D5188B819C8140E050E060E419
S1133CA070E40E94D91C8B819C814FE652E163E051
S1133CB07CE30E94F91C8B819C814AE959E969E5FE
S1133CC07FE30E94191D8B819C814DEC5CEC6CECB4
S1133CD07DE30E945C1D8B819C814FEC57EF63E96F
S1133CE07EE30E94381A8B819C8140E050E0BA0147
S1133CF00E94F8198B819C8146EB53EF6DEE7FE3B4
S1133D000E94181A8B819C8140E050E0BA010E9405
S1133D10581A8B819C8146EB53EF6DEF7CE30E9434
S1133D20781A8B819C814FE852EC65EF7CE30E940A
S1133D30981A8B819C814EE95FEE67EB7FE30E94CA
S1133D403E1B8B819C8140E050E0BA010E94FE1A28
S1133D508B819C8140EF55E865E370E40E941E1B53
S1133D608B819C8140E050E0BA010E945E1B8B81F4
S1133D709C814FE75AE66CEB7DE30E947E1B8B81AE
S1133D809C8146EA5BE964E47DE30E949E1B8B818F
S1133D909C814DEC5CEC6CE47DE30E94391D8B81CD
S1133DA09C8140E050E060E87FE30E94C21D8B816B
S1133DB09C8140E050E060E87FEB0E94E51D8B8130
S1133DC09C8140E050E060E87FEB0E947C1D8B8189
S1133DD09C8140E050E060E87FE30E949F1D8B815E
S1133DE09C8140E050E060E87FE30E94DB1A8B8115
S1133DF09C8140E050E060E87FEB0E94B81A8B8120
S1133E009C8140E050E060E87FE30E94E41B8B81EA
S1133E109C8140E050E060E87FEB0E94C11B8B81F5
S1133E209C8140E050E060E07FE30E942A1C8B818B
S1133E309C8140E050E0BA010E94071C8B819C8168
S1133E4040E050E060EA70E40E944D1C8B819C814C
S1133E5040E050E060EA70EC0E94701C8B819C8111
S1133E6040E050E060E571E40E94931C8B819C81EA
S1133E7040E050E060E571EC0E94B61C0F900F909A
S1133E800F900F90DF91CF9108954F925F926F92B0
S1133E907F928F929F92AF92BF92CF92DF92EF92D6
S1133EA0FF920F931F93CF93DF93CDB7DEB7E797BE
S1133EB00FB6F894DEBF0FBECDBF84EF90E00E9432
S1133EC012408C01C8010E9420161B830A838EE8CD
S1133ED090E00E9412408C018A819B81BC01C80140
S1133EE00E9470071D830C832C813D818A819B81F4
S1133EF0B9010E94081E88E090E00E9412406C0103
S1133F001AE0E12EF12C00E010E020E034E040E083
S1133F1054E264EF70E0C6010E947A15DF82CE821B
S1133F208BE090E00E9412405C018E819F81CC2442
S1133F30C394EE24E3948C0120E040E05CE261E071
S1133F4070E0C5010E94BA15B986A886888599854E
S1133F50FC01808191810496FC0120813181888556
S1133F609985F901199582E090E00E9412408C0134
S1133F7088859985BC01C8010E9408161B870A8799
S1133F808DE090E00E9412406C012C813D814A81B9
S1133F905B818A859B856894EE24E2F8F12C00E02D
S1133FA010E0BC01C6010E94573CDD86CC868BE044
S1133FB090E00E9412407C014A815B818A859B8546
S1133FC004E010E021E030E0BC01C7010E94693F39
S1133FD0FF86EE868AE090E00E9412408C0123E086
S1133FE030E046E450E062E070E0C8010E94C3148F
S1133FF0198B088B89E090E00E9412408C018A8121
S11340009B8124E030E045E050E0BC01C8010E94FF
S1134010683A1B8B0A8B89E090E00E9412408C0165
S11340208C819D8123E030E043E050E0BC01C80175
S11340300E9416391D8B0C8B89E090E00E9412407F
S11340408C018C819D8123E030E044E050E0BC0190
S1134050C8010E9492381F8B0E8B0E94EE35998FF7
S1134060888F28893989888D998DB9010E947E3677
S11340702C853D85888D998DB9010E947E362E85CB
S11340803F85888D998DB9010E947E362C893D89A2
S1134090888D998DB9010E947E362E893F89888D3D
S11340A0998DB9010E947E362A893B89888D998D24
S11340B0B9010E947E3619822EC18C859D85FC0132
S11340C080819181FC01208131818C859D85F9015C
S11340D019958A819B810E945619DC01CB0120E04D
S11340E030E0A901BC01CD010E947746882389F004
S11340F08A819B810E946E19DC01CB0120E030E0B3
S1134100A901BC01CD010E947746882311F081E00A
S113411001C080E0882309F482C081E089838A8118
S11341209B818C0100531F4F8A819B810E946E19D1
S11341306B017C018A819B810E945619DC01CB01B1
S1134140A7019601BC01CD010E947D4018A619A6C5
S11341501AA61BA61CA61DA61EA61FA618AA19AA47
S11341601AAA1BAA8A819B810E94F8186CAB7DABAA
S11341708EAB9FAB8A819B810E946E192B013C01FF
S11341808A819B810E945619DC01CB01BE01605DCE
S11341907F4FAE01445D5F4F9E01285D3F4F4B0151
S11341A05A016901ECA8FDA80EA91FA9A301920157
S11341B0BC01CD010E942C4288A599A5AAA5BBA546
S11341C0BC01CD010E94E646DC01CB012A813B8182
S11341D0AC01BD01C9010E9486198CA59DA5AEA59F
S11341E0BFA5BC01CD010E94E646DC01CB012A81BA
S11341F03B81AC01BD01C9010E94AC1988A999A9F0
S1134200AAA9BBA9BC01CD010E94E646DC01CB01F1
S11342102A813B81AC01BD01C9010E94D21980E011
S113422090E0A8ECB2E48A8F9B8FAC8FBD8F20E026
S113423030E04AE755E46A8D7B8D8C8D9D8D0E941C
S11342405948DC01CB018E8F9F8FA8A3B9A320E02E
S113425030E040E85FE36E8D7F8D88A199A10E94D4
S1134260774688232CF481E090E09BA38AA346C080
S113427020E03FEF4FE757E46E8D7F8D88A199A131
S11342800E945548181684F520E030E040E251E4DD
S11342906A8D7B8D8C8D9D8D0E945948DC01CB01EC
S11342A0BC01CD010E94EB46DC01CB019BA38AA398
S11342B012C080E991E09DA38CA38CA19DA18C01E7
S11342C0C8010197F1F78C011DA30CA38AA19BA13E
S11342D001979BA38AA321E08AA19BA1009709F4DB
S11342E020E0222331F717C06E8D7F8D88A199A11C
S11342F00E94EB46DC01CB019BA38AA38AA19BA16C
S11343009FA38EA38EA19FA18C01F8013197F1F791
S11343108F011FA30EA3998181E08927882309F0C7
S1134320CCCE888D998D0E94B936888D998D0E9446
S1134330913701C00000888D998D0E941A37888DAD
S1134340998D0E9469158823A9F38C819D810E940F
S11343507E0BF0CFCF93DF931F921F92CDB7DEB7C2
S11343609A83898389819A8128E132E0FC0131832F
S1134370208389819A810E94901480E090E081706A
S11343809927009721F089819A810E9423400F90F8
S11343900F90DF91CF910895CF93DF931F921F92D7
S11343A0CDB7DEB79A83898389819A810E94AA2135
S11343B089819A810E9423400F900F90DF91CF91C1
S11343C008950F931F93CF93DF93CDB7DEB72D9747
S11343D00FB6F894DEBF0FBECDBF9D838C837F8361
S11343E06E83598748873B872A871D870C871A82E3
S11343F0198226C089819A812E813F81820F931F61
S1134400FC0180818B838A859B85FC0190818B8153
S1134410292F280F8A859B85FC0120838C859D8507
S1134420FC0120818A859B85FC018081280F8C8575
S11344309D85FC01208389819A8101969A838983D1
S113444041E029813A8188859985281739070CF03C
S113445040E0442379F62D960FB6F894DEBF0FBEE4
S1134460CDBFDF91CF911F910F910895CF92DF922D
S1134470EF92FF920F931F93CF93DF93CDB7DEB7E5
S113448064970FB6F894DEBF0FBECDBF9A8B898BAD
S11344907C8B6B8BEDB6FEB61A8219828B899C8954
S11344A0009709F4B3C08DB79EB76C018B899C89C2
S11344B0FC01808191810496FC01208131818B89EA
S11344C09C89F90119959E838D838B899C890E940F
S11344D0B72498878F838F81988505969A878987D3
S11344E089859A8501979C878B8701962DB73EB75E
S11344F0281B390B0FB6F8943EBF0FBE2DBF8DB7E6
S11345009EB701969E878D878D859E8525EBFC0140
S113451020838D859E8522E6FC0121838D859E85E1
S113452027EDFC0122834F8158858D859E85039656
S11345302D813E81B9010E94F74B1F86188AFE0126
S113454070969E01215F3F4F4F8158856D817E811A
S113455089899A898F010E94E12189859A85029728
S11345604F852D853E85820F931FFC0140838985ED
S11345709A85019748892D853E85820F931FFC01FA
S113458040831C821B8223C089899A89FC01808113
S11345909181FC01808191810696FC012081318109
S11345A04D855E858B819C81840F951FFC01408124
S11345B089899A89FC0180819181642FF901199577
S11345C09A8389838B819C8101969C838B832B8125
S11345D03C8189859A852817390734F489819A8121
S11345E0009711F481E001C080E0882369F68D8191
S11345F09E81009721F08D819E810E9449401E82F8
S11346001D820FB6F894DEBE0FBECDBE89819A819D
S11346100FB6F894FEBE0FBEEDBE64960FB6F894C6
S1134620DEBF0FBECDBFDF91CF911F910F91FF90E1
S1134630EF90DF90CF900895CF92DF92EF92FF92A8
S11346400F931F93CF93DF93CDB7DEB766970FB663
S1134650F894DEBF0FBECDBF9C8B8B8B7E8B6D8B96
S1134660EDB6FEB61A8219821B821C821D861DC0FD
S11346708C818B838D858C838B899C89FC018081C3
S11346809181FC01808191810896FC012081318116
S11346908B899C89FC0180819181AE01435F5F4FCE
S11346A0BA01F90119959A8389838B81853B31F489
S11346B08C81823619F48D85873D31F089819A8108
S11346C0009711F481E001C080E0882389F6898194
S11346D09A81009709F0F9C01E868B899C89FC0198
S11346E080819181FC01808191810896FC01208167
S11346F031818B899C89FC0180819181AE01425F6B
S11347005F4FBA01F90119959A83898389819A8146
S1134710009709F0DAC01E821D828E85882F90E0F2
S11347208230910529F485EE90E09E838D8305C047
S11347308EEF9FEF9A838983000089819A81009785
S113474009F0C3C08DB79EB76C018D819E8101971E
S11347509A87898701962DB73EB7281B390B0FB668
S1134760F8943EBF0FBE2DBF8DB79EB701969C87B0
S11347708B872E858B859C85FC01208381E090E0CE
S113478098878F8321C08B899C89FC0180819181CA
S1134790FC01808191810896FC01208131814B8547
S11347A05C858F819885480F591F8B899C89FC01F2
S11347B080819181BA01F90119959A8389838F8146
S11347C09885019698878F832F8138858D819E8166
S11347D02817390734F489819A81009711F481E00C
S11347E001C080E0882379F689819A81009709F0D5
S11347F067C01F86188A198A1A8A8B899C89FC01CA
S113480080819181FC01808191810896FC01208145
S113481031818B899C89FC0180819181AE01415F4A
S11348205F4FBA01F90119959A8389838B899C8911
S1134830FC0180819181FC01808191810896FC01B9
S1134840208131818B899C89FC0180819181AE0119
S1134850405F5F4FBA01F90119959A8389836B858B
S11348607C85FE0172969E012F5E3F4F4D815E81D5
S11348708B899C898F010E94E12199898F859817E2
S1134880D9F49A8988899817B9F48E85882F90E08D
S11348908230910559F48B859C850E940B329C01D2
S11348A08D899E89FC013183208305C08EEF9FEFA3
S11348B09A838983000004C08DEF9FEF9A838983D4
S11348C00FB6F894DEBE0FBECDBE89819A810097E3
S11348D029F08D899E89FC011182108289819A8137
S11348E00FB6F894FEBE0FBEEDBE66960FB6F894F2
S11348F0DEBF0FBECDBFDF91CF911F910F91FF900F
S1134900EF90DF90CF900895CF93DF931F921F9283
S1134910CDB7DEB79A83898389819A8126E232E012
S1134920FC013183208380E090E081709927009717
S113493021F089819A810E9423400F900F90DF918A
S1134940CF910895CF93DF931F921F92CDB7DEB717
S11349509A83898389819A810E94842489819A8196
S11349600E9423400F900F90DF91CF910895CF9331
S1134970DF931F921F92CDB7DEB79A838983898113
S11349809A81FC01838194810F900F90DF91CF91E4
S11349900895CF93DF931F921F92CDB7DEB79A830A
S11349A0898380E090E00F900F90DF91CF9108957C
S11349B0CF93DF9300D01F92CDB7DEB79A8389835C
S11349C07C836B830F900F900F900F90DF91CF91AA
S11349D00895CF93DF9300D01F921F92CDB7DEB717
S11349E09A8389836B835D834C8389819A8126E2D0
S11349F032E0FC013183208389819A812B81FC017F
S1134A00228389819A812C813D81FC013483238313
S1134A100F900F900F900F900F90DF91CF9108950A
S1134A20CF93DF931F921F92CDB7DEB79A8389830A
S1134A3089819A8141E050E063E00E94E924898100
S1134A409A8122E332E0FC01318320830F900F909E
S1134A50DF91CF910895CF93DF931F921F92CDB72B
S1134A60DEB79A83898389819A8122E332E0FC014B
S1134A703183208389819A810E94842480E090E09C
S1134A8081709927009721F089819A810E9423409F
S1134A900F900F90DF91CF910895CF93DF931F92E2
S1134AA01F92CDB7DEB79A83898389819A810E9448
S1134AB02B2589819A810E9423400F900F90DF91CA
S1134AC0CF910895CF93DF9300D000D0CDB7DEB758
S1134AD09E838D8381E090E00E9438409A8389838D
S1134AE089819A819C838B838D819E81FC012281A3
S1134AF08B819C81FC01208389819A8126960FB643
S1134B00F894DEBF0FBECDBFDF91CF910895CF9350
S1134B10DF9300D01F92CDB7DEB79A8389837C835D
S1134B206B838B819C81009741F08B819C81FC017C
S1134B30208189819A81FC0122830F900F900F902C
S1134B400F90DF91CF910895CF93DF9300D000D0E1
S1134B50CDB7DEB79A8389837C836B835E834D8371
S1134B608B819C81FC01808191812D813E8144E077
S1134B7050E0B9010E94F74B8B819C81FC0180813C
S1134B8091819C012C5F3F4F8B819C81FC0131837F
S1134B90208326960FB6F894DEBF0FBECDBFDF91FB
S1134BA0CF910895CF93DF9300D000D0CDB7DEB777
S1134BB09A8389837C836B835E834D838B819C8101
S1134BC0FC01808191812D813E8144E050E0B90156
S1134BD00E94F74B8B819C81FC01808191819C0117
S1134BE02C5F3F4F8B819C81FC013183208326966F
S1134BF00FB6F894DEBF0FBECDBFDF91CF910895FD
S1134C00CF93DF9300D000D0CDB7DEB79A838983EA
S1134C107C836B835E834D838B819C81FC018081CB
S1134C2091812D813E81F9012081FC0120838B81BA
S1134C309C81FC01808191819C012F5F3F4F8B817E
S1134C409C81FC013183208326960FB6F894DEBF45
S1134C500FBECDBFDF91CF910895CF93DF9300D0E6
S1134C6000D0CDB7DEB79A8389837C836B835E8360
S1134C704D838B819C81FC0180819181FC01208189
S1134C808D819E81FC0120838B819C81FC0180812C
S1134C9091819C012F5F3F4F8B819C81FC0131836B
S1134CA0208326960FB6F894DEBF0FBECDBFDF91EA
S1134CB0CF910895CF93DF9300D000D0CDB7DEB766
S1134CC09A8389837C836B835E834D838B819C81F0
S1134CD0FC01208131818D819E8144E050E0B90145
S1134CE00E94F74B8B819C81FC01808191819C0106
S1134CF02C5F3F4F8B819C81FC013183208326965E
S1134D000FB6F894DEBF0FBECDBFDF91CF910895EB
S1134D10CF93DF9300D000D0CDB7DEB79A838983D9
S1134D207C836B835E834D838B819C81FC0120811A
S1134D3031818D819E8144E050E0B9010E94F74B9E
S1134D408B819C81FC01808191819C012C5F3F4F70
S1134D508B819C81FC013183208326960FB6F894C5
S1134D60DEBF0FBECDBFDF91CF910895CF93DF9308
S1134D7000D000D0CDB7DEB79A8389834B835C83A0
S1134D806D837E8329813A818B819C81AD81BE8133
S1134D90F90180839183A283B38326960FB6F89496
S1134DA0DEBF0FBECDBFDF91CF910895CF93DF93C8
S1134DB000D000D0CDB7DEB79A8389834B835C8360
S1134DC06D837E8329813A818B819C81AD81BE81F3
S1134DD0F901808B918BA28BB38B26960FB6F89436
S1134DE0DEBF0FBECDBFDF91CF910895CF93DF9388
S1134DF01F921F92CDB7DEB79A83898389819A81E6
S1134E00FC01848D958DA68DB78DBC01CD010F90CD
S1134E100F90DF91CF910895CF93DF931F921F924C
S1134E20CDB7DEB79A83898389819A81FC0180A1F9
S1134E3091A1A2A1B3A1BC01CD010F900F90DF916C
S1134E40CF910895CF93DF9300D000D0CDB7DEB7D4
S1134E509A8389834B835C836D837E8329813A8122
S1134E608B819C81AD81BE81F90184AB95ABA6ABEE
S1134E70B7AB26960FB6F894DEBF0FBECDBFDF9159
S1134E80CF910895CF93DF931F921F92CDB7DEB7D2
S1134E909A83898389819A81805C9F4FFC018081F8
S1134EA09181A281B381BC01CD010F900F90DF915C
S1134EB0CF910895CF93DF931F921F92CDB7DEB7A2
S1134EC09A83898389819A81885B9F4FFC018081C1
S1134ED09181A281B381BC01CD010F900F90DF912C
S1134EE0CF910895CF93DF9300D000D0CDB7DEB734
S1134EF09A8389834B835C836D837E8389819A81C2
S1134F009C01245B3F4F8B819C81AD81BE81F90163
S1134F1080839183A283B38326960FB6F894DEBF71
S1134F200FBECDBFDF91CF910895CF93DF9300D013
S1134F3000D0CDB7DEB79A8389834B835C836D83BE
S1134F407E8389819A819C01205B3F4F8B819C8168
S1134F50AD81BE81F90180839183A283B3832696B8
S1134F600FB6F894DEBF0FBECDBFDF91CF91089589
S1134F70CF93DF9300D000D0CDB7DEB79A83898377
S1134F804B835C836D837E8389819A819C012C5938
S1134F903F4F8B819C81AD81BE81F90180839183D8
S1134FA0A283B38326960FB6F894DEBF0FBECDBF9F
S1134FB0DF91CF910895CF93DF931F921F92CDB7C6
S1134FC0DEB79A83898389819A8180599F4FFC0136
S1134FD080819181A281B381BC01CD010F900F909A
S1134FE0DF91CF910895CF93DF931F921F92CDB796
S1134FF0DEB79A83898389819A8188589F4FFC01FF
S113500080819181A281B381BC01CD010F900F9069
S1135010DF91CF910895CF93DF9300D000D0CDB727
S1135020DEB79A8389834B835C836D837E83898116
S11350309A819C0124583F4F8B819C81AD81BE8114
S1135040F90180839183A283B38326960FB6F894E3
S1135050DEBF0FBECDBFDF91CF910895CF93DF9315
S113506000D000D0CDB7DEB79A8389834B835C83AD
S11350706D837E8389819A819C0120583F4F8B8167
S11350809C81AD81BE81F90180839183A283B38326
S113509026960FB6F894DEBF0FBECDBFDF91CF9139
S11350A00895CF93DF9300D000D0CDB7DEB79A83B5
S11350B089834B835C836D837E8389819A819C0180
S11350C02C573F4F8B819C81AD81BE81F901808338
S11350D09183A283B38326960FB6F894DEBF0FBEE6
S11350E0CDBFDF91CF910895CF93DF9300D000D04F
S11350F0CDB7DEB79A8389834B835C836D837E83CC
S113510089819A819C0128563F4F8B819C81AD8176
S1135110BE81F90180839183A283B38326960FB65F
S1135120F894DEBF0FBECDBFDF91CF910895CF932A
S1135130DF931F921F92CDB7DEB79A83898389814B
S11351409A818C559F4FFC0180819181A281B3810A
S1135150BC01CD010F900F90DF91CF910895CF93B3
S1135160DF931F921F92CDB7DEB79A83898389811B
S11351709A8188559F4FFC0180819181A281B381DE
S1135180BC01CD010F900F90DF91CF910895CF9383
S1135190DF9300D000D0CDB7DEB79A8389834B83E9
S11351A05C836D837E8389819A819C0124553F4F62
S11351B08B819C81AD81BE81F90180839183A2831F
S11351C0B38326960FB6F894DEBF0FBECDBFDF9132
S11351D0CF910895CF93DF9300D000D0CDB7DEB741
S11351E09A8389834B835C836D837E8389819A81CF
S11351F09C0120553F4F8B819C81AD81BE81F9017B
S113520080839183A283B38326960FB6F894DEBF7E
S11352100FBECDBFDF91CF910895CF93DF931F923F
S11352201F92CDB7DEB79A83898389819A818C5482
S11352309F4FFC0180819181A281B381BC01CD018A
S11352400F900F90DF91CF910895CF93DF9300D00B
S113525000D0CDB7DEB79A8389834B835C836D839B
S11352607E8389819A819C012C543F4F8B819C8140
S1135270AD81BE81F90180839183A283B383269695
S11352800FB6F894DEBF0FBECDBFDF91CF91089566
S1135290CF93DF931F921F92CDB7DEB79A83898392
S11352A089819A8188549F4FFC0180819181A281D8
S11352B0B381BC01CD010F900F90DF91CF91089580
S11352C0CF93DF9300D000D0CDB7DEB79A83898324
S11352D04B835C836D837E8389819A819C012854EE
S11352E03F4F8B819C81AD81BE81F9018083918385
S11352F0A283B38326960FB6F894DEBF0FBECDBF4C
S1135300DF91CF910895CF93DF931F921F92CDB772
S1135310DEB79A83898389819A8184549F4FFC01E3
S113532080819181A281B381BC01CD010F900F9046
S1135330DF91CF910895CF93DF9300D000D0CDB704
S1135340DEB79A8389834B835C836D837E838981F3
S11353509A819C0124543F4F8B819C81AD81BE81F5
S1135360F90180839183A283B38326960FB6F894C0
S1135370DEBF0FBECDBFDF91CF910895CF93DF93F2
S11353801F921F92CDB7DEB79A83898389819A8150
S113539045EE50E062E00E94E92489819A812EE37F
S11353A032E0FC013183208389819A81FC011582DA
S11353B016821782108689819A81FC0111861286D1
S11353C01386148689819A81FC01158616861786B0
S11353D0108A89819A81FC01118A128A138A148A9B
S11353E089819A81FC01158A168A178A108E89810F
S11353F09A81FC01118E128E138E148E89819A81EA
S1135400FC01158E168E178E10A289819A81FC01DB
S113541011A212A213A214A289819A81FC0115A2DD
S113542016A217A210A689819A81FC0111A612A6C0
S113543013A614A689819A81FC0115A616A617A69F
S113544010AA89819A81FC0111AA12AA13AA14AA8A
S113545089819A81FC0115AA16AA17AA10AE89811E
S11354609A81FC0111AE12AE13AE14AE89819A81F9
S1135470CD96FC01108211821282138289819A8155
S11354808F5B9F4FFC0110821182128213828981EB
S11354909A818B5B9F4FFC011082118212821382CE
S11354A089819A81875B9F4FFC011082118212824D
S11354B0138289819A81835B9F4FFC011082118240
S11354C01282138289819A818F5A9F4FFC01108224
S11354D011821282138289819A818B5A9F4FFC0117
S11354E0108211821282138289819A81875A9F4F76
S11354F0FC01108211821282138289819A81835A5B
S11355009F4FFC01108211821282138289819A8139
S11355108F599F4FFC01108211821282138289815C
S11355209A818B599F4FFC0110821182128213823F
S113553089819A8187599F4FFC01108211821282BE
S1135540138289819A8183599F4FFC0110821182B1
S11355501282138289819A818F589F4FFC01108295
S113556011821282138289819A818B589F4FFC0188
S1135570108211821282138289819A8187589F4FE7
S1135580FC01108211821282138289819A818358CC
S11355909F4FFC01108211821282138289819A81A9
S11355A08F579F4FFC0110821182128213828981CE
S11355B09A818B579F4FFC011082118212821382B1
S11355C089819A8187579F4FFC0110821182128230
S11355D0138289819A8183579F4FFC011082118223
S11355E01282138289819A818F569F4FFC01108207
S11355F011821282138289819A818B569F4FFC01FA
S1135600108211821282138289819A8187569F4F58
S1135610FC01108211821282138289819A8183563D
S11356209F4FFC01108211821282138289819A8118
S11356308F559F4FFC01108211821282138289813F
S11356409A818B559F4FFC01108211821282138222
S113565089819A8187559F4FFC01108211821282A1
S1135660138289819A8183559F4FFC011082118294
S11356701282138289819A818F549F4FFC01108278
S113568011821282138289819A818B549F4FFC016B
S1135690108211821282138289819A8187549F4FCA
S11356A0FC01108211821282138289819A818354AF
S11356B09F4FFC01108211821282138289819A8188
S11356C08F539F4FFC0110821182128213828981B1
S11356D09A818B539F4FFC01108211821282138294
S11356E089819A8187539F4FFC0110821182128213
S11356F0138289819A8183539F4FFC011082118206
S11357001282138289819A818F529F4FFC011082E9
S113571011821282138289819A818B529F4FFC01DC
S1135720108211821282138289819A8187529F4F3B
S1135730FC01108211821282138289819A81835220
S11357409F4FFC01108211821282138289819A81F7
S11357508F519F4FFC011082118212821382898122
S11357609A818B519F4FFC01108211821282138205
S11357700F900F90DF91CF910895CF93DF931F92F5
S11357801F92CDB7DEB79A83898389819A812EE3EC
S113579032E0FC013183208389819A810E94842430
S11357A080E090E081709927009721F089819A81A7
S11357B00E9423400F900F90DF91CF910895CF93D3
S11357C0DF931F921F92CDB7DEB79A8389838981B5
S11357D09A810E94BD2B89819A810E9423400F9057
S11357E00F90DF91CF910895CF93DF9300D000D035
S11357F0CDB7DEB79E838D8385EE90E00E9438405E
S11358009A83898389819A819C838B838D819E81EC
S1135810AC014E5F5F4F8D819E819E012D5F3F4F96
S1135820B9010E9400268D819E81AC014B5F5F4FC0
S11358308D819E819E012D5F3F4FB9010E94D2252B
S11358408D819E81AC01475F5F4F8D819E819E015A
S11358502D5F3F4FB9010E94D2258D819E81AC01FD
S1135860435F5F4F8D819E819E012D5F3F4FB90144
S11358700E94D2258D819E81AC014F5E5F4F8D8148
S11358809E819E012D5F3F4FB9010E94D2258D81DB
S11358909E81AC014B5E5F4F8D819E819E012D5F89
S11358A03F4FB9010E94D2258D819E81AC01475E94
S11358B05F4F8D819E819E012D5F3F4FB9010E94F4
S11358C0D2258D819E81AC01435E5F4F8D819E8187
S11358D09E012D5F3F4FB9010E94D2258D819E818B
S11358E0AC014F5D5F4F8D819E819E012D5F3F4FC7
S11358F0B9010E94D2258D819E81AC014B5D5F4F21
S11359008D819E819E012D5F3F4FB9010E94D2255A
S11359108D819E81AC01475D5F4F8D819E819E018B
S11359202D5F3F4FB9010E94D2258D819E81AC012C
S1135930435D5F4F8D819E819E012D5F3F4FB90175
S11359400E94D2258D819E81AC014F5C5F4F8D8179
S11359509E819E012D5F3F4FB9010E94D2258D810A
S11359609E81AC014B5C5F4F8D819E819E012D5FBA
S11359703F4FB9010E94D2258D819E81AC01475CC5
S11359805F4F8D819E819E012D5F3F4FB9010E9423
S1135990D2258D819E81AC01435C5F4F8D819E81B8
S11359A09E012D5F3F4FB9010E94D2258D819E81BA
S11359B0AC014F5B5F4F8D819E819E012D5F3F4FF8
S11359C0B9010E94D2258D819E81AC014B5B5F4F52
S11359D08D819E819E012D5F3F4FB9010E94D2258A
S11359E08D819E81AC01475B5F4F8D819E819E01BD
S11359F02D5F3F4FB9010E94D2258D819E81AC015C
S1135A00435B5F4F8D819E819E012D5F3F4FB901A6
S1135A100E94D2258D819E81AC014F5A5F4F8D81AA
S1135A209E819E012D5F3F4FB9010E94D2258D8139
S1135A309E81AC014B5A5F4F8D819E819E012D5FEB
S1135A403F4FB9010E94D2258D819E81AC01475AF6
S1135A505F4F8D819E819E012D5F3F4FB9010E9452
S1135A60D2258D819E81AC01435A5F4F8D819E81E9
S1135A709E012D5F3F4FB9010E94D2258D819E81E9
S1135A80AC014F595F4F8D819E819E012D5F3F4F29
S1135A90B9010E94D2258D819E81AC014B595F4F83
S1135AA08D819E819E012D5F3F4FB9010E94D225B9
S1135AB08D819E81AC0147595F4F8D819E819E01EE
S1135AC02D5F3F4FB9010E94D2258D819E81AC018B
S1135AD043595F4F8D819E819E012D5F3F4FB901D8
S1135AE00E94D2258D819E81AC014F585F4F8D81DC
S1135AF09E819E012D5F3F4FB9010E94D2258D8169
S1135B009E81AC014B585F4F8D819E819E012D5F1C
S1135B103F4FB9010E94D2258D819E81AC01475827
S1135B205F4F8D819E819E012D5F3F4FB9010E9481
S1135B30D2258D819E81AC0143585F4F8D819E811A
S1135B409E012D5F3F4FB9010E94D2258D819E8118
S1135B50AC014F575F4F8D819E819E012D5F3F4F5A
S1135B60B9010E94D2258D819E81AC014B575F4FB4
S1135B708D819E819E012D5F3F4FB9010E94D225E8
S1135B808D819E81AC0147575F4F8D819E819E011F
S1135B902D5F3F4FB9010E94D2258D819E81AC01BA
S1135BA043575F4F8D819E819E012D5F3F4FB90109
S1135BB00E94D2258D819E81AC014F565F4F8D810D
S1135BC09E819E012D5F3F4FB9010E94D2258D8198
S1135BD09E81AC014B565F4F8D819E819E012D5F4E
S1135BE03F4FB9010E94D2258D819E81AC01475659
S1135BF05F4F8D819E819E012D5F3F4FB9010E94B1
S1135C00D2258D819E81AC0143565F4F8D819E814B
S1135C109E012D5F3F4FB9010E94D2258D819E8147
S1135C20AC014F555F4F8D819E819E012D5F3F4F8B
S1135C30B9010E94D2258D819E81AC014B555F4FE5
S1135C408D819E819E012D5F3F4FB9010E94D22517
S1135C508D819E81AC0147555F4F8D819E819E0150
S1135C602D5F3F4FB9010E94D2258D819E81AC01E9
S1135C7043555F4F8D819E819E012D5F3F4FB9013A
S1135C800E94D2258D819E81AC014F545F4F8D813E
S1135C909E819E012D5F3F4FB9010E94D2258D81C7
S1135CA09E81AC014B545F4F8D819E819E012D5F7F
S1135CB03F4FB9010E94D2258D819E81AC0147548A
S1135CC05F4F8D819E819E012D5F3F4FB9010E94E0
S1135CD0D2258D819E81AC0143545F4F8D819E817D
S1135CE09E012D5F3F4FB9010E94D2258D819E8177
