:100000000C948A000C94AB000C94AB000C94AB00E5
:100010000C94AB000C94AB000C94AB000C94AB00B4
:100020000C94AB000C94AB000C94AB000C94AB00A4
:100030000C94AB000C94AB000C94AB000C94AB0094
:100040000C94AB000C94270A0C94AB000C94AB00FE
:100050000C94AB000C94AB000C94AB000C94AB0074
:100060000C94AB000C94AB000C94AB000C94AB0064
:100070000C94AB000C94AB000C94AB000C94AB0054
:100080000C94AB000C94AB000C94AB000C94AB0044
:100090000C94AB000C94AB000C94AB000C94AB0034
:1000A0000C94AB000C94AB000C94AB000C94AB0024
:1000B0000C94AB000C94AB000C94AB000C94AB0014
:1000C0000C94AB000C94AB000C94AB000C94AB0004
:1000D0000C94AB000C94AB000C94AB000C94AB00F4
:1000E0000C94AB000C9454020C94AA0A0C94780261
:1000F0000C94810B0C94DA010C94CB000C94F60B4D
:100100000C948B0C0C94E0000C94310C0C94960124
:100110000C94AD0011241FBECFEFD1E2DEBFCDBFE6
:1001200000E00CBF12E0A0E0B2E0EEE7FEE100E08C
:100130000BBF02C007900D92AC33B107D9F722E094
:10014000ACE3B2E001C01D92A234B207E1F70E9415
:1001500039030C943D0F0C940000CF93DF931F9252
:100160001F92CDB7DEB79A83898389819A812AE06D
:1001700032E0FC013183208380E090E08170992798
:10018000009721F089819A810E94CD0C0F900F90E9
:10019000DF91CF910895CF93DF931F921F92CDB738
:1001A000DEB79A83898389819A810E94AD00898113
:1001B0009A810E94CD0C0F900F90DF91CF910895FE
:1001C000CF93DF9300D01F92CDB7DEB79C838B8394
:1001D0001A8219828B819C81FC0180858823B9F168
:1001E0008B819C81FC0182819381A481B581880FE0
:1001F000991FAA1FBB1F880F991FAA1FBB1F880F1B
:10020000991FAA1FBB1F9C01AD0180E094E2A4EFDF
:10021000B0E0BC01CD010E94D80DDA01C9010197FF
:10022000A109B109BC01CD010E941F0DDC01CB0168
:10023000BC01CD010E945C0DDC01CB01BC01CD01F4
:100240000E94F30CDC01CB019A8389833AC08B8135
:100250009C81FC0182819381A481B581880F991FC3
:10026000AA1FBB1F880F991FAA1FBB1F880F991FAA
:10027000AA1FBB1F880F991FAA1FBB1F9C01AD019E
:1002800080E094E2A4EFB0E0BC01CD010E94D80D63
:10029000DA01C9010197A109B109BC01CD010E9490
:1002A0001F0DDC01CB01BC01CD010E945C0DDC0106
:1002B000CB01BC01CD010E94F30CDC01CB019A8380
:1002C00089838B819C81FC018681882341F584ECA4
:1002D00090E029813A81FC013183208382EC90E017
:1002E00022EC30E0F90120812660FC0120838B8123
:1002F0009C81FC018085882349F080EC90E020EC13
:1003000030E0F90120812260FC01208381EC90E043
:1003100021EC30E0F90120812861FC0120830F905D
:100320000F900F900F90DF91CF910895CF93DF93AF
:1003300000D01F921F92CDB7DEB79C838B836D8355
:100340008B819C81FC018681882351F51A82198258
:1003500014C08B819C81FC018781882371F0898185
:100360009A818130FDE79F071CF08FEF9FEF1AC045
:1003700089819A8101969A83898380EC90E0FC01BF
:100380008081882F90E08072992721E0009709F002
:1003900020E02223F1F686EC90E02D81FC01208301
:1003A00080E090E00F900F900F900F900F90DF91F2
:1003B000CF910895CF93DF9300D000D0CDB7DEB7B3
:1003C0009C838B837E836D838B819C81FC018681E2
:1003D000882349F51A82198214C08B819C81FC0103
:1003E0008781882371F089819A818130FDE79F0799
:1003F0001CF08FEF9FEF19C089819A8101969A8333
:10040000898380EC90E0FC0180818095881F88279B
:10041000881F882311F786EC90E0FC0120818D81F4
:100420009E81FC01208380E090E026960FB6F89430
:10043000DEBF0FBECDBFDF91CF910895CF93DF9385
:10044000CDB7DEB728970FB6F894DEBF0FBECDBF8D
:100450009A8389837C836B835E834D8338872F8364
:1004600089819A814D815E812B813C81B9010E94F5
:10047000030C89819A8128E132E0FC0131832083D9
:1004800089819A81FC01178289819A812F8138851F
:10049000FC013187208728960FB6F894DEBF0FBE87
:1004A000CDBFDF91CF910895CF93DF931F921F921D
:1004B000CDB7DEB79A83898381E290E021E230E014
:1004C000F9012081622F29813A81F9014085518506
:1004D00021E030E0042E02C0220F331F0A94E2F71D
:1004E000262BFC0120830F900F90DF91CF91089570
:1004F000CF93DF931F921F92CDB7DEB79A83898384
:1005000089819A81FC0187818823E9F082E290E069
:1005100022E230E0F9012081622F29813A81F9013C
:100520004085518521E030E0042E02C0220F331FA8
:100530000A94E2F720952623FC01208389819A8181
:10054000FC0117821CC082E290E022E230E0F90157
:100550002081622F29813A81F9014085518521E06E
:1005600030E0042E02C0220F331F0A94E2F7262B3C
:10057000FC01208389819A8121E0FC0127830F906F
:100580000F90DF91CF910895EF920F93CF93DF9368
:10059000CDB7DEB729970FB6F894DEBF0FBECDBF3B
:1005A0009A8389834B835C836D837E832F83088743
:1005B000E98689819A812AE032E0FC013183208337
:1005C00029813A818B819C81AD81BE81F901828331
:1005D0009383A483B58389819A812F81FC0126832B
:1005E00089819A812885FC01278389819A812985BF
:1005F000FC01208729960FB6F894DEBF0FBECDBF51
:10060000DF91CF910F91EF900895CF93DF9300D0BA
:100610001F92CDB7DEB79A8389837C836B838981F0
:100620009A812B813C81FC01318320830F900F90B4
:100630000F900F90DF91CF910895CF93DF931F928A
:100640001F92CDB7DEB79A83898389819A81FC0195
:100650001182108289819A81FC0113821282898120
:100660009A81FC01158214820F900F90DF91CF9137
:100670000895CF92DF92EF92FF920F931F93CF9343
:10068000DF93CDB7DEB72E970FB6F894DEBF0FBE5F
:10069000CDBF86E090E00E94BC0C8C01C8010E9496
:1006A0001D031A83098389E090E00E94BC0C6C0151
:1006B000EE24E39401E020E040E051EE60E070E0E1
:1006C000C6010E94C402DC82CB828B819C81FC012A
:1006D000808191810496FC01208131818B819C81F4
:1006E000F901199582E090E00E94BC0C8C018B818D
:1006F0009C81BC01C8010E9405031E830D838BE011
:1007000090E00E94BC0C7C0149815A818D819E81C0
:1007100004E110E020E030E0BC01C7010E94420B80
:10072000F886EF828BE090E00E94BC0C7C0149814E
:100730005A818D819E8108E210E021E030E0BC0109
:10074000C7010E944C0CFA86E9868AE090E00E947C
:10075000BC0C8C0123E030E048EC50E062E070E03B
:10076000C8010E941E021C870B870E946C089E878E
:100770008D872B853C858D859E85B9010E94B908A2
:100780002F8138858D859E85B9010E94B9082985FC
:100790003A858D859E85B9010E94B9088D859E8513
:1007A0000E94F4088D859E850E94C4098D859E85D2
:1007B0000E945509FBCFCF93DF931F921F92CDB7B5
:1007C000DEB79A83898387E090E00F900F90DF91E6
:1007D000CF9108950F931F93CF93DF93CDB7DEB7DB
:1007E0002D970FB6F894DEBF0FBECDBF9D838C83CF
:1007F0007F836E83598748873B872A871D870C87AD
:100800001A82198226C089819A812E813F81820FA6
:10081000931FFC0180818B838A859B85FC019081DD
:100820008B81292F280F8A859B85FC0120838C854D
:100830009D85FC0120818A859B85FC018081280F94
:100840008C859D85FC01208389819A8101969A83FC
:10085000898341E029813A8188859985281739075C
:100860000CF040E0442379F62D960FB6F894DEBFE5
:100870000FBECDBFDF91CF911F910F910895CF9201
:10088000DF92EF92FF920F931F93CF93DF93CDB739
:10089000DEB764970FB6F894DEBF0FBECDBF9A8B5C
:1008A000898B7C8B6B8BEDB6FEB61A8219828B8995
:1008B0009C89009709F49FC08DB79EB76C018B8906
:1008C0009C890E9452069E838D838B899C890E94FD
:1008D000DB0398878F838F81988504969A87898711
:1008E00089859A8501979C878B8701962DB73EB79E
:1008F000281B390B0FB6F8943EBF0FBE2DBF8DB726
:100900009EB701969E878D878D859E8525EBFC0180
:1009100020838D859E8522E6FC0121834F815885A9
:100920008D859E8502962D813E81B9010E94340FEE
:100930001F86188AFE0170969E01215F3F4F4F81EE
:1009400058856D817E8189899A898F010E94EA0389
:1009500089859A8502974F852D853E85820F931F45
:10096000FC01408389859A85019748892D853E85BC
:10097000820F931FFC0140831C821B8223C0898944
:100980009A89FC0180819181FC0180819181069688
:10099000FC01208131814D855E858B819C81840F96
:1009A000951FFC01408189899A89FC018081918190
:1009B000642FF90119959A8389838B819C81019613
:1009C0009C838B832B813C8189859A8528173907E5
:1009D00034F489819A81009711F481E001C080E0AC
:1009E000882369F68D819E810E94CD0C0FB6F89404
:1009F000DEBE0FBECDBE89819A810FB6F894FEBED1
:100A00000FBEEDBE64960FB6F894DEBF0FBECDBF2D
:100A1000DF91CF911F910F91FF90EF90DF90CF90DA
:100A200008950F931F93CF93DF93CDB7DEB76697EB
:100A30000FB6F894DEBF0FBECDBF9C8B8B8B7E8B29
:100A40006D8B1A8219821B821E821BC08E818B8342
:100A50008B899C89FC0180819181FC01808191813D
:100A60000896FC01208131818B899C89FC01808161
:100A70009181AE014A5F5F4FBA01F90119959A83DE
:100A800089838B81853B19F48E81823631F089818F
:100A90009A81009711F481E001C080E08823B1F6CB
:100AA00089819A81009709F0C6C01F828B899C8931
:100AB000FC0180819181FC01808191810896FC017B
:100AC000208131818B899C89FC0180819181AE01DB
:100AD000495F5F4FBA01F90119959A83898389812A
:100AE0009A81009709F09EC08F81823009F09AC0E8
:100AF0008F81888781E090E09D838C8322C08B89E1
:100B00009C89FC0180819181FC0180819181089602
:100B1000FC0120813181AE01485F5F4F8C819D8156
:100B2000480F591F8B899C89FC0180819181BA01F2
:100B3000F90119959A8389838C819D8101969D8302
:100B40008C838C819D818730910534F489819A81D1
:100B5000009711F481E001C080E0882381F689814B
:100B60009A81009709F066C01F86188A198A1A8A26
:100B70008B899C89FC0180819181FC01808191811C
:100B80000896FC01208131818B899C89FC01808140
:100B90009181AE01415F5F4FBA01F90119959A83C6
:100BA00089838B899C89FC0180819181FC018081F2
:100BB00091810896FC01208131818B899C89FC01FF
:100BC00080819181AE01405F5F4FBA01F9011995B3
:100BD0009A838983AE014E5E5F4F9E012F5E3F4F29
:100BE000BE01685F7F4F8B899C898A0147E050E096
:100BF0000E94EA0399898F85981779F49A898889E0
:100C0000981759F4CE0108960E94F0069C018D8930
:100C10009E89FC01318320830DC08DEF9FEF9A8365
:100C2000898308C08F81823031F08EEF9FEF9A83E5
:100C3000898301C0000089819A81009729F08D89FC
:100C40009E89FC011182108289819A8166960FB675
:100C5000F894DEBF0FBECDBFDF91CF911F910F91F2
:100C60000895CF93DF931F921F92CDB7DEB79A837B
:100C7000898389819A81FC011182108289819A81FC
:100C8000FC011382128289819A81FC0115821482EF
:100C900089819A8122E0FC0126830F900F90DF91D9
:100CA000CF910895CF93DF9300D000D0CDB7DEB7BA
:100CB0009E838D8387E090E00E94E20C9A83898373
:100CC00089819A819C838B838D819E81FC01268101
:100CD0008B819C81FC0120838B819C8101969C836C
:100CE0008B832D813E818B819C8142E050E0B90154
:100CF0000E94340F8B819C8102969C838B838D8113
:100D00009E819C012E5F3F4F8B819C8142E050E091
:100D1000B9010E94340F8B819C8102969C838B8346
:100D20008D819E819C012C5F3F4F8B819C8142E095
:100D300050E0B9010E94340F89819A8126960FB63E
:100D4000F894DEBF0FBECDBFDF91CF910895CF9352
:100D5000DF9300D01F92CDB7DEB79A8389837C835F
:100D60006B838B819C810097A1F18B819C81FC011D
:100D7000208189819A81FC0126838B819C81019647
:100D80009C838B8389819A812B813C8142E050E056
:100D9000B9010E94340F8B819C8102969C838B83C6
:100DA00089819A8102962B813C8142E050E0B90111
:100DB0000E94340F8B819C8102969C838B83898156
:100DC0009A8104962B813C8142E050E0B9010E9457
:100DD000340F0F900F900F900F90DF91CF910895E7
:100DE0000F931F93CF93DF9300D01F92CDB7DEB741
:100DF0009C838B8387E090E00E94BC0C8C01C8012F
:100E00000E9431061A8309832B813C8189819A8152
:100E1000B9010E94A70689819A810F900F900F90C7
:100E20000F90DF91CF911F910F910895CF93DF9392
:100E300000D01F92CDB7DEB79A8389837C836B8302
:100E400089819A812B813C81FC01318320830F9021
:100E50000F900F900F90DF91CF910895CF93DF9374
:100E600000D01F92CDB7DEB79A8389837C836B83D2
:100E700089819A812B813C81FC01338322830F90ED
:100E80000F900F900F90DF91CF910895CF93DF9344
:100E900000D01F92CDB7DEB79A8389837C836B83A2
:100EA00089819A812B813C81FC01358324830F90B9
:100EB0000F900F900F90DF91CF910895CF93DF9314
:100EC0001F921F92CDB7DEB79A83898389819A8159
:100ED000FC01808191810F900F90DF91CF91089557
:100EE000CF93DF931F921F92CDB7DEB79A8389838A
:100EF00089819A81FC01828193810F900F90DF910B
:100F0000CF910895CF93DF931F921F92CDB7DEB795
:100F10009A83898389819A81FC01848195810F90CC
:100F20000F90DF91CF9108950F931F93CF93DF938D
:100F300000D01F92CDB7DEB79C838B8387E090E013
:100F40000E94BC0C8C01C8010E9431061A830983DF
:100F50008B819C810E945E079C0189819A81B901E5
:100F60000E9416078B819C810E9470079C018981D9
:100F70009A81B9010E942E078B819C810E94820771
:100F80009C0189819A81B9010E94460789819A81D1
:100F90000F900F900F900F90DF91CF911F910F91B5
:100FA0000895CF93DF931F921F92CDB7DEB79A8338
:100FB000898389819A81FC01828193810F900F90AE
:100FC000DF91CF910895CF93DF931F921F92CDB7FA
:100FD000DEB79A83898389819A81FC018481958116
:100FE0000F900F90DF91CF910895CF93DF9300D0B2
:100FF0001F92CDB7DEB79A8389837C836B83898107
:101000009A812B813C81FC01338322830F900F90C6
:101010000F900F90DF91CF910895CF93DF931F92A0
:101020001F92CDB7DEB79A83898389819A81FC01AB
:1010300086810F900F90DF91CF910895CF93DF932A
:1010400000D0CDB7DEB79A8389836B8389819A817B
:101050002B81FC0126830F900F900F90DF91CF9191
:101060000895CF93DF931F921F92CDB7DEB79A8377
:10107000898389819A81FC01828193819C0121501D
:10108000310989819A81FC01338322830F900F906B
:10109000DF91CF910895CF93DF931F921F92CDB729
:1010A000DEB79A83898389819A81FC018489958935
:1010B0000F900F90DF91CF910895CF93DF931F9200
:1010C0001F92CDB7DEB79A83898389819A810F9069
:1010D0000F90DF91CF9108950F931F93CF93DF93DC
:1010E000CDB7DEB780913C0290913D02009781F42C
:1010F0008AE190E00E94BC0C8C0140E450E062EE7A
:1011000074E0C8010E94910810933D0200933C02D4
:1011100080913C0290913D02DF91CF911F910F9100
:101120000895CF93DF9300D000D0CDB7DEB79A8378
:1011300089837C836B835E834D8389819A812B8134
:101140003C81FC01378B268B89819A812D813E81E0
:10115000FC01318F208F89819A81FC01158A148AC4
:1011600026960FB6F894DEBF0FBECDBFDF91CF91AC
:101170000895CF93DF9300D01F92CDB7DEB79A8347
:1011800089837C836B8389819A81FC018489958919
:101190008A30910504F589819A81FC0184899589B9
:1011A00029813A81880F991F820F931F2B813C81DF
:1011B000FC013183208389819A81FC01848995898E
:1011C0009C012F5F3F4F89819A81FC01358B248BD5
:1011D00080E090E002C08FEF9FEF0F900F900F9094
:1011E0000F90DF91CF910895CF93DF9300D01F929E
:1011F000CDB7DEB79C838B831A82198224C02B81E2
:101200003C8189819A81880F991F820F931FFC016D
:1012100080819181FC01808191810296FC01208175
:1012200031814B815C8189819A81880F991F840F5C
:10123000951FFC0180819181F901199589819A811D
:1012400001969A8389838B819C81FC01248935894D
:1012500041E089819A81821793070CF040E0442392
:1012600071F688E890E02B813C81F9012689378965
:10127000FC013183208381E890E021E830E0F9012E
:1012800020812860FC0120838FE690E02FE630E08B
:10129000F90120812260FC01208378940F900F9047
:1012A0000F900F90DF91CF910895CF93DF9300D0EF
:1012B00000D0CDB7DEB79E838D831C821B821A823D
:1012C00019822FC080913C0290913D020E945D08DE
:1012D0009C0189819A81880F991F820F931FFC01BD
:1012E000808191819C838B838B819C810E940D08DE
:1012F000882391F08B819C8160E00E941E088B8185
:101300009C81FC01808191810496FC0120813181C6
:101310008B819C81F901199589819A8101969A8323
:1013200089838D819E81FC012489358941E08981F1
:101330009A81821793070CF040E0442319F683E565
:1013400090E023E530E0F9012081217FFC0120833A
:1013500083E590E023E530E0F90120812160FC0184
:101360002083889583E590E023E530E0F901208132
:101370002E7FFC01208326960FB6F894DEBF0FBEA9
:10138000CDBFDF91CF910895CF93DF931F921F922E
:10139000CDB7DEB79A83898389819A81FC01808DDC
:1013A000918D8034910539F1813491053CF481307F
:1013B000910569F088309105A1F03BC08115F1E0FD
:1013C0009F0719F1811524E0920749F132C081E8A5
:1013D00090E021E830E0F90120812160FC012083C8
:1013E00031C081E890E021E830E0F90120812260FD
:1013F000FC01208327C081E890E021E830E0F9017A
:1014000020812360FC0120831DC081E890E021E859
:1014100030E0F90120812460FC01208313C081E8C1
:1014200090E021E830E0F90120812560FC01208373
:1014300009C081E890E021E830E0F90120812160D5
:10144000FC0120830F900F90DF91CF9108951F92A0
:101450000F9200905F000F92112400905B000F929A
:101460002F933F934F935F936F937F938F939F93AC
:10147000AF93BF93EF93FF93CF93DF9300D000D050
:10148000CDB7DEB70E946C089C838B831E821D82C1
:101490001A82198233C08B819C810E945D089C0155
:1014A00089819A81880F991F820F931FFC01808187
:1014B00091819E838D838D819E810E94D10721E041
:1014C000009709F020E0222381F08D819E8161E068
:1014D0000E941E088D819E810E94E3079C018D81E0
:1014E0009E81B9010E94F50704C08D819E810E94F2
:1014F000310889819A8101969A8389838B819C81A5
:101500000E944B089C0141E089819A8182179307D0
:101510000CF040E0442309F0BECF26960FB6F894B5
:10152000DEBF0FBECDBFDF91CF91FF91EF91BF9195
:10153000AF919F918F917F916F915F914F913F916B
:101540002F910F9000925B000F9000925F000F9020
:101550001F901895CF93DF931F921F92CDB7DEB7E0
:101560009A8389830F900F90DF91CF910895CF9345
:10157000DF931F921F92CDB7DEB79A8389830F90B6
:101580000F90DF91CF910895CF93DF931F921F9219
:10159000CDB7DEB79A83898389819A81FC018081E6
:1015A00091810F900F90DF91CF910895CF93DF93AA
:1015B0001F921F92CDB7DEB79A83898389819A8162
:1015C000FC01828193810F900F90DF91CF9108955C
:1015D000CF93DF931F921F92CDB7DEB79A83898393
:1015E00089819A81FC01848195810F900F90DF9110
:1015F000CF910895CF93DF9300D01F92CDB7DEB780
:101600009A8389837C836B8389819A812B813C8136
:10161000FC01318320830F900F900F900F90DF918A
:10162000CF910895CF93DF9300D01F92CDB7DEB74F
:101630009A8389837C836B8389819A812B813C8106
:10164000FC01338322830F900F900F900F90DF9156
:10165000CF910895CF93DF9300D01F92CDB7DEB71F
:101660009A8389837C836B8389819A812B813C81D6
:10167000FC01358324830F900F900F900F90DF9122
:10168000CF9108950F931F93CF93DF93CDB7DEB71C
:101690002A970FB6F894DEBF0FBECDBF9A83898319
:1016A0007C836B835E834D8338872F831A870987FA
:1016B00089819A8149855A852F813885B9010E948F
:1016C000030C89819A8122E232E0FC01318320837C
:1016D00089819A812B813C81FC0130872783898114
:1016E0009A812D813E81FC01328721872A960FB68F
:1016F000F894DEBF0FBECDBFDF91CF911F910F9148
:1017000008950F931F93CF93DF9300D000D0CDB7F0
:10171000DEB79E838D8382E290E022E230E0F90121
:1017200020812062FC0120831C821B828D819E818E
:10173000FC01878190859E012D5F3F4FB9010E947A
:101740001105009731F48B819C81009711F081E0A5
:1017500001C080E08823B1F18B819C819A838983C9
:1017600089819A810E94C40A9C018D819E81FC011D
:1017700081859285B9010E94FA0A89819A810E9425
:10178000D60A9C018D819E81FC0181859285B901DB
:101790000E94120B89819A810E94E80A9C018D8126
:1017A0009E81FC0181859285B9010E942A0B0B81E3
:1017B0001C810115110531F0C8010E94B70AC8014A
:1017C0000E94CD0C82E290E022E230E0F90120811B
:1017D0002F7DFC01208326960FB6F894DEBF0FBE46
:1017E000CDBFDF91CF911F910F910895CF93DF93DC
:1017F0001F921F92CDB7DEB79A8389830F900F9007
:10180000DF91CF910895CF93DF9300D000D0CDB773
:10181000DEB79A8389837C836B835E834D83898162
:101820009A812CE232E0FC013183208389819A8104
:101830002B813C81FC013383228389819A812D8114
:101840003E81FC013583248389819A81FC011682C3
:1018500026960FB6F894DEBF0FBECDBFDF91CF91B5
:101860000895CF93DF931F921F92CDB7DEB79A836F
:101870008983F89489819A81FC0180819181FC019E
:101880002081318189819A81F901199578940F908D
:101890000F90DF91CF9108950F931F93CF93DF9314
:1018A000CDB7DEB72A970FB6F894DEBF0FBECDBF17
:1018B0009A8389837C836B835E834D8338872F83F0
:1018C0001A87098789819A8149855A852F813885A8
:1018D000B9010E94030C89819A8126E332E0FC0160
:1018E0003183208389819A812B813C81FC0130875F
:1018F000278389819A812D813E81FC01328721874E
:101900002A960FB6F894DEBF0FBECDBFDF91CF9100
:101910001F910F9108950F931F93CF93DF9300D0E2
:101920001F92CDB7DEB79C838B838B819C81FC019A
:10193000818592850E9494079A8389838B819C81FB
:10194000FC018781908529813A81B9010E943F0479
:1019500009811A810115110531F0C8010E94B70AE9
:10196000C8010E94CD0C0F900F900F900F90DF9147
:10197000CF911F910F910895CF93DF931F921F92E4
:10198000CDB7DEB79A83898389819A810E94FA0D47
:101990000F900F90DF91CF910895CF93DF931F9217
:1019A0001F92CDB7DEB79A83898389819A81009788
:1019B00021F089819A810E94950E0F900F90DF91FE
:1019C000CF910895CF93DF931F921F92CDB7DEB7CB
:1019D0009A83898389819A810E94FA0D0F900F90D2
:1019E000DF91CF910895ACD088F09F5790F0B92F38
:1019F0009927B751A0F0D1F0660F771F881F991F64
:101A00001AF0BA95C9F712C0B13081F0CAD0B1E06E
:101A10000895C7C0672F782F8827B85F39F0B93F7E
:101A2000CCF3869577956795B395D9F73EF4909565
:101A30008095709561957F4F8F4F9F4F0895E894E3
:101A400009C097FB3EF490958095709561957F4F06
:101A50008F4F9F4F9923A9F0F92F96E9BB279395B4
:101A6000F695879577956795B795F111F8CFFAF4C4
:101A7000BB0F11F460FF1BC06F5F7F4F8F4F9F4FF5
:101A800016C0882311F096E911C0772321F09EE853
:101A9000872F762F05C0662371F096E8862F70E0B9
:101AA00060E02AF09A95660F771F881FDAF7880F93
:101AB0009695879597F908955DD080F09F3740F40B
:101AC00091110EF06FC060E070E080E89FEB089528
:101AD00026F41B16611D711D811D01C01BC08823CA
:101AE00071F4772321F09850872B762F07C0662357
:101AF00011F499270DC09051862B70E060E02AF018
:101B00009A95660F771F881FDAF7880F9695879545
:101B100097F908959F3F31F0915020F4879577957C
:101B20006795B795880F911D9695879597F90895B4
:101B300057FD9058440F551F59F05F3F71F047957E
:101B4000880F97FB991F61F09F3F79F08795089563
:101B5000121613061406551FF2CF4695F1DF08C082
:101B6000161617061806991FF1CF8695710561059F
:101B700008940895E5DFA0F0BEE7B91788F4BB2705
:101B80009F3860F41616B11D672F782F8827985F4D
:101B9000F7CF869577956795B11D93959639C8F3DC
:101BA0000895E894BB2766277727CB0197F9089516
:101BB000A1E21A2EAA1BBB1BFD010DC0AA1FBB1F51
:101BC000EE1FFF1FA217B307E407F50720F0A21BC3
:101BD000B30BE40BF50B661F771F881F991F1A9430
:101BE00069F760957095809590959B01AC01BD015A
:101BF000CF0108950F931F93CF93DF938230910508
:101C000010F482E090E0E0914002F091410220E087
:101C100030E0C0E0D0E023C040815181481759072F
:101C2000A8F04817590761F482819381209719F031
:101C30009B838A832EC0909341028093400229C0E7
:101C40002115310529F04217530710F0A90102C0F0
:101C5000BE01DF0102811381EF019A01F801309783
:101C6000D9F62115310509F1281B390B243031052E
:101C700090F412968D919C9113976115710521F046
:101C8000FB019383828304C09093410280934002BE
:101C9000FD01329644C0FD01E20FF31F8193919341
:101CA000225031092D933C933AC020913E0230914D
:101CB0003F02232B41F42091020230910302309322
:101CC0003F0220933E022091000230910102211533
:101CD000310541F42DB73EB7409104025091050201
:101CE000241B350BE0913E02F0913F02E217F3070F
:101CF000A0F42E1B3F0B2817390778F0AC014E5F7C
:101D00005F4F2417350748F04E0F5F1F50933F0277
:101D100040933E028193919302C0E0E0F0E0CF0156
:101D2000DF91CF911F910F910895EF92FF920F9342
:101D30001F93CF93DF93009709F48FC0DC011297B4
:101D400013961C921E921297E0904002F09041026E
:101D5000E114F10489F42D913C911197280F391F5A
:101D600080913E0290913F028217930789F5B093CC
:101D70003F02A0933E0271C0E70120E030E001C0C5
:101D8000EA01CA17DB0738F44A815B819E014115DD
:101D90005105B1F722C0BC0162507109FB01D38328
:101DA000C28300811181AC01400F511F4C175D07A8
:101DB00061F448815981400F511F4E5F5F4F51833D
:101DC00040834A815B81538342832115310529F485
:101DD000B0934102A093400240C0F901B383A283B3
:101DE000E90169917991C60FD71FAC17BD0779F446
:101DF000DC015E914E91460F571F4E5F5F4F51833E
:101E0000408312968D919C91139793838283A0E0D7
:101E1000B0E002C0D7017C01F70182819381009775
:101E2000C9F7C701029620813181820F931F20914B
:101E30003E0230913F022817390779F4109729F4B0
:101E4000109241021092400204C013961C921E92FE
:101E50001297F0923F02E0923E02DF91CF911F91E4
:101E60000F91FF90EF900895FB01DC0102C00190FB
:0E1E70000D9241505040D8F70895F894FFCFDE
:101E7E0000004202200000000000AD00CB00E00098
:101E8E009601DA010000000078025402310C0000C5
:101E9E000000810BAA0A310C00000000F60BAA0A02
:0C1EAE00310C000000008B0CAA0A310C63
:00000001FF
