:100000000C94AA000C94CB000C94CB000C94CB0065
:100010000C94CB000C94CB000C94CB000C94CB0034
:100020000C94CB000C94CB000C94CB000C94CB0024
:100030000C94CB000C94CB000C94CB000C94CB0014
:100040000C94CB000C94570B0C94CB000C94CB006D
:100050000C94CB000C94CB000C94CB000C94CB00F4
:100060000C94CB000C94CB000C94CB000C94CB00E4
:100070000C94CB000C94CB000C94CB000C94CB00D4
:100080000C94CB000C94CB000C94CB000C94CB00C4
:100090000C94CB000C94CB000C94CB000C94CB00B4
:1000A0000C94CB000C94CB000C94CB000C94CB00A4
:1000B0000C94CB000C94CB000C94CB000C94CB0094
:1000C0000C94CB000C94CB000C94CB000C94CB0084
:1000D0000C94CB000C94CB000C94CB000C94CB0074
:1000E0000C94CB000C941A070C94ED070C94C105EA
:1000F0000C94E2060C94610D0C94F8060C948107A4
:100100000C94FF050C9472020C94E1050C94850587
:100110000C94DA0B0C9496020C94F9010C942F07B2
:100120000C9402080C94BB0D0C94B50C0C94EB00D1
:100130000C9454080C9467050C94260D0C94000143
:100140000C942F060C94D0050C94B6010C94CD00A1
:100150000C94CB0711241FBECFEFD1E2DEBFCDBF81
:1001600000E00CBF12E0A0E0B2E0E0E1F1E200E06C
:100170000BBF02C007900D92AC36B107D9F722E051
:10018000ACE6B2E001C01D92A237B207E1F70E94CF
:1001900080030C9486100C940000CF93DF931F9281
:1001A0001F92CDB7DEB79A83898389819A812AE02D
:1001B00032E0FC013183208380E090E08170992758
:1001C000009721F089819A810E94160E0F900F905E
:1001D000DF91CF910895CF93DF931F921F92CDB7F8
:1001E000DEB79A83898389819A810E94CD008981B3
:1001F0009A810E94160E0F900F90DF91CF91089573
:10020000CF93DF9300D01F92CDB7DEB79C838B8353
:100210001A8219828B819C81FC0180858823B9F127
:100220008B819C81FC0182819381A481B581880F9F
:10023000991FAA1FBB1F880F991FAA1FBB1F880FDA
:10024000991FAA1FBB1F9C01AD0180E094E2A4EF9F
:10025000B0E0BC01CD010E94210FDA01C901019774
:10026000A109B109BC01CD010E94680EDC01CB01DE
:10027000BC01CD010E94A50EDC01CB01BC01CD016A
:100280000E943C0EDC01CB019A8389833AC08B81AA
:100290009C81FC0182819381A481B581880F991F83
:1002A000AA1FBB1F880F991FAA1FBB1F880F991F6A
:1002B000AA1FBB1F880F991FAA1FBB1F9C01AD015E
:1002C00080E094E2A4EFB0E0BC01CD010E94210FD8
:1002D000DA01C9010197A109B109BC01CD010E9450
:1002E000680EDC01CB01BC01CD010E94A50EDC0132
:1002F000CB01BC01CD010E943C0EDC01CB019A83F5
:1003000089838B819C81FC018681882341F584EC63
:1003100090E029813A81FC013183208382EC90E0D6
:1003200022EC30E0F90120812660FC0120838B81E2
:100330009C81FC018085882349F080EC90E020ECD2
:1003400030E0F90120812260FC01208381EC90E003
:1003500021EC30E0F90120812861FC0120830F901D
:100360000F900F900F90DF91CF910895CF93DF936F
:1003700000D01F921F92CDB7DEB79C838B836D8315
:100380008B819C81FC018681882349F51A82198220
:1003900013C08B819C81FC018781882369F089814E
:1003A0009A81803191051CF08FEF9FEF1AC08981EF
:1003B0009A8101969A83898380EC90E0FC01808188
:1003C000882F90E08072992721E0009709F020E0C3
:1003D0002223F9F686EC90E02D81FC01208380E059
:1003E00090E00F900F900F900F900F90DF91CF91B2
:1003F0000895CF93DF9300D000D0CDB7DEB79C83B4
:100400008B837E836D838B819C81FC018681882315
:1004100041F51A82198213C08B819C81FC0187816E
:10042000882369F089819A81803191051CF08FEFD2
:100430009FEF19C089819A8101969A83898380EC04
:1004400090E0FC0180818095881F8827881F882381
:1004500019F786EC90E0FC0120818D819E81FC01E2
:10046000208380E090E026960FB6F894DEBF0FBEA2
:10047000CDBFDF91CF910895CF93DF93CDB7DEB796
:1004800028970FB6F894DEBF0FBECDBF9A8389833D
:100490007C836B835E834D8338872F8389819A8128
:1004A0004D815E812B813C81B9010E94330D898190
:1004B0009A8128E132E0FC013183208389819A818D
:1004C000FC01178289819A812F813885FC0131874F
:1004D000208728960FB6F894DEBF0FBECDBFDF9100
:1004E000CF910895CF93DF931F921F92CDB7DEB7C0
:1004F0009A83898381E290E021E230E0F901208152
:10050000622F29813A81F9014085518521E030E04F
:10051000042E02C0220F331F0A94E2F7262BFC019F
:1005200020830F900F90DF91CF910895CF93DF93A9
:100530001F921F92CDB7DEB79A83898389819A81F2
:10054000FC0187818823E9F082E290E022E230E03A
:10055000F9012081622F29813A81F9014085518575
:1005600021E030E0042E02C0220F331F0A94E2F78C
:1005700020952623FC01208389819A81FC01178222
:100580001CC082E290E022E230E0F9012081622F7B
:1005900029813A81F9014085518521E030E0042E1E
:1005A00002C0220F331F0A94E2F7262BFC0120839E
:1005B00089819A8121E0FC0127830F900F90DF91C0
:1005C000CF910895EF920F93CF93DF93CDB7DEB71E
:1005D00029970FB6F894DEBF0FBECDBF9A838983EB
:1005E0004B835C836D837E832F830887E9868981B3
:1005F0009A812AE032E0FC013183208329813A810B
:100600008B819C81AD81BE81F90182839383A48318
:10061000B58389819A812F81FC01268389819A8102
:100620002885FC01278389819A812985FC012087FF
:1006300029960FB6F894DEBF0FBECDBFDF91CF91E4
:100640000F91EF900895CF93DF931F921F92CDB734
:10065000DEB79A83898389819A812EE232E0FC0198
:100660003183208389819A81FC01138212828981DE
:100670009A81FC01158214820F900F90DF91CF9127
:100680000895CF93DF9300D000D0CDB7DEB79A8323
:1006900089837C836B835E834D8389819A812B81DF
:1006A0003C81FC013183208389819A812D813E81A7
:1006B000FC013383228326960FB6F894DEBF0FBE6B
:1006C000CDBFDF91CF910895CF93DF931F921F92FB
:1006D000CDB7DEB79A83898389819A81FC01118223
:1006E000108289819A81FC011382128289819A8108
:1006F000FC01158214820F900F90DF91CF91089525
:10070000CF92DF92EF92FF920F931F93CF93DF93DD
:10071000CDB7DEB760970FB6F894DEBF0FBECDBF82
:1007200086E090E00E94050E8C01C8010E946403DF
:100730001A83098387E090E00E94050E8C01C801AE
:100740000E9423031C830B8389E090E00E94050E26
:100750006C01EE24E39401E020E040E051EE60E023
:1007600070E0C6010E94E202DE82CD828D819E8110
:10077000FC01808191810496FC01208131818D8171
:100780009E81F901199584E090E00E94050E8C018C
:100790002B813C818D819E81A901BC01C8010E94F1
:1007A000410318870F838BE090E00E94050E7C01C7
:1007B00049815A818F81988502E310E020E030E082
:1007C000BC01C7010E94760CFA86E9868BE090E0B6
:1007D0000E94050E7C0149815A818F81988500E92C
:1007E00011E021E030E0BC01C7010E947C0DFC86D5
:1007F000EB868AE090E00E94050E8C0123E030E059
:1008000048EC50E062E070E0C8010E943C021E87A4
:100810000D870E949C09988B8F872D853E858F853B
:100820009889B9010E94E9092B853C858F859889B3
:10083000B9010E94E9098F8598890E94240A8F8551
:1008400098890E94F40A8F8598890E94850AFBCFB7
:10085000CF93DF931F921F92CDB7DEB79A83898320
:1008600089819A81FC01838194810F900F90DF919F
:10087000CF910895CF93DF93CDB7DEB72A970FB608
:10088000F894DEBF0FBECDBF98878F837A876987C4
:1008900089859A85009709F451C089859A85FC015C
:1008A000808191810496FC012081318189859A851E
:1008B000F90119959C838B8389859A850E94280468
:1008C0009E838D831A8219822AC08F819885FC01AC
:1008D00080819181FC01808191810696FC012081BB
:1008E000318189819A814B815C81840F951FFC0144
:1008F00040818F819885FC0180819181642FF9016D
:100900001995892F881F8827881F882319F08FEF52
:100910009FEF16C089819A8101969A83898341E06D
:1009200029813A818D819E81281739070CF040E09A
:10093000442359F68B819C810E94160E80E090E042
:100940002A960FB6F894DEBF0FBECDBFDF91CF91D0
:100950000895CF93DF93CDB7DEB72A970FB6F894FB
:10096000DEBF0FBECDBF98878F837A8769871D82D0
:100970008F819885FC0180819181FC01808191812A
:100980000896FC01208131818F819885FC0180814E
:100990009181AE014B5F5F4FBA01F901199521E0DA
:1009A000009709F020E0222309F486C08F81988502
:1009B000FC0182819381FC01808191810696FC017A
:1009C000208131814D818F819885FC0182819381C5
:1009D000642FF90119959C838B838B819C81181658
:1009E00019060CF066C04D818F819885FC018281CB
:1009F00093812B813C81B9010E94690681E090E0DE
:100A00009A8389832FC01E828F819885FC01808103
:100A10009181FC01808191810896FC0120813181C6
:100A20008F819885FC0180819181AE014A5F5F4F83
:100A3000BA01F9011995892F881F8827881F8823F3
:100A400019F08FEF9FEF3AC02E818F819885FC01BE
:100A500082819381622F0E94BC0689819A810196CE
:100A60009A83898341E029813A818B819C8128176F
:100A700039070CF040E0442331F68F819885FC0162
:100A800082819381FC01808191810496FC01208107
:100A900031818F819885FC0182819381F9011995BB
:100AA0009C0189859A85FC013183208380E090E058
:100AB00005C08EEF9FEF02C08DEF9FEF2A960FB615
:100AC000F894DEBF0FBECDBFDF91CF910895CF93D5
:100AD000DF931F921F92CDB7DEB79A8389838981F6
:100AE0009A8122E232E0FC013183208380E090E0B1
:100AF00081709927009721F089819A810E94160EB2
:100B00000F900F90DF91CF910895CF93DF931F92B5
:100B10001F92CDB7DEB79A83898389819A810E941B
:100B2000670589819A810E94160E0F900F90DF91C0
:100B3000CF910895CF93DF9300D01F921F92CDB72E
:100B4000DEB79A8389836B835D834C8389819A8125
:100B500022E232E0FC013183208389819A812B815A
:100B6000FC01228389819A812C813D81FC0134839F
:100B700023830F900F900F900F900F90DF91CF91E4
:100B80000895CF93DF931F921F92CDB7DEB79A835C
:100B9000898380E090E00F900F90DF91CF910895CE
:100BA000CF93DF9300D01F92CDB7DEB79A838983AE
:100BB0007C836B830F900F900F900F90DF91CF91FC
:100BC0000895CF93DF931F921F92CDB7DEB79A831C
:100BD000898389819A812EE232E0FC01318320836E
:100BE00080E090E081709927009721F089819A81B7
:100BF0000E94160E0F900F90DF91CF910895CF9322
:100C0000DF931F921F92CDB7DEB79A8389838981C4
:100C10009A810E94E10589819A810E94160E0F90A7
:100C20000F90DF91CF910895CF93DF931F921F9282
:100C3000CDB7DEB79A83898389819A8147E050E0F6
:100C400061E00E949A0589819A812AE332E0FC01E1
:100C5000318320830F900F90DF91CF9108950F93F0
:100C60001F93CF93DF9300D01F92CDB7DEB79C8345
:100C70008B831A8219828B819C81FC018681813051
:100C8000E9F48BE090E00E94050E8C01C8010E94FF
:100C900014061A83098389819A81FC0180819181DC
:100CA0000696FC01208131818B819C81FC0142816F
:100CB000538189819A81BA01F901199589819A81B3
:100CC0000F900F900F900F90DF91CF911F910F9188
:100CD0000895CF93DF9300D01F921F92CDB7DEB758
:100CE0009A8389837C836B834D8389819A81FC01FC
:100CF00082819381009761F089819A81FC018281D0
:100D000093810E94160E89819A81FC0113821282BE
:100D100089819A812D81FC0126838B819C810E948F
:100D20002B0E9C0189819A81FC0133832283898166
:100D30009A81FC011582148289819A81FC01428189
:100D4000538189819A81FC01848195819C01240FC2
:100D5000351F4D81F90140839C012F5F3F4F8981F1
:100D60009A81FC01358324830F900F900F900F9090
:100D70000F90DF91CF910895CF93DF9300D0CDB73F
:100D8000DEB79A8389836B8389819A81FC014281D2
:100D9000538189819A81FC01848195819C01240F72
:100DA000351F4B81F90140839C012F5F3F4F8981A3
:100DB0009A81FC01358324830F900F900F90DF916F
:100DC000CF910895CF93DF9300D0CDB7DEB79A834C
:100DD00089836B838B81813019F487E090E002C0B6
:100DE00080E090E00F900F900F90DF91CF910895E9
:100DF000CF93DF931F921F92CDB7DEB79A8389837B
:100E000089819A812AE332E0FC0131832083898140
:100E10009A810E94670580E090E081709927009791
:100E200021F089819A810E94160E0F900F90DF9118
:100E3000CF910895CF93DF931F921F92CDB7DEB766
:100E40009A83898389819A810E94F80689819A818F
:100E50000E94160E0F900F90DF91CF910895CF93BF
:100E6000DF9300D01F92CDB7DEB79C838B8387E0E2
:100E700090E00E942B0E9A8389838B819C81FC01D8
:100E8000228189819A81FC01208389819A8101963E
:100E90009A8389838B819C819C012B5F3F4F898141
:100EA0009A8142E050E0B9010E947D1089819A81C7
:100EB00002969A8389838B819C819C01295F3F4F95
:100EC00089819A8142E050E0B9010E947D108981B8
:100ED0009A8102969A8389838B819C819C01275FEA
:100EE0003F4F89819A8142E050E0B9010E947D1014
:100EF00089819A810F900F900F900F90DF91CF9181
:100F00000895CF93DF9300D01F92CDB7DEB79A83B9
:100F100089837C836B838B819C810097A9F18B8172
:100F20009C81FC01208189819A81FC0122838B8133
:100F30009C8101969C838B8389819A8105962B8164
:100F40003C8142E050E0B9010E947D108B819C8180
:100F500002969C838B8389819A8107962B813C81A1
:100F600042E050E0B9010E947D108B819C81029685
:100F70009C838B8389819A8109962B813C8142E0F5
:100F800050E0B9010E947D100F900F900F900F90CC
:100F9000DF91CF910895CF93DF931F921F92CDB72A
:100FA000DEB79A83898389819A8126E432E0FC0145
:100FB0003183208389819A810E94670580E090E0D7
:100FC00081709927009721F089819A810E94160EDD
:100FD0000F900F90DF91CF910895CF93DF931F92E1
:100FE0001F92CDB7DEB79A83898389819A810E9447
:100FF000CB0789819A810E94160E0F900F90DF9186
:10100000CF910895CF93DF9300D01F92CDB7DEB775
:101010009C838B8387E090E00E942B0E9A838983C8
:101020008B819C81FC01228189819A81FC01208332
:1010300089819A8101969A8389838B819C819C0105
:101040002B5F3F4F89819A8142E050E0B9010E94B5
:101050007D1089819A8102969A8389838B819C81F4
:101060009C01295F3F4F89819A8142E050E0B9019C
:101070000E947D1089819A8102969A8389838B814F
:101080009C819C01275F3F4F89819A8142E050E01B
:10109000B9010E947D1089819A810F900F900F9065
:1010A0000F90DF91CF910895CF93DF9300D01F92DF
:1010B000CDB7DEB79A8389837C836B838B819C81D8
:1010C0000097A9F18B819C81FC01208189819A8103
:1010D000FC0122838B819C8101969C838B83898177
:1010E0009A8105962B813C8142E050E0B9010E9433
:1010F0007D108B819C8102969C838B8389819A8150
:1011000007962B813C8142E050E0B9010E947D109E
:101110008B819C8102969C838B8389819A8109961D
:101120002B813C8142E050E0B9010E947D100F907C
:101130000F900F900F90DF91CF910895CF93DF9391
:101140001F921F92CDB7DEB79A83898389819A81D6
:1011500047E050E062E00E949A0589819A8126E486
:1011600032E0FC01318320830F900F90DF91CF910B
:101170000895CF93DF9300D01F92CDB7DEB79A8347
:1011800089837C836B8389819A812B813C81FC01DB
:10119000368325830F900F900F900F90DF91CF91A2
:1011A0000895CF93DF9300D01F92CDB7DEB79A8317
:1011B00089837C836B8389819A812B813C81FC01AB
:1011C000308727830F900F900F900F90DF91CF9172
:1011D0000895CF93DF9300D01F92CDB7DEB79A83E7
:1011E00089837C836B8389819A812B813C81FC017B
:1011F000328721870F900F900F900F90DF91CF9142
:101200000895CF93DF931F921F92CDB7DEB79A83D5
:10121000898389819A81FC01828193810F900F904B
:10122000DF91CF910895CF93DF931F921F92CDB797
:10123000DEB79A83898389819A81FC0184819581B3
:101240000F900F90DF91CF910895CF93DF9300D04F
:101250001F92CDB7DEB79A8389837C836B838981A4
:101260009A812B813C81FC01338322830F900F9064
:101270000F900F90DF91CF910895CF93DF931F923E
:101280001F92CDB7DEB79A83898389819A81FC0149
:1012900086810F900F90DF91CF910895CF93DF93C8
:1012A00000D0CDB7DEB79A8389836B8389819A8119
:1012B0002B81FC0126830F900F900F90DF91CF912F
:1012C0000895CF93DF931F921F92CDB7DEB79A8315
:1012D000898389819A81FC01828193819C012150BB
:1012E000310989819A81FC01338322830F900F9009
:1012F000DF91CF910895CF93DF931F921F92CDB7C7
:10130000DEB79A83898389819A81FC0184899589D2
:101310000F900F90DF91CF910895CF93DF931F929D
:101320001F92CDB7DEB79A83898389819A810F9006
:101330000F90DF91CF9108950F931F93CF93DF9379
:10134000CDB7DEB780916C0290916D02009781F469
:101350008AE190E00E94050E8C0140E450E062EECC
:1013600074E0C8010E94C10910936D0200936C02E1
:1013700080916C0290916D02DF91CF911F910F913E
:101380000895CF93DF9300D000D0CDB7DEB79A8316
:1013900089837C836B835E834D8389819A812B81D2
:1013A0003C81FC01378B268B89819A812D813E817E
:1013B000FC01318F208F89819A81FC01158A148A62
:1013C00026960FB6F894DEBF0FBECDBFDF91CF914A
:1013D0000895CF93DF9300D01F92CDB7DEB79A83E5
:1013E00089837C836B8389819A81FC0184899589B7
:1013F0008A30910504F589819A81FC018489958957
:1014000029813A81880F991F820F931F2B813C817C
:10141000FC013183208389819A81FC01848995892B
:101420009C012F5F3F4F89819A81FC01358B248B72
:1014300080E090E002C08FEF9FEF0F900F900F9031
:101440000F90DF91CF910895CF93DF9300D01F923B
:10145000CDB7DEB79C838B831A82198224C02B817F
:101460003C8189819A81880F991F820F931FFC010B
:1014700080819181FC01808191810296FC01208113
:1014800031814B815C8189819A81880F991F840FFA
:10149000951FFC0180819181F901199589819A81BB
:1014A00001969A8389838B819C81FC0124893589EB
:1014B00041E089819A81821793070CF040E0442330
:1014C00071F688E890E02B813C81F9012689378903
:1014D000FC013183208381E890E021E830E0F901CC
:1014E00020812860FC0120838FE690E02FE630E029
:1014F000F90120812260FC01208378940F900F90E5
:101500000F900F90DF91CF910895CF93DF9300D08C
:1015100000D0CDB7DEB79E838D831C821B821A82DA
:1015200019822FC080916C0290916D020E948D09EA
:101530009C0189819A81880F991F820F931FFC015A
:10154000808191819C838B838B819C810E943D094A
:10155000882391F08B819C8160E00E944E098B81F1
:101560009C81FC01808191810496FC012081318164
:101570008B819C81F901199589819A8101969A83C1
:1015800089838D819E81FC012489358941E089818F
:101590009A81821793070CF040E0442319F683E503
:1015A00090E023E530E0F9012081217FFC012083D8
:1015B00083E590E023E530E0F90120812160FC0122
:1015C0002083889583E590E023E530E0F9012081D0
:1015D0002E7FFC01208326960FB6F894DEBF0FBE47
:1015E000CDBFDF91CF910895CF93DF931F921F92CC
:1015F000CDB7DEB79A83898389819A81FC01808D7A
:10160000918D8034910539F1813491053CF481301C
:10161000910569F088309105A1F03BC08115F1E09A
:101620009F0719F1811524E0920749F132C081E842
:1016300090E021E830E0F90120812160FC01208365
:1016400031C081E890E021E830E0F901208122609A
:10165000FC01208327C081E890E021E830E0F90117
:1016600020812360FC0120831DC081E890E021E8F7
:1016700030E0F90120812460FC01208313C081E85F
:1016800090E021E830E0F90120812560FC01208311
:1016900009C081E890E021E830E0F9012081216073
:1016A000FC0120830F900F90DF91CF9108951F923E
:1016B0000F9200905F000F92112400905B000F9238
:1016C0002F933F934F935F936F937F938F939F934A
:1016D000AF93BF93EF93FF93CF93DF9300D000D0EE
:1016E000CDB7DEB70E949C099C838B831E821D822E
:1016F0001A82198233C08B819C810E948D099C01C2
:1017000089819A81880F991F820F931FFC01808124
:1017100091819E838D838D819E810E94010921E0AC
:10172000009709F020E0222381F08D819E8161E005
:101730000E944E098D819E810E9413099C018D811A
:101740009E81B9010E94250904C08D819E810E945D
:10175000610989819A8101969A8389838B819C8111
:101760000E947B099C0141E089819A81821793073D
:101770000CF040E0442309F0BECF26960FB6F89453
:10178000DEBF0FBECDBFDF91CF91FF91EF91BF9133
:10179000AF919F918F917F916F915F914F913F9109
:1017A0002F910F9000925B000F9000925F000F90BE
:1017B0001F901895CF93DF931F921F92CDB7DEB77E
:1017C0009A8389830F900F90DF91CF910895CF93E3
:1017D000DF931F921F92CDB7DEB79A8389838981E9
:1017E0009A81FC0182810F900F90DF91CF91089533
:1017F000CF93DF9300D01F92CDB7DEB79A83898352
:101800007C836B8389819A812B813C81FC013183AC
:1018100020830F900F900F900F90DF91CF9108953C
:10182000CF93DF9300D01F92CDB7DEB79A83898321
:101830007C836B8389819A812B813C81FC0133837A
:1018400022830F900F900F900F90DF91CF9108950A
:10185000CF93DF9300D01F92CDB7DEB79A838983F1
:101860007C836B8389819A812B813C81FC01358348
:1018700024830F900F900F900F90DF91CF910895D8
:10188000CF93DF931F921F92CDB7DEB79A838983E0
:1018900089819A81FC01858196810F900F90DF915B
:1018A000CF910895CF93DF931F921F92CDB7DEB7EC
:1018B0009A83898389819A81FC01878190850F9021
:1018C0000F90DF91CF910895CF93DF931F921F92D6
:1018D000CDB7DEB79A83898389819A81FC0181859E
:1018E00092850F900F90DF91CF9108950F931F93E2
:1018F000CF93DF93CDB7DEB72A970FB6F894DEBF4C
:101900000FBECDBF9A8389837C836B835E834D83B7
:1019100038872F831A87098789819A8149855A8553
:101920002F813885B9010E94330D89819A8122E582
:1019300032E0FC013183208389819A812B813C81B3
:10194000FC013087278389819A812D813E81FC01AA
:10195000328721872A960FB6F894DEBF0FBECDBF1F
:10196000DF91CF911F910F910895CF93DF9300D016
:1019700000D0CDB7DEB79E838D831C821B828D8104
:101980009E81FC01878190859E012D5F3F4FB901AB
:101990000E94A904009731F48B819C81009711F07B
:1019A00081E001C080E0882309F447C08B819C81DD
:1019B0000E94E70B982F81E0913009F080E08823A6
:1019C00059F18B819C819A83898389819A810E94B4
:1019D000400C9C018D819E81FC0181859285B9011D
:1019E0000E94F80B89819A810E94520C9C018D8182
:1019F0009E81FC0181859285B9010E94100C89812C
:101A00009A810E94640C9C018D819E81FC018185DC
:101A10009285B9010E94280C8B819C81009769F006
:101A20008B819C81FC01808191810296FC01208147
:101A300031818B819C81F901199526960FB6F89416
:101A4000DEBF0FBECDBFDF91CF910895CF93DF935F
:101A50001F921F92CDB7DEB79A8389830F900F90A4
:101A6000DF91CF910895CF93DF9300D000D0CDB711
:101A7000DEB79A8389837C836B835E834D83898100
:101A80009A812CE532E0FC013183208389819A819F
:101A90002B813C81FC013383228389819A812D81B2
:101AA0003E81FC013583248389819A81FC01168261
:101AB00026960FB6F894DEBF0FBECDBFDF91CF9153
:101AC0000895CF93DF931F921F92CDB7DEB79A830D
:101AD0008983F89489819A81FC0180819181FC013C
:101AE0002081318189819A81F901199578940F902B
:101AF0000F90DF91CF9108950F931F93CF93DF93B2
:101B0000CDB7DEB72A970FB6F894DEBF0FBECDBFB4
:101B10009A8389837C836B835E834D8338872F838D
:101B20001A87098789819A8149855A852F81388545
:101B3000B9010E94330D89819A8126E632E0FC01C9
:101B40003183208389819A812B813C81FC013087FC
:101B5000278389819A812D813E81FC0132872187EB
:101B60002A960FB6F894DEBF0FBECDBFDF91CF919E
:101B70001F910F9108950F931F93CF93DF9300D080
:101B80001F92CDB7DEB79C838B838BE090E00E94E1
:101B9000050E8C01C8010E949E081A830983898161
:101BA0009A8161E270E00E94B90889819A8160E2BD
:101BB00070E00E94D10889819A816FE170E00E94F3
:101BC000E9088B819C81FC018781908529813A817C
:101BD000B9010E943A0489819A81009769F089814C
:101BE0009A81FC01808191810296FC0120813181E2
:101BF00089819A81F90119950F900F900F900F909C
:101C0000DF91CF911F910F910895CF93DF931F9292
:101C10001F92CDB7DEB79A83898389819A810E940A
:101C2000430F0F900F90DF91CF910895CF93DF93E3
:101C30001F921F92CDB7DEB79A83898389819A81DB
:101C4000009721F089819A810E94DE0F0F900F90FA
:101C5000DF91CF910895CF93DF931F921F92CDB75D
:101C6000DEB79A83898389819A810E94430F0F90FE
:101C70000F90DF91CF910895ACD088F09F5790F0EE
:101C8000B92F9927B751A0F0D1F0660F771F881FA1
:101C9000991F1AF0BA95C9F712C0B13081F0CAD0B5
:101CA000B1E00895C7C0672F782F8827B85F39F053
:101CB000B93FCCF3869577956795B395D9F73EF400
:101CC00090958095709561957F4F8F4F9F4F0895A8
:101CD000E89409C097FB3EF49095809570956195C6
:101CE0007F4F8F4F9F4F9923A9F0F92F96E9BB277C
:101CF0009395F695879577956795B795F111F8CFF8
:101D0000FAF4BB0F11F460FF1BC06F5F7F4F8F4F62
:101D10009F4F16C0882311F096E911C0772321F058
:101D20009EE8872F762F05C0662371F096E8862FF0
:101D300070E060E02AF09A95660F771F881FDAF747
:101D4000880F9695879597F908955DD080F09F3715
:101D500040F491110EF06FC060E070E080E89FEBFE
:101D6000089526F41B16611D711D811D01C01BC045
:101D7000882371F4772321F09850872B762F07C0A2
:101D8000662311F499270DC09051862B70E060E016
:101D90002AF09A95660F771F881FDAF7880F9695B5
:101DA000879597F908959F3F31F0915020F48795DA
:101DB00077956795B795880F911D9695879597F9B3
:101DC000089557FD9058440F551F59F05F3F71F02B
:101DD0004795880F97FB991F61F09F3F79F0879592
:101DE0000895121613061406551FF2CF4695F1DF1B
:101DF00008C0161617061806991FF1CF86957105AB
:101E0000610508940895E5DFA0F0BEE7B91788F4EE
:101E1000BB279F3860F41616B11D672F782F8827CF
:101E2000985FF7CF869577956795B11D939596390D
:101E3000C8F30895E894BB2766277727CB0197F965
:101E40000895A1E21A2EAA1BBB1BFD010DC0AA1FFB
:101E5000BB1FEE1FFF1FA217B307E407F50720F013
:101E6000A21BB30BE40BF50B661F771F881F991F8E
:101E70001A9469F760957095809590959B01AC01D7
:101E8000BD01CF0108950F931F93CF93DF9382304D
:101E9000910510F482E090E0E0917002F0917102FF
:101EA00020E030E0C0E0D0E023C0408151814817FD
:101EB0005907A8F04817590761F482819381209748
:101EC00019F09B838A832EC09093710280937002D5
:101ED00029C02115310529F04217530710F0A90137
:101EE00002C0BE01DF0102811381EF019A01F801F6
:101EF0003097D9F62115310509F1281B390B24300B
:101F0000310590F412968D919C911397611571058E
:101F100021F0FB019383828304C09093710280932C
:101F20007002FD01329644C0FD01E20FF31F819360
:101F30009193225031092D933C933AC020916E0227
:101F400030916F02232B41F4209102023091030261
:101F500030936F0220936E022091000230910102B3
:101F60002115310541F42DB73EB74091040250913F
:101F70000502241B350BE0916E02F0916F02E2170F
:101F8000F307A0F42E1B3F0B2817390778F0AC019C
:101F90004E5F5F4F2417350748F04E0F5F1F509379
:101FA0006F0240936E028193919302C0E0E0F0E0F3
:101FB000CF01DF91CF911F910F910895EF92FF9282
:101FC0000F931F93CF93DF93009709F48FC0DC0129
:101FD000129713961C921E921297E0907002F09046
:101FE0007102E114F10489F42D913C911197280FAD
:101FF000391F80916E0290916F028217930789F5C5
:10200000B0936F02A0936E0271C0E70120E030E050
:1020100001C0EA01CA17DB0738F44A815B819E01DF
:1020200041155105B1F722C0BC0162507109FB0195
:10203000D383C28300811181AC01400F511F4C1723
:102040005D0761F448815981400F511F4E5F5F4F1A
:10205000518340834A815B8153834283211531053B
:1020600029F4B0937102A093700240C0F901B383C8
:10207000A283E90169917991C60FD71FAC17BD07FB
:1020800079F4DC015E914E91460F571F4E5F5F4F12
:102090005183408312968D919C91139793838283F1
:1020A000A0E0B0E002C0D7017C01F70182819381FA
:1020B0000097C9F7C701029620813181820F931FD3
:1020C00020916E0230916F022817390779F410972A
:1020D00029F4109271021092700204C013961C929F
:1020E0001E921297F0926F02E0926E02DF91CF91F2
:1020F0001F910F91FF90EF900895FB01DC0102C04A
:1021000001900D9241505040D8F70895F894FFCFB8
:1021100000007202200000000000CD00EB00000172
:10212000B601F9010000000096027202610D000084
:10213000000067058505C105D00500000000E10528
:10214000FF052F06E20600000000F8061A072F0719
:10215000810700000000CB07ED07020854080000CB
:102160000000B50CDA0B610D00000000260DDA0B43
:0C217000610D00000000BB0DDA0B610DDA
:00000001FF
