S012000048656C69636F707465722E7372656303
S11300000C949D010C94CE010C94CE010C94CE0161
S11300100C94CE010C94CE010C94CE010C94CE0120
S11300200C94CE010C94CE010C94CE010C94CE0110
S11300300C94CE010C945C400C94CE010C94CE0133
S11300400C94CE010C94CE010C94CE010C94CE01F0
S11300500C94CE010C94A3660C94CE010C94CE01A6
S11300600C94CE010C94910D0C94BD0D0C94CE0106
S11300700C94CE010C94CE010C94CE010C94CE01C0
S11300800C94CE010C94CE010C94CE010C94CE01B0
S11300900C9439490C94FD0D0C94CE010C94CE01B2
S11300A00C94CE010C94CE010C94CE010C94CE0190
S11300B00C94CE010C94CE010C94661D0C94CE01CC
S11300C00C94CE010C94CE010C94CE010C94CE0170
S11300D00C94CE010C94CE010C94CE010C94CE0160
S11300E00C94CE01036EDB363D9A9999993DABAAE7
S11300F0AA2A3E000000803F084AD73B3BCE016E4F
S113010084BCBFFDC12F3D6C74319ABD56833DDA6A
S11301103D00C77F11BED9E4BB4C3E916BAAAABE79
S1130120000000803F072C7AA5BA6CC590DA3B9397
S113013065FC8BBC53F810FD3C5692834DBD879DE6
S11301403AB63DCBC9BF5BBE73DA0FC93F05A84CB5
S1130150CDB2D44EB93836A9020C50B9918688086C
S11301603CA6AAAA2ABE000000803F08000000BEE8
S1130170922449123EABAAAA2ABECDCCCC4C3E0056
S1130180000080BEABAAAAAA3E00000000BF000087
S113019000803F0000000000084178D3BB4387D1B2
S11301A0133D190E3CC3BD4282AD2B3E68EC8276F2
S11301B0BED98FE1A93E4C80EFFFBE01C4FF7F3F53
S11301C0000000000007634236B79BD8A71A3968BD
S11301D05618AEBAAB558C1D3CB7CC5763BD6DED0C
S11301E0FD753EF6177231BF000000803F000C948D
S11301F0AC570C94CC510C94FD250C94D2510C9416
S1130200CA270C94FC520C949A0F0C9442230C941D
S11302105C530C9456530C945B0A0C94D05C0C9471
S11302201C580C94AC0A0C94AA090C940A530C9410
S1130230D7220C94A80B0C948E560C94EF090C94B2
S11302400E0A0C94B10C0C94F3250C9494560C9453
S1130250E95C0C9405230C94BC270C94B00B0C940F
S11302603B530C9433570C94C15C0C9450240C9461
S11302702B570C9464530C94F15C0C943D0E0C9429
S11302809E570C94F9250C94EF550C9417260C9456
S1130290FC250C94C25C0C94B0090C94940F0C943F
S11302A0CB510C940E580C943A230C94C2270C9402
S11302B0782B0C945B2B0C94F7550C9402530C94F0
S11302C06A2B0C942D530C94A4570C9414580C942E
S11302D0532B0C94DA510C9409260C9433530C943C
S11302E0412B0C9434230C94650F0C94CF220C9462
S11302F0472B0C940F260C946A550C94AC260C9442
S1130300C9220C9464550C94C85C0C9425570C9425
S113031072550C945F0C0C94720F0C94702B0C940B
S11303204A0E0C94E9550C949C560C94E35C0C9482
S113033032290C94832F3D0E4A0E11241FBECFEF99
S1130340D1E2DEBFCDBF00E00CBF13E0A0E0B2E01D
S1130350E8EBFBED00E00BBF02C007900D92AE3856
S1130360B107D9F720E1AEE8B3E001C01D92A0388F
S1130370B207E1F713E0C8E3D3E000E006C0229738
S11303800109FE010BBF0E94376CC633D10780E020
S11303900807A9F70E9495120C94CA6D0C940000EA
S11303A0FC01208531858281938128173907FCF46B
S11303B0F8942081318186819781AC014F5F5F4F32
S11303C057834683D901A80FB91F6C9326813781BF
S11303D0828193812817390714F017821682808549
S11303E09185019691878087789481E0089580E0D3
S11303F00895FC01DB011C9280859185892B09F10C
S1130400F8942081318184819581AC014F5F5F4FE5
S113041055834483D901A80FB91F8C91DB018C93B8
S113042024813581828193812817390714F015823C
S1130430148280859185019791878087789481E0E3
S1130440089580E00895FC01268137818481958197
S11304502817390729F480859185892B09F0159887
S1130460208531858281938128173907ECF4208116
S1130470318186819781AC014F5F5F4F57834683FB
S1130480D901A80FB91F6C9326813781828193818A
S11304902817390714F017821682808591850196F2
S11304A09187808781E0089580E00895FC0126818A
S11304B03781848195812817390729F480859185AE
S11304C0892B09F01598DB011C9280859185892B75
S11304D0F9F02081318184819581AC014F5F5F4FB8
S11304E055834483D901A80FB91F8C91DB018C93E8
S11304F024813581828193812817390714F015826C
S113050014828085918501979187808781E0089581
S113051080E00895FC017183608312821382148247
S11305201582168217821086118612861386148607
S1130530158616861786108A118A128A138A148AD7
S1130540158A168A178A108E118E128E138E148EA7
S1130550158E168E178E10A211A212A213A214A227
S113056015A212A613A614A615A616A617A610AAB7
S113057011AA12AA13AA14AA15AA16AA17AA10AE87
S113058011AE12AE13AE14AE15AEDC01AE5BBF4FAE
S11305901D921D921D921C92139714961D921D92EA
S11305A01D921C92139714961D921D921D921C92DB
S11305B0139714961D921D921D921C9213971496D4
S11305C01D921D921D921C92139714961D921D92BA
S11305D01D921C92139714961D921D921D921C92AB
S11305E0139714961D921D921D921C9213971496A4
S11305F01D921D921D921C92139714961D921D928A
S11306001D921C92139714961D921D921D921C927A
S1130610139714961D921D921D921C921397549633
S11306201D921D921D921C92139714961D921D9259
S11306301D921C921397E657FF4F1082118212826B
S113064013820895DC01ED91FC91EA54FF4F8081FF
S11306509181A281B3810196A11DB11D80839183F3
S1130660A283B38308952F923F924F925F926F9229
S11306707F928F929F92AF92BF92CF92DF92EF922E
S1130680FF920F931F93CF93DF93CDB7DEB72C97D1
S11306900FB6F894DEBF0FBECDBF9C878B87DC01FD
S11306A00D911C91F801EA52FF4FD80116962D9135
S11306B03D914D915C911997608171818281938103
S11306C00E94BA666B017C012BED3FE049E450E4E3
S11306D00E94C76988235CF02BED3FE049EC50E4AD
S11306E0C701B6010E94BA666B017C0114C02BEDF0
S11306F03FE049E450ECC701B6010E9498678823A3
S113070054F42BED3FE049EC50E4C701B6010E94DC
S1130710BB666B017C01F8012685378540895189C8
S113072062857385848595850E94BA66AB85BC8590
S11307301E962D913D914D915C9151970E941D6A99
S11307404B015C01EB85FC85228133814481558119
S1130750C701B6010E941D6A9B01AC01C501B40129
S11307600E94BB66EB85FC85EE57FF4F20813181EB
S1130770428153810E941D6AD80156962D913D9164
S11307804D915C9159970E94BB664B015C01F80145
S11307902289338944895589EE51FF4F60817181E3
S11307A0828193810E94BA666B837C838D839E834E
S11307B0AB85BC851A962D913D914D915C911D9709
S11307C0C701B6010E941D6A9B01AC01C501B401B9
S11307D00E94BB662B013C01EB85FC852681378199
S11307E0408551856B817C818D819E810E941D6A2B
S11307F09B01AC01C301B2010E94BB6669837A8389
S1130800382E292EEB85FC85EA5AFF4F4080518013
S113081062807380EB85FC85EE5AFF4F80818F8365
S113082091819887A281A987B381BA87262F372F10
S1130830432D522DC301B2010E9498678823ACF066
S113084029813A81432D522D6F81788589859A8536
S11308500E94C76918162CF049805A80632C722CA8
S113086004C04F80588469847A8477FA709477F846
S11308707094F8014286538664867586AB85BC8580
S11308802D913C9189819A81A32DB22DF9018687FE
S11308909787A08BB18BAB85BC85ED91FC911197AB
S11308A0868A978AA08EB18EED91FC911197C28EA3
S11308B0D38EE48EF58EED91FC918B819C81AD817C
S11308C0BE81868F978FA0A3B1A32C960FB6F89400
S11308D0DEBF0FBECDBFDF91CF911F910F91FF906F
S11308E0EF90DF90CF90BF90AF909F908F907F90CC
S11308F06F905F904F903F902F9008952F923F926A
S11309004F925F926F927F928F929F92AF92BF921B
S1130910CF92DF92EF92FF920F931F93CF93DF93C7
S1130920CDB7DEB72C970FB6F894DEBF0FBECDBFA0
S11309309C878B874A015B01DC012D903C908101EF
S11309400A561F4F7C01BEE4EB0EF11CF101EA577D
S1130950FF4FD101A657BF4F2D913D914D915C9111
S113096060817181828193810E94BA66F70120813E
S11309703181428153810E941D6A6B017C01EB85A8
S1130980FC85EE5BFF4F2081318142815381C5019B
S1130990B4010E941D6A9B01AC01C701B6010E940B
S11309A0BB66EB85FC85EE57FF4F20813181428188
S11309B053810E941D6AD8012D913D914D915C9106
S11309C00E94BB666B837C838D839E83F101E25717
S11309D0FF4FD101AE56BF4F2D913D914D915C918A
S11309E060817181828193810E94BA666B017C016E
S11309F0EB85FC85E65BFF4F208131814281538189
S1130A00C501B4010E941D6A9B01AC016B817C810C
S1130A108D819E810E94BB662B013C01EB85FC8588
S1130A20EA5BFF4F2081318142815381C701B601C6
S1130A300E941D6A9B01AC01C301B2010E94BB6606
S1130A40462E572E682E792EEB85FC85E259FF4FF2
S1130A5010810181B281B98383818A83EB85FC850E
S1130A60E659FF4F90819F83A181A887B281B987FE
S1130A7083818A87242D352D462D572D612F702F84
S1130A8089819A810E9498678823BCF0242D352D92
S1130A90462D572D6F81788589859A850E94C7696F
S1130AA018162CF0142D052D69827A8206C01F8138
S1130AB0088599859983AA85AA83B6E82B0E311CEB
S1130AC0812F902FA981BA81F10180839183A28320
S1130AD0B383AB85BC85ED91FC91E657FF4F842D24
S1130AE0952DA62DB72D80839183A283B383AB85E7
S1130AF0BC85ED91FC91EA56FF4F8B819C81AD81C1
S1130B00BE8180839183A283B383AB85BC85ED9141
S1130B10FC911197E656FF4F80829182A282B382A4
S1130B20ED91FC91E256FF4FC082D182E282F382C2
S1130B302C960FB6F894DEBF0FBECDBFDF91CF91D8
S1130B401F910F91FF90EF90DF90CF90BF90AF90E7
S1130B509F908F907F906F905F904F903F902F90D9
S1130B6008952F923F924F925F926F927F928F924D
S1130B709F92AF92BF92CF92DF92EF92FF920F9328
S1130B801F93CF93DF93CDB7DEB72C970FB6F894AE
S1130B90DEBF0FBECDBF9C878B874A015B01DC01A2
S1130BA02D903C9081010E5B1F4FF10122A533A5CE
S1130BB044A555A566A577A580A991A90E94BA6602
S1130BC0AB85BC855E962D913D914D915C9191973D
S1130BD00E941D6A6B017C01EB85FC8522893389A7
S1130BE044895589C501B4010E941D6A9B01AC0169
S1130BF0C701B6010E94BB66EB85FC85EE57FF4F2B
S1130C0020813181428153810E941D6AD8012D9136
S1130C103D914D915C910E94BB6669837A838B837D
S1130C209C83F10126A937A940AD51AD62A973A9EE
S1130C3084A995A90E94BA666B017C01AB85BC8529
S1130C405A962D913D914D915C915D97C501B401EA
S1130C500E941D6A9B01AC0169817A818B819C8110
S1130C600E94BB662B013C01EB85FC8526893789F4
S1130C70408D518DC701B6010E941D6A9B01AC01D4
S1130C80C301B2010E94BB66162F072F8D839E837A
S1130C90EB85FC85EA58FF4F80818F83918198878B
S1130CA0A281A987B381BA87EB85FC85EE58FF4FF3
S1130CB04080518062807380212F302F4D815E816E
S1130CC0642D752D862D972D0E94C7691816ACF0DA
S1130CD0212F302F4D815E816F81788589859A859A
S1130CE00E94986788232CF0412E502E6D807E80C0
S1130CF004C04F80588469847A84842D952DA62D50
S1130D00B72DF10182AF93AFA4AFB5AFAB85BC856E
S1130D10ED91FC91EE5BFF4F89819A81AB81BC819F
S1130D2080839183A283B383AB85BC85ED91FC91D1
S1130D301197FE9680829182A282B382ED91FC91FA
S1130D40EA5BFF4FC082D182E282F3822C960FB617
S1130D50F894DEBF0FBECDBFDF91CF911F910F91ED
S1130D60FF90EF90DF90CF90BF90AF909F908F90C7
S1130D707F906F905F904F903F902F9008952F92A7
S1130D803F924F925F926F927F928F929F92AF9217
S1130D90BF92CF92DF92EF92FF920F931F93CF9364
S1130DA0DF93CDB7DEB72C970FB6F894DEBF0FBE36
S1130DB0CDBF9C878B876A017B01DC010D911C915F
S1130DC03801BEE66B0E711CF801E65AFF4FD801DC
S1130DD0AA5ABF4F2D913D914D915C9160817181D3
S1130DE0828193810E94BA66EB85FC8526A937A986
S1130DF040AD51AD0E941D6A4B015C01AB85BC85C1
S1130E009A962D913D914D915C919D97C701B601A4
S1130E100E941D6A9B01AC01C501B4010E94BB661E
S1130E20EB85FC85EE57FF4F208131814281538150
S1130E300E941D6AF30120813181428153810E9405
S1130E40BB664B015C01F801E25AFF4FD801AE5971
S1130E50BF4F2D913D914D915C9160817181828153
S1130E6093810E94BA666D837E838F839887AB8556
S1130E70BC85D2962D913D914D915C91D597C7013A
S1130E80B6010E941D6A9B01AC01C501B4010E9418
S1130E90BB662B013C01EB85FC8526A537A540A943
S1130EA051A96D817E818F8198850E941D6A9B0165
S1130EB0AC01C301B2010E94BB669B01AC01505856
S1130EC029833A834B835C83EB85FC85E258FF4F8F
S1130ED0308021803281398743814A87EB85FC85C4
S1130EE0E658FF4F408051806280738029813A81A7
S1130EF04B815C81642D752D862D972D0E94C769C9
S1130F001816ACF029813A814B815C81632D722DD6
S1130F1089859A850E94986788232CF049805A8095
S1130F206B807C8004C0432C522C69847A84F80141
S1130F30EA59FF4F842D952DA62DB72D80839183DB
S1130F40A283B383AB85BC85ED91FC911197E259E3
S1130F50FF4F80829182A282B382ED91FC9111971E
S1130F60E659FF4FC082D182E282F382ED91FC9177
S1130F70EE58FF4F2D813E814F8158852083318368
S1130F80428353832C960FB6F894DEBF0FBECDBFB9
S1130F90DF91CF911F910F91FF90EF90DF90CF9051
S1130FA0BF90AF909F908F907F906F905F904F9085
S1130FB03F902F9008952F923F924F925F926F929D
S1130FC07F928F929F92AF92BF92CF92DF92EF92D5
S1130FD0FF920F931F93CF93DF93CDB7DEB768973C
S1130FE00FB6F894DEBF0FBECDBF8C01FC0120808C
S1130FF03180F1018281813009F064C026A137A1DA
S113100040A551A562A173A184A195A10E94BA66CD
S11310102B013C01F101E25BFF4FD101AE5ABF4FFE
S11310202D913D914D915C9160817181828193817B
S11310300E94BA664B015C01F101E258FF4FD101F5
S1131040AE57BF4F2D913D914D915C91608171815F
S1131050828193810E94BA666B017C01AE01435F79
S11310605F4F8CE0FA0111928A95E9F749825A821E
S11310706B827C828D829E82AF82B886C986DA8634
S1131080EB86FC86F10180819181BE016F5F7F4F09
S1131090805C9F4F0E94BF644D855E856F85788913
S11310A0C8010E94B10549895A896B897C89C801A4
S11310B00E94BF06B701A601C8010E947E04C801B0
S11310C00E94330368960FB6F894DEBF0FBECDBFFF
S11310D0DF91CF911F910F91FF90EF90DF90CF9010
S11310E0BF90AF909F908F907F906F905F904F9044
S11310F03F902F9008954F925F926F927F928F92BC
S11311009F92AF92BF92CF92DF92EF92FF920F9392
S11311101F93CF93DF93EC0108811981F801828139
S1131120813009F06AC0EE52FF4F20813181428143
S11311305381F80162AD73AD84AD95AD0E94BA667A
S11311402AA13BA14CA15DA10E941D6A6B017C01F7
S1131150F801E652FF4F20813181428153816EA113
S11311607FA188A599A50E941D6A9B01AC01C701B6
S1131170B6010E94BA66862E972EA82EB92EFE01BD
S1131180E25AFF4FC080D180E280F38034974080E0
S1131190518062807380262F372F482F592FC70123
S11311A0B6010E9498678823ACF0282D392D4A2D6A
S11311B05B2D642D752D862D972D0E94C7691816F9
S11311C02CF0C82CD92CEA2CFB2C04C0C42CD52C14
S11311D0E62CF72C482D592D6A2D7B2DF80142A7BA
S11311E053A764A775A7E881F981F7FAF094F7F893
S11311F0F094C6A6D7A6E0AAF1AADF91CF911F91D9
S11312000F91FF90EF90DF90CF90BF90AF909F90A1
S11312108F907F906F905F904F9008954F925F9260
S11312206F927F928F929F92AF92BF92CF92DF92F2
S1131230EF92FF920F931F93CF93DF93EC010881FA
S11312401981F8018281813009F073C0E253FF4FA4
S11312502081318142815381E856F1096081718195
S1131260828193810E94BA662AAD3BAD4CAD5DADDF
S11312700E941D6A6B017C01F801E252FF4F20813C
S1131280318142815381FE01FE96608171818281A8
S113129093810E941D6A9B01AC01C701B6010E94A3
S11312A0BA66C62ED72EE82EF92EFE01EA59FF4F54
S11312B080809180A280B380349740805180628086
S11312C07380262F372F482F592F682D792D8A2D7B
S11312D09B2D0E9498678823ACF02C2D3D2D4E2D1C
S11312E05F2D642D752D862D972D0E94C7691816C4
S11312F02CF08C2C9D2CAE2CBF2C04C0842C952C53
S1131300A62CB72CF801EA5AFF4F8C2D9D2DAE2D3B
S1131310BF2D80839183A283B383E881F981E65A48
S1131320FF4F882D992DAA2DBB2D80839183A283F5
S1131330B383DF91CF911F910F91FF90EF90DF90D6
S1131340CF90BF90AF909F908F907F906F905F9061
S11313504F90089522E132E0FC0131832083089507
S1131360BF92CF92DF92EF92FF920F931F93CF938E
S1131370DF93EC01052F162FB72EE881F981068043
S1131380F781E02D642F19957C01E881F9810680AD
S1131390F781E02D602FCE0119956C01E881F98168
S11313A00680F781E02D612FCE0119958C01E8812B
S11313B0F9810680F781E02D6B2DCE011995EC287B
S11313C0FD280E291F29802B912BDF91CF911F918E
S11313D00F91FF90EF90DF90CF90BF900895FF9210
S11313E00F931F93CF93DF93EC01F62E672FE881C1
S11313F0F9810680F781E02D19958C01E881F98146
S11314000680F781E02D6F2DCE011995802B912B4D
S1131410DF91CF911F910F91FF9008958F929F922A
S1131420AF92BF92CF92DF92EF92FF920F931F93EE
S1131430CF93DF93EC014A015B01E881F981672FC7
S11314407727882799270680F781E02DCE01199503
S11314507C01E881F981B501882799270680F78105
S1131460E02DCE0119956C01E881F98199278B2D26
S11314707A2D692D0680F781E02DCE0119958C0116
S1131480E881F9810680F781E02D682DCE01199558
S1131490EC28FD280E291F29802B912BDF91CF9159
S11314A01F910F91FF90EF90DF90CF90BF90AF907E
S11314B09F908F9008958F929F92AF92BF92CF92F8
S11314C0DF92EF92FF920F931F93CF93DF93EC0180
S11314D04A015B01E881F981672F772788279927DB
S11314E00680F781E02DCE0119957C01E881F98110
S11314F0B501992777FD9095892F0680F781E02D16
S1131500CE0119956C01E881F9819927B7FC9A9568
S11315108B2D7A2D692D0680F781E02DCE0119954A
S11315208C01E881F9810680F781E02D682DCE01D8
S11315301995EC28FD280E291F29802B912BDF916A
S1131540CF911F910F91FF90EF90DF90CF90BF90BC
S1131550AF909F908F9008953F924F925F926F92B9
S11315607F928F929F92AF92BF92CF92DF92EF922F
S1131570FF920F931F93CF93DF93CDB7DEB72897D6
S11315800FB6F894DEBF0FBECDBF98878F83702E41
S1131590322E432E542E652EE62EF72EDC01ED91CD
S11315A0FC911197202F312F432D542D652D762D2D
S11315B08E2D9F2D08E30E94546C0680F781E02D48
S11315C0622FCD0119955C01AF81B885ED91FC9135
S11315D01197272D312F432D542D652D762D8E2DCA
S11315E09F2D00E30E94546C0680F781E02D622F4A
S11315F0CD0119954C01AF81B885ED91FC911197FE
S1131600272D312F432D542D652D762D8E2D9F2D75
S113161008E20E94546C0680F781E02D622FCD0110
S113162019959A838983AF81B885ED91FC911197BF
S1131630272D312F432D542D652D762D8E2D9F2D45
S113164000E20E94546C0680F781E02D622FCD01E8
S113165019959C838B83AF81B885ED91FC9111978B
S1131660272D312F432D542D652D762D8E2D9F2D15
S113167008E10E94546C0680F781E02D622FCD01B1
S113168019959E838D83AF81B885ED91FC91119757
S1131690272D312F432D542D652D762D8E2D9F2DE5
S11316A000E10E94546C0680F781E02D622FCD0189
S11316B019956C01AF81B885ED91FC911197272D97
S11316C0312F432D542D652D762D8E2D9F2D08E021
S11316D00E94546C0680F781E02D622FCD0119958C
S11316E07C01AF81B885ED91FC9111970680F7815B
S11316F0E02D672DCD011995A828B928E981FA8133
S1131700AE2ABF2A2B813C81A22AB32AAD81BE8195
S1131710AA2ABB2ACA28DB28EC28FD288E299F295F
S113172028960FB6F894DEBF0FBECDBFDF91CF91E0
S11317301F910F91FF90EF90DF90CF90BF90AF90EB
S11317409F908F907F906F905F904F903F900895FF
S113175022E132E0FC01318320830E940961089573
S1131760CF93DF93EC018F81882329F18A819B81B8
S1131770AC81BD81880F991FAA1FBB1F880F991FB9
S1131780AA1FBB1F9C01AD01220F331F441F551F0D
S113179060E074E284EF90E00E94BC6BCA01B9017E
S11317A061507109810991090E9438680E94756825
S11317B00E940C6828C08A819B81AC81BD81880FFE
S11317C0991FAA1FBB1F880F991FAA1FBB1F9C012B
S11317D0AD01220F331F441F551F220F331F441F17
S11317E0551F60E074E284EF90E00E94BC6BCA0174
S11317F0B90161507109810991090E9438680E94F8
S113180075680E940C688E81811120C07093C50098
S11318106093C400E2ECF0E08081866080838F8175
S1131820882331F0E0ECF0E080818260808305C0A1
S1131830E0ECF0E080818D7F8083E1ECF0E080815A
S11318408F7D808380818861808321C08130F9F419
S11318507093CD006093CC00EAECF0E08081866068
S113186080838F81882331F0E8ECF0E0808182600E
S1131870808305C0E8ECF0E080818D7F8083E9EC13
S1131880F0E080818F7D808380818861808388857A
S1131890882391F0F8948E81811106C0E1ECF0E088
S11318A080818068808307C0813029F4E9ECF0E00E
S11318B08081806880837894DF91CF910895FF922E
S11318C00F931F93CF93DF93EC01F62E8885882323
S11318D059F08EE893E00E94D00191E0892790E0CE
S11318E091958195910937C08E81811110C000ECCA
S11318F010E008C089859A85009721F00E9433661C
S1131900811117C0F801808185FFF4CF1BC081309D
S113191099F408EC10E008C089859A85009721F0B5
S11319200E94336681110BC0F801808185FFF4CFDA
S11319300EC08FEF9FEF0FC080E090E00CC08FEFE0
S11319409FEF09C0F092C60080E090E004C0F092DE
S1131950CE0080E090E0DF91CF911F910F91FF9036
S11319600895EF92FF920F931F93CF93DF93EC01AF
S11319707B018885882359F088E993E00E94F90166
S113198091E0892790E09195819591094EC08E81CF
S1131990811119C000EC10E008C089859A85009770
S11319A021F00E943366811129C0F80180818823C7
S11319B0A4F72DC03EEF2FEF8091C600F70180837E
S11319C0832F922F32C08130E1F408EC10E008C07C
S11319D089859A85009721F00E943366811114C08D
S11319E0F80180818823A4F719C03EEF2FEF80917E
S11319F0CE00F7018083832F922F17C08FEF9FEFC4
S1131A0014C080E090E011C08FEF9FEF0EC0809172
S1131A10C0008C7179F630E020E0CECF8091C80010
S1131A208C7119F730E020E0E2CFDF91CF911F9164
S1131A300F91FF90EF9008950F931F93CF93DF932F
S1131A40EC018B01198218827B836A831D821C82BC
S1131A501F821E8219861886CB010E940E6199830B
S1131A608883A80160E070E00E94C36DDF91CF918C
S1131A701F910F910895FC0181859285009711F0C3
S1131A800E944E660895FC0181859285009711F0AD
S1131A900E9441660895EF92FF920F931F93CF9394
S1131AA0DF938C01141615069CF4EB017B01E40E04
S1131AB0F51E6991D801ED91FC910680F781E02D26
S1131AC0C8011995CE15DF0529F0009791F302C0DE
S1131AD080E090E0DF91CF911F910F91FF90EF9004
S1131AE00895FC01868181110DC08091C000882376
S1131AF0BCF4A6ECB0E0E0ECF0E08C9180818823AB
S1131B00E4F30895813061F48091C800882344F49B
S1131B10AEECB0E0E8ECF0E08C9180818823E4F353
S1131B2008951F920F920FB60F9211240BB60F92C5
S1131B302F933F934F935F936F937F938F939F93D1
S1131B40AF93BF93EF93FF936091C60088E993E04E
S1131B500E942302FF91EF91BF91AF919F918F91CA
S1131B607F916F915F914F913F912F910F900BBE99
S1131B700F900FBE0F901F9018951F920F920FB6E3
S1131B800F9211240BB60F922F933F934F935F93B1
S1131B906F937F938F939F93AF93BF93EF93FF9331
S1131BA0CF93DF931F92CDB7DEB7BE016F5F7F4F38
S1131BB08EE893E00E945602882321F08981809365
S1131BC0C60005C0E1ECF0E080818F7D80830F903A
S1131BD0DF91CF91FF91EF91BF91AF919F918F9141
S1131BE07F916F915F914F913F912F910F900BBE19
S1131BF00F900FBE0F901F9018951F920F920FB663
S1131C000F9211240BB60F922F933F934F935F9330
S1131C106F937F938F939F93AF93BF93EF93FF93B0
S1131C20CF93DF931F92CDB7DEB7BE016F5F7F4FB7
S1131C308EE893E00E945602882321F089818093E4
S1131C40CE0005C0E9ECF0E080818F7D80830F90A9
S1131C50DF91CF91FF91EF91BF91AF919F918F91C0
S1131C607F916F915F914F913F912F910F900BBE98
S1131C700F900FBE0F901F90189568EE73E088E9DF
S1131C8093E00E941C0D68EE73E08EE893E00E94DE
S1131C901C0D089580918E0390918F03009711F08D
S1131CA00E9411618091980390919903009711F01B
S1131CB00E941161089587E084B9999A289AA19A9B
S1131CC08CB581658CBD0895FC018081813011F44F
S1131CD028980895823009F4A1980895FC01808120
S1131CE0813011F4289A0895823009F4A19A089554
S1131CF01EBC0DB407FEFDCF8EB508951F93CF9380
S1131D00DF93EC010E94780E182FCE010E94780E0A
S1131D10212F30E0322F2227A901482BCA01DF915D
S1131D20CF911F9108951F93CF93DF93EC010E94ED
S1131D30780E182FCE010E94780E212F30E0322F1A
S1131D402227A901482BCA01DF91CF911F91089541
S1131D506EBD0DB407FEFDCF08951F93CF93DF939F
S1131D60EC01162F0E94640E612FCE010E94A80E72
S1131D70CE010E946E0EDF91CF911F9108950F93B3
S1131D801F93CF93DF93EC01062F142F0E94640E50
S1131D90602FCE010E94A80E612FCE010E94A80ED2
S1131DA0CE010E946E0EDF91CF911F910F91089585
S1131DB0ECEBF0E084E9808380818B7F808308955D
S1131DC0509A519AE9EBF0E080818E7F8083808184
S1131DD08D7F80838CE08093B800089584EA80939B
S1131DE0BC0084E690E0ECEBF0E020812223BCF41C
S1131DF011C02091B900287F30E02830310531F03E
S1131E0081E02031310579F080E0089581E0089582
S1131E1080E008958091BC008823D4F7EACF01972D
S1131E200097C1F3E2CF089584E98093BC0008953C
S1131E306093BB0084E88093BC0084E690E0ECEB04
S1131E40F0E020812223CCF413C0442359F02091E4
S1131E50B900287F30E050E081E02417350719F4F9
S1131E6080E001C080E091E08927089580E0089532
S1131E708091BC008823D4F7E8CF01970097C1F381
S1131E80E0CF662321F084EC8093BC0003C084E897
S1131E908093BC0084E690E0ECEBF0E02081222308
S1131EA084F40AC0FA01108280E008958091BB0096
S1131EB0FA01808381E008958091BC00882394F71F
S1131EC0F5CF01970097C1F3E9CF41B121E030E0AC
S1131ED0FC01008402C0220F331F0A94E2F7242B72
S1131EE021B90895FC018781882379F042B121E06A
S1131EF030E0C901008402C0880F991F0A94E2F7F8
S1131F008095842382B91782089542B121E030E09C
S1131F10C901008402C0880F991F0A94E2F7842B38
S1131F2082B981E08783089526E733E0FC01318399
S1131F302083089526E733E0FC01318320830E9447
S1131F4009610895FC0111821082128213821482A5
S1131F5015821682178210861186128613861486BD
S1131F60158616861786108A118A128A138A148A8D
S1131F70158A168A178A108E118E128E138E148E5D
S1131F80158E168E178E10A211A212A213A214A2DD
S1131F9015A216A217A210A611A612A613A614A67D
S1131FA015A616A617A610AA11AA12AA13AA14AA4D
S1131FB015AA16AA17AA10AE11AE12AE13AE14AE1D
S1131FC015AEDC01DE961D921D921D921C92139794
S1131FD014961D921D921D921C92139714961D9295
S1131FE01D921D921C92139714961D921D921D9280
S1131FF01C92139714961D921D921D921C92139776
S113200014961D921D921D921C92139714961D9264
S11320101D921D921C92139714961D921D921D924F
S11320201C92139714961D921D921D921C92139745
S113203014961D921D921D921C92139714961D9234
S11320401D921D921C92139714961D921D921D921F
S11320501C92139714961D921D921D921C92139715
S113206014961D921D921D921C92139714961D9204
S11320701D921D921C92139714961D921D921D92EF
S11320801C92139714961D921D921D921C921397E5
S113209014961D921D921D921C92139714961D92D4
S11320A01D921D921C92139714961D921D921D92BF
S11320B01C92139714961D921D921D921C921397B5
S11320C014961D921D921D921C92139714961D92A4
S11320D01D921D921C92139714961D921D921D928F
S11320E01C92139714961D921D921D921C92139785
S11320F014961D921D921D921C92139714961D9274
S11321001D921D921C92139714961D921D921D925E
S11321101C92139714961D921D921D921C92139754
S113212014961D921D921D921C92139714961D9243
S11321301D921D921C92139714961D921D921D922E
S11321401C92139714961D921D921D921C92139724
S113215014961D921D921D921C92139714961D9213
S11321601D921D921C92139718961D921D921D92FA
S11321701C92139714961D921D921D921C921397F4
S113218014961D921D921D921C92139714961D92E3
S11321901D921D921C92139714961D921D921D92CE
S11321A01C92139714961D921D921D921C921397C4
S11321B014961D921D921D921C92139714961D92B3
S11321C01D921D921C92139714961D921D921D929E
S11321D01C92139714961D921D921D921C92139794
S11321E014961D921D921D921C92139714961D9283
S11321F01D921D921C92139714961D921D921D926E
S11322001C92139714961D921D921D921C92139763
S113221014961D921D921D921C92139714961D9252
S11322201D921D921C92139714961D921D921D923D
S11322301C92139714961D921D921D921C92139733
S113224014961D921D921D921C92139714961D9222
S11322501D921D921C92139798961C9294971D920E
S11322601D921D921C92139714961D921D921D92FD
S11322701C92139714961D921D921D921C921397F3
S113228014961D921D921D921C92139714961D92E2
S11322901D921D921C92139714961D921D921D92CD
S11322A01C92139714961D921D921D921C921397C3
S11322B014961D921D921D921C921397E25CFE4F80
S11322C0108211821282138208950F931F93CF9369
S11322D0DF93DC01FB0116961D921D921D921C9248
S11322E0199752961D921D921D921C925597EC01BE
S11322F0CE57DF4F46E656E668E974EC48835983C7
S11323006A837B836096188219821A821B8296964E
S11323101D921D921D921C929997D6961D921D9204
S11323201D921C92D997C054D109188219821A821D
S11323301B82AE59BF4F1D921D921D921C92139782
S113234082E793E3ACE5B9E3828F938FA48FB58FD3
S1132350128A138A148A158A85E495EFA6EDB9E3E7
S1132360868B978BA08FB18F168E178E10A211A219
S113237080E090E0A0E8BFE382A393A3A4A3B5A365
S113238016A217A210A611A64FE652E163E879E35C
S113239042AB53AB64AB75AB12A613A614A615A639
S11323A04AE855E563E07AE346A757A760AB71AB0B
S11323B016AA17AA10AE11AE82AF93AFA4AFB5AFF1
S11323C0EF01EE96188219821A821B822C964FE630
S11323D052E163E07BE3488359836A837B832897D4
S11323E0188219821A821B82249646EA5BE964ECFD
S11323F07AE3488359836A837B83289618821982F7
S11324001A821B824DE35AE067ED7EE342875387CD
S11324106487758712821382148215824AE057ED0D
S113242063E27DE346835783608771871686178648
S1132430108A118AE4964DEC5CEC6CE47DE34883ED
S113244059836A837B83249688839983AA83BB8375
S1132450249640E050E060E87FEB488359836A8328
S11324607B83E8970FE812EC25E73FEB0883198399
S11324702A833B8324960FE812EC25E73FE3088385
S113248019832A833B83289688839983AA83BB83F1
S11324902497488359836A837B832C968883998302
S11324A0AA83BB83DF01AE59BF4F4D935D936D93F8
S11324B07C931397289680E090E0A0E0BFE38883A4
S11324C09983AA83BB83DF01A659BF4F1D921D9236
S11324D01D921C921397609682EC98EBA2EBBDE3DD
S11324E088839983AA83BB83249782EC98EBA2EB1D
S11324F0BDEB88839983AA83BB83249786E996E5F9
S1132500A8E6BEE388839983AA83BB83EE58FF4F72
S113251086E996E5A8E6BEEB80839183A283B38324
S1132520DF91CF911F910F910895CF93DF93CDB792
S1132530DEB7A8970FB6F894DEBF0FBECDBF0C9AD6
S113254014980E9457620E94683F98A78FA38FE453
S113255091E00E9406614C010E94A20F9092A50393
S11325608092A40383E0D40113968C93139781E0A3
S113257014968C93149715968C938EE890E00E9491
S113258006611C01B4010E948A02B101C4010E94C7
S11325906511F4018581811134C08AE090E00E94C4
S11325A006618C0180E094E2A4EFB0E0F80180833E
S11325B09183A283B38380E094E09583848382E350
S11325C090E09783868385E090E0918780878BE015
S11325D090E00E9406612C0182E192E0D2018D9389
S11325E09C9380E990EDA3E0B0E0F20182839383B1
S11325F0A483B5831682178281E0808712870187BE
S113260038C08130A1F58AE090E00E9406618C0117
S113261080E094E2A4EFB0E0F80180839183A28388
S1132620B38380E094E09583848388EC90E097837F
S1132630868384E190E0918780878BE090E00E941C
S113264006612C0182E192E0D2018D939C9380E09B
S113265092ECA1E0B0E0F20182839383A483B5837A
S1132660168281E0878380871287018702C0412C0C
S1132670512CD201ED91FC910480F581E02DC20131
S113268019958BE090E00E9406619E838D8382E120
S113269092E0ED81FE819183808380E096E9A0E061
S11326A0B0E082839383A483B58381E086838783A8
S11326B0108612861186CF010E94B00B81E090E053
S11326C00E9406619C8B8B8B0E94E00E82E090E05E
S11326D00E9406615C01DC014D925C92F4018381ED
S11326E08130A9F58CE090E00E9406619C878B877D
S11326F00F2EF4E6EF2EF12CF02D01E010E022E095
S1132700A401B5010E94DE608EE090E00E940661A3
S11327109A8389830F2EF4E6CF2ED12CF02DE12C51
S1132720F12C9101A401B5010E94935C24E630E0F0
S11327303C8F2B8F45E050E05E8B4D8B80E29EE416
S1132740A0E0B0E08F8B988FA98FBA8FBAC0833086
S1132750A9F58CE090E00E9406619C878B870F2E80
S1132760F4E6EF2EF12CF02D01E010E022E0A401BC
S1132770B5010E94DE608EE090E00E9406619A83BB
S113278089830F2EF4E6CF2ED12CF02DE12CF12CE1
S11327909101A401B5010E94935CA4EFB1E0BC8F48
S11327A0AB8FE8EEF3E0FE8BED8B24E833E040E002
S11327B050E02F8B388F498F5A8F83C0811136C0D8
S11327C08CE090E00E9406619C878B870F2EFAE0D4
S11327D0EF2EF12CF02D01E010E020E0A401B50172
S11327E00E94DE608EE090E00E9406619A838983F5
S11327F00F2EFAE0CF2ED12CF02DE12CF12C00E09D
S11328009101A401B5010E94935C44E650E05C8F01
S11328104B8F85E090E09E8B8D8B20E23EE440E080
S113282050E02F8B388F498F5A8F4BC08230A9F5D7
S11328308CE090E00E9406619C878B870F2EFAE063
S1132840EF2EF12CF02D01E010E021E0A401B50100
S11328500E94DE608EE090E00E9406619A83898384
S11328600F2EFAE0CF2ED12CF02DE12CF12C91017A
S1132870A401B5010E94935C44E650E05C8F4B8F49
S113288085E090E09E8B8D8B20E23EE440E050E0BA
S11328902F8B388F498F5A8F14C044E650E05C8FD9
S11328A04B8F85E090E09E8B8D8B20E23EE440E0F0
S11328B050E02F8B388F498F5A8F1C861B861A82C3
S11328C019828AE090E00E9406619E8F8D8F48EC09
S11328D050E062E070E00E94D85C8AE292E0AD8D44
S11328E0BE8D11969C938E9317961C92179783E036
S11328F090E019969C938E93189789E090E00E943B
S113290006619CA38BA32AE030E043E050E0B101D0
S11329100E94415389E090E00E9406619EA38DA32A
S113292024E030E044E050E0B1010E941853F40187
S11329308481811113C00F2EFDECCF2EFCECDF2E11
S1132940FCE4EF2EFDE3FF2EF02DCF86D88AE98A32
S1132950FA8ACF82D886E986FA861AC00F2EF5E065
S1132960CF2EFFE2DF2EF7E2EF2EFCE3FF2EF02D59
S113297020E932EC45E75DE32F87388B498B5A8B8E
S11329808AE097EDA3EABCE38F839887A987BA8787
S113299080E790E00E9406615C01DC01CD92DD924B
S11329A0ED92FC921397FC01148215821682178211
S11329B018961D921D921D921C921B9714861586C3
S11329C01686178650961D921D921D921C9253973F
S11329D0148A158A168A178A58961D921D921D927A
S11329E01C925B97148E158E168E178E90961D92E0
S11329F01D921D921C92939714A215A216A217A2BF
S1132A0098961D921D921D921C929B9714A615A632
S1132A1016A617A6D0961D921D921D921C92D397AE
S1132A2014AA15AA16AA17AAD8961D921D921D9229
S1132A301C92DB9714AE15AE16AE17AEE05CFF4FDA
S1132A4080E090E0A0E8BFE380839183A283B38316
S1132A50349610821182128213823496108211826B
S1132A601282138234961082118212821382349657
S1132A7080839183A283B38334961082118212825D
S1132A801382349610821182128213823496108239
S1132A90118212821382349680839183A283B3833A
S1132AA0D401AD92BC928BE190E00E94066198A3A0
S1132AB08F8F6894CC24C1F8D12C0F2EF5E0EF2E23
S1132AC0F12CF02D840195014F81588569857A8513
S1132AD00E94BF528FE090E00E9406619AA389A3EE
S1132AE020E030E048E453E46F81788589859A8555
S1132AF00E941D6A0E9407686B010F2EF6E0EF2EFC
S1132B00F12CF02D95014F85588969897A8989A11D
S1132B109AA10E94335581E090E00E9406618C01E5
S1132B2021E0FC0120830E945B0E81E090E00E9482
S1132B30066198878F8382E0AF81B8858C93CD013D
S1132B400E945B0E88E590E00E9406615C01FC0136
S1132B5015A304A317A216A211A610A613A612A6C3
S1132B6015A614A617A616A611AA10AA12AA13AA85
S1132B7014AA15AA16AA17AA10AE11AE12AE13AE55
S1132B8014AE15AEFE961082118212821382349610
S1132B901082118212821382349610821182128260
S1132BA013823496B1E0B0833196108284E2F50149
S1132BB011928A95E9F765011BEDE12E1FE0F12ED4
S1132BC009EC1FE320E030E0A9016BED7FE089E42C
S1132BD090E40E948C63F501E45BFF4F1082118244
S1132BE012821382349610821182128213823496D6
S1132BF01082118212821382C5010E94E14A8BE283
S1132C0090E00E9406613C01ED81FE81DC01119699
S1132C10FC93EE9312961D921D921D921C92159791
S1132C20FC0116821782108611861A961D921D9237
S1132C301D921C921D9716861786108A118A529629
S1132C401D921D921D921C925597168A178A108EFA
S1132C50118E5A961D921D921D921C925D97168E8E
S1132C60178E10A211A292961D921D921D921C9273
S1132C70959716A217A210A611A621E022A70E94DA
S1132C80A14882E490E00E9406616C01EF81F8851E
S1132C90DC011196FC93EE9312961D921D921D92E7
S1132CA01C921597FC0116821782108611861A96BB
S1132CB01D921D921D921C921D9716861786108ACE
S1132CC0118A128A138A148A158A168A178A108E10
S1132CD0118E128E138E148E158E168E178E10A2D0
S1132CE011A212A213A214A215A216A217A210A630
S1132CF011A612A613A614A615A616A617A610AA00
S1132D0011AA12AA13AA14AA15AA16AA17AA10AECF
S1132D1011AEFA96DA961C921182128213821482F0
S1132D201582168217820E94BF4088E390E00E94B9
S1132D3006617C016B897C890E94364DC7010E9423
S1132D40FC4E8CE090E00E9406619E838D8304E13A
S1132D5010E027E030E0A301B4010E946C568BE040
S1132D6090E00E94066198878F8302E010E028E0DB
S1132D7030E0A501B4010E9405578DE090E00E9467
S1132D8006615C0104E010E029E030E0A601B40132
S1132D900E94C7558BE090E00E940661988B8F8754
S1132DA002E010E02AE030E0A701B4010E947E575F
S1132DB00E941F1D9C8B8B8BFC01E95AFF4F918253
S1132DC080828BE090E00E9406617C0104E010E0C8
S1132DD02BE030E04B895C89B4010E94EE576D8D85
S1132DE07E8D8FA198A50E948E3F6D817E818FA1DB
S1132DF098A50E948E3F6F8178858FA198A50E9427
S1132E008E3FB5018FA198A50E948E3F6F8578896A
S1132E108FA198A50E948E3FF4018481811106C080
S1132E2069817A818FA198A50E948E3F6B857C85EC
S1132E308FA198A50E948E3F6BA17CA18FA198A51C
S1132E400E948E3F6DA17EA18FA198A50E948E3F06
S1132E506F8D78A18FA198A50E948E3F69A17AA158
S1132E608FA198A50E948E3FB7018FA198A50E94BB
S1132E708E3FD40112961C921297149A0D9A1598AB
S1132E8014968C91813009F034C20FA118A580C02A
S1132E90C3010E944F48C3010E941848C3010E9405
S1132EA058477C01BFEFE4E3FCE0B150E040F04060
S1132EB0E1F700C00000D201ED91FC910680F7819A
S1132EC0E02D64E5C2011995D201ED91FC91A701B1
S1132ED0662757FD6095762F0484F585E02DC201A1
S1132EE01995D201ED91FC91D30116964D915D9106
S1132EF06D917C9119970484F585E02DC201199593
S1132F00D201ED91FC91D30156964D915D916D9155
S1132F107C9159970284F385E02DC2011995D20161
S1132F20ED91FC91D3019A966C9170E00084F18547
S1132F30E02DC2011995D201ED91FC91D3011A96AD
S1132F404D915D916D917C911D970484F585E02DE3
S1132F50C2011995D201ED91FC91D3011E964D91B8
S1132F605D916D917C9151970484F585E02DC201AA
S1132F701995D201ED91FC91D30152964D915D9139
S1132F806D917C9155970484F585E02DC2011995C6
S1132F90C3010E943149882309F47ACFF301868959
S1132FA09789A08DB18D2F89388D498D5A8D281719
S1132FB039074A075B0708F46BCF18A70FA30CC0A7
S1132FC0C3010E944F483FEF44E35CE0315040406E
S1132FD05040E1F700C00000F30182819381A48195
S1132FE0B581892B8A2B8B2B59F386819781A085F8
S1132FF0B185892B8A2B8B2B19F318A70FA3840176
S113300002541F4F62857385848595850E943A68B2
S1133010F80160837183828393830C5F1F4FD30114
S11330201E966D917D918D919C9151970E943A6865
S1133030F80160837183828393830C5F1F4FD301F4
S113304052966D917D918D919C9155970E943A680D
S1133050F8016083718382839383B09720813181E7
S11330604281538134976081718182819381085AAE
S11330701F4F0E941661FFEF29E638E1F15020400E
S11330803040E1F700C000004D895E891416150632
S11330900CF09BC1E12CF12C13E000E0CFA0D8A4EC
S11330A01DC0D501ED91FC910190F081E02DC50189
S11330B01995EFE3FCE93197F1F700C00000F1E066
S11330C04F1A51084114510461F72FEFE21AF20A22
S11330D04D895E89E416F50609F475C1412E502E1A
S11330E0E0CFD501ED91FC910190F081E02DC50177
S11330F01995EFE3FCE93197F1F700C000002B8547
S11331003C85215031093C872B87232B51F7A9811A
S1133110BA812D913D914D915C91C701B6010E94F8
S1133120BB666B017C01015011090115110521F0E9
S1133130B3E0BB871C86D5CF58A64FA220E030E071
S113314040E251E40E949F67F401EA5EFE4F60830F
S113315071838283938320E030E54DE754E40E9439
S11331609F670E94D2692BE230E348EA50E40E9450
S11331709F679B01AC0160E070E080E291E40E94F3
S1133180806A840106531F4F20E030E040E85FE38B
S11331900E94BA6629E93AE447E85AE40E941D6AA3
S11331A0D8016D937D938D939C93139720910A027C
S11331B030910B0240910C0250910D0229833A8305
S11331C04B835C838091060290910702A0910802D0
S11331D0B09109028B879C87AD87BE878DEC9CECF0
S11331E0ACECBDE380930A0290930B02A0930C0213
S11331F0B0930D028093060290930702A0930802F5
S1133200B0930902E12CF12C13E000E06201AF85D8
S1133210B889ED91FC9111970190F081E02DCD01D9
S11332201995AD81BE81ED91FC9111970190F081CA
S1133230E02DCD011995812E902ED501ED91FC91B3
S11332400190F081E02DC5011995EFE3FCE9319778
S1133250F1F700C00000F1E08F1A91088114910485
S113326061F7AF81B885ED91FC9111970190F081E0
S1133270E02DCD011995AF8DB8A1ED91FC91119779
S11332800190F081E02DCD011995A9A1BAA1ED918C
S1133290FC9111970190F081E02DCD011995EFE398
S11332A0FCE93197F1F700C00000FFEFEF1AFF0AC5
S11332B02B8D3C8DE216F3060CF4A9CFD8A6CFA231
S11332C089819A81AB81BC8180930A0290930B021D
S11332D0A0930C02B0930D022B853C854D855E8531
S11332E02093060230930702409308025093090288
S11332F0F8C082E090E00E9406615C01DC014D921E
S11333005C928EE090E00E9406612C010F2EFAE0A0
S1133310CF2ED12CF02DE12CF12C00E09101A40151
S1133320B5010E94935CF401EE55FF4FFA83E983E3
S113333084010A551F4FD201ED91FC910190F08157
S1133340E02DC2011995E981FA81C080D180E28023
S1133350F38020E030E0A901C701B6010E9498671C
S1133360882361F020E030E0A901D8016D917D91BE
S11333708D919C910E949867811134C0BFEFE1EE5A
S1133380F4E0B150E040F040E1F700C00000D3CFDA
S1133390D201ED91FC910480F581E02DC2011995D3
S11333A0A114B10409F49DC0C5010E94096199C02A
S11333B0C8010E94E23FF80180AD8823C9F3C1012E
S11333C00E942203F5CFD8A6CFA20AE010E0C12CB8
S11333D0D12C760194012A5E3E4F3A8329834FA073
S11333E058A4A6CE840102541F4FF401E250FF4FAB
S11333F060817181828193810E943A68D8016D93C2
S11334007D938D939C9313970C5F1F4FF401EE5F94
S1133410FE4F60817181828193810E943A68F80134
S113342060837183828393830C5F1F4FEC5BFF4F38
S113343060817181828193810E943A68D8016D9381
S11334407D938D939C931397085A1F4FF401EA556B
S1133450FF4F2081318142815381C701B6010E940F
S11334601661F401EA5EFE4F20E030E54DE754E4D6
S113347060817181828193810E949F670E94D269D9
S11334802BE230E348EA50E40E949F679B01AC01C1
S113349060E070E080E291E40E94806A7401BAEC1A
S11334A0EB0EF11C20E030E040E85FE30E94BA66D6
S11334B029E93AE447E85AE40E941D6AF701608367
S11334C0718382839383FFEF21EE34E0F150204037
S11334D03040E1F700C000004114510409F058CF16
S11334E05FCF159AC3010E9408498FA198A50E9435
S11334F0A63F8FA198A50E9423408B899C890E9496
S11335004B1E8B899C890E94D21E0FA118A550CFF7
S11335100F931F93CF93DF93D901E8011416150677
S11335206CF4FB01640F751F91918C91890F8C933E
S11335309881890F8883E617F707B1F7DF91CF9158
S11335401F910F9108952F923F924F925F926F9225
S11335507F928F929F92AF92BF92CF92DF92EF921F
S1133560FF920F931F93CF93DF9300D01F92CDB799
S1133570DEB75C018B014DB65EB66115710509F4C9
S113358096C0DB01ED91FC910480F581E02DCB0127
S113359019953C01EDB7FEB7FC83EB83C8010E948B
S11335A005267C014C01F5E08F0E911C1C0184E082
S11335B0280E311CADB7BEB7A819B9090FB6F894D7
S11335C0BEBF0FBEADBFEDB7FEB731966F0185EB41
S11335D011968C9382E6818387ED82838DB79EB7A3
S11335E00496A701B3010E94BA6D1A8219828E0152
S11335F00F5F1F4F9E012E5F3F4FA701B301C5010F
S11336000E94881AF601EE0DFF1D8A818383F6015C
S1133610E20DF31D89818083F501808191810E94EF
S11336203B0D18141904C4F400E010E0D5018D9189
S11336309C91F60161916F01DC01ED91FC91068092
S1133640F781E02D19957C010F5F1F4F08151905AF
S11336502CF4009759F302C0E12CF12CF501808180
S113366091810E94430D6114710419F0C3010E94F9
S11336701161D501ED91FC918085882381F08681CB
S1133680811106C0E1ECF0E080818062808307C094
S1133690813029F4E9ECF0E0808180628083EB8161
S11336A0FC810FB6F894FEBF0FBEEDBF02C0E12C43
S11336B0F12CC7010FB6F8945EBE0FBE4DBE0F903D
S11336C00F900F900F90DF91CF911F910F91FF906A
S11336D0EF90DF90CF90BF90AF909F908F907F90AE
S11336E06F905F904F903F902F9008952F923F924C
S11336F04F925F926F927F928F929F92AF92BF92FE
S1133700CF92DF92EF92FF920F931F93CF93DF93A9
S1133710CDB7DEB728970FB6F894DEBF0FBECDBF86
S11337206C014B01ADB6BEB61E82DC018D919C913D
S11337300E943B0D00E001C0012F1E81F601808133
S11337409181DC01ED91FC910288F389E02DBE01A9
S11337506A5F7F4F19957C01053B29F4123619F4F1
S11337608E81873D29F0BFEFEB16FB0629F7EEC0EB
S1133770E114F10409F0EAC01D82F601808191810F
S1133780DC01ED91FC910288F389E02DBE016B5FB1
S11337907F4F19957C01009709F0D8C08D81843042
S11337A009F4D8C018F4823069F0C7C0863009F42F
S11337B0D7C0873009F0C1C00F2EF1E62F2E312C6F
S11337C0F02D06C00F2EFDE22F2E33243394F02D5E
S11337D0EDB7FEB7F887EF832DB73EB7221933094B
S11337E00FB6F8943EBF0FBE2DBFADB7BEB711964E
S11337F02D01EDB7FEB78183F2E02F16310404F1F9
S11338008D010F5F1F4F3D01620C731C21E0621A92
S11338107108D6018D919C91DC01ED91FC91028897
S1133820F389E02DB80119957C010615170529F0D7
S11338300F5F1F4F009769F378C0009709F075C0B8
S11338401C821B821A821982F60180819181DC011B
S1133850ED91FC910288F389E02DBE016C5F7F4FEE
S113386019957C01009709F060C0F601808191816F
S1133870DC01ED91FC910288F389E02DBE016D5FBE
S11338807F4F19957C01009709F04FC08E010F5F9F
S11338901F4F9E012E5F3F4FA101B201C6010E943E
S11338A0881A9A818C8198132CC099818B819813E2
S11338B02FC08D81843081F018F4823031F02FC014
S11338C0863089F08730B1F02AC0C2010E943433B7
S11338D0F4019183808329C0C2010E945B27D40133
S11338E08D939C9322C0C2010E949A2AF401918371
S11338F080831BC0C2010E946A25D4018D939C93CE
S113390014C00F2EFCEFEF2EFF24FA94F02D0DC0FF
S11339100F2EFCEFEF2EFF24FA94F02D06C00F2E8D
S1133920FDEFEF2EFF24FA94F02DEF81F8850FB60A
S1133930F894FEBF0FBEEDBF06C00F2EFDEFEF2EB5
S1133940FF24FA94F02DE114F10481F0D4011D92C6
S11339501C920CC00F2EF1E42F2E312CF02D38CFF9
S11339600F2EF9E72F2E312CF02D32CFF601808166
S113397091810E94430DC7010FB6F894BEBE0FBEDD
S1133980ADBE28960FB6F894DEBF0FBECDBFDF9153
S1133990CF911F910F91FF90EF90DF90CF90BF9048
S11339A0AF909F908F907F906F905F904F903F90DB
S11339B02F900895CF92DF92EF92FF92CB01BA013C
S11339C0605D7740810991090E943A682FE632E1EF
S11339D043E85AE30E941D6A20E030E040E85FE3D8
S11339E00E94BA666B017C0120E030E040E85FE3AE
S11339F00E94C76918165CF020E030E040E85FEBF5
S1133A00C701B6010E949867882394F409C00F2E59
S1133A10C12CD12CF0E8EF2EFFE3FF2EF02D08C0CF
S1133A200F2EC12CD12CF0E8EF2EFFEBFF2EF02D42
S1133A30C701B601FF90EF90DF90CF900895809179
S1133A40A2039091A303892BE1F589E590E00E94FC
S1133A500661FC01E95AFF4F11821082E655F10913
S1133A6020E2DF01322F1D923A95E9F7B096DF018B
S1133A701D922A95E9F7B096108211821282138260
S1133A8034961182108232961182108232961182FB
S1133A9010823296118210823296118210823296EE
S1133AA01182108232961182108232961182108213
S1133AB0329611821082FC0110829093A3038093AA
S1133AC0A2038091A2039091A30308951F920F92E1
S1133AD00FB60F9211240BB60F928F929F92AF9252
S1133AE0BF92CF92DF92EF92FF920F931F932F9387
S1133AF03F934F935F936F937F938F939F93AF9372
S1133B00BF93CF93DF93EF93FF930E941F1DEC01AC
S1133B10409126015091270160E070E0FC01EF5BC9
S1133B20FF4F0081118122813381401751076207C1
S1133B3073078CF46A017B0180E4C80E8CE9D81EFB
S1133B40E11CF11CD701C601801B910BA20BB30B26
S1133B508C019D0108C0DB01CA01801B910BA20BE3
S1133B60B30B8C019D01FE01EF5BFF4F408351833A
S1133B706283738301349FE11907210531052CF019
S1133B80CB5BDF4F1982188267C0B901A801475C7B
S1133B90574061097109433E57406105710508F0BA
S1133BA054C0FE01EB5BFF4F80819181009769F463
S1133BB040ED57E060E070E049835A836B837C8377
S1133BC00D831E832F83388740C088309105ECF520
S1133BD0FE01E95AFF4FE080F180FC01EE0FFF1F68
S1133BE0EE0FFF1FEC0FFD1F018312832383348329
S1133BF0079759F5498D5A8D6B8D7C8DCE010E94A6
S1133C00DA1C4B015C0123E333E343E35FE30E94EB
S1133C10986718161CF0F701128204C081E0D701DE
S1133C2012968C93F701E65EFE4F80829182A28207
S1133C30B3828881811109C080E2FE013196DE01E0
S1133C40919601900D928A95E1F7CB5BDF4F8881C5
S1133C509981019699838883FF91EF91DF91CF91A8
S1133C60BF91AF919F918F917F916F915F914F9190
S1133C703F912F911F910F91FF90EF90DF90CF9084
S1133C80BF90AF909F908F900F900BBE0F900FBE80
S1133C900F901F901895CF93DF9384B1806684B9F9
S1133CA0E1E0F1E08081886380838DB188638DB920
S1133CB0C0E8D0E0888182608883E1E8F0E0808118
S1133CC080618083A0E9B0E08C9182608C93E1E90B
S1133CD0F0E080818061808340EA50E0FA018081D5
S1133CE08260808381EA90E0FC012081206120834E
S1133CF08881806F88838C918C6F8C93FA0180818A
S1133D008C6F808388E39AE490938B0080938A007D
S1133D1084E498E4909389008093880090939D00B4
S1133D2080939C0090939B0080939A0090939900B9
S1133D30809398009093AD008093AC009093AB0077
S1133D408093AA009093A9008093A80080E29EE447
S1133D5090938700809386009093970080939600B9
S1133D609093A7008093A600EAE0F1E080818D7F24
S1133D70808383E080932001E1E2F1E088E18083A5
S1133D8080818064808380E49CE9909329018093FE
S1133D9028017894E3E7F0E0808180628083DF91FA
S1133DA0CF910895CF92DF92EF92FF920F931F93DA
S1133DB0CF93DF93EC01E1E2F1E0808182608083C4
S1133DC0FE01FD962FEF33ED40E32150304040409B
S1133DD0E1F700C000004081518162817381452B6D
S1133DE0462B472B79F3FE01E95BFF4F11821082CA
S1133DF08E01075B1F4F0F2EF0E4CF2EFCE9DF2E60
S1133E00E12CF12CF02D8DA19EA1AFA1B8A5A701A5
S1133E109601281B390B4A0B5B0BCA01B9010E949E
S1133E203A6820E030E040E05FE30E941D6A9B01B5
S1133E30AC0160E070E68FE896E40E94BA660E94E6
S1133E400768F801718360830E5F1F4F89A59AA5E7
S1133E50ABA5BCA5A7019601281B390B4A0B5B0B2C
S1133E60CA01B9010E943A6820E030E040E05FE313
S1133E700E941D6A9B01AC0160E070E68FE896EC3D
S1133E800E94BA660E940768F801718360830E5F1E
S1133E901F4F8DA59EA5AFA5B8A9A7019601281B04
S1133EA0390B4A0B5B0BCA01B9010E943A6820E046
S1133EB030E040E05FE30E941D6A9B01AC0160E0DA
S1133EC078E880E996E40E94BA660E940768F801DF
S1133ED0718360830E5F1F4F89A99AA9ABA9BCA9FE
S1133EE0A7019601281B390B4A0B5B0BCA01B901C8
S1133EF00E943A6820E030E040E05FE30E941D6ADF
S1133F009B01AC0160E078E880E996E40E94BA661F
S1133F100E940768F801718360830E5F1F4F8DA9AB
S1133F209EA9AFA9B8ADA7019601281B390B4A0B6E
S1133F305B0BCA01B9010E943A6820E030E040E01E
S1133F405FE30E941D6A9B01AC0160E070E68FE8AC
S1133F5096EC0E94BA660E940768F8017183608338
S1133F603296118210820C5F1F4FED9688819981E1
S1133F70AA81BB81A7019601281B390B4A0B5B0B55
S1133F80CA01B9010E943A6820E030E040E05FE3F2
S1133F900E941D6A9B01AC0160E078E880E996E428
S1133FA00E94BA660E940768F80171836083E1E8A1
S1133FB0F0E0808182608083E1E9F0E080818260CA
S1133FC08083E1EAF0E0808182608083DF91CF9199
S1133FD01F910F91FF90EF90DF90CF9008952F9253
S1133FE03F924F925F926F927F928F929F92AF9285
S1133FF0BF92CF92DF92EF92FF920F931F93CF93D2
S1134000DF93CDB7DEB72C970FB6F894DEBF0FBEA3
S1134010CDBF1C0149835A836B837C8328013901FA
S1134020FC01E95AFF4F0190F081E02D828181115A
S1134030E6C081E0F10180830F2EF0E4CF2EFCE98D
S1134040DF2EE12CF12CF02D81A192A1A3A1B4A12A
S113405097018601081B190B2A0B3B0BC901B801F8
S11340600E943A6820E030E040E05FE30E941D6A6D
S11340700E940C6870938B0060938A00F10185A103
S113408096A1A7A1B0A597018601081B190B2A0BBD
S11340903B0BC901B8010E943A6820E030E040E0DF
S11340A05FE30E941D6A0E940C687093890060930C
S11340B08800F10181A592A5A3A5B4A59701860165
S11340C0081B190B2A0B3B0BC901B8010E943A6863
S11340D020E030E040E05FE30E941D6A0E940C682B
S11340E07093AD006093AC00F10185A596A5A7A5DA
S11340F0B0A997018601081B190B2A0B3B0BC901B8
S1134100B8010E943A6820E030E040E05FE30E949A
S11341101D6A0E940C687093AB006093AA00F101C1
S113412081A992A9A3A9B4A997018601081B190B17
S11341302A0B3B0BC901B8010E943A6820E030E029
S113414040E05FE30E941D6A0E940C687093A9001E
S11341506093A800F10185A996A9A7A9B0AD97011C
S11341608601081B190B2A0B3B0BC901B8010E94DD
S11341703A6820E030E040E05FE30E941D6A0E945C
S11341800C6870939D0060939C00F10181AD92AD29
S1134190A3ADB4AD97018601081B190B2A0B3B0B89
S11341A0C901B8010E943A6820E030E040E05FE3D2
S11341B00E941D6A0E940C6870939B0060939A0091
S11341C0F101FD9680819181A281B381A7019601BD
S11341D0281B390B4A0B5B0BCA01B9010E943A68D0
S11341E020E030E040E05FE30E941D6A0E940C681A
S11341F07093990060939800F1011082B1C18130ED
S113420009F0AEC120E030E044E153E4C701B60157
S11342100E941D6A20E038E840E956E40E94BB662B
S11342206D837E838F83988720E030E04CE252E4F4
S1134230C301B2010E941D6A2B013C019B01AC0128
S11342400E94BB666B017C0120E030E041E153E455
S113425069817A818B819C810E941D6A69837A833A
S11342608B839C832D813E814F815885C701B60184
S11342700E94BA6629813A814B815C810E94BA66A8
S113428069877A878B879C8781E0F101808381A18C
S113429092A1A3A1B4A140E45CE960E070E08A01CA
S11342A09B01081B190B2A0B3B0BC901B8010E9487
S11342B03A6820E030E040E05FE30E941D6A0E941B
S11342C00C6870938B0060938A00F1011082A7013F
S11342D096016D817E818F8198850E94BA662981BD
S11342E03A814B815C810E94BA666B017C01F101C9
S11342F0E75BFF4F60817181882777FD8095982F58
S11343000E943A689B01AC01C701B6010E94BA66DB
S11343100E940C687093890060938800CD80DE80D1
S1134320EF80F884F7FAF094F7F8F09420E030E0A6
S113433040E850E4C301B2010E941D6A9B01AC0134
S1134340C701B6010E94BA666B017C01F101E55B0D
S1134350FF4F60817181882777FD8095982F0E9497
S11343603A689B01AC01C701B6010E94BA660E947B
S11343700C687093AD006093AC0020E030E040E83E
S11343805FE3C501B4010E94BB6620E030E04AEF60
S113439053EC0E941D6A20E030E744E956E40E9491
S11343A0BB666B017C0120E030E744E956E40E94DF
S11343B0C76918165CF020E030EA4CE856E4C701FF
S11343C0B6010E94986788235CF013C00F2EC12C9D
S11343D0F0E7DF2EF4E9EF2EF6E4FF2EF02D09C00E
S11343E00F2EC12CF0EADF2EFCE8EF2EF6E4FF2EB0
S11343F0F02DF101E35BFF4F60817181882777FD28
S11344008095982F0E943A689B01AC01C701B601C0
S11344100E94BA660E940C687093AB006093AA0075
S1134420F101E15BFF4F60817181882777FD809501
S1134430982F0E943A689B01AC0160E078E880E91B
S113444096E40E94BA660E940C687093A900609377
S1134450A800F101EF5AFF4F60817181882777FD31
S11344608095982F0E943A689B01AC0169857A85F2
S11344708B859C850E94BA660E940C6870939D008F
S113448060939C0020E030E040E85FE36AA17BA1F8
S11344908CA19DA10E94BB6620E030E04AEF53EC62
S11344A00E941D6A20E030E744E956E40E94BB669E
S11344B06B017C0120E030E744E956E40E94C769BF
S11344C018165CF020E030EA4CE856E4C701B60167
S11344D00E94986788235CF013C00F2EC12CF0E76C
S11344E0DF2EF4E9EF2EF6E4FF2EF02D09C00F2E97
S11344F0C12CF0EADF2EFCE8EF2EF6E4FF2EF02DBF
S1134500F101ED5AFF4F60817181882777FD809515
S1134510982F0E943A689B01AC01C701B6010E9422
S1134520BA660E940C6870939B0060939A00F10134
S1134530EB5AFF4F60817181882777FD8095982F12
S11345400E943A689B01AC0160E078E880E996E457
S11345500E94BA660E940C68709399006093980058
S11345602C960FB6F894DEBF0FBECDBFDF91CF916E
S11345701F910F91FF90EF90DF90CF90BF90AF907D
S11345809F908F907F906F905F904F903F902F906F
S1134590089520E532E0FC0131832083089520E56D
S11345A032E0FC01318320830E9409610895CF9396
S11345B0DF93EC0181E190E00E940E61FC018A81AD
S11345C080838D819E81AF81B88581839283A3830B
S11345D0B48349855A856B857C8545835683678377
S11345E070874D855E856F8578894187528763879B
S11345F0748749895A896B897C8945875687678777
S1134600708BCF01DF91CF910895FC01DB011097EE
S113461051F18C91828311964D915D916D917C91B4
S11346201497458356836783708715964D915D91E2
S11346306D917C9118974187528763877487199687
S11346404D915D916D917C911C9745875687678745
S1134650708B1D964D915D916D917C915097418B1E
S1134660528B638B748B089520E532E0FC01318317
S11346702083089520E532E0FC01318320830E94E9
S113468009610895CF93DF93EC0181E690E00E94E5
S11346900E61FC018A8180838D819E81AF81B88502
S11346A081839283A383B48389859A85AB85BC85F2
S11346B085839683A783B0878D859E85AF85B889CA
S11346C081879287A387B48789899A89AB89BC89B2
S11346D085879687A787B08B8D899E89AF89B88D8A
S11346E0818B928BA38BB48B898D9A8DAB8DBC8D72
S11346F0858B968BA78BB08F8D8D9E8DAF8DB8A13A
S1134700818F928FA38FB48F89A19AA1ABA1BCA1F1
S1134710858F968FA78FB0A38DA19EA1AFA1B8A5B9
S113472081A392A3A3A3B4A389A59AA5ABA5BCA571
S113473085A396A3A7A3B0A78DA59EA5AFA5B8A949
S113474081A792A7A3A7B4A789A99AA9ABA9BCA931
S113475085A796A7A7A7B0AB8DA99EA9AFA9B8AD09
S113476081AB92ABA3ABB4AB89AD9AADABADBCADF1
S113477085AB96ABA7ABB0AFDE01DD968D919D9175
S11347800D90BC91A02D81AF92AFA3AFB4AF9F01A8
S1134790235C3F4FDE01AF5BBF4F4D915D916D9147
S11347A07C91D9014D935D936D937C9313972C5F0A
S11347B03F4FDE01AB5BBF4F4D915D916D917C919D
S11347C0D9014D935D936D937C9313972C5F3F4F69
S11347D0DE01A75BBF4F4D915D916D917C91D90135
S11347E04D935D936D937C9313972C5F3F4FDE0144
S11347F0A35BBF4F4D915D916D917C91D9014D9318
S11348005D936D937C9313972C5F3F4FDE01AF5AFA
S1134810BF4F4D915D916D917C91D9014D935D9305
S11348206D937C9313972C5F3F4FDE01AB5ABF4FC0
S11348304D915D916D917C91D9014D935D936D93F3
S11348407C9313972C5F3F4FCE01875A9F4FDC0117
S11348504D915D916D917C91D9014D935D936D93D3
S11348607C9313972C5F3F4F0496DC014D915D912F
S11348706D917C91D9014D935D936D937C931397C6
S11348801496CF59DF4F488159816A817B814D93BA
S11348905D936D937C931397CF01DF91CF9108952E
S11348A0CF93DF93FC01DB01109709F410C18C91C5
S11348B0828311964D915D916D917C9114974583FE
S11348C056836783708715964D915D916D917C91A8
S11348D01897418752876387748719964D915D9124
S11348E06D917C911C97458756876787708B1D96C1
S11348F04D915D916D917C915097418B528B638B5F
S1134900748B51964D915D916D917C915497458B2B
S1134910568B678B708F55964D915D916D917C91FF
S11349205897418F528F638F748F59964D915D9133
S11349306D917C915C97458F568F678F70A35D96C0
S11349404D915D916D917C91909741A352A363A386
S113495074A391964D915D916D917C91949745A32B
S113496056A367A370A795964D915D916D917C9127
S1134970989741A752A763A774A799964D915D9103
S11349806D917C919C9745A756A767A770AB9D96A0
S11349904D915D916D917C91D09741AB52AB63ABDE
S11349A074ABD1964D915D916D917C91D49745AB4B
S11349B056AB67AB70AFD5964D915D916D917C917F
S11349C0D89741AF52AF63AF74AFEF01ED96D9966C
S11349D04D915D916D917C91DC97488359836A83F5
S11349E07B839F012F5B3F4FCD01CD96EC01488126
S11349F059816A817B81E901488359836A837B8376
S1134A002C5F3F4F0496EC01488159816A817B8178
S1134A10E901488359836A837B832C5F3F4F049663
S1134A20EC01488159816A817B81E901488359837A
S1134A306A837B832C5F3F4F0496EC014881598144
S1134A406A817B81E901488359836A837B832C5F74
S1134A503F4F0496EC01488159816A817B81E901C9
S1134A60488359836A837B832C5F3F4F0496EC0110
S1134A70488159816A817B81E901488359836A832A
S1134A807B832C5F3F4F0496EC01488159816A81F6
S1134A907B81E901488359836A837B832C5F3F4F81
S1134AA00496EC01488159816A817B81E90148833C
S1134AB059836A837B83EF59FF4FA35ABF4F4D91AC
S1134AC05D916D917C914083518362837383DF9107
S1134AD0CF9108950F931F93CF93DF938C0185E6B5
S1134AE090E00E940661EC0187E08A8381E690E011
S1134AF09C838B8384E492E0998388831D821E8245
S1134B001F82188619861A861B861C861D861E8699
S1134B101F86188A198A1A8A1B8A1C8A1D8A1E8A69
S1134B201F8A188E198E1A8E1B8E1C8E1D8E1E8E39
S1134B301F8E18A219A21AA21BA21CA21DA21EA299
S1134B401FA218A619A61AA61BA61CA61DA61EA659
S1134B501FA618AA19AA1AAA1BAA1CAA1DAA1EAA29
S1134B601FAA18AE19AE1AAE1BAE1CAEFE01FD96FE
S1134B701082118212821382349610821182128260
S1134B801382349610821182128213823496108218
S1134B90118212821382349610821182128213823D
S1134BA034961082118212821382349610821182FA
S1134BB012821382349610821182128213823496E6
S1134BC01082118212821382349610821182128210
S1134BD01382B801CE010E945024CE01DF91CF91FF
S1134BE01F910F91089520E532E0FC013183208369
S1134BF0089580E090E00895089520E532E0FC01F6
S1134C00318320830E9409610895FC01838194818A
S1134C10089520E532E0FC0131832083089520E5E6
S1134C2032E0FC01318320830E9409610895CF930F
S1134C30DF93EC0181E490E00E940E61FC018A8123
S1134C4080838D819E81AF81B88581839283A38384
S1134C50B48389859A85AB85BC8585839683A78330
S1134C60B0878D859E85AF85B88981879287A38714
S1134C70B48789899A89AB89BC8985879687A787F0
S1134C80B08B8D899E89AF89B88D818B928BA38BD4
S1134C90B48B898D9A8DAB8DBC8D858B968BA78BB0
S1134CA0B08F8D8D9E8DAF8DB8A1818F928FA38F84
S1134CB0B48F89A19AA1ABA1BCA1858F968FA78F30
S1134CC0B0A38DA19EA1AFA1B8A581A392A3A3A3D4
S1134CD0B4A389A59AA5ABA5BCA585A396A3A7A3B0
S1134CE0B0A78DA59EA5AFA5B8A981A792A7A3A794
S1134CF0B4A789A99AA9ABA9BCA985A796A7A7A770
S1134D00B0AB8DA99EA9AFA9B8AD81AB92ABA3AB53
S1134D10B4AB49AD5AAD6BAD7CAD45AB56AB67ABEF
S1134D2070AFDE01DD964D915D916D917C9141AF47
S1134D3052AF63AF74AFDF01DD96CF5BDF4F4881C5
S1134D4059816A817B814D935D936D937C93139715
S1134D50CF01DF91CF910895CF93DF93FC01DB0165
S1134D60109709F4A5C08C91828311964D915D91A1
S1134D706D917C911497458356836783708715964C
S1134D804D915D916D917C9118974187528763870E
S1134D90748719964D915D916D917C911C9745870F
S1134DA056876787708B1D964D915D916D917C91AF
S1134DB05097418B528B638B748B51964D915D91BF
S1134DC06D917C915497458B568B678B708F55965C
S1134DD04D915D916D917C915897418F528F638F66
S1134DE0748F59964D915D916D917C915C97458F2F
S1134DF0568F678F70A35D964D915D916D917C91F7
S1134E00909741A352A363A374A391964D915D918E
S1134E106D917C91949745A356A367A370A795962B
S1134E204D915D916D917C91989741A752A763A78D
S1134E3074A799964D915D916D917C919C9745A72E
S1134E4056A767A770AB9D964D915D916D917C912E
S1134E50D09741AB52AB63AB74ABD1964D915D919E
S1134E606D917C91D49745AB56AB67AB70AFD5963B
S1134E704D915D916D917C91D89741AF52AF63AFE5
S1134E8074AFEF01ED96D9964D915D916D917C9142
S1134E90DC97488359836A837B83EF5BFF4FDD96FE
S1134EA04D915D916D917C914083518362837383B5
S1134EB0DF91CF9108950F931F93CF93DF938C01CC
S1134EC085E490E00E940661EC0184E08A8381E439
S1134ED090E09C838B838CE592E0998388831D8288
S1134EE01E821F82188619861A861B861C861D86BA
S1134EF01E861F86188A198A1A8A1B8A1C8A1D8A8A
S1134F001E8A1F8A188E198E1A8E1B8E1C8E1D8E59
S1134F101E8E1F8E18A219A21AA21BA21CA21DA2C9
S1134F201EA21FA218A619A61AA61BA61CA61DA679
S1134F301EA61FA618AA19AA1AAA1BAA1CAA1DAA49
S1134F401EAA1FAA18AE19AE1AAE1BAE1CAEFE01E5
S1134F50FD9610821182128213823496108211827D
S1134F6012821382B801CE010E94AC26CE01DF91D9
S1134F70CF911F910F91089520E532E0FC01318318
S1134F802083089520E532E0FC01318320830E94D0
S1134F9009610895CF93DF93EC0189E790E00E94C3
S1134FA00E61FC018A8180838D819E81AF81B885E9
S1134FB081839283A383B48389859A85AB85BC85D9
S1134FC085839683A783B0878D859E85AF85B889B1
S1134FD081879287A387B48789899A89AB89BC8999
S1134FE085879687A787B08B8D899E89AF89B88D71
S1134FF0818B928BA38BB48B898D9A8DAB8DBC8D59
S1135000858B968BA78BB08F8D8D9E8DAF8DB8A120
S1135010818F928FA38FB48F89A19AA1ABA1BCA1D8
S1135020858F968FA78FB0A38DA19EA1AFA1B8A5A0
S113503081A392A3A3A3B4A389A59AA5ABA5BCA558
S113504085A396A3A7A3B0A78DA59EA5AFA5B8A930
S113505081A792A7A3A7B4A789A99AA9ABA9BCA918
S113506085A796A7A7A7B0AB8DA99EA9AFA9B8ADF0
S113507081AB92ABA3ABB4AB89AD9AADABADBCADD8
S113508085AB96ABA7ABB0AFDE01DD968D919D915C
S11350900D90BC91A02D81AF92AFA3AFB4AF9F018F
S11350A0235C3F4FDE01AF5BBF4F4D915D916D912E
S11350B07C91D9014D935D936D937C9313972C5FF1
S11350C03F4FDE01AB5BBF4F4D915D916D917C9184
S11350D0D9014D935D936D937C9313972C5F3F4F50
S11350E0DE01A75BBF4F4D915D916D917C91D9011C
S11350F04D935D936D937C9313972C5F3F4FDE012B
S1135100A35BBF4F4D915D916D917C91D9014D93FE
S11351105D936D937C9313972C5F3F4FDE01AF5AE1
S1135120BF4F4D915D916D917C91D9014D935D93EC
S11351306D937C9313972C5F3F4FDE01AB5ABF4FA7
S11351404D915D916D917C91D9014D935D936D93DA
S11351507C9313972C5F3F4FDE01A75ABF4F4D91AD
S11351605D916D917C91D9014D935D936D937C9389
S113517013972C5F3F4FDE01A35ABF4F4D915D91B2
S11351806D917C91D9014D935D936D937C931397AD
S11351902C5F3F4FDE01AF59BF4F4D915D916D9133
S11351A07C91D9014D935D936D937C9313972C5F00
S11351B03F4FDE01AB59BF4F4D915D916D917C9195
S11351C0D9014D935D936D937C9313972C5F3F4F5F
S11351D0DE01A759BF4F4D915D916D917C91D9012D
S11351E04D935D936D937C9313972C5F3F4FDE013A
S11351F0A359BF4F4D915D916D917C91D9014D9310
S11352005D936D937C9313972C5F3F4FCE018F5822
S11352109F4FDC014D915D916D917C91D9014D932E
S11352205D936D937C9313972C5F3F4F0496DC0141
S11352304D915D916D917C91D9014D935D936D93E9
S11352407C9313971496C758DF4F488159816A811C
S11352507B814D935D936D937C931397CF01DF9185
S1135260CF910895CF93DF93FC01DB01109709F4EC
S11352705EC18C91828311964D915D916D917C916B
S11352801497458356836783708715964D915D9176
S11352906D917C911897418752876387748719961B
S11352A04D915D916D917C911C97458756876787D9
S11352B0708B1D964D915D916D917C915097418BB2
S11352C0528B638B748B51964D915D916D917C9152
S11352D05497458B568B678B708F55964D915D9186
S11352E06D917C915897418F528F638F748F59962B
S11352F04D915D916D917C915C97458F568F678F31
S113530070A35D964D915D916D917C91909741A3B1
S113531052A363A374A391964D915D916D917C9179
S1135320949745A356A367A370A795964D915D9155
S11353306D917C91989741A752A763A774A79996FA
S11353404D915D916D917C919C9745A756A767A758
S113535070AB9D964D915D916D917C91D09741ABD1
S113536052AB63AB74ABD1964D915D916D917C91D1
S1135370D49745AB56AB67AB70AFD5964D915D9165
S11353806D917C91D89741AF52AF63AF74AFEF0189
S1135390ED96D9964D915D916D917C91DC97488302
S11353A059836A837B839F012F5B3F4FCD01CD9649
S11353B0EC01488159816A817B81E90148835983E1
S11353C06A837B832C5F3F4F0496EC0148815981AB
S11353D06A817B81E901488359836A837B832C5FDB
S11353E03F4F0496EC01488159816A817B81E90130
S11353F0488359836A837B832C5F3F4F0496EC0177
S1135400488159816A817B81E901488359836A8390
S11354107B832C5F3F4F0496EC01488159816A815C
S11354207B81E901488359836A837B832C5F3F4FE7
S11354300496EC01488159816A817B81E9014883A2
S113544059836A837B832C5F3F4F0496EC01488128
S113545059816A817B81E901488359836A837B830B
S11354602C5F3F4F0496EC01488159816A817B810E
S1135470E901488359836A837B832C5F3F4F0496F9
S1135480EC01488159816A817B81E9014883598310
S11354906A837B832C5F3F4F0496EC0148815981DA
S11354A06A817B81E901488359836A837B832C5F0A
S11354B03F4F0496EC01488159816A817B81E9015F
S11354C0488359836A837B832C5F3F4F0496EC01A6
S11354D0488159816A817B81E901488359836A83C0
S11354E07B832C5F3F4F0496EC01488159816A818C
S11354F07B81E901488359836A837B832C5F3F4F17
S11355000496EC01488159816A817B81E9014883D1
S113551059836A837B83E758FF4FAB58BF4F4D9144
S11355205D916D917C914083518362837383DF919C
S1135530CF9108950F931F93CF93DF938C018DE741
S113554090E00E940661EC0186E08A8389E790E09E
S11355509C838B8388E692E0998388831D821E82D4
S11355601F82188619861A861B861C861D861E862F
S11355701F86188A198A1A8A1B8A1C8A1D8A1E8AFF
S11355801F8A188E198E1A8E1B8E1C8E1D8E1E8ECF
S11355901F8E18A219A21AA21BA21CA21DA21EA22F
S11355A01FA218A619A61AA61BA61CA61DA61EA6EF
S11355B01FA618AA19AA1AAA1BAA1CAA1DAA1EAABF
S11355C01FAA18AE19AE1AAE1BAE1CAEFE01FD9694
S11355D010821182128213823496108211821282F6
S11355E013823496108211821282138234961082AE
S11355F011821282138234961082118212821382D3
S1135600349610821182128213823496108211828F
S1135610128213823496108211821282138234967B
S113562010821182128213823496108211821282A5
S1135630138234961082118212821382349610825D
S11356401182128213823496108211821282138282
S1135650349610821182128213823496108211823F
S11356601282138234961082118212821382B8013C
S1135670CE010E943229CE01DF91CF911F910F916B
S1135680089520E532E0FC013183208308956115FB
S1135690710541F0FB012081FC012283FB01218182
S11356A0FC012583089520E532E0FC013183208349
S11356B00E9409610895CF93DF93EC0182E090E0AA
S11356C00E940E612A81FC0120832D812183DF91B8
S11356D0CF91089520E532E0FC01318320830895C1
S11356E020E532E0FC01318320830E9409610895A2
S11356F0CF93DF93EC018DE291E00E940E61FC01F7
S11357008A8180838D819E81AF81B88581839283D4
S1135710A383B48389859A85AB85BC858583968369
S1135720A783B0878D859E85AF85B8898187928749
S1135730A387B48789899A89AB89BC898587968729
S1135740A787B08B8D899E89AF89B88D818B928B09
S1135750A38BB48B898D9A8DAB8DBC8D858B968BE9
S1135760A78BB08F8D8D9E8DAF8DB8A1818F928FB9
S1135770A38FB48F89A19AA1ABA1BCA1858F968F69
S1135780A78FB0A38DA19EA1AFA1B8A581A392A319
S1135790A3A3B4A389A59AA5ABA5BCA585A396A3E9
S11357A0A7A3B0A78DA59EA5AFA5B8A981A792A7C9
S11357B0A3A7B4A789A99AA9ABA9BCA985A796A7A9
S11357C0A7A7B0AB8DA99EA9AFA9B8AD81AB92AB89
S11357D0A3ABB4AB89AD9AADABADBCAD85AB96AB69
S11357E0A7ABB0AFDE01DD968D919D910D90BC917C
S11357F0A02D81AF92AFA3AFB4AF9F01235C3F4F05
S1135800DE01AF5BBF4F4D915D916D917C91D901EC
S11358104D935D936D937C9313972C5F3F4FDE0103
S1135820AB5BBF4F4D915D916D917C91D9014D93CF
S11358305D936D937C9313972C5F3F4FDE01A75BC1
S1135840BF4F4D915D916D917C91D9014D935D93C5
S11358506D937C9313972C5F3F4FDE01A35BBF4F87
S11358604D915D916D917C91D9014D935D936D93B3
S11358707C9313972C5F3F4FDE01AF5ABF4F4D917E
S11358805D916D917C91D9014D935D936D937C9362
S113589013972C5F3F4FDE01AB5ABF4F4D915D9183
S11358A06D917C91D9014D935D936D937C93139786
S11358B02C5F3F4FDE01A75ABF4F4D915D916D9113
S11358C07C91D9014D935D936D937C9313972C5FD9
S11358D03F4FDE01A35ABF4F4D915D916D917C9175
S11358E0D9014D935D936D937C9313972C5F3F4F38
S11358F0DE01AF59BF4F4D915D916D917C91D901FE
S11359004D935D936D937C9313972C5F3F4FDE0112
S1135910AB59BF4F4D915D916D917C91D9014D93E0
S11359205D936D937C9313972C5F3F4FDE01A759D2
S1135930BF4F4D915D916D917C91D9014D935D93D4
S11359406D937C9313972C5F3F4FDE01A359BF4F98
S11359504D915D916D917C91D9014D935D936D93C2
S11359607C9313972C5F3F4FDE01AF58BF4F4D918F
S11359705D916D917C91D9014D935D936D937C9371
S113598013972C5F3F4FDE01AB58BF4F4D915D9194
S11359906D917C91D9014D935D936D937C93139795
S11359A02C5F3F4FDE01A758BF4F4D915D916D9124
S11359B07C91D9014D935D936D937C9313972C5FE8
S11359C03F4FDE01A358BF4F4D915D916D917C9186
S11359D0D9014D935D936D937C9313972C5F3F4F47
S11359E0DE01AF57BF4F4D915D916D917C91D9010F
S11359F04D935D936D937C9313972C5F3F4FDE0122
S1135A00AB57BF4F4D915D916D917C91D9014D93F1
S1135A105D936D937C9313972C5F3F4FDE01A757E3
S1135A20BF4F4D915D916D917C91D9014D935D93E3
S1135A306D937C9313972C5F3F4FDE01A357BF4FA9
S1135A404D915D916D917C91D9014D935D936D93D1
S1135A507C9313972C5F3F4FDE01AF56BF4F4D91A0
S1135A605D916D917C91D9014D935D936D937C9380
S1135A7013972C5F3F4FDE01AB56BF4F4D915D91A5
S1135A806D917C91D9014D935D936D937C931397A4
S1135A902C5F3F4FDE01A756BF4F4D915D916D9135
S1135AA07C91D9014D935D936D937C9313972C5FF7
S1135AB03F4FDE01A356BF4F4D915D916D917C9197
S1135AC0D9014D935D936D937C9313972C5F3F4F56
S1135AD0DE01AF55BF4F4D915D916D917C91D90120
S1135AE04D935D936D937C9313972C5F3F4FDE0131
S1135AF0AB55BF4F4D915D916D917C91D9014D9303
S1135B005D936D937C9313972C5F3F4FDE01A755F4
S1135B10BF4F4D915D916D917C91D9014D935D93F2
S1135B206D937C9313972C5F3F4FDE01A355BF4FBA
S1135B304D915D916D917C91D9014D935D936D93E0
S1135B407C9313972C5F3F4FDE01AF54BF4F4D91B1
S1135B505D916D917C91D9014D935D936D937C938F
S1135B6013972C5F3F4FDE01AB54BF4F4D915D91B6
S1135B706D917C91D9014D935D936D937C931397B3
S1135B802C5F3F4FDE01A754BF4F4D915D916D9146
S1135B907C91D9014D935D936D937C9313972C5F06
S1135BA03F4FDE01A354BF4F4D915D916D917C91A8
S1135BB0D9014D935D936D937C9313972C5F3F4F65
S1135BC0DE01AF53BF4F4D915D916D917C91D90131
S1135BD04D935D936D937C9313972C5F3F4FDE0140
S1135BE0AB53BF4F4D915D916D917C91D9014D9314
S1135BF05D936D937C9313972C5F3F4FDE01A75306
S1135C00BF4F4D915D916D917C91D9014D935D9301
S1135C106D937C9313972C5F3F4FDE01A353BF4FCB
S1135C204D915D916D917C91D9014D935D936D93EF
S1135C307C9313972C5F3F4FDE01AF52BF4F4D91C2
S1135C405D916D917C91D9014D935D936D937C939E
S1135C5013972C5F3F4FDE01AB52BF4F4D915D91C7
S1135C606D917C91D9014D935D936D937C931397C2
S1135C702C5F3F4FDE01A752BF4F4D915D916D9157
S1135C807C91D9014D935D936D937C9313972C5F15
S1135C903F4FDE01A352BF4F4D915D916D917C91B9
S1135CA0D9014D935D936D937C9313972C5F3F4F74
S1135CB0DE01AF51BF4F4D915D916D917C91D90142
S1135CC04D935D936D937C9313972C5F3F4FDE014F
S1135CD0AB51BF4F4D915D916D917C91D9014D9325
S1135CE05D936D937C9313972C5F3F4FDE01A75117
