S012000048656C69636F707465722E7372656303
S11300000C9453010C9474010C9474010C947401B9
S11300100C9474010C9474010C9474010C94740188
S11300200C9474010C9474010C9474010C94740178
S11300300C9474010C9474010C9474010C94740168
S11300400C9474010C94D54E0C9474010C947401AA
S11300500C9474010C9474010C9474010C94740148
S11300600C9474010C9474010C9474010C94740138
S11300700C9474010C9474010C9474010C94740128
S11300800C9474010C9474010C9474010C94740118
S11300900C9474010C9474010C9474010C94740108
S11300A00C9474010C9474010C9474010C947401F8
S11300B00C9474010C9474010C949B2E0C94740194
S11300C00C9474010C9474010C9474010C947401D8
S11300D00C9474010C9474010C9474010C947401C8
S11300E00C947401036EDB363D9A9999993DABAA41
S11300F0AA2A3E000000803F084AD73B3BCE016E4F
S113010084BCBFFDC12F3D6C74319ABD56833DDA6A
S11301103D00C77F11BED9E4BB4C3E916BAAAABE79
S1130120000000803F072C7AA5BA6CC590DA3B9397
S113013065FC8BBC53F810FD3C5692834DBD879DE6
S11301403AB63DCBC9BF5BBE73DA0FC93F05A84CB5
S1130150CDB2D44EB93836A9020C50B9918688086C
S11301603CA6AAAA2ABE000000803F07634236B715
S11301709BD8A71A39685618AEBAAB558C1D3CB734
S1130180CC5763BD6DEDFD753EF6177231BF0000AF
S113019000803F08000000BE922449123EABAAAA88
S11301A02ABECDCCCC4C3E00000080BEABAAAAAA8D
S11301B03E00000000BF000000803F00000000007F
S11301C0084178D3BB4387D1133D190E3CC3BD42CC
S11301D082AD2B3E68EC8276BED98FE1A93E4C807D
S11301E0EFFFBE01C4FF7F3F0000000000000C943D
S11301F023150C943E2A0C94A2150C94705B0C9459
S1130200E4580C94395B0C94F31A0C94055C0C942C
S113021001170C94DF130C94C1130C94B2570C9473
S1130220723A0C9442570C942A140C9489570C94E7
S113023073160C949C560C94373E0C94BE560C9436
S1130240D4570C945D3A0C9420570C94C8300C94F9
S1130250602A0C94841A0C944C310C94D7300C946E
S11302603B3A0C945A5C0C94EA180C94AB5B0C94D7
S1130270CF1A0C945B5B0C94B6500C9489520C947A
S1130280661A0C942A310C94385C0C94A1300C94AA
S113029005570C94E9150C9483300C9486310C9416
S11302A062180C94613111241FBECFEFD1E2DEBF7E
S11302B0CDBF00E00CBF12E0A0E0B2E0E8E2FBED4D
S11302C000E00BBF02C007900D92A43AB107D9F722
S11302D022E0A4EAB2E001C01D92AC3AB207E1F711
S11302E00E94AA270C94926D0C940000CF93DF9384
S11302F01F921F92CDB7DEB79A83898389819A8131
S1130300FC0181819281A381B481BC01CD010F9054
S11303100F90DF91CF910895CF93DF931F921F9297
S1130320CDB7DEB79A83898389819A81FC0185815F
S11303309681A781B085BC01CD010F900F90DF910C
S1130340CF910895CF93DF9300D000D0CDB7DEB71F
S11303509A8389834B835C836D837E8329813A816D
S11303608B819C81AD81BE81F90185839683A783AE
S1130370B08726960FB6F894DEBF0FBECDBFDF91CF
S1130380CF910895CF93DF931F921F92CDB7DEB71D
S11303909A83898389819A81FC0181859285A385C9
S11303A0B485BC01CD010F900F90DF91CF910895DA
S11303B0CF93DF9300D000D0CDB7DEB79A83898383
S11303C04B835C836D837E8329813A818B819C81FD
S11303D0AD81BE81F90181879287A387B487269670
S11303E00FB6F894DEBF0FBECDBFDF91CF91089555
S11303F0CF93DF931F921F92CDB7DEB79A83898381
S113040089819A81FC0185859685A785B089BC017F
S1130410CD010F900F90DF91CF910895CF93DF938B
S11304201F921F92CDB7DEB79A83898389819A81FF
S1130430FC0181899289A389B489BC01CD010F9003
S11304400F90DF91CF910895CF93DF9300D000D028
S1130450CDB7DEB79A8389834B835C836D837E83B8
S113046029813A818B819C81AD81BE81F901818B87
S1130470928BA38BB48B26960FB6F894DEBF0FBE77
S1130480CDBFDF91CF910895CF93DF9300D000D0FB
S1130490CDB7DEB79A8389834B835C836D837E8378
S11304A029813A818B819C81AD81BE81F901858B43
S11304B0968BA78BB08F26960FB6F894DEBF0FBE2F
S11304C0CDBFDF91CF910895CF93DF9300D000D0BB
S11304D0CDB7DEB79A8389834B835C836D837E8338
S11304E029813A818B819C81AD81BE81F901818F03
S11304F0928FA38FB48F26960FB6F894DEBF0FBEEB
S1130500CDBFDF91CF910895CF93DF931F921F92B8
S1130510CDB7DEB79A83898389819A81FC01858D61
S1130520968DA78DB0A1BC01CD010F900F90DF91E6
S1130530CF910895CF93DF931F921F92CDB7DEB76B
S11305409A83898389819A81FC0181A192A1A3A1C3
S1130550B4A1BC01CD010F900F90DF91CF9108950C
S1130560CF93DF931F921F92CDB7DEB79A8389830F
S113057089819A81FC0185A196A1A7A1B0A5BC019E
S1130580CD010F900F90DF91CF910895CF93DF931A
S113059000D000D0CDB7DEB79A8389834B835C83C8
S11305A06D837E8329813A818B819C81AD81BE815B
S11305B0F90185A396A3A7A3B0A726960FB6F8942E
S11305C0DEBF0FBECDBFDF91CF910895CF93DF93F0
S11305D01F921F92CDB7DEB79A83898389819A814E
S11305E0FC0181A592A5A3A5B4A5BC01CD010F90E2
S11305F00F90DF91CF910895CF93DF9300D000D077
S1130600CDB7DEB79A8389834B835C836D837E8306
S113061029813A818B819C81AD81BE81F90181A7B9
S113062092A7A3A7B4A726960FB6F894DEBF0FBE71
S1130630CDBFDF91CF910895CF93DF931F921F9287
S1130640CDB7DEB79A83898389819A81FC0185A518
S113065096A5A7A5B0A9BC01CD010F900F90DF917D
S1130660CF910895CF93DF931F921F92CDB7DEB73A
S11306709A83898389819A81FC0181A992A9A3A97A
S1130680B4A9BC01CD010F900F90DF91CF910895D3
S1130690CF93DF931F921F92CDB7DEB79A838983DE
S11306A089819A81FC0185A996A9A7A9B0ADBC014D
S11306B0CD010F900F90DF91CF910895CF93DF93E9
S11306C000D000D0CDB7DEB79A8389834B835C8397
S11306D06D837E8329813A818B819C81AD81BE812A
S11306E0F90185AB96ABA7ABB0AF26960FB6F894DD
S11306F0DEBF0FBECDBFDF91CF910895CF93DF93BF
S113070000D000D0CDB7DEB79A8389834B835C8356
S11307106D837E8329813A818B819C81AD81BE81E9
S1130720F90181AF92AFA3AFB4AF26960FB6F89498
S1130730DEBF0FBECDBFDF91CF910895CF93DF937E
S11307401F921F92CDB7DEB79A83898389819A81DC
S1130750CD96FC0180819181A281B381BC01CD0140
S11307600F900F90DF91CF910895CF93DF9300D036
S113077000D0CDB7DEB79A8389834B835C836D83C6
S11307807E8389819A819C01235C3F4F8B819C816C
S1130790AD81BE81F90180839183A283B3832696C0
S11307A00FB6F894DEBF0FBECDBFDF91CF91089591
S11307B0CF93DF9300D000D0CDB7DEB79A8389837F
S11307C04B835C836D837E8389819A819C012F5B3B
S11307D03F4F8B819C81AD81BE81F90180839183E0
S11307E0A283B38326960FB6F894DEBF0FBECDBFA7
S11307F0DF91CF910895CF93DF931F921F92CDB7CE
S1130800DEB79A83898389819A81875B9F4FFC0134
S113081080819181A281B381BC01CD010F900F90A1
S1130820DF91CF910895CF93DF931F921F92CDB79D
S1130830DEB79A83898389819A81835B9F4FFC0108
S113084080819181A281B381BC01CD010F900F9071
S1130850DF91CF910895CF93DF931F921F92CDB76D
S1130860DEB79A83898389819A818F5A9F4FFC01CD
S113087080819181A281B381BC01CD010F900F9041
S1130880DF91CF910895CF93DF9300D000D0CDB7FF
S1130890DEB79A8389834B835C836D837E838981EE
S11308A09A819C012F5A3F4F8B819C81AD81BE81DF
S11308B0F90180839183A283B38326960FB6F894BB
S11308C0DEBF0FBECDBFDF91CF910895CF93DF93ED
S11308D01F921F92CDB7DEB79A83898389819A814B
S11308E08B5A9F4FFC0180819181A281B381BC010D
S11308F0CD010F900F90DF91CF910895CF93DF93A7
S113090000D000D0CDB7DEB79A8389834B835C8354
S11309106D837E8389819A819C012B5A3F4F8B8101
S11309209C81AD81BE81F90180839183A283B383CD
S113093026960FB6F894DEBF0FBECDBFDF91CF91E0
S11309400895CF93DF931F921F92CDB7DEB79A839A
S1130950898389819A81875A9F4FFC018081918183
S1130960A281B381BC01CD010F900F90DF91CF9193
S11309700895CF93DF931F921F92CDB7DEB79A836A
S1130980898389819A81835A9F4FFC018081918157
S1130990A281B381BC01CD010F900F90DF91CF9163
S11309A00895CF93DF931F921F92CDB7DEB79A833A
S11309B0898389819A818F599F4FFC01808191811C
S11309C0A281B381BC01CD010F900F90DF91CF9133
S11309D00895CF93DF9300D000D0CDB7DEB79A83CC
S11309E089834B835C836D837E8389819A819C0197
S11309F02F593F4F8B819C81AD81BE81F90180834A
S1130A009183A283B38326960FB6F894DEBF0FBEFC
S1130A10CDBFDF91CF910895CF93DF9300D000D065
S1130A20CDB7DEB79A8389834B835C836D837E83E2
S1130A3089819A819C012B593F4F8B819C81AD8187
S1130A40BE81F90180839183A283B38326960FB676
S1130A50F894DEBF0FBECDBFDF91CF910895CF9341
S1130A60DF931F921F92CDB7DEB79A838983898162
S1130A709A8187599F4FFC0180819181A281B38122
S1130A80BC01CD010F900F90DF91CF910895CF93CA
S1130A90DF9300D000D0CDB7DEB79A8389834B8330
S1130AA05C836D837E8389819A819C0127593F4FA2
S1130AB08B819C81AD81BE81F90180839183A28366
S1130AC0B38326960FB6F894DEBF0FBECDBFDF9179
S1130AD0CF910895CF93DF9300D000D0CDB7DEB788
S1130AE09A8389834B835C836D837E8389819A8116
S1130AF09C0123593F4F8B819C81AD81BE81F901BB
S1130B0080839183A283B38326960FB6F894DEBFC5
S1130B100FBECDBFDF91CF910895CF93DF931F9286
S1130B201F92CDB7DEB79A83898389819A818758CA
S1130B309F4FFC0180819181A281B381BC01CD01D1
S1130B400F900F90DF91CF910895CF93DF931F9271
S1130B501F92CDB7DEB79A83898389819A8183589E
S1130B609F4FFC0180819181A281B381BC01CD01A1
S1130B700F900F90DF91CF910895CF93DF931F9241
S1130B801F92CDB7DEB79A83898389819A818F5763
S1130B909F4FFC0180819181A281B381BC01CD0171
S1130BA00F900F90DF91CF910895CF93DF9300D0F2
S1130BB000D0CDB7DEB79A8389834B835C836D8382
S1130BC07E8389819A819C012F573F4F8B819C8121
S1130BD0AD81BE81F90180839183A283B38326967C
S1130BE00FB6F894DEBF0FBECDBFDF91CF9108954D
S1130BF0CF93DF931F921F92CDB7DEB79A83898379
S1130C0089819A818B579F4FFC0180819181A281B8
S1130C10B381BC01CD010F900F90DF91CF91089566
S1130C20CF93DF9300D000D0CDB7DEB79A8389830A
S1130C304B835C836D837E8389819A819C012B57CE
S1130C403F4F8B819C81AD81BE81F901808391836B
S1130C50A283B38326960FB6F894DEBF0FBECDBF32
S1130C60DF91CF910895CF93DF931F921F92CDB759
S1130C70DEB79A83898389819A8187579F4FFC01C4
S1130C8080819181A281B381BC01CD010F900F902D
S1130C90DF91CF910895CF93DF931F921F92CDB729
S1130CA0DEB79A83898389819A8183579F4FFC0198
S1130CB080819181A281B381BC01CD010F900F90FD
S1130CC0DF91CF910895CF93DF931F921F92CDB7F9
S1130CD0DEB79A83898389819A818F569F4FFC015D
S1130CE080819181A281B381BC01CD010F900F90CD
S1130CF0DF91CF910895CF93DF9300D000D0CDB78B
S1130D00DEB79A8389834B835C836D837E83898179
S1130D109A819C012F563F4F8B819C81AD81BE816E
S1130D20F90180839183A283B38326960FB6F89446
S1130D30DEBF0FBECDBFDF91CF910895CF93DF9378
S1130D4000D000D0CDB7DEB79A8389834B835C8310
S1130D506D837E8389819A819C012B563F4F8B81C1
S1130D609C81AD81BE81F90180839183A283B38389
S1130D7026960FB6F894DEBF0FBECDBFDF91CF919C
S1130D800895CF93DF9300D000D0CDB7DEB79A8318
S1130D9089834B835C836D837E8389819A819C01E3
S1130DA027563F4F8B819C81AD81BE81F9018083A1
S1130DB09183A283B38326960FB6F894DEBF0FBE49
S1130DC0CDBFDF91CF910895CF93DF931F921F92F0
S1130DD0CDB7DEB79A83898389819A818F549F4FD7
S1130DE0FC0180819181A281B381BC01CD010F906E
S1130DF00F90DF91CF910895CF93DF9300D000D06F
S1130E00CDB7DEB79A8389834B835C836D837E83FE
S1130E1089819A819C012F543F4F8B819C81AD81A4
S1130E20BE81F90180839183A283B38326960FB692
S1130E30F894DEBF0FBECDBFDF91CF910895CF935D
S1130E40DF931F921F92CDB7DEB79A83898389817E
S1130E509A81FC0180810F900F90DF91CF910895CA
S1130E60CF93DF931F921F92CDB7DEB79A83898306
S1130E7089819A8183529F4FFC0180819181A28153
S1130E80B381BC01CD010F900F90DF91CF910895F4
S1130E90CF93DF931F921F92CDB7DEB79A838983D6
S1130EA089819A818B529F4FFC0180819181A2811B
S1130EB0B381BC01CD010F900F90DF91CF910895C4
S1130EC0CF93DF931F921F92CDB7DEB79A838983A6
S1130ED089819A8187529F4FFC0180819181A281EF
S1130EE0B381BC01CD010F900F90DF91CF91089594
S1130EF0CF93DF931F921F92CDB7DEB79A83898376
S1130F0089819A818F529F4FFC0180819181A281B6
S1130F10B381BC01CD010F900F90DF91CF91089563
S1130F20CF93DF931F921F92CDB7DEB79A83898345
S1130F3089819A8183539F4FFC0180819181A28191
S1130F40B381BC01CD010F900F90DF91CF91089533
S1130F50CF93DF931F921F92CDB7DEB79A83898315
S1130F6089819A8187539F4FFC0180819181A2815D
S1130F70B381BC01CD010F900F90DF91CF91089503
S1130F80CF93DF9300D01F92CDB7DEB79A838983C6
S1130F907C836B8389819A812B813C81FC01318321
S1130FA0208389819A81FC01128213821482158222
S1130FB089819A81FC0116821782108611868981A3
S1130FC09A81FC01128613861486158689819A817A
S1130FD0FC0116861786108A118A89819A81FC0180
S1130FE0128A138A148A158A89819A81FC01168AC5
S1130FF0178A108E118E89819A81FC01128E138EAC
S1131000148E158E89819A81FC01168E178E10A27A
S113101011A289819A81FC0112A213A214A215A221
S113102089819A81FC0112A613A614A615A68981AA
S11310309A81FC0116A617A610AA11AA89819A8181
S1131040FC0112AA13AA14AA15AA89819A81FC0187
S113105016AA17AA10AE11AE89819A81FC0112AEAC
S113106013AE14AE15AE89819A818E5B9F4FFC013D
S1131070108211821282138289819A818A5B9F4F26
S1131080FC01108211821282138289819A81865B0B
S11310909F4FFC01108211821282138289819A81EE
S11310A0825B9F4FFC01108211821282138289811C
S11310B09A818E5A9F4FFC011082118212821382F0
S11310C089819A818A5A9F4FFC011082118212826F
S11310D0138289819A81865A9F4FFC011082118262
S11310E01282138289819A81825A9F4FFC01108255
S11310F011821282138289819A818E599F4FFC0139
S1131100108211821282138289819A818A599F4F97
S1131110FC01108211821282138289819A8186597C
S11311209F4FFC01108211821282138289819A815D
S113113082599F4FFC01108211821282138289818D
S11311409A818E579F4FFC01108211821282138262
S113115089819A818A579F4FFC01108211821282E1
S1131160138289819A8186579F4FFC0110821182D4
S1131170128213820F900F900F900F90DF91CF91F6
S113118008950F931F93CF93DF93CDB7DEB72A97BC
S11311900FB6F894DEBF0FBECDBF9A8389834B830D
S11311A05C836D837E830F83188729873A872F8119
S11311B0388549855A856B817C818D819E810E9409
S11311C0F766DC01CB01BC01CD012A960FB6F89479
S11311D0DEBF0FBECDBFDF91CF911F910F91089558
S11311E0CF92DF92EF92FF920F931F93CF93DF93EF
S11311F0CDB7DEB762970FB6F894DEBF0FBECDBF92
S11312009E838D834F83588769877A870B871C87D2
S11312102D873E87CF86D88AE98AFA8A19821A826C
S11312201B821C822B853C854D855E856F8178856C
S113123089859A850E94F766DC01CB012F85388960
S113124049895A89BC01CD010E940F6ADC01CB0196
S113125089839A83AB83BC8389819A81AB81BC8166
S1131260BC01CD0162960FB6F894DEBF0FBECDBFB0
S1131270DF91CF911F910F91FF90EF90DF90CF906E
S113128008958F929F92AF92BF92CF92DF92EF9286
S1131290FF920F931F93CF93DF93CDB7DEB766977B
S11312A00FB6F894DEBF0FBECDBF9E838D834F83F0
S11312B0588769877A870B871C872D873E87CF8657
S11312C0D88AE98AFA8A8B8A9C8AAD8ABE8A19826C
S11312D01A821B821C828D819E818E579F4FFC0136
S11312E080819181A281B3812F81388549855A8576
S11312F0BC01CD010E940F6ADC01CB012B893C8922
S11313004D895E89BC01CD010E940F6ADC01CB01CD
S113131089839A83AB83BC832B853C854D855E850D
S113132069817A818B819C810E94F866DC01CB0102
S113133089839A83AB83BC8320E030E0A9016F8565
S1131340788989899A890E94D567882309F452C0CB
S113135020E030E0A90169817A818B819C810E941F
S1131360046A18168CF429813A814B815C816F855B
S1131370788989899A890E94046A18162CF419823A
S11313801A821B821C821BC020E030E0A901698103
S11313907A818B819C810E94D567882384F429817A
S11313A03A814B815C816F85788989899A890E9409
S11313B0D567882324F419821A821B821C8220E0B8
S11313C030E0A90169817A818B819C810E94D56773
S11313D0882381F02F85388949895A8969817A81DE
S11313E08B819C810E94F766DC01CB0189839A83FF
S11313F0AB83BC8389819A81AB81BC81BC01CD0163
S113140066960FB6F894DEBF0FBECDBFDF91CF91C5
S11314101F910F91FF90EF90DF90CF90BF90AF900E
S11314209F908F9008950F931F93CF93DF93CDB721
S1131430DEB72A970FB6F894DEBF0FBECDBF9A83EE
S113144089834B835C836D837E830F83188729870D
S11314503A872F81388549855A856B817C818D81B6
S11314609E810E94F766DC01CB01BC01CD012A9666
S11314700FB6F894DEBF0FBECDBFDF91CF911F91A1
S11314800F9108958F929F92AF92BF92CF92DF9265
S1131490EF92FF920F931F93CF93DF93CDB7DEB7F5
S11314A066970FB6F894DEBF0FBECDBF9E838D83C3
S11314B04F83588769877A870B871C872D873E87D8
S11314C0CF86D88AE98AFA8A8B8A9C8AAD8ABE8AB0
S11314D019821A821B821C828AA59BA5AA2797FDC2
S11314E0A095BA2FBC01CD010E9477686B017C01E5
S11314F02B893C894D895E896F81788589859A8598
S11315000E940F6ADC01CB012F85388949895A89E9
S1131510BC01CD010E94F866DC01CB014C015D01E8
S11315202EA13FA148A559A56B857C858D859E85F7
S11315300E940F6ADC01CB019C01AD01C501B4011D
S11315400E94F866DC01CB019C01AD01C701B60124
S11315500E940F6ADC01CB0189839A83AB83BC832D
S113156089819A81AB81BC81BC01CD0166960FB69D
S1131570F894DEBF0FBECDBFDF91CF911F910F91C5
S1131580FF90EF90DF90CF90BF90AF909F908F909F
S11315900895CF92DF92EF92FF920F931F93CF9310
S11315A0DF93CDB7DEB72E970FB6F894DEBF0FBE2C
S11315B0CDBF9A8389834B835C836D837E830F8342
S11315C0188729873A87CB86DC86ED86FE862B85AD
S11315D03C854D855E856B817C818D819E810E94D9
S11315E0046A18164CF48B859C85AD85BE858B8367
S11315F09C83AD83BE8314C02F81388549855A8569
S11316006B817C818D819E810E94D567882344F4FF
S11316108F819885A985BA858B839C83AD83BE838E
S11316208B819C81AD81BE81BC01CD012E960FB60C
S1131630F894DEBF0FBECDBFDF91CF911F910F9104
S1131640FF90EF90DF90CF900895AF92BF92CF922A
S1131650DF92EF92FF920F931F93CF93DF93CDB757
S1131660DEB760970FB6F894DEBF0FBECDBF6983B7
S11316707A838B839C832D833E834F835887E986AB
S1131680FA860B871C87AD86BE86CF86D88A2D81C5
S11316903E814F81588569817A818B819C810E942A
S11316A0F766DC01CB0129853A854B855C85BC0155
S11316B0CD010E940F6ADC01CB016C017D012E8DEE
S11316C03F8D48A159A16D857E858F8598890E949B
S11316D00F6ADC01CB019C01AD01C701B6010E9478
S11316E0F766DC01CB01BC01CD0160960FB6F8941E
S11316F0DEBF0FBECDBFDF91CF911F910F91FF9041
S1131700EF90DF90CF90BF90AF900895CF92DF928B
S1131710EF92FF920F931F93CF93DF93CDB7DEB772
S11317202E970FB6F894DEBF0FBECDBF9A83898380
S11317304B835C836D837E830F83188729873A8765
S1131740CB86DC86ED86FE862F81388549855A85D1
S11317506B817C818D819E810E94D56788234CF4A6
S11317608F819885A985BA858B839C83AD83BE833D
S113177014C02B853C854D855E856B817C818D8174
S11317809E810E94046A181644F48B859C85AD855D
S1131790BE858B839C83AD83BE838B819C81AD810D
S11317A0BE81BC01CD012E960FB6F894DEBF0FBEEC
S11317B0CDBFDF91CF911F910F91FF90EF90DF90FC
S11317C0CF900895CF93DF931F921F92CDB7DEB7CA
S11317D09A83898389819A81FC01808191810E9405
S11317E0E406DC01CB010196A11DB11D29813A81DA
S11317F0F90120813181AC01BD01C9010E94FC06BF
S11318000F900F90DF91CF910895CF93DF9300D085
S113181000D0CDB7DEB79A8389834B835C836D8315
S11318207E832BED3FE049E450E46B817C818D8124
S11318309E810E94046A88238CF02BED3FE049ECE2
S113184050E46B817C818D819E810E94F766DC016E
S1131850CB018B839C83AD83BE831CC02BED3FE007
S113186049E450EC6B817C818D819E810E94D56717
S1131870882384F42BED3FE049EC50E46B817C81B8
S11318808D819E810E94F866DC01CB018B839C8351
S1131890AD83BE838B819C81AD81BE81BC01CD01B2
S11318A026960FB6F894DEBF0FBECDBFDF91CF9161
S11318B008957F928F929F92AF92BF92CF92DF92C0
S11318C0EF92FF920F931F93CF93DF93CDB7DEB7C1
S11318D06A970FB6F894DEBF0FBECDBF9A8F898F7B
S11318E0898D9A8DFC01808191810E941F07982F18
S11318F081E0913009F080E0882309F449C1898DA1
S11319009A8DFC01808191810E9476016B017C019A
S1131910898D9A8DFC01808191810E947807DC0178
S1131920CB01E98DFA8D97018601AC01BD01CF0190
S11319300E94C108DC01CB0189839A83AB83BC83F9
S113194089819A81AB81BC81298D3A8DAC01BD011D
S1131950C9010E94050CDC01CB0189839A83AB8306
S1131960BC83898D9A8DFC01C684D784E088F18874
S1131970898D9A8DFC01808191810E948C014B019B
S11319805C01898D9A8DFC01808191810E94C20144
S1131990DC01CB01E98DFA8D95018401AC01BD0117
S11319A0CF010E94F008DC01CB018D839E83AF83BD
S11319B0B887898D9A8DFC01A280B380C480D580BC
S11319C0898D9A8DFC01808191810E940E029B0178
S11319D0AC01ED80FE800F81188589819A81AB81ED
S11319E0BC81E98DFA8D45015601670178018901B1
S11319F09A01AC01BD01CF010E944109DC01CB0178
S1131A0089879A87AB87BC87898D9A8DFC018081F1
S1131A1091810E94F8016B017C01898D9A8DFC01F2
S1131A20808191810E943007DC01CB01E98DFA8D20
S1131A3097018601AC01BD01CF010E94130ADC01AC
S1131A40CB018D879E87AF87B88B898D9A8DFC01DA
S1131A5086819781A085B185298D3A8DF90182848B
S1131A609384A484B584C984DA84EB84FC840D85CE
S1131A701E852F85388949815A816B817C81E98D46
S1131A80FA8D1F92772473947F927B2E7F927A2E05
S1131A907F92792E7F928F93CF010E94420A0F90FA
S1131AA00F900F900F900F900F90DC01CB01898B5A
S1131AB09A8BAB8BBC8B898D9A8D8A5A9F4FFC0174
S1131AC0E080F18002811381898D9A8D8E5A9F4F17
S1131AD0FC01208131814281538189899A89AB89B2
S1131AE0BC89E98DFA8D6701780189019A01AC01FD
S1131AF0BD01CF010E94C90ADC01CB018D8B9E8BF5
S1131B00AF8BB88F898D9A8DFC01208131818D89AD
S1131B109E89AF89B88DAC01BD01C9010E94A201A3
S1131B20898D9A8DFC012081318189899A89AB89BB
S1131B30BC89AC01BD01C9010E94D801898D9A8D6F
S1131B40FC012081318189859A85AB85BC85AC01F6
S1131B50BD01C9010E942402898D9A8DFC01208156
S1131B60318189819A81AB81BC81AC01BD01C901FC
S1131B700E944402898D9A8DFC01208131818D85DA
S1131B809E85AF85B889AC01BD01C9010E9464027C
S1131B906A960FB6F894DEBF0FBECDBFDF91CF912A
S1131BA01F910F91FF90EF90DF90CF90BF90AF9077
S1131BB09F908F907F9008957F928F929F92AF9283
S1131BC0BF92CF92DF92EF92FF920F931F93CF9326
S1131BD0DF93CDB7DEB76A970FB6F894DEBF0FBEBA
S1131BE0CDBF9A8F898F898D9A8DFC0180819181D7
S1131BF00E941F07982F81E0913009F080E088232C
S1131C0009F440C1898D9A8DFC01808191810E94E3
S1131C10A5056B017C01898D9A8DFC0180819181E0
S1131C200E948D05DC01CB01E98DFA8D97018601B7
S1131C30AC01BD01CF010E94C108DC01CB01898345
S1131C409A83AB83BC83898D9A8D825B9F4FFC0101
S1131C50C080D180E280F380898D9A8DFC018081DF
S1131C6091810E94BD054B015C01898D9A8DFC0117
S1131C70808191810E94F805DC01CB01E98DFA8D08
S1131C8095018401AC01BD01CF010E94F008DC0183
S1131C90CB018D839E83AF83B887898D9A8D8E5BAC
S1131CA09F4FFC01A080B180C280D380898D9A8D22
S1131CB0FC01808191810E9463069B01AC01ED804F
S1131CC0FE800F81188589819A81AB81BC81E98D61
S1131CD0FA8D450156016701780189019A01AC0129
S1131CE0BD01CF010E944109DC01CB0189879A879C
S1131CF0AB87BC87898D9A8DFC01808191810E947C
S1131D004B066B017C01898D9A8DFC018081918148
S1131D100E943306DC01CB01E98DFA8D970186011F
S1131D20AC01BD01CF010E94130ADC01CB018D87F8
S1131D309E87AF87B88B898D9A8D8A5B9F4FFC01F4
S1131D4080819181A281B381298D3A8D265B3F4F99
S1131D50F90180809180A280B380C984DA84EB8405
S1131D60FC840D851E852F85388949815A816B81B4
S1131D707C81E98DFA8D1F92772473947F927B2E58
S1131D807F927A2E7F92792E7F928F93CF010E9439
S1131D90420A0F900F900F900F900F900F90DC015C
S1131DA0CB01898B9A8BAB8BBC8B898D9A8D825995
S1131DB09F4FFC01E080F18002811381898D9A8D0F
S1131DC086599F4FFC012081318142815381898949
S1131DD09A89AB89BC89E98DFA8D670178018901FB
S1131DE09A01AC01BD01CF010E94C90ADC01CB01FB
S1131DF08D8B9E8BAF8BB88F898D9A8DFC01208142
S1131E0031818D899E89AF89B88DAC01BD01C9012D
S1131E100E94D505898D9A8DFC01208131818989A3
S1131E209A89AB89BC89AC01BD01C9010E94100625
S1131E30898D9A8DFC012081318189859A85AB85B4
S1131E40BC85AC01BD01C9010E947B06898D9A8DB8
S1131E50FC012081318189819A81AB81BC81AC01F3
S1131E60BD01C9010E949E06898D9A8DFC012081C5
S1131E7031818D859E85AF85B889AC01BD01C901CD
S1131E800E94C1066A960FB6F894DEBF0FBECDBF9E
S1131E90DF91CF911F910F91FF90EF90DF90CF9042
S1131EA0BF90AF909F908F907F9008957F928F9274
S1131EB09F92AF92BF92CF92DF92EF92FF920F93D5
S1131EC01F93CF93DF93CDB7DEB766970FB6F89421
S1131ED0DEBF0FBECDBF9E8B8D8B8D899E89FC018D
S1131EE0808191810E941F07982F81E0913009F031
S1131EF080E0882309F42AC18D899E89FC018081B0
S1131F0091810E949A026B017C018D899E89FC015A
S1131F10808191810E948402DC01CB01ED89FE89DC
S1131F2097018601AC01BD01CF010E94C108DC010B
S1131F30CB0189839A83AB83BC838D899E89FC0101
S1131F40C68CD78CE0A0F1A08D899E89FC0180818C
S1131F5091810E94E6024B015C018D899E89FC01FE
S1131F60808191810E94B002DC01CB01ED89FE8960
S1131F7095018401AC01BD01CF010E94F008DC0190
S1131F80CB018D839E83AF83B8878D899E89FC01A5
S1131F90A288B388C488D5888D899E89FC018081F4
S1131FA091810E949E039B01AC01ED80FE800F8114
S1131FB0188589819A81AB81BC81ED89FE894501AF
S1131FC056016701780189019A01AC01BD01CF0175
S1131FD00E944109DC01CB0189879A87AB87BC87C2
S1131FE08D899E89FC01808191810E9432036B015D
S1131FF07C018D899E89FC01808191810E941C0352
S1132000DC01CB01ED89FE8997018601AC01BD019C
S1132010CF010E94130ADC01CB018D879E87AF8715
S1132020B88B8D899E89FC0186899789A08DB18D95
S11320302D893E89F901828C938CA48CB58CC9843A
S1132040DA84EB84FC840D851E852F8538894981CB
S11320505A816B817C81ED89FE891F927724739468
S11320607F927B2E7F927A2E7F92792E7F928F930E
S1132070CF010E94420A0F900F900F900F900F9083
S11320800F90DC01CB01898B9A8BAB8BBC8B8D8938
S11320909E898A589F4FFC01E080F1800281138160
S11320A08D899E898E589F4FFC0120813181428108
S11320B0538189899A89AB89BC89ED89FE89670135
S11320C0780189019A01AC01BD01CF010E94860B00
S11320D0DC01CB01898B9A8BAB8BBC8B8D899E8960
S11320E0FC012081318189899A89AB89BC89AC0141
S11320F0BD01C9010E945E038D899E89FC01208176
S1132100318189859A85AB85BC85AC01BD01C90146
S11321100E94B5038D899E89FC01208131818981CA
S11321209A81AB81BC81AC01BD01C9010E947E03CF
S11321308D899E89FC01208131818D859E85AF85A5
S1132140B889AC01BD01C9010E94D80366960FB6D7
S1132150F894DEBF0FBECDBFDF91CF911F910F91D9
S1132160FF90EF90DF90CF90BF90AF909F908F90B3
S11321707F9008957F928F929F92AF92BF92CF9259
S1132180DF92EF92FF920F931F93CF93DF93CDB71C
S1132190DEB766970FB6F894DEBF0FBECDBF9E8B39
S11321A08D8B8D899E89FC01808191810E941F07FE
S11321B0982F81E0913009F080E0882309F42CC144
S11321C08D899E89FC01808191810E9413046B0199
S11321D07C018D899E89FC01808191810E94FB0391
S11321E0DC01CB01ED89FE8997018601AC01BD01BB
S11321F0CF010E94C108DC01CB0189839A83AB83A0
S1132200BC838D899E89FC01C6A8D7A8E0ACF1AC3B
S11322108D899E89FC01808191810E9466044B0115
S11322205C018D899E89FC01808191810E942B042F
S1132230DC01CB01ED89FE8995018401AC01BD016E
S1132240CF010E94F008DC01CB018D839E83AF8314
S1132250B8878D899E89FC01A2A4B3A4C4A4D5A483
S11322608D899E89FC01808191810E942F059B01AB
S1132270AC01ED80FE800F81188589819A81AB8144
S1132280BC81ED89FE894501560167017801890108
S11322909A01AC01BD01CF010E944109DC01CB01CF
S11322A089879A87AB87BC878D899E89FC01808149
S11322B091810E94B9046B017C018D899E89FC0186
S11322C0808191810E94A104DC01CB01ED89FE890A
S11322D097018601AC01BD01CF010E94130ADC0104
S11322E0CB018D879E87AF87B88B8D899E89FC0132
S11322F086A597A5A0A9B1A92D893E89F90182A82F
S113230093A8A4A8B5A8C984DA84EB84FC840D85B9
S11323101E852F85388949815A816B817C81ED899D
S1132320FE8977247A947F9277247A947F927B2E05
S11323307F927A2E7F92792E7F928F93CF010E9483
S1132340420A0F900F900F900F900F900F90DC01A6
S1132350CB01898B9A8BAB8BBC8B8D899E898258E0
S11323609F4FFC01E080F180028113818D899E8959
S113237086589F4FFC012081318142815381898994
S11323809A89AB89BC89ED89FE8967017801890145
S11323909A01AC01BD01CF010E94860BDC01CB0187
S11323A0898B9A8BAB8BBC8B8D899E89FC01208198
S11323B0318189899A89AB89BC89AC01BD01C90184
S11323C00E94E9048D899E89FC01208131818985DF
S11323D09A85AB85BC85AC01BD01C9010E94470546
S11323E08D899E89FC012081318189819A81AB810B
S11323F0BC81AC01BD01C9010E940C058D899E8977
S1132400FC01208131818D859E85AF85B889AC0121
S1132410BD01C9010E946A0566960FB6F894DEBF35
S11324200FBECDBFDF91CF911F910F91FF90EF9021
S1132430DF90CF90BF90AF909F908F907F90089542
S11324402F923F924F925F926F927F928F929F92C0
S1132450AF92BF92CF92DF92EF92FF920F931F93AE
S1132460CF93DF93CDB7DEB72E970FB6F894DEBFC8
S11324700FBECDBF9A87898789859A85FC018081A3
S113248091810E941F07982F81E0913009F080E02C
S1132490882309F48CC089859A85FC01C6A0D7A03D
S11324A0E0A4F1A489859A85FC01808191810E9430
S11324B048076B877C878D879E8789859A85FC0171
S11324C022A033A044A055A089859A85FC0180816F
S11324D091810E9490073B014C0189859A85FC01FA
S11324E0808191810E944803DC01CB012F2D2F9321
S11324F02E2D2F932D2D2F932C2D2F93AB84BC8415
S1132500CD84DE8482017101A4019301BC01CD015B
S11325100E94250B0F900F900F900F90DC01CB01C0
S113252089839A83AB83BC8389859A85825A9F4F1A
S1132530FC01E080F1800281138189859A85865AA5
S11325409F4FFC01208131814281538189819A818D
S1132550AB81BC81E985FA856701780189019A011B
S1132560AC01BD01CF010E94C90ADC01CB018D83FE
S11325709E83AF83B88789859A85FC012081318148
S113258089819A81AB81BC81AC01BD01C9010E94E2
S1132590C60289859A85FC01208131818D819E81C5
S11325A0AF81B885AC01BD01C9010E94FC022E9621
S11325B00FB6F894DEBF0FBECDBFDF91CF911F9150
S11325C00F91FF90EF90DF90CF90BF90AF909F90CE
S11325D08F907F906F905F904F903F902F900895D1
S11325E02F923F924F925F926F927F928F929F921F
S11325F0AF92BF92CF92DF92EF92FF920F931F930D
S1132600CF93DF93CDB7DEB72E970FB6F894DEBF26
S11326100FBECDBF9A87898789859A85FC01808101
S113262091810E941F07982F81E0913009F080E08A
S1132630882309F48DC089859A85CE96FC01C080D3
S1132640D180E280F38089859A85FC018081918123
S11326500E9460076B877C878D879E8789859A8512
S1132660FC0122AC33AC44AC55AC89859A85FC01A1
S1132670808191810E94A8073B014C0189859A853C
S1132680FC01808191810E94D104DC01CB012F2DBA
S11326902F932E2D2F932D2D2F932C2D2F93AB84F1
S11326A0BC84CD84DE8482017101A4019301BC0148
S11326B0CD010E94250B0F900F900F900F90DC011D
S11326C0CB0189839A83AB83BC8389859A858A5994
S11326D09F4FFC01E080F1800281138189859A85F6
S11326E08E599F4FFC012081318142815381898120
S11326F09A81AB81BC81E985FA85670178018901FA
S11327009A01AC01BD01CF010E94C90ADC01CB01D1
S11327108D839E83AF83B88789859A85FC01208148
S1132720318189819A81AB81BC81AC01BD01C90130
S11327300E94430489859A85FC01208131818D8121
S11327409E81AF81B885AC01BD01C9010E947E04A0
S11327502E960FB6F894DEBF0FBECDBFDF91CF919A
S11327601F910F91FF90EF90DF90CF90BF90AF90AB
S11327709F908F907F906F905F904F903F902F909D
S11327800895CF93DF931F921F92CDB7DEB79A833C
S1132790898389819A812AE032E0FC013183208394
S11327A080E090E081709927009721F089819A81D7
S11327B00E94805C0F900F90DF91CF910895CF938A
S11327C0DF931F921F92CDB7DEB79A8389838981E5
S11327D09A810E94C11389819A810E94805C0F9022
S11327E00F90DF91CF910895CF93DF931F921F92A3
S11327F0CDB7DEB79A83898389819A81FC0180856C
S11328009185009739F089819A81FC0180859185B1
S11328100E9404660F900F90DF91CF910895CF939B
S1132820DF931F921F92CDB7DEB79A838983898184
S11328309A81FC0180859185009739F089819A817C
S1132840FC01808591850E94D8660F900F90DF91DE
S1132850CF910895CF93DF9300D01F92CDB7DEB709
S11328609C838B831A8219828B819C81FC018781D2
S11328708823B9F18B819C81FC0182819381A4819D
S1132880B581880F991FAA1FBB1F880F991FAA1F04
S1132890BB1F880F991FAA1FBB1F9C01AD0180E0BD
S11328A094E2A4EFB0E0BC01CD010E94036CDA0114
S11328B0C9010197A109B109BC01CD010E94756844
S11328C0DC01CB01BC01CD010E94B268DC01CB016B
S11328D0BC01CD010E944968DC01CB019A83898344
S11328E03AC08B819C81FC0182819381A481B58152
S11328F0880F991FAA1FBB1F880F991FAA1FBB1FF0
S1132900880F991FAA1FBB1F880F991FAA1FBB1FDF
S11329109C01AD0180E094E2A4EFB0E0BC01CD01E4
S11329200E94036CDA01C9010197A109B109BC0134
S1132930CD010E947568DC01CB01BC01CD010E9470
S1132940B268DC01CB01BC01CD010E944968DC0105
S1132950CB019A8389838B819C81FC0186818823A6
S113296099F584EC90E029813A81FC01318320833C
S113297082EC90E022EC30E0F90120812660FC0139
S113298020838B819C81FC018781882351F080EC1A
S113299090E020EC30E0F90120812260FC012083EA
S11329A009C080EC90E020EC30E0F90120812D7F1B
S11329B0FC01208381EC90E021EC30E0F9012081DE
S11329C02861FC01208338C08B819C81FC018681B5
S11329D0813091F58CEC90E029813A81FC013183BE
S11329E020838AEC90E02AEC30E0F9012081266013
S11329F0FC0120838B819C81FC018781882351F019
S1132A0088EC90E028EC30E0F90120812260FC01A0
S1132A10208309C088EC90E028EC30E0F9012081A3
S1132A202D7FFC01208389EC90E029EC30E0F90152
S1132A3020812861FC0120830F900F900F900F904C
S1132A40DF91CF910895CF93DF93CDB7DEB762972F
S1132A500FB6F894DEBF0FBECDBF9E878D874F871C
S1132A60588B698B7A8B1A8219821C821B821E8274
S1132A701D8218861F8219861A861B861C868F85DE
S1132A809889A989BA8989879A87AB87BC878D85F4
S1132A909E85FC01808191810696FC012081318113
S1132AA049858D859E85642FF90119959A838983BB
S1132AB08D859E85FC01808191810696FC01208193
S1132AC031814A858D859E85642FF90119959C83F2
S1132AD08B838D859E85FC01808191810696FC0106
S1132AE0208131814B858D859E85642FF90119954F
S1132AF09E838D838D859E85FC01808191810696C0
S1132B00FC01208131814C858D859E85642FF901DE
S1132B10199598878F8329813A818B819C81282BF1
S1132B20392B8D819E81282B392B8F819885822B7F
S1132B30932B62960FB6F894DEBF0FBECDBFDF9124
S1132B40CF910895CF93DF93CDB7DEB728970FB613
S1132B50F894DEBF0FBECDBF9E838D8378876F83CD
S1132B601A8219821C821B828D819E81FC018081C4
S1132B7091810696FC01208131818F819885892F6E
S1132B809927482F8D819E81642FF90119959A8385
S1132B9089838D819E81FC01808191810696FC014F
S1132BA0208131814F818D819E81642FF901199596
S1132BB09C838B8329813A818B819C81822B932BEB
S1132BC028960FB6F894DEBF0FBECDBFDF91CF912C
S1132BD00895CF93DF93CDB7DEB72E970FB6F89451
S1132BE0DEBF0FBECDBF9A8789874B875C876D8711
S1132BF07E871A8219821C821B821E821D8218867D
S1132C001F8289859A85FC01808191810696FC0149
S1132C10208131818B859C85AD85BE858B2F99273D
S1132C20AA27BB27482F89859A85642FF90119950E
S1132C309A83898389859A85FC018081918106968E
S1132C40FC01208131818B859C85AD85BE85CD01BC
S1132C50AA27BB27482F89859A85642FF9011995DE
S1132C609C838B8389859A85FC018081918106965A
S1132C70FC01208131818B859C85AD85BE85892FA2
S1132C809A2FAB2FBB27482F89859A85642FF9018A
S1132C9019959E838D8389859A85FC018081918114
S1132CA00696FC01208131814B8589859A85642FA4
S1132CB0F901199598878F8329813A818B819C81A9
S1132CC0282B392B8D819E81282B392B8F81988538
S1132CD0822B932B2E960FB6F894DEBF0FBECDBF7A
S1132CE0DF91CF910895CF93DF93CDB7DEB72E97C1
S1132CF00FB6F894DEBF0FBECDBF9A8789874B8786
S1132D005C876D877E871A8219821C821B821E82D1
S1132D101D8218861F8289859A85FC018081918194
S1132D200696FC01208131818B859C85AD85BE850D
S1132D308B2F9927AA27BB27482F89859A85642F2B
S1132D40F90119959A83898389859A85FC01808183
S1132D5091810696FC01208131818B859C85AD850E
S1132D60BE85CD01BB2797FDB095AB2F482F898534
S1132D709A85642FF90119959C838B8389859A859B
S1132D80FC01808191810696FC01208131818B8533
S1132D909C85AD85BE85892F9A2FAB2FBB27A7FDB8
S1132DA0BA95482F89859A85642FF90119959E83D0
S1132DB08D8389859A85FC01808191810696FC0129
S1132DC0208131814B8589859A85642FF901199574
S1132DD098878F8329813A818B819C81282B392B79
S1132DE08D819E81282B392B8F819885822B932B63
S1132DF02E960FB6F894DEBF0FBECDBFDF91CF91F4
S1132E000895AF92BF92CF92DF92EF92FF920F9309
S1132E101F93CF93DF93CDB7DEB76A970FB6F894BD
S1132E20DEBF0FBECDBF9A8B898B0B8B1C8B2D8B7A
S1132E303E8B4F8B588F698F7A8F1A8219821C822E
S1132E401B821E821D8218861F821A8619861C8682
S1132E501B861E861D86188A1F8689899A89DC012D
S1132E608D919C910696DC01ED91FC912B893C8916
S1132E704D895E896F89788D898D9A8D08E30E94CA
S1132E80256CA22EB32EC42ED52EE62EF72E082F97
S1132E90192F2A2D89899A89622F19959A838983F2
S1132EA089899A89FC01808191810696DC01ED91E2
S1132EB0FC912B893C894D895E896F89788D898D38
S1132EC09A8D00E30E94256CA22EB32EC42ED52E1B
S1132ED0E62EF72E082F192F2A2D89899A89622F19
S1132EE019959C838B8389899A89FC0180819181BE
S1132EF00696DC01ED91FC912B893C894D895E8914
S1132F006F89788D898D9A8D08E20E94256CA22E96
S1132F10B32EC42ED52EE62EF72E082F192F2A2DC8
S1132F2089899A89622F19959E838D8389899A89C3
S1132F30FC01808191810696DC01ED91FC912B8945
S1132F403C894D895E896F89788D898D9A8D00E2DF
S1132F500E94256CA22EB32EC42ED52EE62EF72E5B
S1132F60082F192F2A2D89899A89622F19959887F4
S1132F708F8389899A89FC01808191810696DC017D
S1132F80ED91FC912B893C894D895E896F89788DFF
S1132F90898D9A8D08E10E94256CA22EB32EC42E31
S1132FA0D52EE62EF72E082F192F2A2D89899A89D6
S1132FB0622F19959A87898789899A89FC0180816A
S1132FC091810696DC01ED91FC912B893C894D8918
S1132FD05E896F89788D898D9A8D00E10E94256CB8
S1132FE0A22EB32EC42ED52EE62EF72E082F192F7F
S1132FF02A2D89899A89622F19959C878B878989BB
S11330009A89FC01808191810696DC01ED91FC9105
S11330102B893C894D895E896F89788D898D9A8D3C
S113302008E00E94256CA22EB32EC42ED52EE62EC7
S1133030F72E082F192F2A2D89899A89622F19951D
S11330409E878D8789899A89FC0180819181069662
S1133050DC012D913C914B8989899A89642FF9016E
S11330601995988B8F8729813A818B819C81282B94
S1133070392B8D819E81282B392B8F819885282B84
S1133080392B89859A85282B392B8B859C85282B70
S1133090392B8D859E85282B392B8F859889822BFA
S11330A0932B6A960FB6F894DEBF0FBECDBFDF91A7
S11330B0CF911F910F91FF90EF90DF90CF90BF9031
S11330C0AF900895CF93DF9300D01F921F92CDB796
S11330D0DEB79C838B836D831A8219828B819C81DA
S11330E0FC0186818823A1F51AC08B819C81FC0197
S11330F080859185009759F08B819C81FC018085A6
S113310091850E94BE66882311F081E001C080E0B1
S1133110882329F08FEF9FEF9A8389830EC080EC78
S113312090E0FC018081882F90E08072992721E053
S1133130009709F020E02223C1F689819A81009743
S113314009F03EC086EC90E02D81FC01208338C05C
S11331508B819C81FC018681813091F51AC08B8121
S11331609C81FC0180859185009759F08B819C811D
S1133170FC01808591850E94BE66882311F081E060
S113318001C080E0882329F08FEF9FEF9A83898321
S11331900EC088EC90E0FC018081882F90E0807262
S11331A0992721E0009709F020E02223C1F68981C4
S11331B09A81009729F48EEC90E02D81FC01208304
S11331C089819A810F900F900F900F900F90DF914B
S11331D0CF910895CF93DF9300D000D0CDB7DEB761
S11331E09C838B837E836D831A8219828B819C815D
S11331F0FC018681882309F045C01AC08B819C811B
S1133200FC0180859185009759F08B819C81FC019C
S1133210808591850E94BE66882311F081E001C0FB
S113322080E0882329F08FEF9FEF9A8389830AC077
S113323080EC90E0FC0180818095881F8827881F9E
S11332408823E1F689819A81009709F065C080ECB2
S113325090E0FC018081882F90E08C71992721E017
S1133260009709F420E0222321F08EEF9FEF9A8348
S1133270898386EC90E0FC0120818D819E81FC0194
S113328020834AC08B819C81FC018681813009F0B6
S113329043C01AC08B819C81FC0180859185009775
S11332A059F08B819C81FC01808591850E94BE66CA
S11332B0882311F081E001C080E0882329F08FEF9A
S11332C09FEF9A8389830AC088EC90E0FC01808197
S11332D08095881F8827881F8823E1F689819A8131
S11332E00097D1F488EC90E0FC018081882F90E075
S11332F08C71992721E0009709F420E0222321F022
S11333008EEF9FEF9A8389838EEC90E0FC012081FD
S11333108D819E81FC01208389819A8126960FB636
S1133320F894DEBF0FBECDBFDF91CF910895CF9348
S1133330DF931F921F92CDB7DEB79A83898384E20D
S113334090E027E0FC01208383E390E023E330E076
S1133350F90120812260FC01208385E290E025E2CE
S113336030E0F90120812160FC01208384E390E0B6
S113337024E330E0F90120812260FC0120838CE405
S113338090E02CE430E0F90120812165FC012083E8
S11333900F900F90DF91CF910895CF93DF931F92F9
S11333A01F92CDB7DEB79A83898389819A81FC0104
S11333B08081813051F485E290E025E230E0F9012A
S11333C020812E7FFC0120830FC089819A81FC011A
S11333D08081823049F484E390E024E330E0F90111
S11333E020812D7FFC0120830F900F90DF91CF91DE
S11333F00895CF93DF931F921F92CDB7DEB79A83C0
S1133400898389819A81FC018081813051F485E22C
S113341090E025E230E0F90120812160FC01208365
S11334200FC089819A81FC018081823049F484E350
S113343090E024E330E0F90120812260FC01208344
S11334400F900F90DF91CF910895CF93DF9300D029
S1133450CDB7DEB79A8389836B838EE490E02B81AA
S1133460FC01208300008DE490E0FC0180818095C4
S1133470881F8827881F8823B1F70F900F900F901B
S1133480DF91CF910895CF93DF9300D01F92CDB7F2
S1133490DEB79A8389836B834C8389819A810E94E6
S11334A0CD1989819A816B810E94251A89819A811B
S11334B06C810E94251A89819A810E94F9190F90C2
S11334C00F900F900F90DF91CF910895CF93DF93DA
S11334D01F921F92CDB7DEB79A83898389819A811F
S11334E02CE832E0FC013183208380E090E081709D
S11334F09927009721F089819A810E94805C0F901E
S11335000F90DF91CF910895CF93DF931F921F9275
S1133510CDB7DEB79A83898389819A810E94661A1E
S113352089819A810E94805C0F900F90DF91CF91E6
S11335300895CF93DF93CDB7DEB728970FB6F894ED
S1133540DEBF0FBECDBF9A8389837C836B835E838A
S11335504D8338872F8389819A814D815E812B81A8
S11335603C81B9010E947D5B89819A8122E232E02B
S1133570FC013183208389819A81FC01178289812E
S11335809A812F813885FC013187208728960FB6D0
S1133590F894DEBF0FBECDBFDF91CF910895CF93D6
S11335A0DF931F921F92CDB7DEB79A83898381E29E
S11335B090E021E230E0F9012081622F29813A81F3
S11335C0F9014085518521E030E0042E02C0220F2C
S11335D0331F0A94E2F7262BFC0120830F900F90EF
S11335E0DF91CF910895CF93DF931F921F92CDB7B0
S11335F0DEB79A83898389819A81FC018781882334
S1133600E9F082E290E022E230E0F9012081622FC9
S113361029813A81F9014085518521E030E0042E69
S113362002C0220F331F0A94E2F720952623FC01DF
S1133630208389819A81FC0117821CC082E290E078
S113364022E230E0F9012081622F29813A81F901D7
S11336504085518521E030E0042E02C0220F331F43
S11336600A94E2F7262BFC01208389819A8121E0C8
S1133670FC0127830F900F90DF91CF910895CF9392
S1133680DF931F921F92CDB7DEB79A838983898116
S11336909A81FC01828D0F900F90DF91CF91089554
S11336A0EF92FF920F931F93CF93DF93CDB7DEB7C3
S11336B02C970FB6F894DEBF0FBECDBF9A838983D3
S11336C04B835C836D837E8338872F83E986FA86F8
S11336D00B871C8729813A818B819C81AD81BE81B6
S11336E0F90180839183A283B38389819A812F8195
S11336F03885FC013583248329853A8589819A811B
S1133700FC01378326832C960FB6F894DEBF0FBED8
S1133710CDBFDF91CF911F910F91FF90EF9008954E
S1133720EF92FF920F93CF93DF93CDB7DEB72A9733
S11337300FB6F894DEBF0FBECDBF9A8389834B8347
S11337405C836D837E832F830887FA86E98689816B
S11337509A812AE032E0FC013183208329813A8175
S11337608B819C81AD81BE81F90182839383A48383
S1133770B58389819A812F81FC01268389819A816D
S11337802885FC01278389819A8129853A85FC0152
S1133790318720872A960FB6F894DEBF0FBECDBFBF
S11337A0DF91CF910F91FF90EF900895CF93DF9326
S11337B000D01F92CDB7DEB79A8389837C836B8355
S11337C089819A812B813C81FC01318320830F9074
S11337D00F900F900F90DF91CF910895CF93DF93C7
S11337E01F921F92CDB7DEB79A83898389819A810C
S11337F0FC01108289819A81FC0111821282138258
S1133800148289819A81FC0115821682178210869E
S113381089819A81FC011186128613861486898116
S11338209A81FC01158616861786108A89819A81E9
S1133830FC01118A128A138A148A89819A81FC01F3
S1133840158A168A178A108E89819A81FC01118E35
S1133850128E138E148E89819A81FC01158E168E18
S1133860178E10A289819A81FC0111A212A213A2BF
S113387014A289819A81FC0115A216A217A210A68E
S113388089819A81FC0111A612A613A614A6898126
S11338909A81FC0115A616A617A610AA89819A81F9
S11338A0FC0111AA12AA13AA14AA89819A81FC0103
S11338B015AA16AA17AA10AE89819A81FC0111AE25
S11338C012AE13AE14AE89819A81CD96FC0110829A
S11338D011821282138289819A818F5B9F4FFC012E
S11338E0108211821282138289819A818B5B9F4F8D
S11338F0FC01108211821282138289819A81875B72
S11339009F4FFC01108211821282138289819A8155
S1133910835B9F4FFC011082118212821382898182
S11339209A818F5A9F4FFC01108211821282138256
S113393089819A818B5A9F4FFC01108211821282D5
S1133940138289819A81875A9F4FFC0110821182C8
S11339501282138289819A81835A9F4FFC011082BB
S113396011821282138289819A818F599F4FFC019F
S1133970108211821282138289819A818B599F4FFE
S1133980FC01108211821282138289819A818759E3
S11339909F4FFC01108211821282138289819A81C5
S11339A083599F4FFC0110821182128213828981F4
S11339B09A818F589F4FFC011082118212821382C8
S11339C089819A818B589F4FFC0110821182128247
S11339D0138289819A8187589F4FFC01108211823A
S11339E01282138289819A8183589F4FFC0110822D
S11339F011821282138289819A818F579F4FFC0111
S1133A00108211821282138289819A818B579F4F6F
S1133A10FC01108211821282138289819A81875754
S1133A209F4FFC01108211821282138289819A8134
S1133A3083579F4FFC011082118212821382898165
S1133A409A818F569F4FFC01108211821282138239
S1133A5089819A818B569F4FFC01108211821282B8
S1133A60138289819A8187569F4FFC0110821182AB
S1133A701282138289819A8183569F4FFC0110829E
S1133A8011821282138289819A818F559F4FFC0182
S1133A90108211821282138289819A818B559F4FE1
S1133AA0FC01108211821282138289819A818755C6
S1133AB09F4FFC01108211821282138289819A81A4
S1133AC083559F4FFC0110821182128213828981D7
S1133AD09A818F549F4FFC011082118212821382AB
S1133AE089819A818B549F4FFC011082118212822A
S1133AF0138289819A8187549F4FFC01108211821D
S1133B001282138289819A8183549F4FFC0110820F
S1133B1011821282138289819A818F539F4FFC01F3
S1133B20108211821282138289819A8187539F4F56
S1133B30FC01108211821282138289819A8183533B
S1133B409F4FFC01108211821282138289819A8113
S1133B508F529F4FFC01108211821282138289813D
S1133B609A818B529F4FFC01108211821282138220
S1133B7089819A8187529F4FFC011082118212829F
S1133B80138289819A8183529F4FFC011082118292
S1133B901282138289819A818F519F4FFC01108276
S1133BA011821282138289819A818B519F4FFC0169
S1133BB0108211821282138289819A8187519F4FC8
S1133BC0FC01108211821282138289819A818351AD
S1133BD09F4FFC01108211821282138289819A8183
S1133BE08F509F4FFC0110821182128213828981AF
S1133BF09A818B509F4FFC01108211821282138292
S1133C0089819A818B5F9E4FFC01108211821282FE
S1133C10138289819A81875F9E4FFC0110821182F1
S1133C201282138289819A81835F9E4FFC011082E4
S1133C3011821282138289819A818F5E9E4FFC01C8
S1133C40108211821282138289819A818B5E9E4F27
S1133C50FC01108211821282138289819A81875E0B
S1133C609E4FFC01108211821282138289819A81F3
S1133C70835E9E4FFC01108211821282138289811D
S1133C809A818F5D9E4FFC011082118212821382F1
S1133C9089819A818B5D9E4FFC0110821182128270
S1133CA0138289819A81875D9E4FFC011082118263
S1133CB01282138289819A81835D9E4FFC01108256
S1133CC011821282138289819A818F5C9E4FFC013A
S1133CD0108211821282138289819A818B5C9E4F99
S1133CE0FC0110821182128213820F900F90DF91D7
S1133CF0CF910895CF93DF9300D000D0CDB7DEB736
S1133D009A8389834B835C836D837E8329813A8183
S1133D108B819C81AD81BE81F90181839283A383D0
S1133D20B48326960FB6F894DEBF0FBECDBFDF91E5
S1133D30CF910895CF93DF9300D000D0CDB7DEB7F5
S1133D409A8389834B835C836D837E8329813A8143
S1133D508B819C81AD81BE81F90185879687A78778
S1133D60B08B26960FB6F894DEBF0FBECDBFDF91A1
S1133D70CF910895CF93DF9300D000D0CDB7DEB7B5
S1133D809A8389834B835C836D837E8329813A8103
S1133D908B819C81AD81BE81F90181A392A3A3A3F0
S1133DA0B4A326960FB6F894DEBF0FBECDBFDF9145
S1133DB0CF910895CF93DF9300D000D0CDB7DEB775
S1133DC09A8389834B835C836D837E8329813A81C3
S1133DD08B819C81AD81BE81F90181AB92ABA3AB98
S1133DE0B4AB26960FB6F894DEBF0FBECDBFDF91FD
S1133DF0CF910895CF93DF9300D000D0CDB7DEB735
S1133E009A8389834B835C836D837E8389819A81C2
S1133E109C01235B3F4F8B819C81AD81BE81F90165
S1133E2080839183A283B38326960FB6F894DEBF72
S1133E300FBECDBFDF91CF910895CF93DF9300D014
S1133E4000D0CDB7DEB79A8389834B835C836D83BF
S1133E507E8389819A819C01235A3F4F8B819C8167
S1133E60AD81BE81F90180839183A283B3832696B9
S1133E700FB6F894DEBF0FBECDBFDF91CF9108958A
S1133E80CF93DF9300D000D0CDB7DEB79A83898378
S1133E904B835C836D837E8389819A819C01235843
S1133EA03F4F8B819C81AD81BE81F90180839183D9
S1133EB0A283B38326960FB6F894DEBF0FBECDBFA0
S1133EC0DF91CF910895CF93DF9300D000D0CDB789
S1133ED0DEB79A8389834B835C836D837E83898178
S1133EE09A819C0123573F4F8B819C81AD81BE8178
S1133EF0F90180839183A283B38326960FB6F89445
S1133F00DEBF0FBECDBFDF91CF910895CF93DF9376
S1133F101F921F92CDB7DEB79A83898389819A81D4
S1133F2083569F4FFC0180819181A281B381BC01A2
S1133F30CD010F900F90DF91CF910895CF93DF9330
S1133F401F921F92CDB7DEB79A83898389819A81A4
S1133F508F559F4FFC0180819181A281B381BC0167
S1133F60CD010F900F90DF91CF910895CF93DF9300
S1133F7000D000D0CDB7DEB79A8389834B835C83AE
S1133F806D837E836B817C818D819E810E947768A5
S1133F90DC01CB0129813A8127543F4FF901808309
S1133FA09183A283B38326960FB6F894DEBF0FBE27
S1133FB0CDBFDF91CF910895CF93DF9300D000D090
S1133FC0CDB7DEB79A8389834B835C836D837E830D
S1133FD06B817C818D819E810E947768DC01CB019D
S1133FE029813A8123543F4FF90180839183A2832D
S1133FF0B38326960FB6F894DEBF0FBECDBFDF9114
S1134000CF910895CF93DF9300D000D0CDB7DEB722
S11340109A8389834B835C836D837E836B817C81EC
S11340208D819E810E947768DC01CB0129813A81D0
S11340302F533F4FF90180839183A283B383269644
S11340400FB6F894DEBF0FBECDBFDF91CF910895B8
S1134050CF93DF9300D0CDB7DEB79A8389836B8388
S113406089819A812B81FC0120830F900F900F90FE
S1134070DF91CF910895CF93DF931F921F92CDB715
S1134080DEB79A83898389819A8187509F4FFC0187
S113409080819181A281B381BC01CD010F900F90E9
S11340A0DF91CF910895CF93DF931F921F92CDB7E5
S11340B0DEB79A83898389819A8183509F4FFC015B
S11340C080819181A281B381BC01CD010F900F90B9
S11340D0DF91CF910895CF93DF931F921F92CDB7B5
S11340E0DEB79A83898389819A818F5F9E4FFC0111
S11340F080819181A281B381BC01CD010F900F9089
S1134100DF91CF910895CF93DF931F921F92CDB784
S1134110DEB79A83898389819A818F5E9E4FFC01E1
S113412080819181A281B381BC01CD010F900F9058
S1134130DF91CF910895CF93DF9300D000D0CDB716
S1134140DEB79A8389834B835C836D837E83898105
S11341509A819C012B533F4F8B819C81AD81BE8101
S1134160F90180839183A283B38326960FB6F894D2
S1134170DEBF0FBECDBFDF91CF910895CF93DF9304
S113418000D000D0CDB7DEB79A8389834B835C839C
S11341906D837E8329813A818B819C81AD81BE812F
S11341A0F901828B938BA48BB58B26960FB6F8946A
S11341B0DEBF0FBECDBFDF91CF910895CF93DF93C4
S11341C000D000D0CDB7DEB79A8389834B835C835C
S11341D06D837E8329813A818B819C81AD81BE81EF
S11341E0F901868B978BA08FB18F26960FB6F89422
S11341F0DEBF0FBECDBFDF91CF910895CF93DF9384
S113420000D000D0CDB7DEB79A8389834B835C831B
S11342106D837E8329813A818B819C81AD81BE81AE
S1134220F901828F938FA48FB58F26960FB6F894D9
S1134230DEBF0FBECDBFDF91CF910895CF93DF9343
S113424000D000D0CDB7DEB79A8389834B835C83DB
S11342506D837E8329813A818B819C81AD81BE816E
S1134260F901868F978FA0A3B1A326960FB6F89471
S1134270DEBF0FBECDBFDF91CF910895CF93DF9303
S113428000D000D0CDB7DEB79A8389834B835C839B
S11342906D837E8329813A818B819C81AD81BE812E
S11342A0F90182A393A3A4A3B5A326960FB6F89409
S11342B0DEBF0FBECDBFDF91CF910895CF93DF93C3
S11342C000D000D0CDB7DEB79A8389834B835C835B
S11342D06D837E8329813A818B819C81AD81BE81EE
S11342E0F90186A397A3A0A7B1A726960FB6F894C1
S11342F0DEBF0FBECDBFDF91CF910895CF93DF9383
S113430000D000D0CDB7DEB79A8389834B835C831A
S11343106D837E8389819A819C01265A3F4F8B81CC
S11343209C81AD81BE81F90180839183A283B38393
S113433026960FB6F894DEBF0FBECDBFDF91CF91A6
S11343400895CF93DF9300D000D0CDB7DEB79A8322
S113435089834B835C836D837E8389819A819C01ED
S1134360225A3F4F8B819C81AD81BE81F9018083AC
S11343709183A283B38326960FB6F894DEBF0FBE53
S1134380CDBFDF91CF910895CF93DF9300D000D0BC
S1134390CDB7DEB79A8389834B835C836D837E8339
S11343A029813A818B819C81AD81BE81F90182A7EB
S11343B093A7A4A7B5A726960FB6F894DEBF0FBEA1
S11343C0CDBFDF91CF910895CF93DF9300D000D07C
S11343D0CDB7DEB79A8389834B835C836D837E83F9
S11343E029813A818B819C81AD81BE81F90186A7A7
S11343F097A7A0ABB1AB26960FB6F894DEBF0FBE5D
S1134400CDBFDF91CF910895CF93DF9300D000D03B
S1134410CDB7DEB79A8389834B835C836D837E83B8
S113442029813A818B819C81AD81BE81F90182AB66
S113443093ABA4ABB5AB26960FB6F894DEBF0FBE14
S1134440CDBFDF91CF910895CF93DF9300D000D0FB
S1134450CDB7DEB79A8389834B835C836D837E8378
S113446029813A818B819C81AD81BE81F90186AB22
S113447097ABA0AFB1AF26960FB6F894DEBF0FBED0
S1134480CDBFDF91CF910895CF93DF9300D000D0BB
S1134490CDB7DEB79A8389834B835C836D837E8338
S11344A029813A818B819C81AD81BE81F90182AFE2
S11344B093AFA4AFB5AF26960FB6F894DEBF0FBE88
S11344C0CDBFDF91CF910895CF93DF9300D000D07B
S11344D0CDB7DEB79A8389834B835C836D837E83F8
S11344E089819A819C01225C3F4F8B819C81AD81A3
S11344F0BE81F90180839183A283B38326960FB68C
S1134500F894DEBF0FBECDBFDF91CF910895CF9356
S1134510DF9300D000D0CDB7DEB79A8389834B8375
S11345205C836D837E8389819A819C012E593F4FE0
S11345308B819C81AD81BE81F90180839183A283AB
S1134540B38326960FB6F894DEBF0FBECDBFDF91BE
S1134550CF910895CF93DF9300D000D0CDB7DEB7CD
S11345609A8389834B835C836D837E8389819A815B
S11345709C012A593F4F8B819C81AD81BE81F901F9
S113458080839183A283B38326960FB6F894DEBF0B
S11345900FBECDBFDF91CF910895CF93DF9300D0AD
S11345A000D0CDB7DEB79A8389834B835C836D8358
S11345B07E8389819A819C0126593F4F8B819C81FE
S11345C0AD81BE81F90180839183A283B383269652
S11345D00FB6F894DEBF0FBECDBFDF91CF91089523
S11345E0CF93DF9300D000D0CDB7DEB79A83898311
S11345F04B835C836D837E8389819A819C012259DC
S11346003F4F8B819C81AD81BE81F9018083918371
S1134610A283B38326960FB6F894DEBF0FBECDBF38
S1134620DF91CF910895CF93DF9300D000D0CDB721
S1134630DEB79A8389834B835C836D837E83898110
S11346409A819C0122583F4F8B819C81AD81BE8110
S1134650F90180839183A283B38326960FB6F894DD
S1134660DEBF0FBECDBFDF91CF910895CF93DF930F
S113467000D000D0CDB7DEB79A8389834B835C83A7
S11346806D837E8389819A819C0126583F4F8B815B
S11346909C81AD81BE81F90180839183A283B38320
S11346A026960FB6F894DEBF0FBECDBFDF91CF9133
S11346B00895CF93DF9300D000D0CDB7DEB79A83AF
S11346C089834B835C836D837E8389819A819C017A
S11346D02A583F4F8B819C81AD81BE81F901808333
S11346E09183A283B38326960FB6F894DEBF0FBEE0
S11346F0CDBFDF91CF910895CF93DF9300D000D049
S1134700CDB7DEB79A8389834B835C836D837E83C5
S113471089819A819C012E583F4F8B819C81AD8168
S1134720BE81F90180839183A283B38326960FB659
S1134730F894DEBF0FBECDBFDF91CF910895CF9324
S1134740DF9300D000D0CDB7DEB79A8389834B8343
S11347505C836D837E8329813A818B819C81AD81C9
S1134760BE81F90182879387A487B58726960FB601
S1134770F894DEBF0FBECDBFDF91CF910895CF93E4
S1134780DF9300D000D0CDB7DEB79A8389834B8303
S11347905C836D837E8329813A818B819C81AD8189
S11347A0BE81F90182839383A483B58326960FB6D1
S11347B0F894DEBF0FBECDBFDF91CF910895CF93A4
S11347C0DF9300D000D0CDB7DEB79A8389834B83C3
S11347D05C836D837E8329813A818B819C81AD8149
S11347E0BE81F90186839783A087B18726960FB689
S11347F0F894DEBF0FBECDBFDF91CF910895CF9364
S1134800DF9300D000D0CDB7DEB79A8389834B8382
S11348105C836D837E8389819A819C012E573F4FEF
S11348208B819C81AD81BE81F90180839183A283B8
S1134830B38326960FB6F894DEBF0FBECDBFDF91CB
S1134840CF910895CF93DF9300D000D0CDB7DEB7DA
S11348509A8389834B835C836D837E8329813A8128
S11348608B819C81AD81BE81F90186879787A08B5E
S1134870B18B26960FB6F894DEBF0FBECDBFDF9185
S1134880CF910895CF93DF9300D000D0CDB7DEB79A
S11348909A8389834B835C836D837E8389819A8128
S11348A09C012E5A3F4F8B819C81AD81BE81F901C1
S11348B080839183A283B38326960FB6F894DEBFD8
S11348C00FBECDBFDF91CF910895CF93DF9300D07A
S11348D000D0CDB7DEB79A8389834B835C836D8325
S11348E07E8389819A819C012A5A3F4F8B819C81C6
S11348F0AD81BE81F90180839183A283B38326961F
S11349000FB6F894DEBF0FBECDBFDF91CF910895EF
S1134910CF93DF9300D000D0CDB7DEB79A838983DD
S11349204B835C836D837E8389819A819C012A57A2
S11349303F4F8B819C81AD81BE81F901808391833E
S1134940A283B38326960FB6F894DEBF0FBECDBF05
S1134950DF91CF910895CF93DF9300D000D0CDB7EE
S1134960DEB79A8389834B835C836D837E838981DD
S11349709A819C0126573F4F8B819C81AD81BE81DA
S1134980F90180839183A283B38326960FB6F894AA
S1134990DEBF0FBECDBFDF91CF910895CF93DF93DC
S11349A000D01F92CDB7DEB79A8389837C836B8353
S11349B089819A812B813C81FC01378326830F9066
S11349C00F900F900F90DF91CF910895CF93DF93C5
S11349D000D0CDB7DEB79A8389836B8389819A81AE
S11349E02B81FC0120830F900F900F90DF91CF91CA
S11349F00895CF92DF92EF92FF920F931F93CF937C
S1134A00DF9300D01F92CDB7DEB79A8389837C836E
S1134A106B8389819A812B813C81FC0135A324A37A
S1134A2089819A81FC0117A216A289819A81FC01CD
S1134A3011A610A689819A81FC0113A612A6898168
S1134A409A81FC0115A614A689819A81FC0117A6F6
S1134A5016A689819A81FC0111AA10AA89819A81DA
S1134A60FC0112AA13AA14AA15AA89819A81FC012D
S1134A7016AA17AA10AE11AE89819A81FC0112AE52
S1134A8013AE14AE15AE89819A81CE96FC011082C4
S1134A9011821282138289819A818E5B9F4FFC015D
S1134AA0108211821282138289819A818A5B9F4FBC
S1134AB0FC01108211821282138289819A8144E25C
S1134AC050E060E070E00E948B6D89819A816C01F6
S1134AD01BEDE12E1FE0F12E09EC1FE320E030E096
S1134AE0A9016BED7FE089E490E40E945C600F9083
S1134AF00F900F900F90DF91CF911F910F91FF9026
S1134B00EF90DF90CF900895CF93DF9300D000D043
S1134B10CDB7DEB79A8389834B835C836D837E83B1
S1134B2029813A818B819C81AD81BE81F901808389
S1134B309183A283B38389819A81FC0114821582B3
S1134B401682178289819A81FC0110861186128649
S1134B50138689819A81FC01148615861686178628
S1134B6089819A81FC01108A118A128A138A8981A7
S1134B709A81FC01148A158A168A178A89819A8176
S1134B80FC01108E118E128E138E89819A81FC0184
S1134B90148E158E168E178E89819A81FC0110A2AF
S1134BA011A212A213A289819A81FC0114A215A256
S1134BB016A217A289819A81FC0110A611A612A639
S1134BC013A689819A81FC0114A615A616A617A618
S1134BD089819A81FC0110AA11AA12AA13AA8981B7
S1134BE09A81FC0114AA15AA16AA17AA89819A8186
S1134BF0FC0110AE11AE12AE13AE89819A81FC0194
S1134C0014AE15AE16AE17AE89819A819C01205C54
S1134C103F4F80E090E0A0E8BFE3F90180839183F7
S1134C20A283B38389819A818C5B9F4FFC0110829C
S1134C3011821282138289819A81885B9F4FFC01C1
S1134C40108211821282138289819A81845B9F4F20
S1134C50FC01108211821282138289819A819C0143
S1134C60205B3F4F80E090E0A0E8BFE3F901808340
S1134C709183A283B38389819A818C5A9F4FFC01CB
S1134C80108211821282138289819A81885A9F4FDD
S1134C90FC01108211821282138289819A81845AC2
S1134CA09F4FFC01108211821282138289819A81A2
S1134CB09C01205A3F4F80E090E0A0E8BFE3F90157
S1134CC080839183A283B38326960FB6F894DEBFC4
S1134CD00FBECDBFDF91CF910895CF93DF9300D066
S1134CE01F92CDB7DEB79A8389837C836B838981D6
S1134CF09A8140E050E0BA010E947A1E89819A812B
S1134D0040E050E0BA010E949A1E89819A814AE0EB
S1134D1057ED63EF71EC0E94401F89819A8140E056
S1134D2050E0BA010E94631F89819A8140E050E0FB
S1134D30BA010E94BA1E89819A8140E050E0BA010A
S1134D400E94DA1E89819A8140E050E0BA010E94F3
S1134D50FA1E89819A8140E050E0BA010E941D1F29
S1134D608B819C8140E050E060E470E40E949F23CA
S1134D708B819C814FE652E163E07CE30E94BF2378
S1134D808B819C814AE959E969E57FE30E94DF232D
S1134D908B819C814DEC5CEC6CEC7DE30E942224C5
S1134DA08B819C814FEC57EF63E97EE30E94FE20E8
S1134DB08B819C8140E050E0BA010E94BE208B812F
S1134DC09C8146EB53EF6DEE7FE30E94DE208B81E6
S1134DD09C8140E050E0BA010E941E218B819C819D
S1134DE046EB53EF6DEF7CE30E943E218B819C8167
S1134DF04FE852EC65EF7CE30E945E218B819C813D
S1134E004EE95FEE67EB7FE30E9404228B819C8175
S1134E1040E050E0BA010E94C4218B819C8140EFA4
S1134E2055E865E370E40E94E4218B819C8140E0B5
S1134E3050E0BA010E9424228B819C814FE75AE6FC
S1134E406CEB7DE30E9444228B819C8146EA5BE902
S1134E5064E47DE30E9464228B819C814DEC5CECD4
S1134E606CE47DE30E94FF238B819C8140E050E051
S1134E7060E87FE30E9488248B819C8140E050E0BD
S1134E8060E87FEB0E94AB248B819C814FE852EC5D
S1134E9065E77FEB0E9442248B819C814FE852ECB2
S1134EA065E77FE30E9465248B819C8140E050E0AC
S1134EB060E87FE30E94A1218B819C8140E050E067
S1134EC060E87FEB0E947E218B819C8140E050E072
S1134ED060E87FE30E94AA228B819C8140E050E03D
S1134EE060E87FEB0E9487228B819C8140E050E048
S1134EF060E07FE30E94F0228B819C8140E050E0DF
S1134F00BA010E94CD228B819C8142EC58EB62EB6A
S1134F107DE30E9413238B819C8142EC58EB62EB6E
S1134F207DEB0E9436238B819C8146E956E568E639
S1134F307EE30E9459238B819C8146E956E568E60D
S1134F407EEB0E947C230F900F900F900F90DF91C7
S1134F50CF910895CF92DF92EF92FF920F931F9318
S1134F60CF93DF93CDB7DEB7AF970FB6F894DEBF1C
S1134F700FBECDBF89E391E00E946F5C8C01C80134
S1134F800E94EE1B1B830A838EE890E00E946F5CF4
S1134F908C018A819B81BC01C8010E94C0071D83CA
S1134FA00C832C813D818A819B81B9010E946D26ED
S1134FB088E090E00E946F5C6C0114E6E12EF12C15
S1134FC000E010E020E034E040E054E264EF70E000
S1134FD0C6010E94501BDF82CE828AE090E00E94CC
S1134FE06F5C6C018E819F817C0101E020E040E9CF
S1134FF050ED63E070E0C6010E94901BD986C8861C
S113500088859985FC01808191810496FC01208129
S1135010318188859985F901199582E090E00E9493
S11350206F5C8C0188859985BC01C8010E94D61BE0
S11350301B870A878DE090E00E946F5C6C012C81D5
S11350403D814A815B818A859B856894EE24E2F8E0
S1135050F12C00E010E0BC01C6010E949858DD86E6
S1135060CC868BE090E00E946F5C7C014A815B817E
S11350708A859B8504E010E021E030E0BC01C70193
S11350800E94C65BFF86EE868AE090E00E946F5C19
S11350908C0123E030E046E450E062E070E0C801B7
S11350A00E94991A198B088B89E090E00E946F5C2A
S11350B08C018C819D8123E030E043E050E0BC0111
S11350C0C8010E9457571B8B0A8B89E090E00E940D
S11350D06F5C8C018C819D8123E030E044E050E0E2
S11350E0BC01C8010E94D3561D8B0C8B84E690E052
S11350F00E946F5C8C0140E050E0BA01C8010E943C
S113510084251F8B0E8B8BE090E00E946F5C7C01EA
S11351104A815B818E899F8901E010E025E030E0BF
S1135120BC01C7010E944A52F98EE88E81E090E0EA
S11351300E946F5C8C0161E0C8010E94E6241B8F11
S11351400A8F8A8D9B8D0E9497198AE490E00E94B1
S11351506F5C8C018A8D9B8DBC01C8010E94F9246F
S11351601D8F0C8F8C8D9D8D0E94664F0E94123076
S11351709F8F8E8F2A813B818E8D9F8DB9010E94D6
S1135180CE240E94CF4C99A388A32889398988A169
S113519099A1B9010E945F4D2C853D8588A199A1F3
S11351A0B9010E945F4D2E853F8588A199A1B9015F
S11351B00E945F4D2A893B8988A199A1B9010E9467
S11351C05F4D2C893D8988A199A1B9010E945F4D49
S11351D0288D398D88A199A1B9010E945F4D19824A
S11351E021C18C859D85FC0180819181FC012081F8
S11351F031818C859D85F90119958A819B810E9455
S1135200861FDC01CB0120E030E0A901BC01CD0107
S11352100E94D567882389F08A819B810E949E1F02
S1135220DC01CB0120E030E0A901BC01CD010E94EA
S1135230D567882311F081E001C080E0882309F458
S113524075C081E089838A819B810E943B20DC01B7
S1135250CB012A813B81AC01BD01C9010E94B61F6B
S11352608A819B810E945320DC01CB012A813B81EE
S1135270AC01BD01C9010E94DC1F8A819B810E948F
S11352806B20DC01CB012A813B81AC01BD01C9014A
S11352900E9402208A819B818C010B5E1E4F8A81B1
S11352A09B810E949E1F6B017C018A819B810E94CD
S11352B0861FDC01CB01A7019601BC01CD010E9430
S11352C0DA5C8A819B810E948320DC01CB0120E887
S11352D036EE45EC57E4BC01CD010E94DC67DC01ED
S11352E0CB0128E13CE543E45EE3BC01CD010E942F
S11352F0726ADC01CB019C01AD0160E070E080E8E2
S11353009FE30E94F766DC01CB0124EC3AE24DE214
S113531057E4BC01CD010E940F6ADC01CB012A8154
S11353203B81AC01BD01C9010E949B2080E090E05B
S1135330A8ECB2E48AA39BA3ACA3BDA320E030E015
S11353404AE755E46AA17BA18CA19DA10E940F6A42
S1135350DC01CB018EA39FA3A8A7B9A720E030E06E
S113536040E85FE36EA17FA188A599A50E94D56757
S113537088232CF481E090E09BA78AA746C020E014
S11353803FEF4FE757E46EA17FA188A599A50E943E
S1135390046A181684F520E030E040E251E46AA182
S11353A07BA18CA19DA10E940F6ADC01CB01BC01F1
S11353B0CD010E944968DC01CB019BA78AA712C0DA
S11353C080E991E09DA78CA78CA59DA58C01C801BF
S11353D00197F1F78C011DA70CA78AA59BA501973E
S11353E09BA78AA721E08AA59BA5009709F420E042
S11353F0222331F717C06EA17FA188A599A50E9429
S11354004968DC01CB019BA78AA78AA59BA59FA716
S11354108EA78EA59FA58C01F8013197F1F78F0116
S11354201FA70EA7998181E08927882309F0D9CE87
S11354308A819B8161E00E94282088A199A10E9411
S11354409A4D88A199A10E94724E8E8D9F8D0E94C3
S113545033308E8D9F8D0E946D3001C0000088A175
S113546099A10E94FB4D88A199A10E943F1B88230A
S1135470A9F38C819D810E94E20BF0CFCF93DF933F
S11354801F921F92CDB7DEB79A83898389819A814F
S113549022E232E0FC013183208389819A810E94D7
S11354A0661A80E090E081709927009721F0898145
S11354B09A810E94805C0F900F90DF91CF910895A4
S11354C0CF93DF931F921F92CDB7DEB79A83898360
S11354D089819A810E943E2A89819A810E94805CF6
S11354E00F900F90DF91CF9108950F931F93CF9357
S11354F0DF93CDB7DEB72D970FB6F894DEBF0FBE9E
S1135500CDBF9D838C837F836E83598748873B8778
S11355102A871D870C871A82198226C089819A815D
S11355202E813F81820F931FFC0180818B838A85AA
S11355309B85FC0190818B81292F280F8A859B856F
S1135540FC0120838C859D85FC0120818A859B85B7
S1135550FC018081280F8C859D85FC012083898135
S11355609A8101969A83898341E029813A818885C9
S11355709985281739070CF040E0442379F62D96D5
S11355800FB6F894DEBF0FBECDBFDF91CF911F9150
S11355900F910895CF92DF92EF92FF920F931F9392
S11355A0CF93DF93CDB7DEB764970FB6F894DEBF21
S11355B00FBECDBF9A8B898B7C8B6B8BEDB6FEB601
S11355C01A8219828B899C89009709F4C1C08DB70E
S11355D09EB76C018B899C89FC0180819181049622
S11355E0FC01208131818B899C89F90119959E8365
S11355F08D838B899C890E94B63098878F838F8195
S1135600988505969A87898789859A8501979C87C5
S11356108B8701962DB73EB7281B390B0FB6F8942C
S11356203EBF0FBE2DBF8DB79EB701969E878D8757
S11356308D859E8525EBFC0120838D859E8522E644
S1135640FC0121838D859E8527EDFC0122834F81FA
S113565058858D859E8503962D813E81B9010E94D2
S1135660826D1F86188AFE0170969E01215F3F4F4E
S11356704F8158856D817E8189899A898F010E9425
S1135680752A89859A8502974F852D853E85820FD7
S1135690931FFC01408389859A85019748892D854C
S11356A03E85820F931FFC01408389899A89FC01FE
S11356B0808191810E94F4131C821B8223C08989FA
S11356C09A89FC0180819181FC01808191810696F7
S11356D0FC01208131814D855E858B819C81840F05
S11356E0951FFC01408189899A89FC0180819181FF
S11356F0642FF90119959A8389838B819C81019682
S11357009C838B832B813C8189859A852817390753
S113571034F489819A81009711F481E001C080E01A
S1135720882369F689899A89FC01808191810E9484
S11357300F148D819E81009721F08D819E810E949E
S1135740A65C1E821D820FB6F894DEBE0FBECDBECF
S113575089819A810FB6F894FEBE0FBEEDBE6496A1
S11357600FB6F894DEBF0FBECDBFDF91CF911F916E
S11357700F91FF90EF90DF90CF900895CF92DF923A
S1135780EF92FF920F931F93CF93DF93CDB7DEB7C2
S113579066970FB6F894DEBF0FBECDBF9C8B8B8B84
S11357A07E8B6D8BEDB6FEB61A8219821B821C822B
S11357B01D868B899C89FC01808191810E94F41350
S11357C01DC08C818B838D858C838B899C89FC0186
S11357D080819181FC01808191814296FC0120812C
S11357E031818B899C89FC0180819181AE01435F69
S11357F05F4FBA01F90119959A8389838B81853B9F
S113580031F48C81823619F48D85873D31F089819C
S11358109A81009711F481E001C080E0882389F621
S113582089819A81009709F0F9C01E868B899C8929
S1135830FC0180819181FC01808191814296FC016F
S1135840208131818B899C89FC0180819181AE0109
S1135850425F5F4FBA01F90119959A83898389815F
S11358609A81009709F0DAC01E821D828E85882FE6
S113587090E08230910529F48DE191E09E838D833F
S113588005C08DEF9FEF9A838983000089819A81F7
S1135890009709F0C3C08DB79EB76C018D819E81BE
S11358A001979A87898701962DB73EB7281B390B34
S11358B00FB6F8943EBF0FBE2DBF8DB79EB70196AD
S11358C09C878B872E858B859C85FC01208381E0BA
S11358D090E098878F8321C08B899C89FC0180810B
S11358E09181FC01808191814296FC01208131816A
S11358F04B855C858F819885480F591F8B899C89BE
S1135900FC0180819181BA01F90119959A838983F7
S11359108F819885019698878F832F8138858D8113
S11359209E812817390734F489819A81009711F4EC
S113593081E001C080E0882379F689819A8100970B
S113594009F067C01F86188A198A1A8A8B899C896C
S1135950FC0180819181FC01808191814296FC014E
S1135960208131818B899C89FC0180819181AE01E8
S1135970415F5F4FBA01F90119959A8389838B8935
S11359809C89FC0180819181FC01808191814296F6
S1135990FC01208131818B899C89FC01808191816A
S11359A0AE01405F5F4FBA01F90119959A8389836B
S11359B06B857C85FE0172969E012F5E3F4F4D8163
S11359C05E818B899C898F010E94752A99898F85B4
S11359D09817D9F49A8988899817B9F48E85882FED
S11359E090E08230910559F48B859C850E94F541A5
S11359F09C018D899E89FC013183208305C08DEF34
S1135A009FEF9A838983000004C08CEF9FEF9A83F1
S1135A1089830FB6F894DEBE0FBECDBE89819A810C
S1135A20009729F08D899E89FC01118210828B894F
S1135A309C89FC01808191810E940F1489819A8143
S1135A400FB6F894FEBE0FBEEDBE66960FB6F89480
S1135A50DEBF0FBECDBFDF91CF911F910F91FF909D
S1135A60EF90DF90CF900895CF93DF931F921F9212
S1135A70CDB7DEB79A83898389819A81FC01178225
S1135A80168289819A81089640E250E060E070E0D5
S1135A900E948B6D89819A81FC011082118212828D
S1135AA0138289819A81FC01158214820F900F90D0
S1135AB0DF91CF910895CF93DF931F921F92CDB7BB
S1135AC0DEB79A83898389819A81FC0180819181DF
S1135AD0A281B381BC01CD010F900F90DF91CF91D2
S1135AE00895CF93DF9300D000D0CDB7DEB79A836B
S1135AF089834B835C836D837E8329813A818B8187
S1135B009C81AD81BE81F90180839183A283B3839B
S1135B1026960FB6F894DEBF0FBECDBFDF91CF91AE
S1135B200895CF93DF931F921F92CDB7DEB79A8368
S1135B30898389819A81FC01848195810F900F90DA
S1135B40DF91CF910895CF93DF9300D01F92CDB70B
S1135B50DEB79A8389837C836B8389819A812B81C5
S1135B603C81FC01358324830F900F900F900F909C
S1135B70DF91CF910895CF93DF931F921F92CDB7FA
S1135B80DEB79A83898389819A81FC018681978112
S1135B900F900F90DF91CF910895CF93DF93CDB7FE
S1135BA0DEB728970FB6F894DEBF0FBECDBF9A8339
S1135BB089837C836B832D833E834F8358878B81BA
S1135BC09C8188309105A4F429813A818B819C8140
S1135BD00296880F991F880F991F280F391F8D81EE
S1135BE09E81AF81B885F90180839183A283B383B9
S1135BF028960FB6F894DEBF0FBECDBFDF91CF91CC
S1135C000895CF93DF9300D01F92CDB7DEB79A8368
S1135C1089837C836B838B819C81883091058CF490
S1135C2029813A818B819C810296880F991F880F64
S1135C30991F820F931FFC0180819181A281B381FE
S1135C4003C080E090E0DC01BC01CD010F900F9017
S1135C500F900F90DF91CF910895CF93DF9300D0F1
S1135C6000D0CDB7DEB79E838D838D819E81AA2718
S1135C7097FDA095BA2FBC01CD010E947768DC0185
S1135C80CB0120E030E04AEF54E4BC01CD010E9496
S1135C90F766DC01CB012FE632E143E85AE3BC01AD
S1135CA0CD010E940F6ADC01CB0120E030E040E826
S1135CB05FE3BC01CD010E94F766DC01CB0189835F
S1135CC09A83AB83BC8320E030E040E85FE36981E2
S1135CD07A818B819C810E94046A18164CF480E0BE
S1135CE090E0A0E8BFE389839A83AB83BC8314C0AC
