S012000048656C69636F707465722E7372656303
S11300000C94BE000C94DF000C94DF000C94DF0011
S11300100C94DF000C94DF000C94DF000C94DF00E0
S11300200C94DF000C94DF000C94DF000C94DF00D0
S11300300C94DF000C94DF000C94DF000C94DF00C0
S11300400C94DF000C94401A0C94DF000C94DF0035
S11300500C94DF000C94DF000C94DF000C94DF00A0
S11300600C94DF000C94DF000C94DF000C94DF0090
S11300700C94DF000C94DF000C94DF000C94DF0080
S11300800C94DF000C94DF000C94DF000C94DF0070
S11300900C94DF000C94DF000C94DF000C94DF0060
S11300A00C94DF000C94DF000C94DF000C94DF0050
S11300B00C94DF000C94DF000C94DF000C94DF0040
S11300C00C94DF000C94DF000C94DF000C94DF0030
S11300D00C94DF000C94DF000C94DF000C94DF0020
S11300E00C94DF000C94EA0D0C94741E0C9400091B
S11300F00C94EB080C94C31A0C94D7060C94C80DFA
S11301000C94161B0C94E7100C9480110C94F610AC
S11301100C94A4060C9469080C94E6070C94A5119D
S11301200C94391E0C94021B0C944D130C941E0950
S11301300C94231F0C94381B0C94CE1E0C948D0726
S11301400C944B080C94C81C0C9462130C9469090D
S11301500C948D090C942B130C9428140C944911B1
S11301600C94011F0C94A2100C94C0100C946B11ED
S11301700C94241E0C94C2060C94021E11241FBE5F
S1130180CFEFD1E2DEBFCDBF00E00CBF12E0A0E0B4
S1130190B2E0E8EEF8E400E00BBF02C007900D9275
S11301A0A838B107D9F722E0A8E8B2E001C01D924F
S11301B0AE38B207E1F70E94D20C0C9472240C946E
S11301C00000CF93DF931F921F92CDB7DEB79A83BF
S11301D0898389819A81FC0186819781A085B18573
S11301E0BC01CD010F900F90DF91CF910895CF9373
S11301F0DF931F921F92CDB7DEB79A8389838981DB
S11302009A81FC0182859385A485B585BC01CD01C5
S11302100F900F90DF91CF910895CF93DF9300D08B
S113022000D0CDB7DEB79A8389834B835C836D831B
S11302307E8329813A818B819C81AD81BE81F901C4
S113024086879787A08BB18B26960FB6F894DEBF6E
S11302500FBECDBFDF91CF910895CF93DF931F924F
S11302601F92CDB7DEB79A83898389819A81FC0175
S113027082899389A489B589BC01CD010F900F901F
S1130280DF91CF910895CF93DF9300D000D0CDB705
S1130290DEB79A8389834B835C836D837E83298154
S11302A03A818B819C81AD81BE81F901828B938BD4
S11302B0A48BB58B26960FB6F894DEBF0FBECDBFC8
S11302C0DF91CF910895CF93DF931F921F92CDB703
S11302D0DEB79A83898389819A81FC01868997890B
S11302E0A08DB18DBC01CD010F900F90DF91CF9106
S11302F00895CF93DF931F921F92CDB7DEB79A83F1
S1130300898389819A81FC01828D938DA48DB58D19
S1130310BC01CD010F900F90DF91CF910895CF9341
S1130320DF931F921F92CDB7DEB79A8389838981A9
S11303309A81FC01868D978DA0A1B1A1BC01CD014C
S11303400F900F90DF91CF910895CF93DF9300D05A
S113035000D0CDB7DEB79A8389834B835C836D83EA
S11303607E8329813A818B819C81AD81BE81F90193
S1130370868F978FA0A3B1A326960FB6F894DEBFFD
S11303800FBECDBFDF91CF910895CF93DF9300D0FF
S113039000D0CDB7DEB79A8389834B835C836D83AA
S11303A07E8329813A818B819C81AD81BE81F90153
S11303B082A393A3A4A3B5A326960FB6F894DEBF95
S11303C00FBECDBFDF91CF910895CF93DF9300D0BF
S11303D000D0CDB7DEB79A8389834B835C836D836A
S11303E07E8329813A818B819C81AD81BE81F90113
S11303F086A397A3A0A7B1A726960FB6F894DEBF4D
S11304000FBECDBFDF91CF910895CF93DF9300D07E
S113041000D0CDB7DEB79A8389837C836B835E83F8
S11304204D8389819A812B813C81FC013183208316
S113043089819A812D813E81FC01338322838981C4
S11304409A81FC01148215821682178289819A810D
S1130450FC01108611861286138689819A81FC011B
S1130460148615861686178689819A81FC01108A5E
S1130470118A128A138A89819A81FC01148A158A45
S1130480168A178A89819A81FC01108E118E128E28
S1130490138E89819A81FC01148E158E168E178E07
S11304A089819A81FC0110A211A212A213A289814E
S11304B09A81FC0114A215A216A217A289819A811D
S11304C0FC0110A611A612A613A626960FB6F89440
S11304D0DEBF0FBECDBFDF91CF9108950F931F9361
S11304E0CF93DF93CDB7DEB72E970FB6F894DEBF68
S11304F00FBECDBF9E838D834F83588769877A87CC
S11305000B871C872D873E872B853C854D855E8513
S11305106F81788589859A850E947720DC01CB01DB
S113052089839A83AB83BC8320E030E044E353E4C3
S113053069817A818B819C810E947E2288238CF040
S113054020E030E044EB53E469817A818B819C8123
S11305500E947720DC01CB0189839A83AB83BC831F
S11305601CC020E030E044E353EC69817A818B8144
S11305709C810E94DC20882384F420E030E044EB5A
S113058053E469817A818B819C810E947820DC010B
S1130590CB0189839A83AB83BC8389819A81AB81A4
S11305A0BC81BC01CD012E960FB6F894DEBF0FBE00
S11305B0CDBFDF91CF911F910F910895CF92DF921C
S11305C0EF92FF92CF93DF93CDB7DEB72A970FB6A2
S11305D0F894DEBF0FBECDBF9E838D834F835887B3
S11305E069877A8719821A821B821C828D819E8177
S11305F0FC01808D918DA28DB38D2F813885498525
S11306005A85BC01CD010E94DC2088232CF58D8104
S11306109E81FC01C088D188E288F3888D819E8107
S1130620FC01808D918DA28DB38D9C01AD016F81F4
S1130630788589859A850E947720DC01CB019C010D
S1130640AD01C701B6010E948222DC01CB0189837E
S11306509A83AB83BC8335C08D819E81FC018489E0
S11306609589A689B7892F81388549855A85BC0122
S1130670CD010E947E22181624F58D819E81FC01F5
S1130680C088D188E288F3888D819E81FC018489A9
S11306909589A689B7899C01AD016F817885898583
S11306A09A850E947720DC01CB019C01AD01C70132
S11306B0B6010E948222DC01CB0189839A83AB8339
S11306C0BC8389819A81AB81BC81BC01CD012A960E
S11306D00FB6F894DEBF0FBECDBFDF91CF91FF9070
S11306E0EF90DF90CF900895CF92DF92EF92FF9238
S11306F00F931F93CF93DF93CDB7DEB762970FB6F7
S1130700F894DEBF0FBECDBF9E838D834F83588781
S113071069877A870B871C872D873E87CF86D88A7F
S1130720E98AFA8A19821A821B821C828D819E812F
S1130730FC0180A191A1A2A1B3A12F813885498593
S11307405A85BC01CD010E948222DC01CB012B859C
S11307503C854D855E85BC01CD010E947820DC017D
S1130760CB0189839A83AB83BC8320E030E0A90169
S11307706F85788989899A890E94DC20882309F405
S113078052C020E030E0A90169817A818B819C818B
S11307900E947E2218168CF429813A814B815C8157
S11307A06F85788989899A890E947E2218162CF48B
S11307B019821A821B821C821BC020E030E0A9012E
S11307C069817A818B819C810E94DC20882384F456
S11307D029813A814B815C816F85788989899A89DD
S11307E00E94DC20882324F419821A821B821C8232
S11307F020E030E0A90169817A818B819C810E948B
S1130800DC20882381F02F85388949895A896981B8
S11308107A818B819C810E947720DC01CB018983C2
S11308209A83AB83BC8389819A81AB81BC81BC01EF
S1130830CD0162960FB6F894DEBF0FBECDBFDF9137
S1130840CF911F910F91FF90EF90DF90CF9008957B
S11308500F931F93CF93DF93CDB7DEB72A970FB6CD
S1130860F894DEBF0FBECDBF9A8389834B835C832C
S11308706D837E830F83188729873A872F81388574
S113088049855A856B817C818D819E810E94772068
S1130890DC01CB01BC01CD012A960FB6F894DEBF72
S11308A00FBECDBFDF91CF911F910F910895CF92CD
S11308B0DF92EF92FF920F931F93CF93DF93CDB705
S11308C0DEB762970FB6F894DEBF0FBECDBF9E832E
S11308D08D834F83588769877A870B871C872D8779
S11308E03E87CF86D88AE98AFA8A19821A821B82BD
S11308F01C828D819E81FC0184819581A681B781B2
S11309002F85388949895A89BC01CD010E948222E8
S1130910DC01CB016C017D018D819E81FC0184850C
S11309209585A685B7852F81388549855A85BC016B
S1130930CD010E948222DC01CB019C01AD01C701E3
S1130940B6010E947820DC01CB016C017D018D8110
S11309509E81FC0180859185A285B3852B853C858C
S11309604D855E85BC01CD010E948222DC01CB0154
S11309709C01AD01C701B6010E947820DC01CB01C6
S113098089839A83AB83BC838D819E81FC0184A17E
S113099095A1A6A1B7A129813A814B815C81BC01B3
S11309A0CD010E94DC20882364F48D819E81FC01AA
S11309B084A195A1A6A1B7A189839A83AB83BC83A3
S11309C01CC08D819E81FC0180A591A5A2A5B3A523
S11309D029813A814B815C81BC01CD010E947E2238
S11309E018165CF48D819E81FC0180A591A5A2A5B9
S11309F0B3A589839A83AB83BC8389819A81AB81B4
S1130A00BC81BC01CD0162960FB6F894DEBF0FBE67
S1130A10CDBFDF91CF911F910F91FF90EF90DF90A9
S1130A20CF900895CF93DF93CDB7DEB72A970FB653
S1130A30F894DEBF0FBECDBF9E838D834F8358874E
S1130A4069877A878F819885A985BA8589839A83EE
S1130A50AB83BC838D819E81FC01848D958DA68D95
S1130A60B78D9C01AD0169817A818B819C810E9443
S1130A707820DC01CB0189839A83AB83BC838D818D
S1130A809E81FC01808D918DA28DB38D29813A8147
S1130A904B815C81BC01CD010E94DC20882364F47D
S1130AA08D819E81FC01808D918DA28DB38D898372
S1130AB09A83AB83BC831CC08D819E81FC01848995
S1130AC09589A689B78929813A814B815C81BC01CA
S1130AD0CD010E947E2218165CF48D819E81FC015A
S1130AE084899589A689B78989839A83AB83BC83D2
S1130AF089819A81AB81BC81BC01CD012A960FB654
S1130B00F894DEBF0FBECDBFDF91CF910895CF9291
S1130B10DF92EF92FF920F931F93CF93DF93CDB7A2
S1130B20DEB76A970FB6F894DEBF0FBECDBF9A8FBB
S1130B30898F898D9A8DFC01808191810E94F700B3
S1130B406B017C01898D9A8DFC01808191810E94C9
S1130B50E100DC01CB01E98DFA8D97018601AC013E
S1130B60BD01CF010E946E02DC01CB0189839A830F
S1130B70AB83BC83898D9A8DFC01808191810E9415
S1130B802D01DC01CB01298D3A8DAC01BD01C901D8
S1130B900E94DE02DC01CB018D839E83AF83B88784
S1130BA0898D9A8DFC01808191810E948F019B0126
S1130BB0AC01ED80FE800F81188589819A81AB811B
S1130BC0BC81E98DFA8D6701780189019A01AC0134
S1130BD0BD01CF010E947403DC01CB0189879A8790
S1130BE0AB87BC87898D9A8DFC01808191810E949D
S1130BF079016B017C01898D9A8DFC018081918141
S1130C000E946301DC01CB01E98DFA8D9701860115
S1130C10AC01BD01CF010E942804DC01CB018D870A
S1130C209E87AF87B88BE984FA840B851C852D8554
S1130C303E854F85588989819A81AB81BC81E98D34
S1130C40FA8D6701780189019A01AC01BD01CF01D8
S1130C500E945704DC01CB01898B9A8BAB8BBC8B34
S1130C6089899A89AB89BC89298D3A8DAC01BD01EA
S1130C70C9010E941205DC01CB018D8B9E8BAF8BC9
S1130C80B88F898D9A8DFC01208131818D899E894F
S1130C90AF89B88DAC01BD01C9010E940D01898DD8
S1130CA09A8DFC012081318189899A89AB89BC891B
S1130CB0AC01BD01C9010E944301898D9A8DFC01DB
S1130CC02081318189859A85AB85BC85AC01BD01C4
S1130CD0C9010E94A501898D9A8DFC012081318171
S1130CE089819A81AB81BC81AC01BD01C9010E949B
S1130CF0C501898D9A8DFC01208131818D859E8568
S1130D00AF85B889AC01BD01C9010E94E501898D97
S1130D109A8DFC01228133818D899E89AF89B88D9A
S1130D20AC01BD01C9010E947E086A960FB6F89411
S1130D30DEBF0FBECDBFDF91CF911F910F91FF900A
S1130D40EF90DF90CF900895CF93DF931F921F927F
S1130D50CDB7DEB79A83898389819A812AE032E00C
S1130D60FC013183208380E090E081709927009713
S1130D7021F089819A810E94491F0F900F90DF9181
S1130D80CF910895CF93DF931F921F92CDB7DEB713
S1130D909A83898389819A810E94A40689819A8190
S1130DA00E94491F0F900F90DF91CF910895CF9328
S1130DB0DF9300D01F92CDB7DEB79C838B831A825A
S1130DC019828B819C81FC0182858823B9F18B81F6
S1130DD09C81FC0182819381A481B581880F991F34
S1130DE0AA1FBB1F880F991FAA1FBB1F880F991F1B
S1130DF0AA1FBB1F9C01AD0180E094E2A4EFB0E008
S1130E00BC01CD010E94F922DA01C9010197A109AF
S1130E10B109BC01CD010E947921DC01CB01BC01E7
S1130E20CD010E94B621DC01CB01BC01CD010E94A1
S1130E304D21DC01CB019A8389833AC08B819C814B
S1130E40FC0182819381A481B581880F991FAA1F17
S1130E50BB1F880F991FAA1FBB1F880F991FAA1FAA
S1130E60BB1F880F991FAA1FBB1F9C01AD0180E007
S1130E7094E2A4EFB0E0BC01CD010E94F922DA01B2
S1130E80C9010197A109B109BC01CD010E947921D1
S1130E90DC01CB01BC01CD010E94B621DC01CB01F8
S1130EA0BC01CD010E944D21DC01CB019A838983D1
S1130EB08B819C81FC018681882341F584EC90E040
S1130EC029813A81FC013183208382EC90E022EC79
S1130ED030E0F90120812660FC0120838B819C8114
S1130EE0FC018285882349F080EC90E020EC30E01E
S1130EF0F90120812260FC01208381EC90E021EC47
S1130F0030E0F90120812861FC0120830F900F90CB
S1130F100F900F90DF91CF910895CF93DF9300D07E
S1130F20CDB7DEB79A8389836B8389819A81FC016B
S1130F308681882309F042C089819A81FC018185D8
S1130F40882309F189819A81FC01878190850E9417
S1130F50841F19C089819A81FC0181858823A1F0AD
S1130F6089819A81FC01878190850E943E20882393
S1130F7059F089819A81FC01878190850E945820CB
S1130F808FEF9FEF1DC0000080EC90E0FC0180819A
S1130F90882F90E08072992721E0009709F020E0E3
S1130FA02223C1F686EC90E02B81FC012083898109
S1130FB09A81FC01878190850E94582080E090E00E
S1130FC00F900F900F90DF91CF910895CF93DF93FF
S1130FD000D01F921F92CDB7DEB79B838A837D8397
S1130FE06C8319828A819B81FC018681882309F0A4
S1130FF041C08A819B81FC0181858823D9F08A8143
S11310009B81FC01878190850E94841F13C08A8183
S11310109B81FC01878190850E943E20882359F0A2
S11310208A819B81FC01878190850E9458208FEFE3
S11310309FEF29C0000080EC90E0FC018081809546
S1131040881F8827881F882311F780EC90E0FC0113
S11310508081882F90E08870992721E0009709F417
S113106020E0298386EC90E0FC0120818C819D8125
S1131070FC0120838A819B81FC01878190850E94E9
S1131080582080E090E00F900F900F900F900F90F9
S1131090DF91CF910895CF93DF931F921F92CDB725
S11310A0DEB79A83898389819A8128E132E0FC0141
S11310B03183208380E090E081709927009721F0AC
S11310C089819A810E94491F0F900F90DF91CF91DF
S11310D00895CF93DF931F921F92CDB7DEB79A8303
S11310E0898389819A810E944B0889819A810E940F
S11310F0491F0F900F90DF91CF910895CF93DF9305
S1131100CDB7DEB72A970FB6F894DEBF0FBECDBFBA
S11311109E838D834F83588769877A878F819885CB
S1131120A985BA8589839A83AB83BC838D819E818B
S1131130FC0186819781A085B18529813A814B8103
S11311405C81BC01CD010E94DC2088235CF48D818C
S11311509E81FC0186819781A085B18589839A83CC
S1131160AB83BC838D819E81FC0182819381A481A8
S1131170B58129813A814B815C81BC01CD010E94FA
S11311807E2218165CF48D819E81FC0182819381FC
S1131190A481B58189839A83AB83BC838D819E812D
S11311A0FC01808191810496FC0120813181898137
S11311B09A81AB81BC81ED81FE81AC01BD01CF017F
S11311C0F90119952A960FB6F894DEBF0FBECDBF6C
S11311D0DF91CF910895CF93DF9300D000D0CDB7A6
S11311E0DEB79A8389834B835C836D837E832696E3
S11311F00FB6F894DEBF0FBECDBFDF91CF91089537
S1131200CF93DF931F921F92CDB7DEB79A83898362
S113121089819A8120E732E0FC013183208380E0D8
S113122090E081709927009721F089819A810E942A
S1131230491F0F900F90DF91CF910895CF93DF93C3
S11312401F921F92CDB7DEB79A83898389819A81D1
S11312500E94000989819A810E94491F0F900F9072
S1131260DF91CF910895CF93DF93CDB7DEB7289761
S11312700FB6F894DEBF0FBECDBF9A8389837C83FB
S11312806B835E834D8338872F8389819A814D8157
S11312905E812B813C81B9010E94461E89819A811D
S11312A022E232E0FC013183208389819A81FC01AE
S11312B0178289819A812F813885FC0131872087A3
S11312C028960FB6F894DEBF0FBECDBFDF91CF9145
S11312D00895CF93DF931F921F92CDB7DEB79A8301
S11312E0898381E290E021E230E0F9012081622FDC
S11312F029813A81F9014085518521E030E0042EAD
S113130002C0220F331F0A94E2F7262BFC0120832C
S11313100F900F90DF91CF910895CF93DF931F9299
S11313201F92CDB7DEB79A83898389819A81FC01A4
S113133087818823E9F082E290E022E230E0F9013B
S11313402081622F29813A81F9014085518521E06C
S113135030E0042E02C0220F331F0A94E2F72095D6
S11313602623FC01208389819A81FC0117821CC0F9
S113137082E290E022E230E0F9012081622F2981AB
S11313803A81F9014085518521E030E0042E02C004
S1131390220F331F0A94E2F7262BFC012083898154
S11313A09A8121E0FC0127830F900F90DF91CF9168
S11313B00895EF92FF920F931F93CF93DF93CDB7CE
S11313C0DEB72C970FB6F894DEBF0FBECDBF9A835D
S11313D089834B835C836D837E8338872F83E9867F
S11313E0FA860B871C8729813A818B819C81AD8188
S11313F0BE81F90180839183A283B38389819A8119
S11314002F813885FC013583248329853A85898198
S11314109A81FC01378326832C960FB6F894DEBF9D
S11314200FBECDBFDF91CF911F910F91FF90EF9031
S11314300895CF92EF920F931F93CF93DF93CDB77D
S1131440DEB72B970FB6F894DEBF0FBECDBF9A83DD
S113145089834B835C836D837E832F8319870887FD
S1131460EA86CB8689819A812AE032E0FC013183C5
S1131470208329813A818B819C81AD81BE81F901D0
S113148082839383A483B58389819A812F81FC010C
S1131490268389819A8128853985FC0130872783B1
S11314A089819A812A85FC01218789819A812B85EA
S11314B0FC0122872B960FB6F894DEBF0FBECDBF7A
S11314C0DF91CF911F910F91EF90CF900895CF931B
S11314D0DF9300D01F92CDB7DEB79A8389837C83D4
S11314E06B8389819A812B813C81FC013183208328
S11314F00F900F900F900F90DF91CF910895CF939D
S1131500DF931F921F92CDB7DEB79A8389838981B7
S11315109A81FC011182108289819A81FC011382D3
S1131520128289819A81FC011582148289819A81AF
S1131530FC01168217821086118689819A81FC012A
S1131540128613861486158689819A81FC01168673
S11315501786108A118A89819A81FC01128A138A5A
S1131560148A158A89819A81FC01168A178A108E39
S1131570118E89819A81FC01128E138E148E158E20
S113158089819A81FC01168E178E10A211A289817D
S11315909A81FC0112A213A214A215A289819A8134
S11315A0FC0116A217A210A611A689819A81FC013A
S11315B013A612A689819A81FC0115A614A6898115
S11315C09A81FC0117A616A60F900F90DF91CF9178
S11315D00895CF93DF9300D000D0CDB7DEB79A83C0
S11315E089834B835C836D837E8329813A818B81DC
S11315F09C81AD81BE81F90182879387A487B587D9
S113160026960FB6F894DEBF0FBECDBFDF91CF9103
S11316100895CF93DF9300D000D0CDB7DEB79A837F
S113162089834B835C836D837E8329813A818B819B
S11316309C81AD81BE81F901828F938FA48FB58F78
S113164026960FB6F894DEBF0FBECDBFDF91CF91C3
S11316500895CF93DF931F921F92CDB7DEB79A837D
S1131660898389819A8128E132E0FC0131832083D6
S113167089819A81FC0112821382148215828981E4
S11316809A81FC0116821782108611860F900F90A2
S1131690DF91CF910895CF93DF9300D000D0CDB7E1
S11316A0DEB79A8389834B835C836D837E83298130
S11316B03A818B819C81AD81BE81F90184879587B4
S11316C0A687B78726960FB6F894DEBF0FBECDBFA8
S11316D0DF91CF910895CF93DF9300D000D0CDB7A1
S11316E0DEB79A8389834B835C836D837E832981F0
S11316F03A818B819C81AD81BE81F901848395837C
S1131700A683B78326960FB6F894DEBF0FBECDBF6F
S1131710DF91CF910895CF93DF9300D000D0CDB760
S1131720DEB79A8389834B835C836D837E832981AF
S11317303A818B819C81AD81BE81F901808791873B
S1131740A287B38726960FB6F894DEBF0FBECDBF2F
S1131750DF91CF910895CF93DF9300D000D0CDB720
S1131760DEB79A8389834B835C836D837E8329816F
S11317703A818B819C81AD81BE81F90180A391A3C3
S1131780A2A3B3A326960FB6F894DEBF0FBECDBFB7
S1131790DF91CF910895CF93DF9300D000D0CDB7E0
S11317A0DEB79A8389834B835C836D837E8329812F
S11317B03A818B819C81AD81BE81F901808B918BB3
S11317C0A28BB38B26960FB6F894DEBF0FBECDBFA7
S11317D0DF91CF910895CF93DF9300D000D0CDB7A0
S11317E0DEB79A8389834B835C836D837E832981EF
S11317F03A818B819C81AD81BE81F901848B958B6B
S1131800A68BB78B26960FB6F894DEBF0FBECDBF5E
S1131810DF91CF910895CF93DF9300D000D0CDB75F
S1131820DEB79A8389834B835C836D837E832981AE
S11318303A818B819C81AD81BE81F901808F918F2A
S1131840A28FB38F26960FB6F894DEBF0FBECDBF1E
S1131850DF91CF910895CF93DF9300D000D0CDB71F
S1131860DEB79A8389834B835C836D837E8329816E
S11318703A818B819C81AD81BE81F90184A395A3BA
S1131880A6A3B7A326960FB6F894DEBF0FBECDBFAE
S1131890DF91CF910895CF93DF9300D000D0CDB7DF
S11318A0DEB79A8389834B835C836D837E8329812E
S11318B03A818B819C81AD81BE81F90180A791A77A
S11318C0A2A7B3A726960FB6F894DEBF0FBECDBF6E
S11318D0DF91CF910895CF93DF9300D01F92CDB7BE
S11318E0DEB79A8389837C836B8389819A8140E004
S11318F050E0BA010E94E90A89819A8140E050E0EF
S1131900BA010E94090B8B819C8140E050E060E4A5
S113191070E40E944B0B8B819C814FE652E163E0A3
S11319207CE30E946B0B8B819C814AE959E969E550
S11319307FE30E948B0B8B819C814DEC5CEC6CE40F
S11319407DE30E94AB0B8B819C814DEC5CEC6CECD9
S11319507DE30E94CB0B8B819C814DEC5CEC6CE4B1
S11319607FEB0E94EB0B8B819C814DEC5CEC6CE477
S11319707FE30E940B0C8B819C8140E050E060E887
S11319807FE30E942B0C8B819C8140E050E060E857
S11319907FEB0E944B0C0F900F900F900F90DF91F4
S11319A0CF910895AF92BF92CF92DF92EF92FF92C0
S11319B00F931F93CF93DF93CDB7DEB766970FB620
S11319C0F894DEBF0FBECDBF80E390E00E94381FC5
S11319D08C01C8010E947F0A1A8309838AE090E07F
S11319E00E94381F8C01C8010E94290B1C830B83A1
S11319F08CE290E00E94381F8C012B813C8189810C
S1131A009A81A901BC01C8010E9405021E830D83AD
S1131A102D813E8189819A81B9010E946B0C88E0F5
S1131A2090E00E94381F6C011AE0E12EF12C00E0D6
S1131A3010E020E034E040E054E264EF70E0C601DE
S1131A400E94D909D886CF828BE090E00E94381F8B
S1131A505C018F819885CC24C394EE24E3948C019B
S1131A6020E040E051EE60E070E0C5010E94190AF8
S1131A70BA86A98689859A85FC018081918104961C
S1131A80FC012081318189859A85F901199582E0CB
S1131A9090E00E94381F8C0189859A85BC01C80199
S1131AA00E94670A1C870B878BE090E00E94381F16
S1131AB07C0149815A818B859C8504E010E020E0FB
S1131AC030E0BC01C7010E94891CFE86ED868BE0D4
S1131AD090E00E94381F7C0149815A818B859C8546
S1131AE004E010E021E030E0BC01C7010E948F1E39
S1131AF0F88AEF868AE090E00E94381F8C0123E088
S1131B0030E048EC50E062E070E0C8010E94330924
S1131B101A8B098B89E090E00E94381F8C018D811B
S1131B209E812AE030E043E050E0BC01C8010E94FD
S1131B30D01A1C8B0B8B0E9450189E8B8D8B29897D
S1131B403A898D899E89B9010E94D7182D853E85D1
S1131B508D899E89B9010E94D7182F8538898D896E
S1131B609E89B9010E94D7182B893C898D899E8949
S1131B70B9010E94D7188D899E890E9412198D89F6
S1131B809E890E94DD198D899E890E947319FBCF5D
S1131B90CF93DF931F921F92CDB7DEB79A838983C9
S1131BA089819A8122E232E0FC0131832083898198
S1131BB09A810E94000980E090E081709927009743
S1131BC021F089819A810E94491F0F900F90DF9123
S1131BD0CF910895CF93DF931F921F92CDB7DEB7B5
S1131BE09A83898389819A810E94C80D89819A8107
S1131BF00E94491F0F900F90DF91CF9108950F938A
S1131C001F93CF93DF93CDB7DEB72D970FB6F8941C
S1131C10DEBF0FBECDBF9D838C837F836E835987C8
S1131C2048873B872A871D870C871A82198226C01A
S1131C3089819A812E813F81820F931FFC018081CB
S1131C408B838A859B85FC0190818B81292F280FAA
S1131C508A859B85FC0120838C859D85FC012081E0
S1131C608A859B85FC018081280F8C859D85FC01DC
S1131C70208389819A8101969A83898341E029810D
S1131C803A8188859985281739070CF040E0442368
S1131C9079F62D960FB6F894DEBF0FBECDBFDF9157
S1131CA0CF911F910F910895CF92DF92EF92FF92FF
S1131CB00F931F93CF93DF93CDB7DEB764970FB61F
S1131CC0F894DEBF0FBECDBF9A8B898B7C8B6B8B58
S1131CD0EDB6FEB61A8219828B899C89009709F4A5
S1131CE0B3C08DB79EB76C018B899C89FC01808140
S1131CF091810496FC01208131818B899C89F901B1
S1131D0019959E838D838B899C890E94D510988711
S1131D108F838F81988505969A87898789859A8587
S1131D2001979C878B8701962DB73EB7281B390BEB
S1131D300FB6F8943EBF0FBE2DBF8DB79EB7019668
S1131D409E878D878D859E8525EBFC0120838D855F
S1131D509E8522E6FC0121838D859E8527EDFC016D
S1131D6022834F8158858D859E8503962D813E81E2
S1131D70B9010E9469241F86188AFE0170969E018B
S1131D80215F3F4F4F8158856D817E8189899A8972
S1131D908F010E94FF0D89859A8502974F852D85B5
S1131DA03E85820F931FFC01408389859A850197A4
S1131DB048892D853E85820F931FFC0140831C8238
S1131DC01B8223C089899A89FC0180819181FC014D
S1131DD0808191810696FC01208131814D855E854B
S1131DE08B819C81840F951FFC01408189899A898C
S1131DF0FC0180819181642FF90119959A8389836B
S1131E008B819C8101969C838B832B813C8189856A
S1131E109A852817390734F489819A81009711F437
S1131E2081E001C080E0882369F68D819E8100975E
S1131E3021F08D819E810E946F1F1E821D820FB62C
S1131E40F894DEBE0FBECDBE89819A810FB6F89498
S1131E50FEBE0FBEEDBE64960FB6F894DEBF0FBE95
S1131E60CDBFDF91CF911F910F91FF90EF90DF9045
S1131E70CF900895CF92DF92EF92FF920F931F932A
S1131E80CF93DF93CDB7DEB766970FB6F894DEBF76
S1131E900FBECDBF9C8B8B8B7E8B6D8BEDB6FEB650
S1131EA01A8219821B821C821D861DC08C818B8321
S1131EB08D858C838B899C89FC0180819181FC01B7
S1131EC0808191810896FC01208131818B899C89D4
S1131ED0FC0180819181AE01435F5F4FBA01F9013A
S1131EE019959A8389838B81853B31F48C81823661
S1131EF019F48D85873D31F089819A81009711F419
S1131F0081E001C080E0882389F689819A81009765
S1131F1009F0F9C01E868B899C89FC01808191811E
S1131F20FC01808191810896FC01208131818B899B
S1131F309C89FC0180819181AE01425F5F4FBA01AF
S1131F40F90119959A83898389819A81009709F007
S1131F50DAC01E821D828E85882F90E08230910522
S1131F6029F489E190E09E838D8305C08EEF9FEF75
S1131F709A838983000089819A81009709F0C3C0FC
S1131F808DB79EB76C018D819E8101979A87898751
S1131F9001962DB73EB7281B390B0FB6F8943EBFF8
S1131FA00FBE2DBF8DB79EB701969C878B872E855C
S1131FB08B859C85FC01208381E090E098878F834A
S1131FC021C08B899C89FC0180819181FC018081E5
S1131FD091810896FC01208131814B855C858F813C
S1131FE09885480F591F8B899C89FC0180819181B8
S1131FF0BA01F90119959A8389838F81988501968D
S113200098878F832F8138858D819E812817390782
S113201034F489819A81009711F481E001C080E051
S1132020882379F689819A81009709F067C01F8611
S1132030188A198A1A8A8B899C89FC01808191816A
S1132040FC01808191810896FC01208131818B897A
S11320509C89FC0180819181AE01415F5F4FBA018F
S1132060F90119959A8389838B899C89FC01808164
S11320709181FC01808191810896FC01208131814C
S11320808B899C89FC0180819181AE01405F5F4F07
S1132090BA01F90119959A8389836B857C85FE01C0
S11320A072969E012F5E3F4F4D815E818B899C8984
S11320B08F010E94FF0D99898F859817D9F49A8909
S11320C088899817B9F48E85882F90E0823091051D
S11320D059F48B859C850E94E7149C018D899E8907
S11320E0FC013183208305C08EEF9FEF9A8389839F
S11320F0000004C08DEF9FEF9A8389830FB6F89494
S1132100DEBE0FBECDBE89819A81009729F08D89EC
S11321109E89FC011182108289819A810FB6F894FC
S1132120FEBE0FBEEDBE66960FB6F894DEBF0FBEC0
S1132130CDBFDF91CF911F910F91FF90EF90DF9072
S1132140CF900895CF93DF931F921F92CDB7DEB740
S11321509A83898389819A8120E332E0FC01318367
S1132160208380E090E081709927009721F0898195
S11321709A810E94491F0F900F90DF91CF9108958B
S1132180CF93DF931F921F92CDB7DEB79A838983D3
S113219089819A810E94A21089819A810E94491F93
S11321A00F900F90DF91CF910895CF93DF931F92FB
S11321B01F92CDB7DEB79A83898389819A81FC0106
S11321C0838194810F900F90DF91CF910895CF93E5
S11321D0DF931F921F92CDB7DEB79A83898380E085
S11321E090E00F900F90DF91CF910895CF93DF93FC
S11321F000D01F92CDB7DEB79A8389837C836B832B
S11322000F900F900F900F90DF91CF910895CF937F
S1132210DF9300D01F921F92CDB7DEB79A838983D4
S11322206B835D834C8389819A8120E332E0FC01D6
S11322303183208389819A812B81FC0122838981C6
S11322409A812C813D81FC01348323830F900F906C
S11322500F900F900F90DF91CF910895CF93DF935C
S11322601F921F92CDB7DEB79A83898389819A81A1
S113227041E050E063E00E94071189819A812CE3D8
S113228032E0FC01318320830F900F90DF91CF91D6
S11322900895CF93DF931F921F92CDB7DEB79A8331
S11322A0898389819A812CE332E0FC013183208384
S11322B089819A810E94A21080E090E08170992720
S11322C0009721F089819A810E94491F0F900F90F5
S11322D0DF91CF910895CF93DF931F921F92CDB7D3
S11322E0DEB79A83898389819A810E944911898101
S11322F09A810E94491F0F900F90DF91CF9108950A
S1132300CF93DF9300D000D0CDB7DEB79E838D830B
S113231081E090E00E945E1F9A83898389819A817B
S11323209C838B838D819E81FC0122818B819C8186
S1132330FC01208389819A8126960FB6F894DEBF2A
S11323400FBECDBFDF91CF910895CF93DF9300D01F
S11323501F92CDB7DEB79A8389837C836B838B818D
S11323609C81009741F08B819C81FC0120818981B3
S11323709A81FC0122830F900F900F900F90DF91B0
S1132380CF910895CF93DF9300D000D0CDB7DEB7BF
S11323909A8389837C836B835E834D838B819C8149
S11323A0FC01808191812D813E8142E050E0B901A0
S11323B00E9469248B819C81FC01808191819C0114
S11323C02E5F3F4F8B819C81FC01318320832696B5
S11323D00FB6F894DEBF0FBECDBFDF91CF91089545
S11323E0CF93DF9300D000D0CDB7DEB79A83898333
S11323F07C836B835E834D838B819C81FC01808114
S113240091812D813E8142E050E0B9010E9469240E
S11324108B819C81FC01808191819C012E5F3F4FC7
S11324208B819C81FC013183208326960FB6F8941E
S1132430DEBF0FBECDBFDF91CF910895CF93DF9361
S113244000D000D0CDB7DEB79A8389837C836B83B9
S11324505E834D838B819C81FC01808191812D81E0
S11324603E81F9012081FC0120838B819C81FC0148
S1132470808191819C012F5F3F4F8B819C81FC0166
S11324803183208326960FB6F894DEBF0FBECDBFEE
S1132490DF91CF910895CF93DF9300D000D0CDB7D3
S11324A0DEB79A8389837C836B835E834D838B81C0
S11324B09C81FC0180819181FC0120818D819E8120
S11324C0FC0120838B819C81FC01808191819C0192
S11324D02F5F3F4F8B819C81FC01318320832696A3
S11324E00FB6F894DEBF0FBECDBFDF91CF91089534
S11324F0CF93DF9300D000D0CDB7DEB79A83898322
S11325007C836B835E834D838B819C81FC01208162
S113251031818D819E8142E050E0B9010E9469249D
S11325208B819C81FC01808191819C012E5F3F4FB6
S11325308B819C81FC013183208326960FB6F8940D
S1132540DEBF0FBECDBFDF91CF910895CF93DF9350
S113255000D000D0CDB7DEB79A8389837C836B83A8
S11325605E834D838B819C81FC01208131818D812F
S11325709E8142E050E0B9010E9469248B819C81D4
S1132580FC01808191819C012E5F3F4F8B819C8156
S1132590FC013183208326960FB6F894DEBF0FBE6C
S11325A0CDBFDF91CF910895CF93DF931F921F92F8
S11325B0CDB7DEB79A83898389819A8149E150E056
S11325C062E00E94071189819A8128E432E0FC01CB
S11325D03183208389819A81FC0116821582898145
S11325E09A81FC011086178289819A81FC011286E6
S11325F0118689819A81FC011486138689819A81C6
S1132600FC011686158689819A81FC01108A178639
S113261089819A81FC01128A118A89819A81FC013B
S1132620148A138A89819A81FC01168A158A898100
S11326309A81FC01108E178A89819A81FC01128E7D
S1132640118E89819A81FC01148E138E0F900F9044
S1132650DF91CF910895CF93DF931F921F92CDB74F
S1132660DEB79A83898389819A8128E432E0FC0168
S11326703183208389819A810E94A21080E090E0B6
S113268081709927009721F089819A810E94491FBE
S11326900F900F90DF91CF910895CF93DF931F9206
S11326A01F92CDB7DEB79A83898389819A810E946C
S11326B02B1389819A810E94491F0F900F90DF91FB
S11326C0CF910895CF93DF9300D000D0CDB7DEB77C
S11326D09E838D8389E190E00E945E1F9A838983A3
S11326E089819A819C838B838D819E81AC014E5F0D
S11326F05F4F8D819E819E012D5F3F4FB9010E94E6
S11327001E128D819E81AC014B5F5F4F8D819E8136
S11327109E012D5F3F4FB9010E94C2118D819E81A0
S1132720AC01495F5F4F8D819E819E012D5F3F4FBC
S1132730B9010E94C2118D819E81AC01475F5F4F38
S11327408D819E819E012D5F3F4FB9010E94C21170
S11327508D819E81AC01455F5F4F8D819E819E017D
S11327602D5F3F4FB9010E94F0118D819E81AC0114
S1132770435F5F4F8D819E819E012D5F3F4FB90165
S11327800E94C2118D819E81AC01415F5F4F8D819A
S11327909E819E012D5F3F4FB9010E94C2118D8120
S11327A09E81AC014F5E5F4F8D819E819E012D5FA6
S11327B03F4FB9010E94C2118D819E81AC014D5ED3
S11327C05F4F8D819E819E012D5F3F4FB9010E9415
S11327D0C2118D819E81AC014B5E5F4F8D819E81C4
S11327E09E012D5F3F4FB9010E94C2118D819E81D0
S11327F0AC01495E5F4F8D819E819E012D5F3F4FED
S1132800B9010E94C2118D819E81AC01475E5F4F68
S11328108D819E819E012D5F3F4FB9010E94C2119F
S11328208D819E81AC01455E5F4F8D819E819E01AD
S11328302D5F3F4FB9010E94C21189819A8126966A
S11328400FB6F894DEBF0FBECDBFDF91CF910895D0
S1132850CF93DF9300D01F92CDB7DEB79A838983DD
S11328607C836B838B819C81009709F4A9C0898147
S11328709A81AC014E5F5F4F89819A819E012D5FE1
S11328803F4FB9010E944B1289819A81AC014B5F81
S11328905F4F89819A819E012D5F3F4FB9010E944C
S11328A0781289819A81AC01495F5F4F89819A814D
S11328B09E012D5F3F4FB9010E94781289819A8150
S11328C0AC01475F5F4F89819A819E012D5F3F4F25
S11328D0B9010E94781289819A81AC01455F5F4FEA
S11328E089819A819E012D5F3F4FB9010E94A612F2
S11328F089819A81AC01435F5F4F89819A819E01EE
S11329002D5F3F4FB9010E94781289819A81AC01F1
S1132910415F5F4F89819A819E012D5F3F4FB901CD
S11329200E94781289819A81AC014F5E5F4F898140
S11329309A819E012D5F3F4FB9010E9478128981CF
S11329409A81AC014D5E5F4F89819A819E012D5F12
S11329503F4FB9010E94781289819A81AC014B5E84
S11329605F4F89819A819E012D5F3F4FB9010E947B
S1132970781289819A81AC01495E5F4F89819A817D
S11329809E012D5F3F4FB9010E94781289819A817F
S1132990AC01475E5F4F89819A819E012D5F3F4F55
S11329A0B9010E94781289819A81AC01455E5F4F1A
S11329B089819A819E012D5F3F4FB9010E9478124F
S11329C00F900F900F900F90DF91CF9108950F9378
S11329D01F93CF93DF9300D01F92CDB7DEB79C83B4
S11329E08B838DE190E00E94381F8C01C8010E9406
S11329F0D4121A83098389819A81FC01808191818F
S1132A000696FC01208131814B815C8189819A8108
S1132A10BA01F901199589819A810F900F900F904D
S1132A200F90DF91CF911F910F910895CF93DF9372
S1132A3000D01F92CDB7DEB79A8389837C836B83E2
S1132A4089819A812B813C81FC01368325830F90F7
S1132A500F900F900F90DF91CF910895CF93DF9354
S1132A6000D01F92CDB7DEB79A8389837C836B83B2
S1132A7089819A812B813C81FC01308727830F90C7
S1132A800F900F900F90DF91CF910895CF93DF9324
S1132A9000D01F92CDB7DEB79A8389837C836B8382
S1132AA089819A812B813C81FC01328721870F9097
S1132AB00F900F900F90DF91CF910895CF93DF93F4
S1132AC000D01F92CDB7DEB79A8389837C836B8352
S1132AD089819A812B813C81FC01348723870F9063
S1132AE00F900F900F90DF91CF910895CF93DF93C4
S1132AF000D01F92CDB7DEB79A8389837C836B8322
S1132B0089819A812B813C81FC01368725870F902E
S1132B100F900F900F90DF91CF910895CF93DF9393
S1132B2000D01F92CDB7DEB79A8389837C836B83F1
S1132B3089819A812B813C81FC01308B27870F90FE
S1132B400F900F900F90DF91CF910895CF93DF9363
S1132B5000D01F92CDB7DEB79A8389837C836B83C1
S1132B6089819A812B813C81FC01328B218B0F90CE
S1132B700F900F900F90DF91CF910895CF93DF9333
S1132B8000D01F92CDB7DEB79A8389837C836B8391
S1132B9089819A812B813C81FC01348B238B0F909A
S1132BA00F900F900F90DF91CF910895CF93DF9303
S1132BB000D01F92CDB7DEB79A8389837C836B8361
S1132BC089819A812B813C81FC01368B258B0F9066
S1132BD00F900F900F90DF91CF910895CF93DF93D3
S1132BE000D01F92CDB7DEB79A8389837C836B8331
S1132BF089819A812B813C81FC01308F278B0F9036
S1132C000F900F900F90DF91CF910895CF93DF93A2
S1132C1000D01F92CDB7DEB79A8389837C836B8300
S1132C2089819A812B813C81FC01328F218F0F9005
S1132C300F900F900F90DF91CF910895CF93DF9372
S1132C4000D01F92CDB7DEB79A8389837C836B83D0
S1132C5089819A812B813C81FC01348F238F0F90D1
S1132C600F900F900F90DF91CF910895CF93DF9342
S1132C701F921F92CDB7DEB79A83898389819A8187
S1132C80FC01808191810F900F90DF91CF91089585
S1132C90CF93DF931F921F92CDB7DEB79A838983B8
S1132CA089819A81FC01828193810F900F90DF9139
S1132CB0CF910895CF93DF931F921F92CDB7DEB7C4
S1132CC09A83898389819A81FC01848195810F90FB
S1132CD00F90DF91CF910895CF93DF931F921F92AE
S1132CE0CDB7DEB79A83898389819A81FC01868571
S1132CF09785A089B189BC01CD010F900F90DF9118
S1132D00CF910895CF93DF931F921F92CDB7DEB773
S1132D109A83898389819A81FC0182A193A1A4A1C8
S1132D20B5A1BC01CD010F900F90DF91CF91089513
S1132D30CF93DF931F921F92CDB7DEB79A83898317
S1132D4089819A81FC0186A197A1A0A5B1A5BC01A6
S1132D50CD010F900F90DF91CF910895CF93DF9322
S1132D601F921F92CDB7DEB79A83898389819A8196
S1132D70FC0182A593A50F900F90DF91CF91089548
S1132D80CF93DF931F921F92CDB7DEB79A838983C7
S1132D9089819A81FC0184A595A50F900F90DF91FC
S1132DA0CF910895CF93DF931F921F92CDB7DEB7D3
S1132DB09A83898389819A81FC0186A597A50F90BE
S1132DC00F90DF91CF9108950F931F93CF93DF93CB
S1132DD000D01F92CDB7DEB79C838B838DE190E04A
S1132DE00E94381F8C01C8010E94D4121A830983DF
S1132DF08B819C810E9436169C0189819A81B9013C
S1132E000E9416158B819C810E9448169C01898121
S1132E109A81B9010E942E158B819C810E945A16B9
S1132E209C0189819A81B9010E9446158B819C81FC
S1132E300E94E100DC01CB01BC01CD010E944D21C7
S1132E40DC01CB019C0189819A81B9010E945E1544
S1132E508B819C810E94D2169C0189819A81B9013F
S1132E600E941E168B819C810E94AE169C01898152
S1132E709A81B9010E94EE158B819C810E94C01633
S1132E809C0189819A81B9010E9406168B819C81DB
S1132E900E949816DC01CB01BC01CD010E9448219F
S1132EA0DC01CB019C0189819A81B9010E94BE1584
S1132EB08B819C810E948F01DC01CB01BC01CD017F
S1132EC00E944821DC01CB019C0189819A81B901CE
S1132ED00E948E158B819C810E948216DC01CB019D
S1132EE0BC01CD010E944821DC01CB019C018981F8
S1132EF09A81B9010E94A6158B819C810E9463016D
S1132F00DC01CB01BC01CD010E944821DC01CB01D5
S1132F109C0189819A81B9010E9476158B819C81DB
S1132F200E946C16DC01CB0120E030E048EC52E456
S1132F30BC01CD010E948222DC01CB01BC01CD0188
S1132F400E944821DC01CB019C0189819A81B9014D
S1132F500E94D61589819A810F900F900F900F903F
S1132F60DF91CF911F910F910895CF93DF931F921B
S1132F701F92CDB7DEB79A83898389819A81FC0138
S1132F80828193810F900F90DF91CF910895CF9319
S1132F90DF931F921F92CDB7DEB79A83898389810D
S1132FA09A81FC01848195810F900F90DF91CF91DC
S1132FB00895CF93DF9300D01F92CDB7DEB79A83E5
S1132FC089837C836B8389819A812B813C81FC0179
S1132FD0338322830F900F900F900F90DF91CF9146
S1132FE00895CF93DF931F921F92CDB7DEB79A83D4
S1132FF0898389819A81FC0186810F900F90DF91EA
S1133000CF910895CF93DF9300D0CDB7DEB79A83E5
S113301089836B8389819A812B81FC0126830F909C
S11330200F900F90DF91CF910895CF93DF931F926C
S11330301F92CDB7DEB79A83898389819A81FC0177
S1133040828193819C012150310989819A81FC01FB
S1133050338322830F900F90DF91CF910895CF9304
S1133060DF931F921F92CDB7DEB79A83898389813C
S11330709A81FC01848995890F900F90DF91CF91FB
S11330800895CF93DF931F921F92CDB7DEB79A8333
S1133090898389819A810F900F90DF91CF91089550
S11330A0EF92FF920F931F93CF93DF93CDB7DEB7C9
S11330B080918802909189020097A1F48AE190E0BE
S11330C00E94381F7C0108EC10E020E430E040E06E
S11330D054E264EF70E0C7010E947D18F092890207
S11330E0E09288028091880290918902DF91CF91C9
S11330F01F910F91FF90EF9008950F931F93CF931B
S1133100DF93CDB7DEB72A970FB6F894DEBF0FBEB4
S1133110CDBF9A8389834B835C836D837E83388799
S11331202F831A8709878F8198859C01442737FD4F
S11331304095542F8B819C81AD81BE81BC01CD0112
S11331400E94F922DA01C90129853A85442737FD0D
S11331504095542FBC01CD010E94F922DA01C90126
S11331609C0189819A81FC01378B268B89819A8104
S1133170FC012689378989819A81FC01378B268B4A
S113318089819A812F813885FC01318F208F898133
S11331909A81FC01158A148A2A960FB6F894DEBF28
S11331A00FBECDBFDF91CF911F910F910895CF93A3
S11331B0DF9300D01F92CDB7DEB79A8389837C83D7
S11331C06B8389819A81FC01848995898A30910570
S11331D004F589819A81FC018489958929813A8140
S11331E0880F991F820F931F2B813C81FC0131832F
S11331F0208389819A81FC01848995899C012F5FB0
S11332003F4F89819A81FC01358B248B80E090E0CB
S113321002C08FEF9FEF0F900F900F900F90DF91F0
S1133220CF910895CF93DF9300D01F92CDB7DEB72F
S11332309C838B831A82198224C02B813C818981CF
S11332409A81880F991F820F931FFC0180819181BD
S1133250FC01808191810696FC01208131814B81A2
S11332605C8189819A81880F991F840F951FFC01C5
S113327080819181F901199589819A8101969A83B6
S113328089838B819C81FC012489358941E0898172
S11332909A81821793070CF040E0442371F688E882
S11332A090E02B813C81F90126893789FC01318327
S11332B0208381E890E021E830E0F9012081286052
S11332C0FC0120838FE690E02FE630E0F9012081B5
S11332D02260FC01208378940F900F900F900F9040
S11332E0DF91CF910895CF93DF9300D000D0CDB775
S11332F0DEB79E838D831C821B821A8219822AC0A8
S11333002D813E8189819A81880F991F820F931F95
S1133310FC01808191819C838B838B819C810E94A1
S1133320F117882391F08B819C8160E00E94021840
S11333308B819C81FC01808191810896FC01208114
S113334031818B819C81F901199589819A8101963A
S11333509A8389838D819E81FC012489358941E08A
S113336089819A81821793070CF040E0442341F647
S113337083E590E023E530E0F9012081217FFC0121
S1133380208383E590E023E530E0F901208121608A
S1133390FC012083889583E590E023E530E0F90182
S11333A020812E7FFC01208326960FB6F894DEBF81
S11333B00FBECDBFDF91CF910895CF93DF931F92BE
S11333C01F92CDB7DEB79A83898389819A81FC01E4
S11333D0808D918D8034910539F1813491053CF4CF
S11333E08130910569F088309105A1F03BC08115C9
S11333F0F1E09F0719F1811524E0920749F132C0E9
S113340081E890E021E830E0F90120812160FC01AD
S1133410208331C081E890E021E830E0F901208187
S11334202260FC01208327C081E890E021E830E09D
S1133430F90120812360FC0120831DC081E890E014
S113344021E830E0F90120812460FC01208313C0CD
S113345081E890E021E830E0F90120812560FC0159
S1133460208309C081E890E021E830E0F90120815F
S11334702160FC0120830F900F90DF91CF9108957C
S11334801F920F9200905F000F92112400905B0036
S11334900F922F933F934F935F936F937F938F93E9
S11334A09F93AF93BF93EF93FF93CF93DF9300D09A
S11334B000D0CDB7DEB70E9450189C838B831E8248
S11334C01D821A82198233C08B819C810E9441180B
S11334D09C0189819A81880F991F820F931FFC0197
S11334E0808191819E838D838D819E810E94B517F9
S11334F021E0009709F020E0222381F08D819E8154
S113350061E00E9402188D819E810E94C7179C0170
S11335108D819E81B9010E94D91704C08D819E813D
S11335200E94151889819A8101969A8389838B81D7
S11335309C810E942F189C0141E089819A81821705
S113354093070CF040E0442309F0BECF26960FB653
S1133550F894DEBF0FBECDBFDF91CF91FF91EF9105
S1133560BF91AF919F918F917F916F915F914F9197
S11335703F912F910F9000925B000F9000925F009B
S11335800F901F901895CF93DF931F921F92CDB782
S1133590DEB79A8389830F900F90DF91CF910895BE
S11335A0CF93DF93CDB7DEB728970FB6F894DEBF7D
S11335B00FBECDBF9A8389837C836B835E834D83E7
S11335C038872F8389819A814F8158852D813E8147
S11335D0B9010E94461E89819A8124E532E0FC01EA
S11335E03183208389819A812B813C81FC0130873E
S11335F0278328960FB6F894DEBF0FBECDBFDF91A8
S1133600CF910895CF93DF931F921F92CDB7DEB76A
S11336109A83898389819A81FC01878190850E949C
S113362087050F900F90DF91CF910895CF93DF938B
S11336301F921F92CDB7DEB79A83898389819A81BD
S113364024E532E0FC013183208389819A810E9440
S1133650000980E090E081709927009721F089812A
S11336609A810E94491F0F900F90DF91CF91089586
S1133670CF93DF931F921F92CDB7DEB79A838983CE
S113368089819A810E94161B89819A810E94491F0F
S11336900F900F90DF91CF910895CF93DF931F92F6
S11336A01F92CDB7DEB79A83898389819A81FC0101
S11336B0858196810F900F90DF91CF910895CF93DC
S11336C0DF931F921F92CDB7DEB79A8389838981D6
S11336D09A81FC01878190850F900F90DF91CF91A3
S11336E00895CF93DF931F921F92CDB7DEB79A83CD
S11336F0898389819A81FC01818592850F900F903D
S1133700DF91CF910895CF93DF931F921F92CDB78E
S1133710DEB79A83898389819A81FC0183859485A4
S11337200F900F90DF91CF910895CF93DF931F9265
S11337301F92CDB7DEB79A83898389819A81FC0170
S1133740858596850F900F90DF91CF910895CF9343
S1133750DF931F921F92CDB7DEB79A838983898145
S11337609A81FC01858996890F900F90DF91CF9102
S11337700895CF93DF9300D01F92CDB7DEB79A831D
S113378089837C836B8389819A812B813C81FC01B1
S1133790318320830F900F900F900F90DF91CF9182
S11337A00895CF93DF9300D01F92CDB7DEB79A83ED
S11337B089837C836B8389819A812B813C81FC0181
S11337C0338322830F900F900F900F90DF91CF914E
S11337D00895CF93DF9300D01F92CDB7DEB79A83BD
S11337E089837C836B8389819A812B813C81FC0151
S11337F0358324830F900F900F900F90DF91CF911A
S11338000895CF93DF9300D000D0CDB7DEB79A836D
S113381089834B835C836D837E8329813A818B8189
S11338209C81AD81BE81F90186839783A087B1878E
S113383026960FB6F894DEBF0FBECDBFDF91CF91B1
S11338400895CF93DF9300D000D0CDB7DEB79A832D
S113385089834B835C836D837E8329813A818B8149
S11338609C81AD81BE81F901868B978BA08FB18F2E
S113387026960FB6F894DEBF0FBECDBFDF91CF9171
S11338800895CF93DF9300D01F92CDB7DEB79A830C
S113389089837C836B8389819A812B813C81FC01A0
S11338A033A722A70F900F900F900F90DF91CF9125
S11338B00895CF93DF9300D01F92CDB7DEB79A83DC
S11338C089837C836B8389819A812B813C81FC0170
S11338D035A724A70F900F900F900F90DF91CF91F1
S11338E00895CF93DF9300D01F92CDB7DEB79A83AC
S11338F089837C836B8389819A812B813C81FC0140
S113390037A726A70F900F900F900F90DF91CF91BC
S113391008950F931F93CF93DF93CDB7DEB72A9704
S11339200FB6F894DEBF0FBECDBF9A8389837C8324
S11339306B835E834D8338872F831A870987898138
S11339409A8149855A852F813885B9010E94461E7E
S113395089819A8122E632E0FC01318320838981C6
S11339609A812B813C81FC013087278389819A814C
S11339702D813E81FC01328721872A960FB6F89467
S1133980DEBF0FBECDBFDF91CF911F910F91089580
S1133990CF93DF93CDB7DEB72D970FB6F894DEBF84
S11339A00FBECDBF9D878C87CE0105960E942E1138
S11339B08C859D85FC01878190859E012B5F3F4FFF
S11339C0B9010E94540E9A83898389819A81009750
S11339D009F0BAC01B861A868C859D85FC018781F7
S11339E090859E01265F3F4FB9010E943A0F9A834A
S11339F0898389819A81009709F0A6C08A859B856D
S1133A00009709F4A1C08A859B859C838B838B8155
S1133A109C810E944D1B9C018C859D85FC018185A8
S1133A209285B9010E94B91B8B819C810E945F1B06
S1133A309C018C859D85FC0181859285B9010E943C
S1133A40D11B8B819C810E94711B9C018C859D855F
S1133A50FC0181859285B9010E94E91B8B819C81BF
S1133A600E94831BCC01A0E0B0E0BC01CD010E9408
S1133A707921DC01CB0120E030E048EC52E4BC01C8
S1133A80CD010E94E020DC01CB012C853D85F901AC
S1133A9021853285AC01BD01C9010E94011C8B81C5
S1133AA09C810E94951BAA2797FDA095BA2FBC0163
S1133AB0CD010E947B21DC01CB0120E030E048EC09
S1133AC052E4BC01CD010E94E020DC01CB012C8535
S1133AD03D85F90121853285AC01BD01C9010E94F2
S1133AE0211C8B819C810E94A71BAA2797FDA0956E
S1133AF0BA2FBC01CD010E947B21DC01CB0120E067
S1133B0030E048EC52E4BC01CD010E94E020DC012D
S1133B10CB012C853D85F90121853285AC01BD01A0
S1133B20C9010E940D018A859B85009769F08A85E9
S1133B309B85FC01808191810296FC012081318169
S1133B408A859B85F901199589819A818E3FFFEFBA
S1133B509F0719F18F3F2FEF92072CF48D3FEFEF62
S1133B609E0771F140C08F3FFFEF9F0719F0009748
S1133B70D9F139C08C859D85FC01818592850E948F
S1133B80AE169C012F5F3F4F8C859D85FC0181857E
S1133B909285B9010E94411C28C08C859D85FC0139
S1133BA0818592850E94C0169C012F5F3F4F8C85B2
S1133BB09D85FC0181859285B9010E94591C15C01F
S1133BC08C859D85FC01818592850E94D2169C017D
S1133BD02F5F3F4F8C859D85FC0181859285B901BE
S1133BE00E94711C02C001C00000CE0105960E9413
S1133BF049112D960FB6F894DEBF0FBECDBFDF91ED
S1133C00CF910895CF93DF931F921F92CDB7DEB764
S1133C109A83898389819A8122E632E0FC01318387
S1133C20208389819A810E94000980E090E081705C
S1133C309927009721F089819A810E94491F0F904A
S1133C400F90DF91CF910895CF93DF931F921F922E
S1133C50CDB7DEB79A83898389819A810E94021E37
S1133C6089819A810E94491F0F900F90DF91CF9113
S1133C700895CF93DF931F921F92CDB7DEB79A8337
S1133C8089830F900F90DF91CF910895CF93DF93A5
S1133C9000D000D0CDB7DEB79A8389837C836B8351
S1133CA05E834D8389819A8120E732E0FC01318370
S1133CB0208389819A812B813C81FC013383228377
S1133CC089819A812D813E81FC01358324838981F8
S1133CD09A81FC01168226960FB6F894DEBF0FBEB9
S1133CE0CDBFDF91CF910895CF93DF931F921F92A1
S1133CF0CDB7DEB79A838983F89489819A81FC01D0
S1133D0080819181FC012081318189819A81F9012D
S1133D10199578940F900F90DF91CF9108950F9398
S1133D201F93CF93DF93CDB7DEB72A970FB6F894DE
S1133D30DEBF0FBECDBF9A8389837C836B835E8392
S1133D404D8338872F831A87098789819A8149850A
S1133D505A852F813885B9010E94461E89819A812E
S1133D602EE732E0FC013183208389819A812B8103
S1133D703C81FC013087278389819A812D813E8192
S1133D80FC01328721872A960FB6F894DEBF0FBE56
S1133D90CDBFDF91CF911F910F910895CF93DF9302
S1133DA000D01F92CDB7DEB79C838B838B819C811F
S1133DB0FC01818592850E94E4169A8389838B8114
S1133DC09C81FC018781908529813A81B9010E94F7
S1133DD0540E89819A81009769F089819A81FC0146
S1133DE0808191810296FC012081318189819A81AF
S1133DF0F90119950F900F900F900F90DF91CF91CB
S1133E000895CF93DF931F921F92CDB7DEB79A83A5
S1133E10898389819A812EE732E0FC0131832083F2
S1133E2089819A810E94000980E090E0817099273D
S1133E30009721F089819A810E94491F0F900F9069
S1133E40DF91CF910895CF93DF931F921F92CDB747
S1133E50DEB79A83898389819A810E94011F8981AF
S1133E609A810E94491F0F900F90DF91CF9108957E
S1133E70CF93DF931F921F92CDB7DEB79A838983C6
S1133E8089819A810E942F230F900F90DF91CF9107
S1133E900895CF93DF931F921F92CDB7DEB79A8315
S1133EA0898389819A81009721F089819A810E946E
S1133EB0CA230F900F90DF91CF910895CF93DF9392
S1133EC01F921F92CDB7DEB79A83898389819A8125
S1133ED00E942F230F900F90DF91CF910895CF93DD
S1133EE0DF931F921F92CDB7DEB79A8389838981AE
S1133EF09A81009721F089819A810E94CA230F90A8
S1133F000F90DF91CF9108950F931F93CF93DF9379
S1133F1000D01F92CDB7DEB79C838B838B819C81AD
S1133F200E9458201A8219828B819C81FC0186810F
S1133F309781893EF3E09F072CF081E090E09A831B
S1133F4089830DC08B819C81FC012681378188EE99
S1133F5093E0B9010E94E5229B013A83298308E991
S1133F6010E08B819C81FC0180819181A281B381CD
S1133F702B813C81F90124813581442737FD40950B
S1133F80542FBC01CD010E94F922DA01C901298113
S1133F903A81442737FD4095542FBC01CD010E943E
S1133FA0F922DA01C901F8019183808381E990E063
S1133FB021E930E0F90120812860FC0120838B8114
S1133FC09C81FC01848195818034910539F181348F
S1133FD091053CF48130910569F088309105A1F098
S1133FE03BC08115F1E09F0719F1811524E0920788
S1133FF049F132C081E990E021E930E0F901208102
S11340002160FC01208331C081E990E021E930E0A6
S1134010F90120812260FC01208327C081E990E01E
S113402021E930E0F90120812360FC0120831DC0D7
S113403081E990E021E930E0F90120812460FC016C
S1134040208313C081E990E021E930E0F901208167
S11340502560FC01208309C081E990E021E930E07A
S1134060F90120812160FC0120830F900F900F90B3
S11340700F90DF91CF911F910F910895CF93DF930C
S11340801F921F92CDB7DEB79A83898388E390E0AD
S1134090FC018081882F90E08270992721E00097AD
S11340A009F420E0822F0F900F90DF91CF910895B3
S11340B0CF93DF931F921F92CDB7DEB79A83898384
S11340C081E990E0FC01108284E990E0FC01118216
S11340D0108288E390E028E330E0F9012081226037
S11340E0FC0120830F900F90DF91CF9108955058D9
S11340F0BB27AA270ED0B1C1A2D130F0A7D120F09E
S113410031F49F3F11F41EF497C10EF4E095E7FBE0
S113411064C1E92FB3D180F3BA1762077307840728
S1134120950718F071F49EF5E2C10EF4E0950B2E9C
S1134130BA2FA02D0B01B90190010C01CA01A001F5
S11341401124FF27591B99F0593F50F4503E68F150
S11341501A16F040A22F232F342F4427585FF3CF91
S1134160469537952795A795F0405395C9F77EF462
S11341701F16BA0B620B730B840BBAF09150A1F0AB
S1134180FF0FBB1F661F771F881FC2F70EC0BA0F31
S1134190621F731F841F48F4879577956795B795B9
S11341A0F7959E3F08F0B3CF9395880F08F09927B1
S11341B0EE0F979587950895ECD008F481E0089563
S11341C00CD04BC143D140F03AD130F021F45F3FE1
S11341D019F003C151118CC12FC150D198F3992307
S11341E0C9F35523B1F3951B550BBB27AA276217B7
S11341F07307840738F09F5F5F4F220F331F441FFC
S1134200AA1FA9F333D00E2E3AF0E0E830D0915033
S11342105040E695001CCAF729D0FE2F27D0660F20
S1134220771F881FBB1F261737074807AB07B0E85F
S113423009F0BB0B802DBF01FF2793585F4F2AF075
S11342409E3F510568F0C9C053C15F3FECF3983EEF
S1134250DCF3869577956795B795F7959F5FC9F7D2
S1134260880F911D9695879597F90895E1E0660F5B
S1134270771F881FBB1F621773078407BA0720F0D4
S1134280621B730B840BBA0BEE1F88F7E09508953D
S113429004D06894B1112CC10895F8D088F09F57C8
S11342A090F0B92F9927B751A0F0D1F0660F771F7E
S11342B0881F991F1AF0BA95C9F712C0B13081F05E
S11342C016D1B1E0089513C1672F782F8827B85FFE
S11342D039F0B93FCCF3869577956795B395D9F7BF
S11342E03EF490958095709561957F4F8F4F9F4FC9
S11342F00895E89409C097FB3EF4909580957095D5
S113430061957F4F8F4F9F4F9923A9F0F92F96E91D
S1134310BB279395F695879577956795B795F11192
S1134320F8CFFAF4BB0F11F460FF1BC06F5F7F4F2F
S11343308F4F9F4F16C0882311F096E911C0772341
S113434021F09EE8872F762F05C0662371F096E84A
S1134350862F70E060E02AF09A95660F771F881F19
S1134360DAF7880F9695879597F90895A9D080F084
S11343709F3740F491110EF0BBC060E070E080E81C
S11343809FEB089526F41B16611D711D811D2BC022
S113439045C0990F0008550FAA0BE0E8FEEF16166A
S11343A01706E807F907C0F012161306E407F50725
S11343B098F0621B730B840B950B39F40A2661F099
S11343C0232B242B252B21F408950A2609F4A1403C
S11343D0A6958FEF811D811D089597F99F6780E849
S11343E070E060E00895882371F4772321F09850F9
S11343F0872B762F07C0662311F499270DC090519F
S1134400862B70E060E02AF09A95660F771F881F6C
S1134410DAF7880F9695879597F908959F3F31F0BD
S1134420915020F4879577956795B795880F911DDE
S11344309695879597F908959FEF80EC0895002449
S11344400A941616170618060906089500240A94F5
S113445012161306140605060895092E0394000C7B
S113446011F4882352F0BB0F40F4BF2B11F460FF0A
S113447004C06F5F7F4F8F4F9F4F089557FD905833
S1134480440F551F59F05F3F71F04795880F97FB14
S1134490991F61F09F3F79F08795089512161306CE
S11344A01406551FF2CF4695F1DF08C016161706FD
S11344B01806991FF1CF8695710561050894089532
S11344C0E5DFA0F0BEE7B91788F4BB279F3860F496
S11344D01616B11D672F782F8827985FF7CF86951A
S11344E077956795B11D93959639C8F30895E89427
S11344F0BB2766277727CB0197F908954ADF08F48D
S11345008FEF08950BD0A9CF9ADF28F09FDF18F022
S1134510952309F062CF90CF1124EACFAFDFA0F347
S1134520959FD1F3950F50E0551F629FF001729F44
S1134530BB27F00DB11D639FAA27F00DB11DAA1F63
S1134540649F6627B00DA11D661F829F2227B00DB0
S1134550A11D621F739FB00DA11D621F839FA00D3B
S1134560611D221F749F3327A00D611D231F849F8B
S1134570600D211D822F762F6A2F11249F575040E2
S11345808AF0E1F088234AF0EE0FFF1FBB1F661F7D
S1134590771F881F91505040A9F79E3F510570F036
S11345A01CCFA6CF5F3FECF3983EDCF3869577955E
S11345B06795B795F795E7959F5FC1F7FE2B880F31
S11345C0911D9695879597F9089597FB072E16F4F4
S11345D0009407D077FD09D00E941B2307FC05D067
S11345E03EF4909581959F4F0895709561957F4F06
S11345F00895A1E21A2EAA1BBB1BFD010DC0AA1F20
S1134600BB1FEE1FFF1FA217B307E407F50720F037
S1134610A21BB30BE40BF50B661F771F881F991FB2
S11346201A9469F760957095809590959B01AC01FB
S1134630BD01CF010895AA1BBB1B51E107C0AA1FEE
S1134640BB1FA617B70710F0A61BB70B881F991F2F
S11346505A95A9F780959095BC01CD0108950F93C3
S11346601F93CF93DF938230910510F482E090E0A2
S1134670E0918C02F0918D0220E030E0C0E0D0E0C7
S113468023C04081518148175907A8F0481759079A
S113469061F482819381209719F09B838A832EC0D1
S11346A090938D0280938C0229C02115310529F045
S11346B04217530710F0A90102C0BE01DF010281B5
S11346C01381EF019A01F8013097D9F621153105CC
S11346D009F1281B390B2430310590F412968D9181
S11346E09C9113976115710521F0FB0193838283DB
S11346F004C090938D0280938C02FD01329644C0D5
S1134700FD01E20FF31F81939193225031092D9300
S11347103C933AC020918A0230918B02232B41F4BE
S1134720209102023091030230938B0220938A027B
S113473020910002309101022115310541F42DB779
S11347403EB74091040250910502241B350BE091C1
S11347508A02F0918B02E217F307A0F42E1B3F0BA1
S11347602817390778F0AC014E5F5F4F24173507DF
S113477048F04E0F5F1F50938B0240938A0281933F
S1134780919302C0E0E0F0E0CF01DF91CF911F915F
S11347900F910895EF92FF920F931F93CF93DF939E
S11347A0009709F48FC0DC01129713961C921E9295
S11347B01297E0908C02F0908D02E114F10489F4D8
S11347C02D913C911197280F391F80918A02909165
S11347D08B028217930789F5B0938B02A0938A0208
S11347E071C0E70120E030E001C0EA01CA17DB072D
S11347F038F44A815B819E0141155105B1F722C00D
S1134800BC0162507109FB01D383C2830081118111
S1134810AC01400F511F4C175D0761F44881598169
S1134820400F511F4E5F5F4F518340834A815B812C
S1134830538342832115310529F4B0938D02A0934B
S11348408C0240C0F901B383A283E9016991799193
S1134850C60FD71FAC17BD0779F4DC015E914E91EA
S1134860460F571F4E5F5F4F5183408312968D91C1
S11348709C91139793838283A0E0B0E002C0D70198
S11348807C01F701828193810097C9F7C7010296E1
S113489020813181820F931F20918A0230918B02F3
S11348A02817390779F4109729F410928D02109281
S11348B08C0204C013961C921E921297F0928B02E3
S11348C0E0928A02DF91CF911F910F91FF90EF90B8
S11348D00895FB01DC0102C001900D92415050404B
S10B48E0D8F70895F894FFCF06
S11348E800008E02200000000000A406C206D706BD
S11348F88D07E607000000004B086908EB08000074
S113490800008D09C80DEA0D6909741E0000000035
S1134918A210C010E710F6100000000049116B1136
S11349288011A511000000002B134D1362132814E5
S113493800000000021B161B381BC31A741E00005B
S11349480000C81C021E241EC31A741E00000000A6
S1134958391E00091E09C31A741E00000000CE1E69
S10B4968011F231FC31A741E72
S9030000FC
