S012000048656C69636F707465722E7372656303
S11300000C9491010C94B2010C94B2010C94B201C1
S11300100C94B2010C94B2010C94B2010C94B20190
S11300200C94B2010C94B2010C94B2010C94B20180
S11300300C94B2010C94F4400C94B2010C94B201EF
S11300400C94B2010C94B2010C94B2010C94B20160
S11300500C94B2010C9448650C94B2010C94B20156
S11300600C94B2010C94B2010C94B2010C94B20140
S11300700C94B2010C94B2010C94B2010C94B20130
S11300800C94B2010C94B2010C94B2010C94B20120
S11300900C94F8490C94B2010C94B2010C94B20182
S11300A00C94B2010C94B2010C94B2010C94B20100
S11300B00C94B2010C94B2010C945A1C0C94B2012D
S11300C00C94B2010C94B2010C94B2010C94B201E0
S11300D00C94B2010C94B2010C94B2010C94B201D0
S11300E00C94B201036EDB363D9A9999993DABAA03
S11300F0AA2A3E000000803F084AD73B3BCE016E4F
S113010084BCBFFDC12F3D6C74319ABD56833DDA6A
S11301103D00C77F11BED9E4BB4C3E916BAAAABE79
S1130120000000803F072C7AA5BA6CC590DA3B9397
S113013065FC8BBC53F810FD3C5692834DBD879DE6
S11301403AB63DCBC9BF5BBE73DA0FC93F05A84CB5
S1130150CDB2D44EB93836A9020C50B9918688086C
S11301603CA6AAAA2ABE000000803F08000000BEE8
S1130170922449123EABAAAA2ABECDCCCC4C3E0056
S1130180000080BEABAAAAAA3E00000000BF000087
S113019000803F0000000000084178D3BB4387D1B2
S11301A0133D190E3CC3BD4282AD2B3E68EC8276F2
S11301B0BED98FE1A93E4C80EFFFBE01C4FF7F3F53
S11301C0000000000007634236B79BD8A71A3968BD
S11301D05618AEBAAB558C1D3CB7CC5763BD6DED0C
S11301E0FD753EF6177231BF000000803F000C948D
S11301F039500C945D260C941B540C94A2530C940B
S11302002F560C94500E0C946B2A0C9429540C9475
S113021053550C94AA530C9473530C94BC540C94DF
S1130220220A0C943A2A0C9463260C94CE5A0C9409
S11302301C0D0C9481530C94BE550C94B0550C9425
S1130240C65A0C94B4240C944C2A0C94A6240C94F2
S1130250880C0C949E5A0C944A250C94C05A0C9405
S1130260C4210C94440A0C94B4540C9447500C9438
S11302703F500C949C530C947F0E0C94B6550C94E4
S1130280DA090C9499210C949A240C945D2A0C9408
S1130290AE540C9490240C94652A0C9479530C94C9
S11302A038500C94E60A0C9450530C946B260C941E
S11302B0732A0C94AC240C9499240C9427560C9413
S11302C04B550C945D0E0C9496240C94DC220C94E7
S11302D0AD2E0C945C210C94E5270C94E40B0C9447
S11302E0CA210C949F5A0C94D2210C94402A0C9449
S11302F048530C94850E0C94E0090C9462210C94E0
S11303006A210C9445550C94AD5A0C94400C0C94F1
S113031021540C94A55A0C9421560C9442530C94D9
S1130320930A11241FBECFEFD1E2DEBFCDBF00E0A0
S11303300CBF13E0A0E0B2E0E6EBF8ED00E00BBF89
S113034002C007900D92A837B107D9F723E0A8E7B8
S1130350B3E001C01D92AE3CB207E1F70E94001069
S11303600C94596C0C940000FC017183608312821C
S113037013821482158216821782108611861286C1
S113038013861486158616861786108A118A128A91
S1130390138A148A158A168A178A108E118E128E61
S11303A0138E148E158E168E178E10A211A212A201
S11303B013A214A215A212A613A614A615A616A675
S11303C017A610AA11AA12AA13AA14AA15AA16AA41
S11303D017AA10AE11AE12AE13AE14AE15AEDC01F8
S11303E0AE5BBF4F1D921D921D921C921397DC01B0
S11303F0AA5BBF4F1D921D921D921C921397DC01A4
S1130400A65BBF4F1D921D921D921C921397DC0197
S1130410A25BBF4F1D921D921D921C921397DC018B
S1130420AE5ABF4F1D921D921D921C921397DC0170
S1130430AA5ABF4F1D921D921D921C921397DC0164
S1130440A65ABF4F1D921D921D921C921397DC0158
S1130450A25ABF4F1D921D921D921C921397DC014C
S1130460AE59BF4F1D921D921D921C921397DC0131
S1130470AA59BF4F1D921D921D921C921397DC0125
S1130480A659BF4F1D921D921D921C921397DC0119
S1130490A259BF4F1D921D921D921C921397DC010D
S11304A0AE57BF4F1D921D921D921C921397DC01F3
S11304B0AA57BF4F1D921D921D921C921397E65787
S11304C0FF4F108211821282138208950F931F939B
S11304D0CB01BA01A90198010E945F651F910F9198
S11304E008958F929F92AF92BF92CF92DF92EF9234
S11304F0FF920F931F934A015B01C901B801A50143
S113050094010E945F65A70196010E94C2681F9131
S11305100F91FF90EF90DF90CF90BF90AF909F909E
S11305208F9008954F925F926F927F928F929F92D5
S1130530AF92BF92CF92DF92EF92FF920F931F93ED
S1130540CF93DF9300D01F92CDB7DEB749835A8390
S11305506B837C83280139018C010E571F4FA50141
S1130560940169817A818B819C810E94C268A70170
S113057096010E946065F801208131814281538196
S11305800E94C268A30192010E9460650F900F90BF
S11305900F900F90DF91CF911F910F91FF90EF90EB
S11305A0DF90CF90BF90AF909F908F907F906F908F
S11305B05F904F9008950F931F93CB01BA01A90147
S11305C098010E945F651F910F9108954F925F9269
S11305D06F927F928F929F92AF92BF92CF92DF924F
S11305E0EF92FF920F931F93CF93DF93CDB7DEB7B4
S11305F028970FB6F894DEBF0FBECDBF2A013B018A
S113060009831A832B833C8368A179A1882777FD0A
S11306108095982F0E94DF666D837E838F839887F1
S1130620A5019401C301B2010E94C268A701960109
S11306300E9460654B015C012C8D3D8D4E8D5F8D5C
S113064069817A818B819C810E94C2689B01AC0183
S1130650C501B4010E9460659B01AC016D817E817E
S11306608F8198850E94C26828960FB6F894DEBFE1
S11306700FBECDBFDF91CF911F910F91FF90EF90EF
S1130680DF90CF90BF90AF909F908F907F906F90AE
S11306905F904F9008958F929F92AF92BF92CF92A6
S11306A0DF92EF92FF920F931F93CF93DF93A42EC9
S11306B0B52ED62FC72F822E932E2C2D3D2D4E2DA9
S11306C05F2D6A2D7B2D8D2F9C2F0E946C68181630
S11306D06CF0202F312F482D592D6A2D7B2D8D2F15
S11306E09C2F0E943D66882334F009C0AC2CBD2C9D
S11306F0DE2DCF2D04C0A02EB12ED82DC92D6A2DEC
S11307007B2D8D2F9C2FDF91CF911F910F91FF9007
S1130710EF90DF90CF90BF90AF909F908F9008950F
S11307204F925F926F927F92AF92BF92CF92DF927D
S1130730EF92FF920F931F93CF93DF93CDB7DEB762
S11307400E945F65A80197010E94C2682B013C01C9
S11307502A893B894C895D89C601B5010E94C2681A
S11307609B01AC01C301B2010E945F65DF91CF918F
S11307701F910F91FF90EF90DF90CF90BF90AF90BB
S11307807F906F905F904F9008958F929F92AF9259
S1130790BF92CF92DF92EF92FF920F931F93CF936A
S11307A0DF93A42EB52ED62FC72F822E932E202F63
S11307B0312F482D592D6A2D7B2D8D2F9C2F0E9472
S11307C03D6688236CF02C2D3D2D4E2D5F2D6A2D1A
S11307D07B2D8D2F9C2F0E946C68181634F009C055
S11307E0A02EB12ED82DC92D04C0AC2CBD2CDE2DCD
S11307F0CF2D6A2D7B2D8D2F9C2FDF91CF911F91B3
S11308000F91FF90EF90DF90CF90BF90AF909F90AB
S11308108F900895DC01ED91FC91EC54FF4F8081A1
S11308209181A281B3810196A11DB11D8083918321
S1130830A283B38308950F931F93CF93DF93042F61
S1130840152FD62FC72F2BED3FE049E450E4602F3E
S1130850712F8D2F9C2F0E946C6888237CF02BEDC8
S11308603FE049EC50E4602F712F8D2F9C2F0E94A4
S11308705F65062F172FD82FC92F1AC02BED3FE025
S113088049E450EC602F712F8D2F9C2F0E943D6600
S1130890882374F42BED3FE049EC50E4602F712F72
S11308A08D2F9C2F0E946065062F172FD82FC92FDC
S11308B0602F712F8D2F9C2FDF91CF911F910F915E
S11308C008952F923F924F925F926F927F928F92F0
S11308D09F92AF92BF92CF92DF92EF92FF920F93CB
S11308E01F93CF93DF93CDB7DEB72A970FB6F89453
S11308F0DEBF0FBECDBF9A878987DC012D903C9067
S1130900F1010481158126813781EC52FF4F40812A
S11309105181628173810E946602AB01BC018985A9
S11309209A850E941B042B013C01A985BA851E9659
S1130930CD90DD90ED90FC905197F10100851185EB
S1130940228533854485558566857785CD010E944A
S113095071026B017C01A985BA8512968D909D90D8
S1130960AD90BC901597F1010489158926893789C2
S1130970B301A201CD010E94920269837A838B8321
S11309809C83D10150960D911D912D913C915397CB
S1130990F101E052FF4F4081518162817381898569
S11309A09A850E94DB026D837E838F839887E98515
S11309B0FA8582849384A484B5841F9281E08F9302
S11309C081858F9380858F9387818F9386818F9381
S11309D0C980DA80EB80FC800D811E812F813885EF
S11309E0B301A20189859A850E94E6020F900F90B7
S11309F00F900F900F900F904B015C01E985FA85E1
S1130A00EA5AFF4FC080D180E280F380E985FA85FD
S1130A10EE5AFF4F0081118122813381AB01BC0169
S1130A2089859A850E944B03DC01CB01B058F10102
S1130A3080879187A287B387A985BA85ED91FC91B8
S1130A40119784869586A686B786ED91FC91898157
S1130A509A81AB81BC81848B958BA68BB78BA9853E
S1130A60BA85ED91FC911197408E518E628E738EF2
S1130A70ED91FC918D819E81AF81B885848F958F96
S1130A80A68FB78F2A960FB6F894DEBF0FBECDBFE0
S1130A90DF91CF911F910F91FF90EF90DF90CF9056
S1130AA0BF90AF909F908F907F906F905F904F908A
S1130AB03F902F9008952F923F924F925F926F92A2
S1130AC07F928F929F92AF92BF92CF92DF92EF92DA
S1130AD0FF920F931F93CF93DF93CDB7DEB72A977F
S1130AE00FB6F894DEBF0FBECDBF1C012A013B0137
S1130AF0DC010D90BC91A02DBE83AD83FC01E25BB3
S1130B00FF4FC080D180E280F380AC57BF4FBA87DB
S1130B10A9870D911D912D913C91ED81FE81E8579E
S1130B20FF4F40815181628173810E9471026B0188
S1130B307C01F101EE5BFF4F80809180A280B38045
S1130B40ED81FE81EC56FF4F0081118122813381BA
S1130B50B301A201C1010E94920269837A838B834B
S1130B609C83ED81FE81E057FF4F0081118122813A
S1130B703381ED81FE81E457FF4F408151816281D1
S1130B807381C1010E94DB026D837E838F8398870A
S1130B90F101E65BFF4F80809180A280B3801F92B9
S1130BA081E08F93F101EA5BFF4F83818F93828110
S1130BB08F9381818F9380818F93C980DA80EB80BA
S1130BC0FC800D811E812F813885B301A201C101F2
S1130BD00E94E6020F900F900F900F900F900F90CD
S1130BE04B015C01F101E259FF4FC080D180E280EA
S1130BF0F380F101E659FF4F008111812281338195
S1130C00AB01BC01C1010E944B03E985FA856083F5
S1130C10718382839383D101ED91FC911197E857FD
S1130C20FF4F80829182A282B382ED91FC91EC56B7
S1130C30FF4F89819A81AB81BC8180839183A28398
S1130C40B383D101ED91FC911197E856FF4F408297
S1130C50518262827382ED91FC91E456FF4F8D8143
S1130C609E81AF81B88580839183A283B3832A96C2
S1130C700FB6F894DEBF0FBECDBFDF91CF911F91A9
S1130C800F91FF90EF90DF90CF90BF90AF909F9027
S1130C908F907F906F905F904F903F902F9008952A
S1130CA02F923F924F925F926F927F928F929F9278
S1130CB0AF92BF92CF92DF92EF92FF920F931F9366
S1130CC0CF93DF93CDB7DEB72A970FB6F894DEBF84
S1130CD00FBECDBF9A8789872A013B01DC012D9085
S1130CE03C9011975E96CD90DD90ED90FC9091979D
S1130CF0F10104A515A526A537A540A551A562A512
S1130D0073A50E9471026B017C01A985BA85529674
S1130D108D909D90AD90BC905597F101E05CFF4F94
S1130D200081118122813381B301A201CD010E948E
S1130D30920269837A838B839C83F10104A915A9A8
S1130D4026A937A940A951A962A973A989859A85B9
S1130D500E94DB026D837E838F839887A985BA8581
S1130D605A968D909D90AD90BC905D971F9281E0B6
S1130D708F9359968C9159978F9358968C91589735
S1130D808F9357968C9157978F9356968C918F93F8
S1130D90C980DA80EB80FC800D811E812F8138852B
S1130DA0B301A20189859A850E94E6020F900F90F3
S1130DB00F900F900F900F90AB01BC01E985FA855D
S1130DC0EA58FF4FC080D180E280F380E985FA853C
S1130DD0EE58FF4F008111812281338189859A85E4
S1130DE00E94C503F10160AF71AF82AF93AFA985D3
S1130DF0BA85ED91FC91E05CFF4F89819A81AB81CA
S1130E00BC8180839183A283B383A985BA85ED9144
S1130E10FC91119744AE55AE66AE77AEED91FC9160
S1130E20EC5BFF4F8D819E81AF81B8858083918378
S1130E30A283B3832A960FB6F894DEBF0FBECDBF4C
S1130E40DF91CF911F910F91FF90EF90DF90CF90A2
S1130E50BF90AF909F908F907F906F905F904F90D6
S1130E603F902F9008952F923F924F925F926F92EE
S1130E707F928F929F92AF92BF92CF92DF92EF9226
S1130E80FF920F931F93CF93DF93CDB7DEB72A97CB
S1130E900FB6F894DEBF0FBECDBF9A8789872A01AB
S1130EA03B01DC012D903C901197D696CD90DD90BE
S1130EB0ED90FC90D997F101E85AFF4F0081118120
S1130EC022813381F101EC5AFF4F408151816281CB
S1130ED073810E9471026B017C01E985FA8582A409
S1130EE093A4A4A4B5A4F101E459FF4F0081118196
S1130EF022813381B301A20189859A850E949202DD
S1130F0069837A838B839C83F101E05AFF4F0081CC
S1130F10118122813381F101E45AFF4F40815181D3
S1130F206281738189859A850E94DB026D837E8349
S1130F308F839887A985BA85D2968D909D90AD9020
S1130F40BC90D5978FEF8F938F93D1968C91D19737
S1130F508F93D0968C91D0978F939F968C919F97D7
S1130F608F939E968C918F93C980DA80EB80FC805E
S1130F700D811E812F813885B301A20189859A854F
S1130F800E94E6020F900F900F900F900F900F9019
S1130F90AB01BC01E985FA85E258FF4FC080D180DE
S1130FA0E280F380E985FA85E658FF4F00811181DC
S1130FB02281338189859A850E94C503F101EC5908
S1130FC0FF4F6083718382839383A985BA85ED91F2
S1130FD0FC91E459FF4F89819A81AB81BC81808364
S1130FE09183A283B383A985BA85ED91FC9111976E
S1130FF0E859FF4F4082518262827382ED91FC91E5
S1131000E059FF4F8D819E81AF81B88580839183A4
S1131010A283B3832A960FB6F894DEBF0FBECDBF6A
S1131020DF91CF911F910F91FF90EF90DF90CF90C0
S1131030BF90AF909F908F907F906F905F904F90F4
S11310403F902F9008954F925F926F927F928F926C
S11310509F92AF92BF92CF92DF92EF92FF920F9343
S11310601F93CF93DF93CDB7DEB7C454D1090FB626
S1131070F894DEBF0FBECDBF3C01DC014D905C9007
S1131080F2018081813009F098C004A115A126A144
S113109037A140A151A162A173A1C3010E946602BC
S11310A025966CAF7DAF8EAF9FAF2597F201E05BC5
S11310B0FF4F0081118122813381F201E45BFF4FF4
S11310C04081518162817381C3010E9466026B0178
S11310D07C01F201E058FF4F0081118122813381AC
S11310E0F201E458FF4F4081518162817381C30151
S11310F00E9466024B015C01CE01C1969EAF8DAF8A
S11311008CE0ADADBEAD1D928A95E9F7FE01319636
S11311102196FFAFEEAF219784E211928A95E9F709
S113112025968CAD9DADAEADBFAD25978DA39EA389
S1131130AFA3B8A7C9A6DAA6EBA6FCA68DA69EA661
S1131140AFA6B8AAF201EC52FF4FE080F180028111
S11311501381F201E053FF4F208131814281538199
S1131160F201E453FF4F6081718182819381CC2429
S1131170C394D12CCC0EDD1E0E946962AE014F5C7B
S11311805F4FBE016B5D7F4FC6010E942F6449A96A
S11311905AA96BA97CA9C3010E9450064DA95EA956
S11311A06FA978ADC3010E943307B501A401C3013F
S11311B00E945B05C3010E946104CC5BDF4F0FB644
S11311C0F894DEBF0FBECDBFDF91CF911F910F9179
S11311D0FF90EF90DF90CF90BF90AF909F908F9053
S11311E07F906F905F904F9008954F925F926F92AF
S11311F07F928F929F92AF92BF92CF92DF92EF92A3
S1131200FF920F931F93CF93DF93EC018880998013
S1131210F4018081813009F047C0E852FF4FA0807B
S1131220B180C280D380EAA0FBA00CA11DA1F4016F
S1131230E053FF4F2081318142815381F40160AD3D
S113124071AD82AD93ADE9A5EF93E8A5EF93EFA15E
S1131250EF93EEA1EF930E9490030F900F900F90E5
S11312600F902B013C01FE01E25AFF4FC080D18058
S1131270E280F380FE01E65AFF4F00811181228152
S11312803381AB01BC01CE010E944B03F40140A6A3
S113129051A662A673A6E881F981DC01CB01B0589E
S11312A084A795A7A6A7B7A7DF91CF911F910F9108
S11312B0FF90EF90DF90CF90BF90AF909F908F9072
S11312C07F906F905F904F9008954F925F926F92CE
S11312D07F928F929F92AF92BF92CF92DF92EF92C2
S11312E0FF920F931F93CF93DF93EC018880998033
S11312F0F4018081813009F04CC0E452FF4FA0809A
S1131300B180C280D380EAACFBAC0CAD1DADF4015E
S1131310E453FF4F2081318142815381F401EC5920
S1131320FF4F6081718182819381FE01FE96A381CA
S1131330AF93A281AF93A181AF93E081EF930E9419
S113134090030F900F900F900F902B013C01FE0122
S1131350EA59FF4FC080D180E280F380FE01EE594C
S1131360FF4F0081118122813381AB01BC01CE0189
S11313700E944B03F401EC5AFF4F40825182628277
S11313807382E881F981E85AFF4F60837183828315
S11313909383DF91CF911F910F91FF90EF90DF9096
S11313A0CF90BF90AF909F908F907F906F905F9001
S11313B04F9008952AE032E0FC01318320830895A0
S11313C0BF92CF92DF92EF92FF920F931F93CF932E
S11313D0DF93EC01052F162FB72EE881F9810680E3
S11313E0F781E02D642F19957C01E881F98106804D
S11313F0F781E02D602FCE0119956C01E881F98108
S11314000680F781E02D612FCE0119958C01E881CA
S1131410F9810680F781E02D6B2DCE011995960197
S11314202E293F29202B312B282B392B822F932F28
S1131430DF91CF911F910F91FF90EF90DF90CF90AC
S1131440BF900895FF920F931F93CF93DF93EC0106
S1131450F62E672FE881F9810680F781E02D199532
S11314608C01E881F9810680F781E02D6F2DCE0192
S113147019959C01202B312B822F932FDF91CF9133
S11314801F910F91FF9008958F929F92AF92BF92F8
S1131490CF92DF92EF92FF920F931F93CF93DF933C
S11314A0EC014A015B01E881F981672F77278827DE
S11314B099270680F781E02DCE0119957C01E881FA
S11314C0F981B501882799270680F781E02DCE019F
S11314D019956C01E881F98199278B2D7A2D692D55
S11314E00680F781E02DCE0119958C01E881F98100
S11314F00680F781E02D682DCE011995EC28FD2892
S11315000E291F29082B192B802F912FDF91CF91A2
S11315101F910F91FF90EF90DF90CF90BF90AF900D
S11315209F908F9008958F929F92AF92BF92CF9287
S1131530DF92EF92FF920F931F93CF93DF93EC010F
S11315404A015B01E881F981672F7727882799276A
S11315500680F781E02DCE0119957C01E881F9819F
S1131560B501992777FD9095892F0680F781E02DA5
S1131570CE0119956C01E881F9819927B7FC9A95F8
S11315808B2D7A2D692D0680F781E02DCE011995DA
S11315908C01E881F9810680F781E02D682DCE0168
S11315A01995EC28FD280E291F29082B192B802FAB
S11315B0912FDF91CF911F910F91FF90EF90DF90CA
S11315C0CF90BF90AF909F908F9008953F924F928D
S11315D05F926F927F928F929F92AF92BF92CF92BF
S11315E0DF92EF92FF920F931F93CF93DF93CDB7C8
S11315F0DEB728970FB6F894DEBF0FBECDBF98872D
S11316008F83702E322E432E542E652EE62EF72E07
S1131610DC01ED91FC911197202F312F432D542D96
S1131620652D762D8E2D9F2D08E30E94E96A068094
S1131630F781E02D622FCD0119955C01AF81B8854A
S1131640ED91FC911197272D312F432D542D652DAC
S1131650762D8E2D9F2D00E30E94E96A0680F78186
S1131660E02D622FCD0119954C01AF81B885ED9124
S1131670FC911197272D312F432D542D652D762D57
S11316808E2D9F2D08E20E94E96A0680F781E02DE5
S1131690622FCD0119959A838983AF81B885ED9125
S11316A0FC911197272D312F432D542D652D762D27
S11316B08E2D9F2D00E20E94E96A0680F781E02DBD
S11316C0622FCD0119959C838B83AF81B885ED91F1
S11316D0FC911197272D312F432D542D652D762DF7
S11316E08E2D9F2D08E10E94E96A0680F781E02D86
S11316F0622FCD0119959E838D83AF81B885ED91BD
S1131700FC911197272D312F432D542D652D762DC6
S11317108E2D9F2D00E10E94E96A0680F781E02D5D
S1131720622FCD0119956C01AF81B885ED91FC91C3
S11317301197272D312F432D542D652D762D8E2D68
S11317409F2D08E00E94E96A0680F781E02D622F50
S1131750CD0119957C01AF81B885ED91FC9111976C
S11317600680F781E02D672DCD011995A828B928A9
S1131770E981FA81AE2ABF2A2B813C81A22AB32AAD
S1131780AD81BE81AA2ABB2ACA28DB28EC28FD2801
S1131790E82AF92A8E2D9F2D28960FB6F894DEBFDD
S11317A00FBECDBFDF91CF911F910F91FF90EF90AE
S11317B0DF90CF90BF90AF909F908F907F906F906D
S11317C05F904F903F900895EF92FF920F931F9375
S11317D0CF93DF93EC017B018E81882351F017C0F6
S11317E088859985009739F00E94D864882319F078
S11317F02AC000EC10E0F801808188238CF72BC00C
S11318002EEF3FEF8091C600F701808321C0813025
S113181061F020E030E01CC088859985009739F09C
S11318200E94D864882319F011C008EC10E0F80174
S1131830808188238CF716C02EEF3FEF8091CE0075
S1131840F701808305C02FEF3FEF02C02FEF3FEF7A
S1131850822F932F0EC08091C0008C7189F620E0F6
S113186030E0D0CF8091C8008C7131F720E030E0B7
S1131870E5CFDF91CF911F910F91FF90EF900895E5
S1131880FF920F931F93CF93DF93EC01F62E8E817B
S1131890882351F010C088859985009739F00E94FB
S11318A0D864882319F01CC000EC10E0F801808192
S11318B085FFF1CF1DC0813061F020E030E015C01C
S11318C088859985009739F00E94D864882319F097
S11318D00AC008EC10E0F801808185FFF1CF0DC04B
S11318E02FEF3FEF02C02FEF3FEF822F932F0AC05D
S11318F0F092C60020E030E0F8CFF092CE0020E075
S113190030E0F3CFDF91CF911F910F91FF900895B5
S1131910CF93DF93EC018F81882329F18A819B8106
S1131920AC81BD81880F991FAA1FBB1F880F991F07
S1131930AA1FBB1F9C01AD01220F331F441F551F5B
S113194060E074E284EF90E00E94616ACA01B90128
S113195061507109810991090E94DD660E941A672C
S11319600E94B16628C08A819B81AC81BD81880FA9
S1131970991FAA1FBB1F880F991FAA1FBB1F9C0179
S1131980AD01220F331F441F551F220F331F441F65
S1131990551F60E074E284EF90E00E94616ACA011E
S11319A0B90161507109810991090E94DD660E94A3
S11319B01A670E94B1668E8181111DC07093C500A3
S11319C06093C400E2ECF0E08081866080838F81C4
S11319D0882331F0E0ECF0E080818260808305C0F0
S11319E0E0ECF0E080818D7F8083E1ECF0E08081A9
S11319F0886180831EC08130E1F47093CD006093D0
S1131A00CC00EAECF0E08081866080838F818823BB
S1131A1031F0E8ECF0E080818260808305C0E8EC7E
S1131A20F0E080818D7F8083E9ECF0E08081886143
S1131A308083DF91CF9108952AE032E0FC01318365
S1131A4020830E94B25E0895FC01808591850097F1
S1131A5011F00E94F3640895FC018085918500973C
S1131A6011F00E94E6640895CF92DF92EF92FF9204
S1131A700F931F93CF93DF936C018A01E62EF72E09
S1131A80C0E0D0E020E030E0C017D1071CF42115FD
S1131A90310519F0822F932F0EC0D7016D917D016E
S1131AA0D601ED91FC910680F781E02DC6011995D0
S1131AB09C012196E9CFDF91CF911F910F91FF9067
S1131AC0EF90DF90CF900895FC01868181110DC0C5
S1131AD08091C0008823BCF4A6ECB0E0E0ECF0E018
S1131AE08C9180818823E4F30895813061F480919E
S1131AF0C800882344F4AEECB0E0E8ECF0E08C914C
S1131B0080818823E4F3089587E084B9999A289A18
S1131B10A19A8CB581658CBD0895FC0180818130CA
S1131B2011F428980895823009F4A1980895FC01CD
S1131B308081813011F4289A0895823009F4A19AA1
S1131B4008951EBC0DB407FEFDCF8EB508951F93F6
S1131B50CF93DF93EC010E94A10D182FCE010E94B8
S1131B60A10D20E0282B822F912FDF91CF911F917F
S1131B7008951F93CF93DF93EC010E94A10D182FBA
S1131B80CE010E94A10D20E0282B822F912FDF91FE
S1131B90CF911F9108956EBD0DB407FEFDCF08953A
S1131BA01F93CF93DF93EC01162F0E948D0D612FAD
S1131BB0CE010E94CB0DCE010E94970DDF91CF91F3
S1131BC01F9108950F931F93CF93DF93EC01062F7A
S1131BD0142F0E948D0D602FCE010E94CB0D612F1A
S1131BE0CE010E94CB0DCE010E94970DDF91CF91C3
S1131BF01F910F910895509A519AE9EBF0E080817A
S1131C008E7F808380818D7F80838CE08093B80079
S1131C10089584EA8093BC00ECEBF0E08081882393
S1131C20ECF72091B900287F30E02830310531F0FD
S1131C3081E02031310519F080E0089581E00895B4
S1131C4084E98093BC0008956093BB0084E880938A
S1131C50BC00ECEBF0E080818823ECF7442359F0DE
S1131C602091B900287F30E050E081E02417350747
S1131C7019F480E001C080E091E08927089566238B
S1131C8021F084EC8093BC0003C084E88093BC0002
S1131C90ECEBF0E080818823ECF78091BB000895A1
S1131CA041B121E030E0FC01008402C0220F331F67
S1131CB00A94E2F7242B21B90895FC018781882333
S1131CC079F042B121E030E0C901008402C0880FFC
S1131CD0991F0A94E2F78095842382B917820895A4
S1131CE042B121E030E0C901008402C0880F991F8D
S1131CF00A94E2F7842B82B981E08783089520E671
S1131D0033E0FC0131832083089520E633E0FC01B5
S1131D10318320830E94B25E08950F931F93CF9363
S1131D20DF93DC01FB0114961D921D921D921C92FF
S1131D30179750961D921D921D921C925397EC0179
S1131D40C058DF4F4AE959E964E674EC4883598383
S1131D506A837B83EC01C057DF4F188219821A8291
S1131D601B8294961D921D921D921C929797D49655
S1131D701D921D921D921C92D797EC01C05BDF4F00
S1131D80188219821A821B82A05ABF4F1D921D927B
S1131D901D921C9213978EEF95E6A7E7BCE3828F02
S1131DA0938FA48FB58F128A138A148A158A84EFAD
S1131DB09DEFA4E5BDE3868B978BA08FB18F168E24
S1131DC0178E10A211A285E093EAAAEDBFE382A3C5
S1131DD093A3A4A3B5A385EC90E2A0E3BDE386A3FB
S1131DE097A3A0A7B1A78FE892ECA5E7BCE382ABC9
S1131DF093ABA4ABB5AB12A613A614A615A689E3A0
S1131E0094EBA8E4BDE386A797A7A0ABB1AB16AA51
S1131E1017AA10AE11AE84EA90E7ADEDBFE382AF2E
S1131E2093AFA4AFB5AFEF01EE9682E490E6A5E6DA
S1131E30BCE388839983AA83BB83EF01C65BDF4F2E
S1131E408FE692E1A3E8BBE388839983AA83BB83EB
S1131E50EF01CE5BDF4F8FE692E1A3E8BAE388831C
S1131E609983AA83BB83EF01CA5BDF4F8AEF91E6B4
S1131E70ACEDBEE388839983AA83BB83EF01C25B85
S1131E80DF4F88E29CE0AAE9BEE388839983AA83B2
S1131E90BB8380E090E0A0E0B0E482879387A487CE
S1131EA0B58784E096E5AEE4BFE382839383A4839D
S1131EB0B58387E291E3A8ECBEE386839783A0878A
S1131EC0B18781E79DE3AAE0BEE386879787A08B6D
S1131ED0B18BEF01CE57DF4F8DEC9CECACE4BDE34E
S1131EE088839983AA83BB83DF01AA57BF4F40E04D
S1131EF050E060E87FE34D935D936D937C9313977B
S1131F00EF01C657DF4F80E090E0A0E8BFEB888385
S1131F109983AA83BB83EF01CE5ADF4F0FE812ECFB
S1131F2025E73FEB088319832A833B83EF01CA5AD1
S1131F30DF4F0FE812EC25E73FE3088319832A8378
S1131F403B83EF01C25ADF4F488359836A837B8303
S1131F50EF01C65ADF4F88839983AA83BB83EF01BD
S1131F60CA59DF4F488359836A837B83EF01CE5973
S1131F70DF4F88839983AA83BB83EF01C259DF4F64
S1131F8080E090E0A0E0BFE388839983AA83BB83C9
S1131F90DF01A659BF4F1D921D921D921C921397EB
S1131FA0EF01C258DF4F82EC98EBA2EBBDE38883CC
S1131FB09983AA83BB83EF01C658DF4F82EC98EB69
S1131FC0A2EBBDEB88839983AA83BB83EF01CA5834
S1131FD0DF4F86E996E5A8E6BEE388839983AA8362
S1131FE0BB83EE58FF4F86E996E5A8E6BEEB8083F7
S1131FF09183A283B383DF91CF911F910F910895B1
S1132000CF93DF93CDB7DEB76C970FB6F894DEBFEE
S11320100FBECDBF0E94FF3F9C8F8B8F8CE491E05D
S11320200E94AF5E1C01DC011C9213961C92139754
S1132030FC01148215821682178218961D921D9235
S11320401D921C921B971486158616861786509629
S11320501D921D921D921C925397148A158A168AFA
S1132060178A58961D921D921D921C925B97148E8E
S1132070158E168E178E90961D921D921D921C928F
S1132080939714A215A216A217A298961D921D92B8
S11320901D921C929B9714A615A616A617A6D09659
S11320A01D921D921D921C92D39714AA15AA16AACA
S11320B017AAD8961D921D921D921C92DB9714AEFE
S11320C015AE16AE17AEE05CFF4F1082118212827D
S11320D01382FC01EC5BFF4F108211821282138287
S11320E0FC01E85BFF4F1082118212821382FC0113
S11320F0E45BFF4F1082118212821382FC01E05BC9
S1132100FF4F1082118212821382FC01EC5AFF4F9E
S11321101082118212821382FC01E85AFF4F10824E
S1132120118212821382FC01E45AFF4F1082118241
S113213012821382FC01E05AFF4F10821182128234
S11321401382FC01EC59FF4F108211821282138218
S1132150FC01E859FF4F1082118212821382FC01A4
S1132160E459FF4F1082118212821382FC01E0595C
S1132170FF4F1082118212821382FC01EC58FF4F30
S11321801082118212821382FC01E858FF4F1082E0
S1132190118212821382FC01E458FF4F10821182D3
S11321A012821382FC01E058FF4F108211821282C6
S11321B01382FC01EC57FF4F1082118212821382AA
S11321C0FC01E857FF4F1082118212821382FC0136
S11321D0E457FF4F1082118212821382FC01E057F0
S11321E0FF4F1082118212821382FC01EC56FF4FC2
S11321F01082118212821382FC01E856FF4F108272
S1132200118212821382FC01E456FF4F1082118264
S113221012821382FC01E056FF4F10821182128257
S11322201382FC01EC55FF4F10821182128213823B
S1132230FC01E855FF4F1082118212821382FC01C7
S1132240E455FF4F1082118212821382FC01E05583
S1132250FF4F1082118212821382FC01EC54FF4F53
S11322601082118212821382FC01E854FF4F108203
S1132270118212821382FC01E454FF4F10821182F6
S113228012821382FC01E054FF4F108211821282E9
S11322901382FC01EC53FF4F1082118212821382CD
S11322A0FC01E453FF4F1082118212821382FC015D
S11322B0E053FF4F1082118212821382FC01EC5210
S11322C0FF4F1082118212821382FC01E852FF4FE9
S11322D01082118212821382FC01E452FF4F108299
S11322E0118212821382FC01E052FF4F108211828C
S11322F012821382FC01EC51FF4F10821182128270
S11323001382FC01E851FF4F108211821282138262
S1132310FC01E451FF4F1082118212821382FC01EE
S1132320E051FF4F1082118212821382FC01EC50A3
S1132330FF4F1082118212821382FC01E850FF4F7A
S11323401082118212821382FC01E85FFE4F108218
S1132350118212821382FC01E45FFE4F108211820B
S113236012821382FC01E05FFE4F108211821282FE
S11323701382FC01EC5EFE4F1082118212821382E2
S1132380FC01E85EFE4F1082118212821382FC016E
S1132390E45EFE4F1082118212821382FC01E05E21
S11323A0FE4F1082118212821382FC01EC5DFE4FFB
S11323B01082118212821382FC01E85DFE4F1082AA
S11323C0118212821382FC01E45DFE4F108211829D
S11323D012821382FC01E05DFE4F10821182128290
S11323E01382FC01EC5CFE4F108211821282138274
S11323F0FC01E85CFE4F1082118212821382FC0100
S1132400E45CFE4F108211821282138281E01196E5
S11324108C93119712968C938EE890E00E94AF5E95
S11324202C01B1010E94B401B201C1010E948D0EC0
S1132430F1018381811136C08AE090E00E94AF5E91
S11324407C0180E094E2A4EFB0E0F7018083918303
S1132450A283B38380E094E09583848382E390E055
S11324609783868385E090E0918780878AE090E077
S11324700E94AF5E5C018AE092E0D5018D939C934B
S113248080E990EDA3E0B0E0F50182839383A48317
S1132490B58316821782F186E0868B8B9C8BAD8B7D
S11324A0BE8B43C08130D9F58AE090E00E94AF5ED4
S11324B07C0180E094E2A4EFB0E0F7018083918393
S11324C0A283B38380E094E09583848388EC90E0D6
S11324D09783868384E190E0918780878AE090E007
S11324E00E94AF5E5C018AE092E0D5018D939C93DB
S11324F080E092ECA1E0B0E0F50182839383A483B1
S1132500B583168281E08783F186E08680E092ECD1
S1132510A1E0B0E08B8B9C8BAD8BBE8B06C01B8A7D
S11325201C8A1D8A1E8AA12CB12CD501ED91FC9127
S11325300480F581E02DC50119958AE090E00E94A0
S1132540AF5E9C838B838AE092E0EB81FC81918374
S1132550808380E096E9A0E0B0E082839383A48343
S1132560B58381E08683878311861086CF010E941C
S1132570880C81E090E00E94AF5E9C878B870E946C
S1132580FB0D82E090E00E94AF5E4C01DC01AD9255
S1132590BC92F1018181813031F58CE090E00E94A0
S11325A0AF5E9A8789870F2EF4E6EF2EF12CF02D7B
S11325B001E010E022E0A101B4010E94875E8EE0F8
S11325C090E00E94AF5E9A8389830F2EF8ECCF2EA1
S11325D0D12CF02DE12CF12C02E09201A101B401E7
S11325E00E94705A54C0811126C08CE090E00E9471
S11325F0AF5E9A8789870F2EFAE0EF2EF12CF02D2B
S113260001E010E020E0A101B4010E94875E8EE0A9
S113261090E00E94AF5E9A8389830F2EFAE0CF2E5A
S1132620D12CF02DE12CF12C00E09201A101B40198
S11326300E94705A2CC0823031F58CE090E00E94E8
S1132640AF5E9A8789870F2EFAE0EF2EF12CF02DDA
S113265001E010E021E0A101B4010E94875E8EE058
S113266090E00E94AF5E9A8389830F2EFAE0CF2E0A
S1132670D12CF02DE12CF12C01E09201A101B40147
S11326800E94705A04C01A8619861A8219828AE036
S113269090E00E94AF5E9E878D8748EC50E062E038
S11326A070E00E94B55A82E292E0AD85BE85119633
S11326B09C938E9317961C92179783E090E019963B
S11326C09C938E93189789E090E00E94AF5E988F58
S11326D08F8B2AE030E043E050E0B2010E94875340
S11326E089E090E00E94AF5E9A8F898F2AE030E003
S11326F044E050E0B2010E945E53F10182818111F5
S11327000FC00F2EFDECCF2EFCECDF2EFCE4EF2EE1
S1132710FDE3FF2EF02DCD82DE82EF82F88612C01B
S11327200F2EF5E0CF2EFFE2DF2EF7E2EF2EFCE3D3
S1132730FF2EF02D8AE097EDA3EABCE38D839E8300
S1132740AF83B88784E690E00E94AF5E4C01DC0161
S1132750CD92DD92ED92FC921397FC0114821582C6
S11327601682178218961D921D921D921C921B9719
S1132770148615861686178650961D921D921D92F4
S11327801C925397148A158A168A178A58961D9292
S11327901D921D921C925B97148E158E168E178EA9
S11327A090961D921D921D921C92939714A215A2AD
S11327B016A217A298961D921D921D921C929B9789
S11327C014A615A616A617A6D0961D921D921D92A4
S11327D01C92D39714AA15AA16AA17AAD8961D92C2
S11327E01D921D921C92DB9714AE15AE16AE17AE59
S11327F0E05CFF4F80E090E0A0E8BFE3808391833A
S1132800A283B383F401EC5BFF4F10821182128226
S11328101382F401E85BFF4F10821182128213824B
S1132820F401E45BFF4F1082118212821382F401DF
S1132830E05BFF4F80839183A283B383F401EC5A5E
S1132840FF4F1082118212821382F401E85AFF4F63
S11328501082118212821382F401E45AFF4F108213
S1132860118212821382F401E05AFF4F8083918314
S1132870A283B3838FE090E00E94AF5E988B8F8732
S11328806894CC24C1F8D12C0F2EF5E0EF2EF12C56
S1132890F02D810194014D815E816F8178850E94C4
S11328A0115381E090E00E94AF5E7C01E1E0DC0125
S11328B0EC930E94840D81E090E00E94AF5E9E83C1
S11328C08D8382E0AD81BE818C93CD010E94840D05
S11328D08AE490E00E94AF5E4C01FC01F5A2E4A200
S11328E017A216A211A610A613A612A615A614A620
S11328F017A616A611AA10AA12AA13AA14AA15AAF0
S113290016AA17AA10AE11AE12AE13AE14AE15AEBF
S1132910FE961082118212821382FC01EE5BFF4F3D
S11329201082118212821382FC01EA5BFF4F108233
S1132930118212821382E82FF92D84E2DF011D92A5
S11329408A95E9F7C82CD92C1BEDE12E1FE0F12E56
S113295009EC1FE320E030E0A9016BED7FE089E49E
S113296090E40E941E61C4010E945B4A8BE290E0E5
S11329700E94AF5E3C018B819C81F3019183808333
S1132980128213821482158216821782108611868F
S1132990128613861486158616861786108A118A5F
S11329A0128A138A148A158A168A178A108E118E2F
S11329B0128E138E148E158E168E178E10A211A2DF
S11329C012A213A214A215A216A217A210A611A64F
S11329D021E022A7C3010E94574982E490E00E94AB
S11329E0AF5E7C01ED81FE81DC011196FC93EE93D8
S11329F012961D921D921D921C921597FC0116822F
S1132A001782108611861A961D921D921D921C9291
S1132A101D9716861786108A118A128A138A148AB9
S1132A20158A168A178A108E118E128E138E148EA2
S1132A30158E168E178E10A211A212A213A214A222
S1132A4015A216A217A210A611A612A613A614A6C2
S1132A5015A616A617A610AA11AA12AA13AA14AA92
S1132A6015AA16AA17AA10AE11AEFA96DA961C92F7
S1132A7011821282138214821582168217820E9496
S1132A80474188E390E00E94AF5E6C016B857C85D2
S1132A900E94964BC6010E94504D8CE090E00E942B
S1132AA0AF5E9C838B8304E110E027E030E0A30158
S1132AB0B1010E948C548BE090E00E94AF5E9E8333
S1132AC08D8302E010E028E030E0A401B1010E940F
S1132AD025558DE090E00E94AF5E4C0104E010E0CB
S1132AE029E030E0A701B1010E94F9538BE090E0A6
S1132AF00E94AF5E9C878B872AE030E0A601B1017B
S1132B000E9490550E94F71B9A8B898BFC01E95A0D
S1132B10FF4F318220828BE090E00E94AF5E7C0107
S1132B202BE030E049895A89B1010E9401566D8534
S1132B307E858B8D9C8D0E9425406B817C818B8D45
S1132B409C8D0E9425406D817E818B8D9C8D0E9481
S1132B502540B4018B8D9C8D0E9425406B857C851E
S1132B608B8D9C8D0E94254069817A818B8D9C8DF3
S1132B700E94254069857A858B8D9C8D0E94254015
S1132B806F89788D8B8D9C8D0E942540698D7A8DFF
S1132B908B8D9C8D0E9425406F8578898B8D9C8DB3
S1132BA00E942540B7018B8D9C8D0E942540F10128
S1132BB010820D9A15988281813009F0B7C10B8D6E
S1132BC01C8D80C0C3010E940249C3010E94C848F1
S1132BD0C3010E9405487C01FFEF24E38CE0F1501F
S1132BE020408040E1F700C00000D501ED91FC9148
S1132BF00680F781E02D64E5C5011995D501ED91B5
S1132C00FC91A701662757FD6095762F0484F5850E
S1132C10E02DC5011995D501ED91FC91D3011696CE
S1132C204D915D916D917C9119970484F585E02D0A
S1132C30C5011995D501ED91FC91D30156964D919D
S1132C405D916D917C9159970284F385E02DC501C6
S1132C501995D501ED91FC91D3019A966C9100845C
S1132C60F185E02D70E0C5011995D501ED91FC9138
S1132C70D3011A964D915D916D917C911D970484B9
S1132C80F585E02DC5011995D501ED91FC91D30190
S1132C901E964D915D916D917C9151970484F585BB
S1132CA0E02DC5011995D501ED91FC91D301529602
S1132CB04D915D916D917C9155970484F585E02D3E
S1132CC0C5011995C3010E94F049882309F47ACFFC
S1132CD0F30186899789A08DB18D893E9340A10522
S1132CE0B10568F06FCFC3010E9402492FEF84E35E
S1132CF09CE0215080409040E1F700C00000F301C7
S1132D0082819381A481B581892B8A2B8B2B59F3E2
S1132D1086819781A085B185892B8A2B8B2B19F30A
S1132D201C8F0B8F7101FCEBEF0EF11CD3011A9673
S1132D306D917D918D919C911D970E94DF66F701A5
S1132D4060837183828393837101F0ECEF0EF11C35
S1132D50D3011E966D917D918D919C9151970E9406
S1132D60DF66F70160837183828393837101F4ECDE
S1132D70EF0EF11CD30152966D917D918D919C9132
S1132D8055970E94DF66F701608371838283938382
S1132D90D101A45EBE4FF101EC55FF4F208131817A
S1132DA042815381F101E056FF4F6081718182813C
S1132DB093818D010E94C65EFFEF29E688E1F15000
S1132DC020408040E1F700C000000F2EF5E0EF2E18
S1132DD0F12CF02D03E010E0CB8CDC8C16C0D40178
S1132DE0ED91FC910190F081E02DC4011995EFE380
S1132DF0FCE93197F1F700C00000F1E0AF1AB10827
S1132E0071F721E0E21AF10811F05801E8CFDC8EE5
S1132E10CB8EF101EC5EFE4F20E030E54DE754E44B
S1132E2060817181828193810E9444660E947768E7
S1132E302BE230E348EA50E40E9444669B01AC0173
S1132E4060E070E080E291E40E942569A8EC2A0E1B
S1132E50311C20E030E040E85FE30E945F6524ED30
S1132E6034EB46EE56EB0E94446628E439EF41E524
S1132E7050E40E94446620E030E048EC52EC0E94AA
S1132E80C268F10160837183828393830F2EF5E01E
S1132E90EF2EF12CF02D03E010E0AB85BC85ED9115
S1132EA0FC9111970190F081E02DCD011995AB8132
S1132EB0BC81ED91FC9111970190F081E02DCD0141
S1132EC019955801D401ED91FC910190F081E02D08
S1132ED0C4011995EFE3FCE93197F1F700C0000054
S1132EE0F1E0AF1AB10871F7AD81BE81ED91FC91AB
S1132EF011970190F081E02DCD011995AF85B88926
S1132F00ED91FC9111970190F081E02DCD0119957F
S1132F10EFE3FCE93197F1F700C00000F1E0EF1AAC
S1132F20F10809F0BACFDC8ECB8E25C18AE090E09F
S1132F300E94AF5E5C018AE092E0D5018D939C9380
S1132F408B899C89AD89BE89F50182839383A4838F
S1132F50B583168281E087831186108682E090E033
S1132F600E94AF5E9A838983DC01AD92BC928EE0AD
S1132F7090E00E94AF5E4C010F2EFAE0CF2ED12CD0
S1132F80F02DE12CF12C00E09201A10169817A81FC
S1132F900E94705AF101E056FF4FFA87E9878101D8
S1132FA00C551F4FC8010B8D1C8D9C838B83D40142
S1132FB0ED91FC910190F081E02DC4011995E98512
S1132FC0FA85C080D180E280F38020E030E0A9015E
S1132FD0C701B6010E943D66882369F020E030E015
S1132FE0A901AB81BC816D917D918D919C910E94D1
S1132FF03D66811131C0BFEFE1EEF4E0B150E04035
S1133000F040E1F700C00000D2CFD401ED91FC9173
S11330100480F581E02DC4011995E981FA81309786
S113302019F0CF010E94B25EA114B10409F4A3C047
S1133030D501ED91FC910280F381E02DC501199534
S11330409AC0C8010E947A40F80180AD8823C9F370
S1133050C2010E940A04F5CF1C8F0B8F8101045416
S11330601F4FF101E450FF4F608171818281938190
S11330700E94DF66D8016D937D938D939C93139783
S1133080810100541F4FF101F395608171818281A8
S113309093810E94DF66F801608371838283938346
S11330A081010C531F4FF101EC5FFE4F6081718170
S11330B0828193810E94DF66D8016D937D938D9305
S11330C09C9313978101045E1E4FF101EC55FF4F51
S11330D02081318142815381C701B6010E94C65EBD
S11330E0F101EC5EFE4F20E030E54DE754E46081F1
S11330F07181828193810E9444660E9477682BE2E9
S113310030E348EA50E40E9444669B01AC0160E06D
S113311070E080E291E40E942569B8EC2B0E311C2A
S113312020E030E040E85FE30E945F6524ED34EB8B
S113313046EE56EB0E94446628E439EF41E550E43C
S11331400E94446620E030E048EC52EC0E94C268E1
S1133150F1016083718382839383FFEF21EE84E026
S1133160F15020408040E1F700C000008114910438
S113317009F04BCF52CF159AC3010E94C3498B8DDE
S11331809C8D0E943F408B8D9C8D0E94BB40898901
S11331909A890E94301D89899A890E94831E0B8D09
S11331A01C8D4FCF0F931F93CF93DF93D901E80169
S11331B01416150674F4E62FF72F4E0F5F1F919126
S11331C08C91890F8C939881890F8883E417F50774
S11331D0B1F7DF91CF911F910F9108952F923F92F4
S11331E04F925F926F927F928F929F92AF92BF9213
S11331F0CF92DF92EF92FF920F931F93CF93DF93BF
S113320000D01F92CDB7DEB77C018B014DB65EB600
S11332106115710509F473C04B829EB79C83DB0171
S1133220ED91FC910480F581E02DCB0119955C01B1
S1133230C8010E94A2244C016C01B5E0CB0ED11C44
S11332401C01E4E02E0E311C8DB79EB78C199D092C
S11332500FB6F8949EBF0FBE8DBF6DB67EB6A1E0CB
S1133260B0E06A0E7B1E85EBEDB7FEB7818382E684
S1133270D30111968C93119787ED12968C932DB7E9
S11332803EB72C5F3F4F482D592D6A2D7B2D822F41
S1133290932F0E94506C1A8219828E010F5F1F4F68
S11332A09E012E5F3F4FA401B501C7010E94D218B1
S11332B0F301E80DF91D8A818383F301E20DF31D07
S11332C089818083F701808191810E94240D00E02F
S11332D010E0812C912C0C151D05A4F4811491048B
S11332E0D1F010C0C5010E94BA5E3B812C81832FAE
S11332F0922F0FB6F8949EBF0FBE8DBF1DC0812CB8
S1133300912C1AC0D7018D919C910E942C0DA1146F
S1133310B10441F7EACFF70180819181D3016D9126
S11333203D01DC01ED91FC910680F781E02D1995BA
S11333304C010F5F1F4FCFCF882D992D0FB6F894F6
S11333405EBE0FBE4DBE0F900F900F900F90DF9199
S1133350CF911F910F91FF90EF90DF90CF90BF908E
S1133360AF909F908F907F906F905F904F903F9021
S11333702F9008952F923F924F925F926F927F9277
S11333808F929F92AF92BF92CF92DF92EF92FF9271
S11333900F931F93CF93DF93CDB7DEB728970FB664
S11333A0F894DEBF0FBECDBF6C014B01ADB6BEB607
S11333B01E82DC018D919C910E94240D00E0E6C0E8
S11333C0123621F48E81873D09F4F3C0BFEFEB166A
S11333D0FB0609F0DAC0D5C01D82F6018081918117
S11333E0DC01ED91FC910288F389E02DBE016B5F55
S11333F07F4F19957C01009709F0C3C08D818430FB
S113340009F4DCC020F4823009F0B2C00CC086306C
S113341009F4DAC0873009F0ABC00F2EFDE56F2E3A
S1133420712CF02D06C00F2EF9E26F2E77247394C1
S1133430F02DBDB7BF83EEB7E8872DB73EB7261989
S113344037090FB6F8943EBF0FBE2DBF2DB63EB65A
S1133450A1E0B0E02A0E3B1E2101EDB7FEB7818347
S113346001E010E0061517050CF0B4C0E114F104F6
S113347009F4B4C073C01C821B821A821982D6015B
S11334808D919C91DC01ED91FC910288F389E02DF2
S1133490BE016C5F7F4F1995F60180819181DC013B
S11334A0ED91FC910288F389E02DBE016D5F7F4FA1
S11334B019957C018E010F5F1F4F9E012E5F3F4FB8
S11334C0A301622D732DC6010E94D2189A818C81AA
S11334D0981330C099818B81981333C08D818430C7
S11334E089F018F48230A1F505C0863099F0873050
S11334F079F518C0822D932D0E94FC32F40191833A
S113350080832CC0822D932D0E94F925D4018D93A4
S11335109C9324C0822D932D0E947429F4019183DD
S113352080831CC0822D932D0E94FB23D4018D9394
S11335309C9314C00F2EFCEFEF2EFF24FA94F02D71
S11335400DC00F2EFCEFEF2EFF24FA94F02D06C0D1
S11335500F2EFDEFEF2EFF24FA94F02D3F812885E6
S1133560832F922F0FB6F8949EBF0FBE8DBF06C057
S11335700F2EFDEFEF2EFF24FA94F02DE114F10449
S1133580F1F1F401118210823AC0012F1E81F6017B
S113359080819181DC01ED91FC910288F389E02D19
S11335A0BE016A5F7F4F19957C01053B09F00ECF80
S11335B007CFE114F10409F40FCFE3CF0F2EF1E4A8
S11335C06F2E712CF02D35CF0F2EF9E76F2E712C45
S11335D0F02D2FCFE114F10409F64DCFF6018081CF
S11335E09181DC01ED91FC91B201600F711F0288A1
S11335F0F389E02D19957C010F5F1F4F33CFD6015E
S11336008D919C910E942C0D8E2D9F2D0FB6F894B8
S1133610BEBE0FBEADBE28960FB6F894DEBF0FBE79
S1133620CDBFDF91CF911F910F91FF90EF90DF906D
S1133630CF90BF90AF909F908F907F906F905F904E
S11336404F903F902F900895CF92DF92EF92FF9288
S11336500F931F93CF93DF93CB01BA0120E030E0A7
S113366040E85FE30E94606520E030E04AEF53ECFD
S11336700E94C26820E030E744E956E40E94606595
S1133680062F172FD82FC92FC62ED72EE82EF92E86
S113369020E030E744E956E40E946C6818166CF0A8
S11336A020E030EA4CE856E4602F712F8D2F9C2FD8
S11336B00E943D6688237CF01BC0C12C0F2EF0E7CE
S11336C0DF2EF02D0F2EF4E9EF2EF02D0F2EF6E461
S11336D0FF2EF02D0DC0C12C0F2EF0EADF2EF02DA1
S11336E00F2EFCE8EF2EF02D0F2EF6E4FF2EF02D1A
S11336F06C2D7D2D8E2D9F2DDF91CF911F910F91DC
S1133700FF90EF90DF90CF900895CF92DF92EF92E9
S1133710FF920F931F93CF93DF93CB01BA01605DA8
S11337207740810991090E94DF662FE632E143E880
S11337305AE30E94C26820E030E040E85FE30E9460
S11337405F65062F172FD82FC92FC62ED72EE82E28
S1133750F92E20E030E040E85FE30E946C68181620
S11337606CF020E030E040E85FEB602F712F8D2F8C
S11337709C2F0E943D668823A4F40AC0C12CD12C3E
S11337806894EE24E7F80F2EFFE3FF2EF02D09C016
S1133790C12CD12C6894EE24E7F80F2EFFEBFF2EFA
S11337A0F02D6C2D7D2D8E2D9F2DDF91CF911F91AE
S11337B00F91FF90EF90DF90CF9008950F931F9398
S11337C080E49CE9A0E0B0E08C019D01041B150B92
S11337D0260B370BC901B8010E94DF6620E030E0F8
S11337E040E05FE30E94C2681F910F9108958091A9
S11337F0780390917903892B09F057C089E590E00B
S11338000E94AF5EFC01E95AFF4F118210829C01B5
S11338102F5F3F4F40E2E22FF32FDF01242F1D9251
S11338202A95E9F79C012F5D3F4FE22FF32FDF012B
S11338301D924A95E9F7FC01EF5BFF4F108211825C
S113384012821382FC01EB5BFF4F11821082FC0198
S1133850E95BFF4F11821082FC01E75BFF4F11828D
S11338601082FC01E55BFF4F11821082FC01E35BD7
S1133870FF4F11821082FC01E15BFF4F1182108225
S1133880FC01EF5AFF4F11821082FC01ED5AFF4FE9
S113389011821082FC01EB5AFF4F11821082FC014D
S11338A010829093790380937803809178039091A8
S11338B0790308951F920F920FB60F9211240BB63D
S11338C00F92CF92DF92EF92FF920F931F932F9359
S11338D03F934F935F936F937F938F939F93AF9394
S11338E0BF93CF93DF93EF93FF930E94F71BEC01F9
S11338F0409126015091270160E070E0FC01EF5BEC
S1133900FF4F0081118122813381401751076207E3
S113391073075CF4DB01CA01805C9346AF4FBF4F71
S1133920801B910BA20BB30B06C0DB01CA01801BE9
S1133930910BA20BB30BFE01EF5BFF4F408351834E
S11339406283738381342FE19207A105B1052CF0C2
S1133950CB5BDF4F1982188268C0AC01BD01475CA4
S1133960574061097109433E57406105710508F0EC
S113397055C0FE01EB5BFF4F2081318121153105DC
S113398069F440ED57E060E070E049835A836B834B
S11339907C838D839E83AF83B88740C028303105F4
S11339A0ECF5FE01E95AFF4F00811181F901EE0F98
S11339B0FF1FEE0FFF1FEC0FFD1F81839283A38374
S11339C0B4832730310551F5498D5A8D6B8D7C8D2B
S11339D0CE010E94851B6B017C0123E333E343E3A7
S11339E05FE30E943D6618161CF0F801108203C0C4
S11339F081E0F8018083F801E85EFE4FC082D18245
S1133A00E282F3828881811109C0DE019196FE0170
S1133A10319680E201900D928A95E1F7CB5BDF4FFE
S1133A2088819981019699838883FF91EF91DF9131
S1133A30CF91BF91AF919F918F917F916F915F9142
S1133A404F913F912F911F910F91FF90EF90DF9035
S1133A50CF900F900BBE0F900FBE0F901F90189534
S1133A60CF93DF93EC0184B1806684B9E1E0F1E0A7
S1133A708081886380838DB188638DB980E890E00C
S1133A80FC01208122602083E1E8F0E020812061B4
S1133A902083A0E9B0E02C9122602C93E1E9F0E0CE
S1133AA020812061208360EA70E0FB012081226094
S1133AB0208321EA30E0F901408140614083FC0128
S1133AC02081206F20838C918C6F8C93FB018081EB
S1133AD08C6F808340E050E060E87FEBCE010E9471
S1133AE0241B0E94B16670938B0060938A0040E0AF
S1133AF050E0BA01CE010E94241B0E94B16670936B
S1133B0089006093880070939D0060939C0070937B
S1133B109B0060939A00709399006093980070934F
S1133B20AD006093AC007093AB006093AA007093F7
S1133B30A9006093A80080E29EE49093870080939C
S1133B40860090939700809396009093A7008093AB
S1133B50A600EAE0F1E080818D7F808383E080939A
S1133B602001E1E2F1E088E1808380818064808348
S1133B7080E49CE990932901809328017894E3E7F9
S1133B80F0E0808180628083DF91CF9108952F924D
S1133B903F924F925F926F927F928F929F92AF92D9
S1133BA0BF92CF92DF92EF92FF920F931F93CF9326
S1133BB0DF93CDB7DEB728970FB6F894DEBF0FBEFC
S1133BC0CDBF2A013B0109831A832B833C83BE8228
S1133BD0AD8298868F8220E030E04CE053E4C70148
S1133BE0B6010E94C268A62EB72EC82ED92E762FF3
S1133BF0272F3B2D4C2D5D2D60E078E880E996E47D
S1133C000E945F65962E872E382E292E20E030E004
S1133C104CEA52E469817A818B819C810E94C2685A
S1133C20E62EF72E082F192F20E030E041E153E46F
S1133C30C301B2010E94C268462E572E682E792E07
S1133C402E2D3F2D402F512F692D782D832D922D10
S1133C500E946065242D352D462D572D0E945F65E9
S1133C60EE8DFF8D608371838283938320E038E837
S1133C7040E956E46A2D7B2D8C2D9D2D0E946065B4
S1133C802E2D3F2D402F512F0E945F65242D352D61
S1133C90462D572D0E945F65ED81FE8160837183FF
S1133CA08283938320E030E04CE253E469817A819B
S1133CB08B819C810E94C2689B01AC01692D782D87
S1133CC0832D922D0E945F65EF81F8856083718357
S1133CD08283938328960FB6F894DEBF0FBECDBFC0
S1133CE0DF91CF911F910F91FF90EF90DF90CF90D4
S1133CF0BF90AF909F908F907F906F905F904F9008
S1133D003F902F9008956F927F928F929F92AF92DF
S1133D10BF92CF92DF92EF92FF920F931F93CF93B4
S1133D20DF93CDB7DEB72C970FB6F894DEBF0FBE86
S1133D30CDBF3C01E1E2F1E0808182608083F30148
S1133D40FD962FEF83ED90E3215080409040E1F702
S1133D5000C0000080819181A281B381892B8A2BCC
S1133D608B2B79F319861A861B861C861D821E826C
S1133D701F82188619821A821B821C82CE01099620
S1133D809F938F9388248394912C8C0E9D1E0F2EC9
S1133D90F5E0AF2EB12CF02DAC0EBD1E0F2EC12CB4
S1133DA0D12CF0E8EF2EFFEBFF2EF02D00E010E019
S1133DB09801B901A801C3010E94C71D40E050E069
S1133DC0BA01C3010E94241B6B017C01F301E95B6E
S1133DD0FF4F118210828D809E80AF80B884F301E2
S1133DE045A156A167A170A5C3010E94DE1B9B01DA
S1133DF0AC018301075B1F4FC501B4010E945F65DD
S1133E000E94AC66F8017183608389809A80AB80DC
S1133E10BC80F30141A552A563A574A5C3010E940A
S1133E20DE1B9B01AC018301055B1F4FC501B4017F
S1133E300E945F650E94AC66F80171836083C701CC
S1133E40B6010E94AC66882777FD8095982F0E9462
S1133E50DF666B017C01F30145A556A567A570A932
S1133E60C3010E94DE1B9B01AC018301035B1F4F56
S1133E70C701B6010E945F650E94AC66F8017183B8
S1133E806083F30141A952A963A974A9C3010E94E3
S1133E90DE1B9B01AC018301015B1F4FC701B6010F
S1133EA00E945F650E94AC66F80171836083898417
S1133EB09A84AB84BC84F30145A956A967A970AD63
S1133EC0C3010E94DE1B9B01AC0183010F5A1F4FEB
S1133ED0C501B4010E945F650E94AC66F80171835C
S1133EE06083F301ED5AFF4F11821082F301FD96B6
S1133EF04081518162817381C3010E94DE1B9B0159
S1133F00AC01F5E56F0E711CC701B6010E945F6537
S1133F100E94AC66F30171836083E1E8F0E0808184
S1133F2082608083E1E9F0E0808182608083E1EA5D
S1133F30F0E08081826080830F900F902C960FB602
S1133F40F894DEBF0FBECDBFDF91CF911F910F91CB
S1133F50FF90EF90DF90CF90BF90AF909F908F90A5
S1133F607F906F9008952F923F924F925F926F923D
S1133F707F928F929F92AF92BF92CF92DF92EF92F5
S1133F80FF920F931F93CF93DF93CDB7DEB72C9798
S1133F900FB6F894DEBF0FBECDBF3C01140125015E
S1133FA0FC01E95AFF4F0190F081E02D80818111DD
S1133FB076C081E0F301808341A152A163A174A181
S1133FC0C3010E94DE1B0E94B16670938B00609354
S1133FD08A00F30145A156A167A170A5C3010E94FF
S1133FE0DE1B0E94B1667093890060938800F30120
S1133FF041A552A563A574A5C3010E94DE1B0E94BE
S1134000B1667093AD006093AC00F30145A556A56D
S113401067A570A9C3010E94DE1B0E94B16670935C
S1134020AB006093AA00F30141A952A963A974A942
S1134030C3010E94DE1B0E94B1667093A9006093C5
S1134040A800F30145A956A967A970ADC3010E9450
S1134050DE1B0E94B16670939D0060939C00F30187
S113406041AD52AD63AD74ADC3010E94DE1B0E942D
S1134070B16670939B0060939A00F301FD964081B2
S1134080518162817381C3010E94DE1B0E94B1666B
S11340907093990060939800F3011082F4C081300A
S11340A009F0F1C019861A861B861C861D821E82A1
S11340B01F82188619821A821B821C82CE010996DD
S11340C09F938F9388248394912C8C0E9D1E0F2E86
S11340D0F5E0AF2EB12CF02DAC0EBD1EC3010E9435
S11340E0C71D81E0F301808341A152A163A174A1A2
S11340F0C3010E94DE1B0E94B16670938B00609323
S11341008A00F3011082E75BFF4F60817181882789
S113411077FD8095982F0E94DF669B01AC016D812D
S11341207E818F8198850E945F650E94B16670933D
S1134130890060938800F301E55BFF4F6081718122
S1134140882777FD8095982F0E94DF669B01AC013C
S113415069817A818B819C810E945F650E94B1662E
S11341607093AD006093AC00B201A101C3010E9441
S1134170241B6B017C01F301E35BFF4F60817181C0
S1134180882777FD8095982F0E94DF669B01AC01FC
S1134190C701B6010E945F650E94B1667093AB00CF
S11341A06093AA0040E050E0BA01C3010E94241BBE
S11341B06B017C01F301E15BFF4F60817181882712
S11341C077FD8095982F0E94DF669B01AC01C701A3
S11341D0B6010E945F650E94B1667093A900609366
S11341E0A800F301EF5AFF4F60817181882777FDA2
S11341F08095982F0E94DF669B01AC0169857A85C2
S11342008B859C850E945F650E94B16670939D00BA
S113421060939C004AA15BA16CA17DA1C3010E9493
S1134220241B4B015C01F301ED5AFF4F6081718146
S1134230882777FD8095982F0E94DF669B01AC014B
S1134240C501B4010E945F650E94B16670939B0032
S113425060939A00F301EB5AFF4F608171818827C4
S113426077FD8095982F0E94DF669B01AC01C70102
S1134270B6010E945F650E94B166709399006093D5
S113428098000F900F902C960FB6F894DEBF0FBED7
S1134290CDBFDF91CF911F910F91FF90EF90DF90F1
S11342A0CF90BF90AF909F908F907F906F905F90D2
S11342B04F903F902F90089528E432E0FC01318321
S11342C02083089528E432E0FC01318320830E9496
S11342D0B25E0895CF93DF93EC0181E190E00E94F8
S11342E0B75EFC018A8180838D819E81AF81B88510
S11342F081839283A383B48349855A856B857C85A6
S113430045835683678370874D855E856F8578897D
S1134310418752876387748749895A896B897C8965
S1134320458756876787708B8E2F9F2FDF91CF919C
S11343300895CF93DF93FC01EB01209711F188815D
S1134340828389819A81AB81BC8185839683A7838B
S1134350B0874D815E816F817885418752876387FD
S1134360748749855A856B857C8545875687678719
S1134370708B4D855E856F857889418B528B638BFD
S1134380748BDF91CF91089528E432E0FC013183EE
S11343902083089528E432E0FC01318320830E94C5
S11343A0B25E0895CF93DF93EC018DE590E00E9417
S11343B0B75EFC018A8180838D819E81AF81B8853F
S11343C081839283A383B48389859A85AB85BC85D5
S11343D085839683A783B0878D859E85AF85B889AD
S11343E081879287A387B48789899A89AB89BC8995
S11343F085879687A787B08B8D899E89AF89B88D6D
S1134400818B928BA38BB48B898D9A8DAB8DBC8D54
S1134410858B968BA78BB08F8D8D9E8DAF8DB8A11C
S1134420818F928FA38FB48F89A19AA1ABA1BCA1D4
S1134430858F968FA78FB0A38DA19EA1AFA1B8A59C
S113444081A392A3A3A3B4A389A59AA5ABA5BCA554
S113445085A396A3A7A3B0A78DA59EA5AFA5B8A92C
S113446081A792A7A3A7B4A789A99AA9ABA9BCA914
S113447085A796A7A7A7B0AB8DA99EA9AFA9B8ADEC
S113448081AB92ABA3ABB4AB89AD9AADABADBCADD4
S113449085AB96ABA7ABB0AFDE01DD968D919D9158
S11344A00D90BC91A02D81AF92AFA3AFB4AF9F018B
S11344B0235C3F4FDE01AF5BBF4F4D915D916D912A
S11344C07C91D9014D935D936D937C9313979F01D8
S11344D02F5B3F4FDE01AB5BBF4F4D915D916D9103
S11344E07C91D9014D935D936D937C9313979F01B8
S11344F02B5B3F4FDE01A75BBF4F4D915D916D91EB
S11345007C91D9014D935D936D937C9313979F0197
S1134510275B3F4FDE01A35BBF4F4D915D916D91D2
S11345207C91D9014D935D936D937C9313979F0177
S1134530235B3F4FDE01AF5ABF4F4D915D916D91AB
S11345407C91D9014D935D936D937C9313979F0157
S11345502F5A3F4FCE018B5A9F4FDC014D915D91F5
S11345606D917C91D9014D935D936D937C931397D9
S11345709F012B5A3F4FCE01875A9F4FDC014D912B
S11345805D916D917C91D9014D935D936D937C9375
S11345901397DF01A75ABF4FC35ADF4F4881598190
S11345A06A817B814D935D936D937C9313978E2FDA
S11345B09F2FDF91CF910895CF93DF93FC01DB010F
S11345C0109709F415C18C91828311964D915D91D8
S11345D06D917C91149745835683678370871596F4
S11345E04D915D916D917C911897418752876387B6
S11345F0748719964D915D916D917C911C974587B7
S113460056876787708B1D964D915D916D917C9156
S11346105097418B528B638B748B51964D915D9166
S11346206D917C915497458B568B678B708F559603
S11346304D915D916D917C915897418F528F638F0D
S1134640748F59964D915D916D917C915C97458FD6
S1134650568F678F70A35D964D915D916D917C919E
S1134660909741A352A363A374A391964D915D9136
S11346706D917C91949745A356A367A370A79596D3
S11346804D915D916D917C91989741A752A763A735
S113469074A799964D915D916D917C919C9745A7D6
S11346A056A767A770AB9D964D915D916D917C91D6
S11346B0D09741AB52AB63AB74ABD1964D915D9146
S11346C06D917C91D49745AB56AB67AB70AFD596E3
S11346D04D915D916D917C91D89741AF52AF63AF8D
S11346E074AFEF01ED96D9964D915D916D917C91EA
S11346F0DC97488359836A837B839F012F5B3F4FF9
S1134700CD01CD96EC01488159816A817B81E90113
S1134710488359836A837B839F012B5B3F4FCD0181
S11347208F5B9F4FEC01488159816A817B81E9014C
S1134730488359836A837B839F01275B3F4FCD0165
S11347408B5B9F4FEC01488159816A817B81E90130
S1134750488359836A837B839F01235B3F4FCD0149
S1134760875B9F4FEC01488159816A817B81E90114
S1134770488359836A837B839F012F5A3F4FCD011E
S1134780835B9F4FEC01488159816A817B81E901F8
S1134790488359836A837B839F012B5A3F4FCD0102
S11347A08F5A9F4FEC01488159816A817B81E901CD
S11347B0488359836A837B839F01275A3F4FCD01E6
S11347C08B5A9F4FEC01488159816A817B81E901B1
S11347D0488359836A837B83E35AFF4FA75ABF4FA9
S11347E04D915D916D917C9140835183628373837C
S11347F0DF91CF9108950F931F93CF93DF938C0193
S113480081E690E00E94AF5EEC0187E08A838DE54B
S113481090E09C838B838CE392E0998388831D8250
S11348201E821F82188619861A861B861C861D8680
S11348301E861F86188A198A1A8A1B8A1C8A1D8A50
S11348401E8A1F8A188E198E1A8E1B8E1C8E1D8E20
S11348501E8E1F8E18A219A21AA21BA21CA21DA290
S11348601EA21FA218A619A61AA61BA61CA61DA640
S11348701EA61FA618AA19AA1AAA1BAA1CAA1DAA10
S11348801EAA1FAA18AE19AE1AAE1BAE1CAEFE01AC
S1134890FD961082118212821382FE01EF5BFF4F9C
S11348A01082118212821382FE01EB5BFF4F108291
S11348B0118212821382FE01E75BFF4F1082118284
S11348C012821382FE01E35BFF4F10821182128277
S11348D01382FE01EF5AFF4F10821182128213825B
S11348E0FE01EB5AFF4F1082118212821382FE01E5
S11348F0E75AFF4F1082118212821382FE01E35A9B
S1134900FF4F1082118212821382B801CE010E94DD
S1134910DC228C2F9D2FDF91CF911F910F91089551
S113492028E432E0FC0131832083089580E090E0A4
S11349300895089528E432E0FC01318320830E9425
S1134940B25E0895FC0183819481089528E432E0E5
S1134950FC0131832083089528E432E0FC01318393
S113496020830E94B25E0895CF93DF93EC0181E42B
S113497090E00E94B75EFC018A8180838D819E81D4
S1134980AF81B88581839283A383B48389859A8513
S1134990AB85BC8585839683A783B0878D859E85EB
S11349A0AF85B88981879287A387B48789899A89D3
S11349B0AB89BC8985879687A787B08B8D899E89AB
S11349C0AF89B88D818B928BA38BB48B898D9A8D93
S11349D0AB8DBC8D858B968BA78BB08F8D8D9E8D6B
S11349E0AF8DB8A1818F928FA38FB48F89A19AA123
S11349F0ABA1BCA1858F968FA78FB0A38DA19EA1DB
S1134A00AFA1B8A581A392A3A3A3B4A389A59AA592
S1134A10ABA5BCA585A396A3A7A3B0A78DA59EA56A
S1134A20AFA5B8A981A792A7A3A7B4A789A99AA952
S1134A30ABA9BCA985A796A7A7A7B0AB8DA99EA92A
S1134A40AFA9B8AD81AB92ABA3ABB4AB49AD5AAD92
S1134A506BAD7CAD45AB56AB67AB70AFDE01DD969D
S1134A604D915D916D917C9141AF52AF63AF74AF45
S1134A70DF01DD96CF5BDF4F488159816A817B81FD
S1134A804D935D936D937C9313978E2F9F2FDF919E
S1134A90CF910895CF93DF93FC01DB01109709F4C4
S1134AA0A5C08C91828311964D915D916D917C91FD
S1134AB01497458356836783708715964D915D914E
S1134AC06D917C91189741875287638774871996F3
S1134AD04D915D916D917C911C97458756876787B1
S1134AE0708B1D964D915D916D917C915097418B8A
S1134AF0528B638B748B51964D915D916D917C912A
S1134B005497458B568B678B708F55964D915D915D
S1134B106D917C915897418F528F638F748F599602
S1134B204D915D916D917C915C97458F568F678F08
S1134B3070A35D964D915D916D917C91909741A389
S1134B4052A363A374A391964D915D916D917C9151
S1134B50949745A356A367A370A795964D915D912D
S1134B606D917C91989741A752A763A774A79996D2
S1134B704D915D916D917C919C9745A756A767A730
S1134B8070AB9D964D915D916D917C91D09741ABA9
S1134B9052AB63AB74ABD1964D915D916D917C91A9
S1134BA0D49745AB56AB67AB70AFD5964D915D913D
S1134BB06D917C91D89741AF52AF63AF74AFEF0161
S1134BC0ED96D9964D915D916D917C91DC974883DA
S1134BD059836A837B83EF5BFF4FDD964D915D9133
S1134BE06D917C914083518362837383DF91CF9174
S1134BF008950F931F93CF93DF938C0185E490E086
S1134C000E94AF5EEC0184E08A8381E490E09C839F
S1134C108B8384E592E0998388831D821E821F82A0
S1134C20188619861A861B861C861D861E861F8674
S1134C30188A198A1A8A1B8A1C8A1D8A1E8A1F8A44
S1134C40188E198E1A8E1B8E1C8E1D8E1E8E1F8E14
S1134C5018A219A21AA21BA21CA21DA21EA21FA264
S1134C6018A619A61AA61BA61CA61DA61EA61FA634
S1134C7018AA19AA1AAA1BAA1CAA1DAA1EAA1FAA04
S1134C8018AE19AE1AAE1BAE1CAEFE01FD96108214
S1134C90118212821382FE01EF5BFF4F1082118298
S1134CA012821382B801CE010E944A258C2F9D2FB7
S1134CB0DF91CF911F910F91089528E432E0FC0118
S1134CC031832083089528E432E0FC01318320837A
S1134CD00E94B25E0895CF93DF93EC0189E790E0E0
S1134CE00E94B75EFC018A8180838D819E81AF81A1
S1134CF0B88581839283A383B48389859A85AB85A0
S1134D00BC8585839683A783B0878D859E85AF8573
S1134D10B88981879287A387B48789899A89AB895F
S1134D20BC8985879687A787B08B8D899E89AF8933
S1134D30B88D818B928BA38BB48B898D9A8DAB8D1F
S1134D40BC8D858B968BA78BB08F8D8D9E8DAF8DF3
S1134D50B8A1818F928FA38FB48F89A19AA1ABA19F
S1134D60BCA1858F968FA78FB0A38DA19EA1AFA163
S1134D70B8A581A392A3A3A3B4A389A59AA5ABA51F
S1134D80BCA585A396A3A7A3B0A78DA59EA5AFA5F3
S1134D90B8A981A792A7A3A7B4A789A99AA9ABA9DF
S1134DA0BCA985A796A7A7A7B0AB8DA99EA9AFA9B3
S1134DB0B8AD81AB92ABA3ABB4AB89AD9AADABAD9F
S1134DC0BCAD85AB96ABA7ABB0AFDE01DD968D91E4
S1134DD09D910D90BC91A02D81AF92AFA3AFB4AFC4
S1134DE09F01235C3F4FDE01AF5BBF4F4D915D914F
S1134DF06D917C91D9014D935D936D937C93139741
S1134E009F012F5B3F4FDE01AB5BBF4F4D915D9127
S1134E106D917C91D9014D935D936D937C93139720
S1134E209F012B5B3F4FDE01A75BBF4F4D915D910F
S1134E306D917C91D9014D935D936D937C93139700
S1134E409F01275B3F4FDE01A35BBF4F4D915D91F7
S1134E506D917C91D9014D935D936D937C931397E0
S1134E609F01235B3F4FDE01AF5ABF4F4D915D91D0
S1134E706D917C91D9014D935D936D937C931397C0
S1134E809F012F5A3F4FDE01AB5ABF4F4D915D91A9
S1134E906D917C91D9014D935D936D937C931397A0
S1134EA09F012B5A3F4FDE01A75ABF4F4D915D9191
S1134EB06D917C91D9014D935D936D937C93139780
S1134EC09F01275A3F4FDE01A35ABF4F4D915D9179
S1134ED06D917C91D9014D935D936D937C93139760
S1134EE09F01235A3F4FDE01AF59BF4F4D915D9152
S1134EF06D917C91D9014D935D936D937C93139740
S1134F009F012F593F4FDE01AB59BF4F4D915D912A
S1134F106D917C91D9014D935D936D937C9313971F
S1134F209F012B593F4FDE01A759BF4F4D915D9112
S1134F306D917C91D9014D935D936D937C931397FF
S1134F409F0127593F4FDE01A359BF4F4D915D91FA
S1134F506D917C91D9014D935D936D937C931397DF
S1134F609F0123593F4FCE018F589F4FDC014D9134
S1134F705D916D917C91D9014D935D936D937C937B
S1134F8013979F012F583F4FCE018B589F4FDC0141
S1134F904D915D916D917C91D9014D935D936D938C
S1134FA07C931397DF01AB58BF4FC758DF4F48813D
S1134FB059816A817B814D935D936D937C931397A3
S1134FC08E2F9F2FDF91CF910895CF93DF93FC0114
S1134FD0DB01109709F485C18C91828311964D9160
S1134FE05D916D917C911497458356836783708797
S1134FF015964D915D916D917C91189741875287DB
S11350006387748719964D915D916D917C911C977E
S1135010458756876787708B1D964D915D916D917D
S11350207C915097418B528B638B748B51964D912D
S11350305D916D917C915497458B568B678B708FE6
S113504055964D915D916D917C915897418F528FFA
S1135050638F748F59964D915D916D917C915C979E
S1135060458F568F678F70A35D964D915D916D91BD
S11350707C91909741A352A363A374A391964D91FD
S11350805D916D917C91949745A356A367A370A7F6
S113509095964D915D916D917C91989741A752A7FA
S11350A063A774A799964D915D916D917C919C979E
S11350B045A756A767A770AB9D964D915D916D91DD
S11350C07C91D09741AB52AB63AB74ABD1964D910D
S11350D05D916D917C91D49745AB56AB67AB70AF46
S11350E0D5964D915D916D917C91D89741AF52AF1A
S11350F063AF74AFEF01ED96D9964D915D916D91CB
S11351007C91DC97488359836A837B839F012F5B5F
S11351103F4FCD01CD96EC01488159816A817B8155
S1135120E901488359836A837B839F012B5B3F4F4B
S1135130CD018F5B9F4FEC01488159816A817B814E
S1135140E901488359836A837B839F01275B3F4F2F
S1135150CD018B5B9F4FEC01488159816A817B8132
S1135160E901488359836A837B839F01235B3F4F13
S1135170CD01875B9F4FEC01488159816A817B8116
S1135180E901488359836A837B839F012F5A3F4FE8
S1135190CD01835B9F4FEC01488159816A817B81FA
S11351A0E901488359836A837B839F012B5A3F4FCC
S11351B0CD018F5A9F4FEC01488159816A817B81CF
S11351C0E901488359836A837B839F01275A3F4FB0
S11351D0CD018B5A9F4FEC01488159816A817B81B3
S11351E0E901488359836A837B839F01235A3F4F94
S11351F0CD01875A9F4FEC01488159816A817B8197
S1135200E901488359836A837B839F012F593F4F68
S1135210CD01835A9F4FEC01488159816A817B817A
S1135220E901488359836A837B839F012B593F4F4C
S1135230CD018F599F4FEC01488159816A817B814F
S1135240E901488359836A837B839F0127593F4F30
S1135250CD018B599F4FEC01488159816A817B8133
S1135260E901488359836A837B839F0123593F4F14
S1135270CD0187599F4FEC01488159816A817B8117
S1135280E901488359836A837B839F012F583F4FE9
S1135290CD0183599F4FEC01488159816A817B81FB
S11352A0E901488359836A837B839F012B583F4FCD
S11352B0CD018F589F4FEC01488159816A817B81D0
S11352C0E901488359836A837B83E758FF4FAB58CE
S11352D0BF4F4D915D916D917C9140835183628369
S11352E07383DF91CF9108950F931F93CF93DF932F
S11352F08C018DE790E00E94AF5EEC0186E08A832A
S113530089E790E09C838B8380E692E0998388838D
S11353101D821E821F82188619861A861B861C8689
S11353201D861E861F86188A198A1A8A1B8A1C8A59
S11353301D8A1E8A1F8A188E198E1A8E1B8E1C8E29
S11353401D8E1E8E1F8E18A219A21AA21BA21CA2A9
S11353501DA21EA21FA218A619A61AA61BA61CA649
S11353601DA61EA61FA618AA19AA1AAA1BAA1CAA19
S11353701DAA1EAA1FAA18AE19AE1AAE1BAE1CAEE9
S1135380FE01FD961082118212821382FE01EF5BF0
S1135390FF4F1082118212821382FE01EB5BFF4FDA
S11353A01082118212821382FE01E75BFF4F10828A
S11353B0118212821382FE01E35BFF4F108211827D
S11353C012821382FE01EF5AFF4F10821182128261
S11353D01382FE01EB5AFF4F108211821282138254
S11353E0FE01E75AFF4F1082118212821382FE01DE
S11353F0E35AFF4F1082118212821382FE01EF5989
S1135400FF4F1082118212821382FE01EB59FF4F6B
S11354101082118212821382FE01E759FF4F10821B
S1135420118212821382FE01E359FF4F108211820E
S113543012821382FE01EF58FF4F108211821282F2
S11354401382FE01EB58FF4F1082118212821382E5
S1135450FE01E758FF4F1082118212821382B801B5
S1135460CE010E94E5278C2F9D2FDF91CF911F91B4
S11354700F91089528E432E0FC01318320830895DC
S11354806115710541F0FB012081FC012283FB01C0
S11354902181FC0125830895CF93DF93EC0182E001
S11354A090E00E94B75EFC018A8180838D818183B4
S11354B08E2F9F2FDF91CF91089528E432E0FC01D5
S11354C0318320830E94B25E089528E432E0FC0117
S11354D031832083089528E432E0FC013183208362
S11354E00E94B25E0895CF93DF93EC0189E291E0CC
S11354F00E94B75EFC018A8180838D819E81AF8189
S1135500B88581839283A383B48389859A85AB8587
S1135510BC8585839683A783B0878D859E85AF855B
S1135520B88981879287A387B48789899A89AB8947
S1135530BC8985879687A787B08B8D899E89AF891B
S1135540B88D818B928BA38BB48B898D9A8DAB8D07
S1135550BC8D858B968BA78BB08F8D8D9E8DAF8DDB
S1135560B8A1818F928FA38FB48F89A19AA1ABA187
S1135570BCA1858F968FA78FB0A38DA19EA1AFA14B
S1135580B8A581A392A3A3A3B4A389A59AA5ABA507
S1135590BCA585A396A3A7A3B0A78DA59EA5AFA5DB
S11355A0B8A981A792A7A3A7B4A789A99AA9ABA9C7
S11355B0BCA985A796A7A7A7B0AB8DA99EA9AFA99B
S11355C0B8AD81AB92ABA3ABB4AB89AD9AADABAD87
S11355D0BCAD85AB96ABA7ABB0AFDE01DD968D91CC
S11355E09D910D90BC91A02D81AF92AFA3AFB4AFAC
S11355F09F01235C3F4FDE01AF5BBF4F4D915D9137
S11356006D917C91D9014D935D936D937C93139728
S11356109F012F5B3F4FDE01AB5BBF4F4D915D910F
S11356206D917C91D9014D935D936D937C93139708
S11356309F012B5B3F4FDE01A75BBF4F4D915D91F7
S11356406D917C91D9014D935D936D937C931397E8
S11356509F01275B3F4FDE01A35BBF4F4D915D91DF
S11356606D917C91D9014D935D936D937C931397C8
S11356709F01235B3F4FDE01AF5ABF4F4D915D91B8
S11356806D917C91D9014D935D936D937C931397A8
S11356909F012F5A3F4FDE01AB5ABF4F4D915D9191
S11356A06D917C91D9014D935D936D937C93139788
S11356B09F012B5A3F4FDE01A75ABF4F4D915D9179
S11356C06D917C91D9014D935D936D937C93139768
S11356D09F01275A3F4FDE01A35ABF4F4D915D9161
S11356E06D917C91D9014D935D936D937C93139748
S11356F09F01235A3F4FDE01AF59BF4F4D915D913A
S11357006D917C91D9014D935D936D937C93139727
S11357109F012F593F4FDE01AB59BF4F4D915D9112
S11357206D917C91D9014D935D936D937C93139707
S11357309F012B593F4FDE01A759BF4F4D915D91FA
S11357406D917C91D9014D935D936D937C931397E7
S11357509F0127593F4FDE01A359BF4F4D915D91E2
S11357606D917C91D9014D935D936D937C931397C7
S11357709F0123593F4FDE01AF58BF4F4D915D91BB
S11357806D917C91D9014D935D936D937C931397A7
S11357909F012F583F4FDE01AB58BF4F4D915D9194
S11357A06D917C91D9014D935D936D937C93139787
S11357B09F012B583F4FDE01A758BF4F4D915D917C
S11357C06D917C91D9014D935D936D937C93139767
S11357D09F0127583F4FDE01A358BF4F4D915D9164
S11357E06D917C91D9014D935D936D937C93139747
S11357F09F0123583F4FDE01AF57BF4F4D915D913D
S11358006D917C91D9014D935D936D937C93139726
S11358109F012F573F4FDE01AB57BF4F4D915D9115
S11358206D917C91D9014D935D936D937C93139706
S11358309F012B573F4FDE01A757BF4F4D915D91FD
S11358406D917C91D9014D935D936D937C931397E6
S11358509F0127573F4FDE01A357BF4F4D915D91E5
S11358606D917C91D9014D935D936D937C931397C6
S11358709F0123573F4FDE01AF56BF4F4D915D91BE
S11358806D917C91D9014D935D936D937C931397A6
S11358909F012F563F4FDE01AB56BF4F4D915D9197
S11358A06D917C91D9014D935D936D937C93139786
S11358B09F012B563F4FDE01A756BF4F4D915D917F
S11358C06D917C91D9014D935D936D937C93139766
S11358D09F0127563F4FDE01A356BF4F4D915D9167
S11358E06D917C91D9014D935D936D937C93139746
S11358F09F0123563F4FDE01AF55BF4F4D915D9140
S11359006D917C91D9014D935D936D937C93139725
S11359109F012F553F4FDE01AB55BF4F4D915D9118
S11359206D917C91D9014D935D936D937C93139705
S11359309F012B553F4FDE01A755BF4F4D915D9100
S11359406D917C91D9014D935D936D937C931397E5
S11359509F0127553F4FDE01A355BF4F4D915D91E8
S11359606D917C91D9014D935D936D937C931397C5
S11359709F0123553F4FDE01AF54BF4F4D915D91C1
S11359806D917C91D9014D935D936D937C931397A5
S11359909F012F543F4FDE01AB54BF4F4D915D919A
S11359A06D917C91D9014D935D936D937C93139785
S11359B09F012B543F4FDE01A754BF4F4D915D9182
S11359C06D917C91D9014D935D936D937C93139765
S11359D09F0127543F4FDE01A354BF4F4D915D916A
S11359E06D917C91D9014D935D936D937C93139745
S11359F09F0123543F4FDE01AF53BF4F4D915D9143
S1135A006D917C91D9014D935D936D937C93139724
S1135A109F012F533F4FDE01AB53BF4F4D915D911B
S1135A206D917C91D9014D935D936D937C93139704
S1135A309F012B533F4FDE01A753BF4F4D915D9103
S1135A406D917C91D9014D935D936D937C931397E4
S1135A509F0127533F4FDE01A353BF4F4D915D91EB
S1135A606D917C91D9014D935D936D937C931397C4
S1135A709F0123533F4FDE01AF52BF4F4D915D91C4
S1135A806D917C91D9014D935D936D937C931397A4
S1135A909F012F523F4FDE01AB52BF4F4D915D919D
S1135AA06D917C91D9014D935D936D937C93139784
S1135AB09F012B523F4FDE01A752BF4F4D915D9185
S1135AC06D917C91D9014D935D936D937C93139764
S1135AD09F0127523F4FDE01A352BF4F4D915D916D
S1135AE06D917C91D9014D935D936D937C93139744
S1135AF09F0123523F4FDE01AF51BF4F4D915D9146
S1135B006D917C91D9014D935D936D937C93139723
S1135B109F012F513F4FDE01AB51BF4F4D915D911E
S1135B206D917C91D9014D935D936D937C93139703
S1135B309F012B513F4FDE01A751BF4F4D915D9106
S1135B406D917C91D9014D935D936D937C931397E3
S1135B509F0127513F4FDE01A351BF4F4D915D91EE
S1135B606D917C91D9014D935D936D937C931397C3
S1135B709F0123513F4FDE01AF50BF4F4D915D91C7
S1135B806D917C91D9014D935D936D937C931397A3
S1135B909F012F503F4FDE01AB50BF4F4D915D91A0
S1135BA06D917C91D9014D935D936D937C93139783
S1135BB09F012B503F4FDE01A750BF4F4D915D9188
S1135BC06D917C91D9014D935D936D937C93139763
S1135BD09F0127503F4FDE01A350BF4F4D915D9170
S1135BE06D917C91D9014D935D936D937C93139743
S1135BF09F0123503F4FDE01AF5FBE4F4D915D913A
S1135C006D917C91D9014D935D936D937C93139722
S1135C109F012F5F3E4FDE01AB5FBE4F4D915D9103
S1135C206D917C91D9014D935D936D937C93139702
S1135C309F012B5F3E4FDE01A75FBE4F4D915D91EB
S1135C406D917C91D9014D935D936D937C931397E2
S1135C509F01275F3E4FDE01A35FBE4F4D915D91D3
S1135C606D917C91D9014D935D936D937C931397C2
S1135C709F01235F3E4FDE01AF5EBE4F4D915D91AC
S1135C806D917C91D9014D935D936D937C931397A2
S1135C909F012F5E3E4FDE01AB5EBE4F4D915D9185
S1135CA06D917C91D9014D935D936D937C93139782
S1135CB09F012B5E3E4FDE01A75EBE4F4D915D916D
S1135CC06D917C91D9014D935D936D937C93139762
S1135CD09F01275E3E4FDE01A35EBE4F4D915D9155
S1135CE06D917C91D9014D935D936D937C93139742
