S012000048656C69636F707465722E7372656303
S11300000C94B2000C94D3000C94D3000C94D30041
S11300100C94D3000C94D3000C94D3000C94D30010
S11300200C94D3000C94D3000C94D3000C94D30000
S11300300C94D3000C94D3000C94D3000C94D300F0
S11300400C94D3000C94550F0C94D3000C94D3004F
S11300500C94D3000C94D3000C94D3000C94D300D0
S11300600C94D3000C94D3000C94D3000C94D300C0
S11300700C94D3000C94D3000C94D3000C94D300B0
S11300800C94D3000C94D3000C94D3000C94D300A0
S11300900C94D3000C94D3000C94D3000C94D30090
S11300A00C94D3000C94D3000C94D3000C94D30080
S11300B00C94D3000C94D3000C94D3000C94D30070
S11300C00C94D3000C94D3000C94D3000C94D30060
S11300D00C94D3000C94D3000C94D3000C94D30050
S11300E00C94D3000C948B080C9414110C942D12C2
S11300F00C9417130C94D80F0C9409030C94D5008A
S11301000C94C2120C94F3000C9407080C9408018C
S11301100C94E0070C949A020C94A0080C94181206
S11301200C94BE010C94C2070C9469080C94F80951
S11301300C94E8040C94920A0C940A050C947C0226
S11301400C94C5080C9468120C94D6090C94F611FE
S11301500C9417020C9416080C94E5020C940D0AE6
S11301600C94F51211241FBECFEFD1E2DEBFCDBF38
S113017000E00CBF12E0A0E0B2E0EEEBFDE200E034
S11301800BBF02C007900D92A037B107D9F722E048
S1130190A0E7B2E001C01D92A637B207E1F70E94C2
S11301A02B040C94DD160C940000CF93DF931F9264
S11301B01F92CDB7DEB79A83898389819A812AE019
S11301C032E0FC013183208380E090E08170992744
S11301D0009721F089819A810E943D130F900F901E
S11301E0DF91CF910895CF93DF931F921F92CDB7E4
S11301F0DEB79A83898389819A810E94D500898197
S11302009A810E943D130F900F90DF91CF91089532
S1130210CF93DF9300D01F92CDB7DEB79C838B833F
S11302201A8219828B819C81FC0182858823B9F111
S11302308B819C81FC0182819381A481B581880F8B
S1130240991FAA1FBB1F880F991FAA1FBB1F880FC6
S1130250991FAA1FBB1F9C01AD0180E094E2A4EF8B
S1130260B0E0BC01CD010E946415DA01C901019717
S1130270A109B109BC01CD010E949714DC01CB0195
S1130280BC01CD010E94D414DC01CB01BC01CD0121
S11302900E946B14DC01CB019A8389833AC08B8161
S11302A09C81FC0182819381A481B581880F991F6F
S11302B0AA1FBB1F880F991FAA1FBB1F880F991F56
S11302C0AA1FBB1F880F991FAA1FBB1F9C01AD014A
S11302D080E094E2A4EFB0E0BC01CD010E9464157B
S11302E0DA01C9010197A109B109BC01CD010E943C
S11302F09714DC01CB01BC01CD010E94D414DC01B4
S1130300CB01BC01CD010E946B14DC01CB019A83AB
S113031089838B819C81FC018681882341F584EC4F
S113032090E029813A81FC013183208382EC90E0C2
S113033022EC30E0F90120812660FC0120838B81CE
S11303409C81FC018285882349F080EC90E020ECBC
S113035030E0F90120812260FC01208381EC90E0EF
S113036021EC30E0F90120812861FC0120830F9009
S11303700F900F900F90DF91CF910895CF93DF935B
S113038000D0CDB7DEB79A8389836B8389819A8144
S1130390FC018681882309F042C089819A81FC018D
S11303A08185882309F189819A81FC01878190855F
S11303B00E94781319C089819A81FC018185882360
S11303C0A1F089819A81FC01878190850E94321471
S11303D0882359F089819A81FC01878190850E9444
S11303E04C148FEF9FEF1DC0000080EC90E0FC01E7
S11303F08081882F90E08072992721E0009709F08E
S113040020E02223C1F686EC90E02B81FC012083BE
S113041089819A81FC01878190850E944C1480E037
S113042090E00F900F900F90DF91CF910895CF93AC
S1130430DF9300D01F921F92CDB7DEB79B838A83D0
S11304407D836C8319828A819B81FC018681882348
S113045009F041C08A819B81FC0181858823D9F000
S11304608A819B81FC01878190850E94781313C047
S11304708A819B81FC01878190850E9432148823A4
S113048059F08A819B81FC01878190850E944C14DC
S11304908FEF9FEF29C0000080EC90E0FC01808189
S11304A08095881F8827881F882311F780EC90E0A7
S11304B0FC018081882F90E08870992721E00097C3
S11304C009F420E0298386EC90E0FC0120818C81F2
S11304D09D81FC0120838A819B81FC018781908519
S11304E00E944C1480E090E00F900F900F900F90BA
S11304F00F90DF91CF910895CF93DF931F921F92B6
S1130500CDB7DEB79A83898389819A8128E532E061
S1130510FC013183208380E090E08170992700976B
S113052021F089819A810E943D130F900F90DF91F1
S1130530CF910895CF93DF931F921F92CDB7DEB76B
S11305409A83898389819A810E947C0289819A8114
S11305500E943D130F900F90DF91CF910895CF9398
S1130560DF93CDB7DEB728970FB6F894DEBF0FBE82
S1130570CDBF9A8389837C836B835E834D83388765
S11305802F8389819A814D815E812B813C81B901C0
S11305900E943A1289819A8128E132E0FC01318378
S11305A0208389819A81FC01178289819A812F8114
S11305B03885FC013187208728960FB6F894DEBF72
S11305C00FBECDBFDF91CF910895CF93DF931F92DC
S11305D01F92CDB7DEB79A83898381E290E021E24E
S11305E030E0F9012081622F29813A81F9014085A7
S11305F0518521E030E0042E02C0220F331F0A94FB
S1130600E2F7262BFC0120830F900F90DF91CF910E
S11306100895CF93DF931F921F92CDB7DEB79A83CD
S1130620898389819A81FC0187818823E9F082E2A8
S113063090E022E230E0F9012081622F29813A81A1
S1130640F9014085518521E030E0042E02C0220FDB
S1130650331F0A94E2F720952623FC012083898125
S11306609A81FC0117821CC082E290E022E230E011
S1130670F9012081622F29813A81F9014085518550
S113068021E030E0042E02C0220F331F0A94E2F767
S1130690262BFC01208389819A8121E0FC01278398
S11306A00F900F90DF91CF910895EF92FF920F93E7
S11306B01F93CF93DF93CDB7DEB72C970FB6F89483
S11306C0DEBF0FBECDBF9A8389834B835C836D836A
S11306D07E8338872F83E986FA860B871C872981D6
S11306E03A818B819C81AD81BE81F90180839183A4
S11306F0A283B38389819A812F813885FC01358354
S1130700248329853A8589819A81FC01378326834C
S11307102C960FB6F894DEBF0FBECDBFDF91CF91FC
S11307201F910F91FF90EF900895CF92EF920F9346
S11307301F93CF93DF93CDB7DEB72B970FB6F89403
S1130740DEBF0FBECDBF9A8389834B835C836D83E9
S11307507E832F8319870887EA86CB8689819A81CD
S11307602AE032E0FC013183208329813A818B81A4
S11307709C81AD81BE81F90182839383A483B58377
S113078089819A812F81FC01268389819A81288518
S11307903985FC013087278389819A812A85FC0168
S11307A0218789819A812B85FC0122872B960FB69C
S11307B0F894DEBF0FBECDBFDF91CF911F910F9193
S11307C0EF90CF900895CF93DF9300D01F92CDB7D1
S11307D0DEB79A8389837C836B8389819A812B8199
S11307E03C81FC01318320830F900F900F900F9078
S11307F0DF91CF910895CF93DF931F921F92CDB7CE
S1130800DEB79A83898389819A81FC0111821082DF
S113081089819A81FC011382128289819A81FC0167
S11308201582148289819A81FC011782168289813A
S11308309A81FC011186108689819A81FC011386B4
S1130840128689819A81FC01158614860F900F9077
S1130850DF91CF910895AF92BF92CF92DF92EF9242
S1130860FF920F931F93CF93DF93CDB7DEB76097BB
S11308700FB6F894DEBF0FBECDBF8EE090E00E94AD
S11308802C138C01C8010E94FB031A83098388E09E
S113089090E00E942C136C011AE0E12EF12C00E090
S11308A010E020E034E040E054E264EF70E0C60180
S11308B00E945503DC82CB828BE090E00E942C13D3
S11308C05C018B819C81CC24C394EE24E3948C0141
S11308D020E040E051EE60E070E0C5010E94950325
S11308E0BE82AD828D819E81FC01808191810496BE
S11308F0FC01208131818D819E81F901199582E06D
S113090090E00E942C138C018D819E81BC01C80152
S11309100E94E30318870F838BE090E00E942C135E
S11309207C0149815A818F81988504E010E020E0A0
S113093030E0BC01C7010E94D510FA86E9868BE03D
S113094090E00E942C137C0149815A818F81988503
S113095004E010E021E030E0BC01C7010E948312F2
S1130960FC86EB868AE090E00E942C138C0123E045
S113097030E048EC50E062E070E0C8010E94AF0251
S11309801E870D870E94650D988B8F872D853E8568
S11309908F859889B9010E94EC0D29853A858F8548
S11309A09889B9010E94EC0D2B853C858F85988927
S11309B0B9010E94EC0D8F8598890E94270E8F85BE
S11309C098890E94F20E8F8598890E94880EFBCF29
S11309D0CF93DF931F921F92CDB7DEB79A8389839B
S11309E089819A8128E132E0FC0131832083898165
S11309F09A810E947C0280E090E0817099270097A0
S1130A0021F089819A810E943D130F900F90DF910C
S1130A10CF910895CF93DF931F921F92CDB7DEB786
S1130A209A83898389819A810E94E80489819A81C1
S1130A300E943D130F900F90DF91CF9108950F9373
S1130A401F93CF93DF93CDB7DEB72D970FB6F894EE
S1130A50DEBF0FBECDBF9D838C837F836E8359879A
S1130A6048873B872A871D870C871A82198226C0EC
S1130A7089819A812E813F81820F931FFC0180819D
S1130A808B838A859B85FC0190818B81292F280F7C
S1130A908A859B85FC0120838C859D85FC012081B2
S1130AA08A859B85FC018081280F8C859D85FC01AE
S1130AB0208389819A8101969A83898341E02981DF
S1130AC03A8188859985281739070CF040E044233A
S1130AD079F62D960FB6F894DEBF0FBECDBFDF9129
S1130AE0CF911F910F910895CF92DF92EF92FF92D1
S1130AF00F931F93CF93DF93CDB7DEB764970FB6F1
S1130B00F894DEBF0FBECDBF9A8B898B7C8B6B8B29
S1130B10EDB6FEB61A8219828B899C89009709F476
S1130B20B3C08DB79EB76C018B899C89FC01808111
S1130B3091810496FC01208131818B899C89F90182
S1130B4019959E838D838B899C890E94F5079887CC
S1130B508F838F81988505969A87898789859A8559
S1130B6001979C878B8701962DB73EB7281B390BBD
S1130B700FB6F8943EBF0FBE2DBF8DB79EB701963A
S1130B809E878D878D859E8525EBFC0120838D8531
S1130B909E8522E6FC0121838D859E8527EDFC013F
S1130BA022834F8158858D859E8503962D813E81B4
S1130BB0B9010E94D4161F86188AFE0170969E0100
S1130BC0215F3F4F4F8158856D817E8189899A8944
S1130BD08F010E941F0589859A8502974F852D856F
S1130BE03E85820F931FFC01408389859A85019776
S1130BF048892D853E85820F931FFC0140831C820A
S1130C001B8223C089899A89FC0180819181FC011E
S1130C10808191810696FC01208131814D855E851C
S1130C208B819C81840F951FFC01408189899A895D
S1130C30FC0180819181642FF90119959A8389833C
S1130C408B819C8101969C838B832B813C8189853C
S1130C509A852817390734F489819A81009711F409
S1130C6081E001C080E0882369F68D819E81009730
S1130C7021F08D819E810E9463131E821D820FB616
S1130C80F894DEBE0FBECDBE89819A810FB6F8946A
S1130C90FEBE0FBEEDBE64960FB6F894DEBF0FBE67
S1130CA0CDBFDF91CF911F910F91FF90EF90DF9017
S1130CB0CF900895CF92DF92EF92FF920F931F93FC
S1130CC0CF93DF93CDB7DEB766970FB6F894DEBF48
S1130CD00FBECDBF9C8B8B8B7E8B6D8BEDB6FEB622
S1130CE01A8219821B821C821D861DC08C818B83F3
S1130CF08D858C838B899C89FC0180819181FC0189
S1130D00808191810896FC01208131818B899C89A5
S1130D10FC0180819181AE01435F5F4FBA01F9010B
S1130D2019959A8389838B81853B31F48C81823632
S1130D3019F48D85873D31F089819A81009711F4EA
S1130D4081E001C080E0882389F689819A81009737
S1130D5009F0F9C01E868B899C89FC0180819181F0
S1130D60FC01808191810896FC01208131818B896D
S1130D709C89FC0180819181AE01425F5F4FBA0181
S1130D80F90119959A83898389819A81009709F0D9
S1130D90DAC01E821D828E85882F90E082309105F4
S1130DA029F48FE090E09E838D8305C08EEF9FEF42
S1130DB09A838983000089819A81009709F0C3C0CE
S1130DC08DB79EB76C018D819E8101979A87898723
S1130DD001962DB73EB7281B390B0FB6F8943EBFCA
S1130DE00FBE2DBF8DB79EB701969C878B872E852E
S1130DF08B859C85FC01208381E090E098878F831C
S1130E0021C08B899C89FC0180819181FC018081B6
S1130E1091810896FC01208131814B855C858F810D
S1130E209885480F591F8B899C89FC018081918189
S1130E30BA01F90119959A8389838F81988501965E
S1130E4098878F832F8138858D819E812817390754
S1130E5034F489819A81009711F481E001C080E023
S1130E60882379F689819A81009709F067C01F86E3
S1130E70188A198A1A8A8B899C89FC01808191813C
S1130E80FC01808191810896FC01208131818B894C
S1130E909C89FC0180819181AE01415F5F4FBA0161
S1130EA0F90119959A8389838B899C89FC01808136
S1130EB09181FC01808191810896FC01208131811E
S1130EC08B899C89FC0180819181AE01405F5F4FD9
S1130ED0BA01F90119959A8389836B857C85FE0192
S1130EE072969E012F5E3F4F4D815E818B899C8956
S1130EF08F010E941F0599898F859817D9F49A89C3
S1130F0088899817B9F48E85882F90E082309105EE
S1130F1059F48B859C850E94100B9C018D899E89B8
S1130F20FC013183208305C08EEF9FEF9A83898370
S1130F30000004C08DEF9FEF9A8389830FB6F89465
S1130F40DEBE0FBECDBE89819A81009729F08D89BE
S1130F509E89FC011182108289819A810FB6F894CE
S1130F60FEBE0FBEEDBE66960FB6F894DEBF0FBE92
S1130F70CDBFDF91CF911F910F91FF90EF90DF9044
S1130F80CF900895CF93DF931F921F92CDB7DEB712
S1130F909A83898389819A8126E232E0FC01318334
S1130FA0208380E090E081709927009721F0898167
S1130FB09A810E943D130F900F90DF91CF91089575
S1130FC0CF93DF931F921F92CDB7DEB79A838983A5
S1130FD089819A810E94C20789819A810E943D1366
S1130FE00F900F90DF91CF910895CF93DF931F92CD
S1130FF01F92CDB7DEB79A83898389819A81FC01D8
S1131000838194810F900F90DF91CF910895CF93B6
S1131010DF931F921F92CDB7DEB79A83898380E056
S113102090E00F900F90DF91CF910895CF93DF93CD
S113103000D01F92CDB7DEB79A8389837C836B83FC
S11310400F900F900F900F90DF91CF910895CF9351
S1131050DF9300D01F921F92CDB7DEB79A838983A6
S11310606B835D834C8389819A8126E232E0FC01A3
S11310703183208389819A812B81FC012283898198
S11310809A812C813D81FC01348323830F900F903E
S11310900F900F900F90DF91CF910895CF93DF932E
S11310A01F921F92CDB7DEB79A83898389819A8173
S11310B041E050E063E00E94270889819A8122E39D
S11310C032E0FC01318320830F900F90DF91CF91A8
S11310D00895CF93DF931F921F92CDB7DEB79A8303
S11310E0898389819A8122E332E0FC013183208360
S11310F089819A810E94C20780E090E081709927DB
S1131100009721F089819A810E943D130F900F90DE
S1131110DF91CF910895CF93DF931F921F92CDB7A4
S1131120DEB79A83898389819A810E9469088981BB
S11311309A810E943D130F900F90DF91CF910895F3
S1131140CF93DF9300D000D0CDB7DEB79E838D83DD
S113115081E090E00E9452139A83898389819A8165
S11311609C838B838D819E81FC0122818B819C8158
S1131170FC01208389819A8126960FB6F894DEBFFC
S11311800FBECDBFDF91CF910895CF93DF9300D0F1
S11311901F92CDB7DEB79A8389837C836B838B815F
S11311A09C81009741F08B819C81FC012081898185
S11311B09A81FC0122830F900F900F900F90DF9182
S11311C0CF910895CF93DF9300D000D0CDB7DEB791
S11311D09A8389837C836B835E834D838B819C811B
S11311E0FC01808191812D813E8142E050E0B90172
S11311F00E94D4168B819C81FC01808191819C0189
S11312002E5F3F4F8B819C81FC0131832083269686
S11312100FB6F894DEBF0FBECDBFDF91CF91089516
S1131220CF93DF9300D000D0CDB7DEB79A83898304
S11312307C836B835E834D838B819C81FC018081E5
S113124091812D813E81F9012081FC0120838B81D4
S11312509C81FC01808191819C012F5F3F4F8B8198
S11312609C81FC013183208326960FB6F894DEBF5F
S11312700FBECDBFDF91CF910895CF93DF9300D000
S113128000D0CDB7DEB79A8389837C836B835E837A
S11312904D838B819C81FC0180819181FC012081A3
S11312A08D819E81FC0120838B819C81FC01808146
S11312B091819C012F5F3F4F8B819C81FC01318385
S11312C0208326960FB6F894DEBF0FBECDBFDF9104
S11312D0CF910895CF93DF9300D000D0CDB7DEB780
S11312E09A8389837C836B835E834D838B819C810A
S11312F0FC01208131818D819E8142E050E0B90161
S11313000E94D4168B819C81FC01808191819C0177
S11313102E5F3F4F8B819C81FC0131832083269675
S11313200FB6F894DEBF0FBECDBFDF91CF91089505
S1131330CF93DF931F921F92CDB7DEB79A83898331
S113134089819A814FE050E062E00E9427088981F8
S11313509A812EE332E0FC013183208389819A81D2
S1131360FC011682158289819A81FC0110861782FC
S113137089819A81FC011286118689819A81FC01F6
S11313801486138689819A81FC01168615868981C3
S11313909A81FC01108A178689819A81FC01128A3C
S11313A0118A0F900F90DF91CF910895CF93DF931F
S11313B01F921F92CDB7DEB79A83898389819A8160
S11313C02EE332E0FC013183208389819A810E94DB
S11313D0C20780E090E081709927009721F089810D
S11313E09A810E943D130F900F90DF91CF91089541
S11313F0CF93DF931F921F92CDB7DEB79A83898371
S113140089819A810E94D60989819A810E943D131B
S11314100F900F90DF91CF910895CF93DF9300D079
S113142000D0CDB7DEB79E838D838FE090E00E941D
S113143052139A83898389819A819C838B838D81BA
S11314409E81AC014E5F5F4F8D819E819E012D5F19
S11314503F4FB9010E9410098D819E81AC014B5F01
S11314605F4F8D819E819E012D5F3F4FB9010E9488
S1131470E2088D819E81AC01495F5F4F8D819E8121
S11314809E012D5F3F4FB9010E94E2088D819E812C
S1131490AC01475F5F4F8D819E819E012D5F3F4F61
S11314A0B9010E94E2088D819E81AC01455F5F4FC6
S11314B08D819E819E012D5F3F4FB9010E94E208FC
S11314C08D819E81AC01435F5F4F8D819E819E0122
S11314D02D5F3F4FB9010E94E2088D819E81AC01CE
S11314E0415F5F4F8D819E819E012D5F3F4FB9010A
S11314F00E94E2088D819E81AC014F5E5F4F8D8119
S11315009E819E012D5F3F4FB9010E94E2088981AF
S11315109A8126960FB6F894DEBF0FBECDBFDF9139
S1131520CF910895CF93DF9300D01F92CDB7DEB74C
S11315309A8389837C836B838B819C81009709F4D4
S113154068C089819A81AC014E5F5F4F89819A811D
S11315509E012D5F3F4FB9010E943D0989819A8107
S1131560AC014B5F5F4F89819A819E012D5F3F4F94
S1131570B9010E946A0989819A81AC01495F5F4F70
S113158089819A819E012D5F3F4FB9010E946A09AA
S113159089819A81AC01475F5F4F89819A819E015D
S11315A02D5F3F4FB9010E946A0989819A81AC017C
S11315B0455F5F4F89819A819E012D5F3F4FB9013D
S11315C00E946A0989819A81AC01435F5F4F8981D6
S11315D09A819E012D5F3F4FB9010E946A0989815A
S11315E09A81AC01415F5F4F89819A819E012D5F91
S11315F03F4FB9010E946A0989819A81AC014F5E0B
S11316005F4F89819A819E012D5F3F4FB9010E94EE
S11316106A090F900F900F900F90DF91CF9108956A
S11316200F931F93CF93DF9300D01F92CDB7DEB7F4
S11316309C838B8383E190E00E942C138C01C8016E
S11316400E9498091A83098389819A81FC01808107
S113165091810696FC01208131814B815C818981D5
S11316609A81BA01F901199589819A810F900F9095
S11316700F900F90DF91CF911F910F910895CF9309
S1131680DF9300D01F92CDB7DEB79A8389837C8322
S11316906B8389819A812B813C81FC01368325836C
S11316A00F900F900F900F90DF91CF910895CF93EB
S11316B0DF9300D01F92CDB7DEB79A8389837C83F2
S11316C06B8389819A812B813C81FC01308727833C
S11316D00F900F900F900F90DF91CF910895CF93BB
S11316E0DF9300D01F92CDB7DEB79A8389837C83C2
S11316F06B8389819A812B813C81FC01328721870C
S11317000F900F900F900F90DF91CF910895CF938A
S1131710DF9300D01F92CDB7DEB79A8389837C8391
S11317206B8389819A812B813C81FC0134872387D7
S11317300F900F900F900F90DF91CF910895CF935A
S1131740DF9300D01F92CDB7DEB79A8389837C8361
S11317506B8389819A812B813C81FC0136872587A3
S11317600F900F900F900F90DF91CF910895CF932A
S1131770DF9300D01F92CDB7DEB79A8389837C8331
S11317806B8389819A812B813C81FC01308B278773
S11317900F900F900F900F90DF91CF910895CF93FA
S11317A0DF9300D01F92CDB7DEB79A8389837C8301
S11317B06B8389819A812B813C81FC01328B218B43
S11317C00F900F900F900F90DF91CF910895CF93CA
S11317D0DF931F921F92CDB7DEB79A8389838981E5
S11317E09A81FC01808191810F900F90DF91CF91BC
S11317F00895CF93DF931F921F92CDB7DEB79A83DC
S1131800898389819A81FC01828193810F900F9051
S1131810DF91CF910895CF93DF931F921F92CDB79D
S1131820DEB79A83898389819A81FC0184819581B9
S11318300F900F90DF91CF910895CF93DF931F9274
S11318401F92CDB7DEB79A83898389819A81FC017F
S1131850868197810F900F90DF91CF910895CF9358
S1131860DF931F921F92CDB7DEB79A838983898154
S11318709A81FC01808591850F900F90DF91CF9123
S11318800895CF93DF931F921F92CDB7DEB79A834B
S1131890898389819A81FC01828593850F900F90B9
S11318A0DF91CF910895CF93DF931F921F92CDB70D
S11318B0DEB79A83898389819A81FC018485958521
S11318C00F900F90DF91CF9108950F931F93CF93B3
S11318D0DF9300D01F92CDB7DEB79C838B8383E167
S11318E090E00E942C138C01C8010E9498091A836D
S11318F009838B819C810E94E70B9C0189819A81D9
S1131900B9010E943F0B8B819C810E94F90B9C01C1
S113191089819A81B9010E94570B8B819C810E9415
S11319200B0C9C0189819A81B9010E946F0B8B81F8
S11319309C810E941D0C9C0189819A81B9010E949D
S1131940870B8B819C810E94530C9C0189819A8115
S1131950B9010E94CF0B8B819C810E942F0C9C01AA
S113196089819A81B9010E949F0B8B819C810E947D
S1131970410C9C0189819A81B9010E94B70B89812C
S11319809A810F900F900F900F90DF91CF911F913C
S11319900F910895CF93DF931F921F92CDB7DEB7B7
S11319A09A83898389819A81FC01828193810F9032
S11319B00F90DF91CF910895CF93DF931F921F92E1
S11319C0CDB7DEB79A83898389819A81FC018481AA
S11319D095810F900F90DF91CF910895CF93DF936E
S11319E000D01F92CDB7DEB79A8389837C836B8343
S11319F089819A812B813C81FC01338322830F905E
S1131A000F900F900F90DF91CF910895CF93DF93B4
S1131A101F921F92CDB7DEB79A83898389819A81F9
S1131A20FC0186810F900F90DF91CF910895CF93A1
S1131A30DF9300D0CDB7DEB79A8389836B83898126
S1131A409A812B81FC0126830F900F900F90DF91D8
S1131A50CF910895CF93DF931F921F92CDB7DEB736
S1131A609A83898389819A81FC01828193819C0173
S1131A702150310989819A81FC01338322830F909B
S1131A800F90DF91CF910895CF93DF931F921F9210
S1131A90CDB7DEB79A83898389819A81FC018489D1
S1131AA095890F900F90DF91CF910895CF93DF9395
S1131AB01F921F92CDB7DEB79A83898389819A8159
S1131AC00F900F90DF91CF910895EF92FF920F93B3
S1131AD01F93CF93DF93CDB7DEB7809170029091BF
S1131AE071020097A1F48AE190E00E942C137C011A
S1131AF008EC10E020E430E040E054E264EF70E0F1
S1131B00C7010E94920DF0927102E09270028091DE
S1131B10700290917102DF91CF911F910F91FF900C
S1131B20EF9008950F931F93CF93DF93CDB7DEB754
S1131B302A970FB6F894DEBF0FBECDBF9A83898370
S1131B404B835C836D837E8338872F831A87098751
S1131B508F8198859C01442737FD4095542F8B81B4
S1131B609C81AD81BE81BC01CD010E946415DA0166
S1131B70C90129853A85442737FD4095542FBC0176
S1131B80CD010E946415DA01C9019C0189819A8101
S1131B90FC01378B268B89819A81FC012689378940
S1131BA089819A81FC01378B268B89819A812F81C7
S1131BB03885FC01318F208F89819A81FC01158A37
S1131BC0148A2A960FB6F894DEBF0FBECDBFDF91FC
S1131BD0CF911F910F910895CF93DF9300D01F925F
S1131BE0CDB7DEB79A8389837C836B8389819A819D
S1131BF0FC01848995898A30910504F589819A814B
S1131C00FC018489958929813A81880F991F820F63
S1131C10931F2B813C81FC013183208389819A812C
S1131C20FC01848995899C012F5F3F4F89819A81AA
S1131C30FC01358B248B80E090E002C08FEF9FEF96
S1131C400F900F900F900F90DF91CF910895CF9345
S1131C50DF9300D01F92CDB7DEB79C838B831A82AB
S1131C60198224C02B813C8189819A81880F991F14
S1131C70820F931FFC0180819181FC0180819181FD
S1131C800696FC01208131814B815C8189819A8196
S1131C90880F991F840F951FFC0180819181F901A0
S1131CA0199589819A8101969A8389838B819C8174
S1131CB0FC012489358941E089819A81821793073F
S1131CC00CF040E0442371F688E890E02B813C81DD
S1131CD0F90126893789FC013183208381E890E06A
S1131CE021E830E0F90120812860FC0120838FE69F
S1131CF090E02FE630E0F90120812260FC0120838E
S1131D0078940F900F900F900F90DF91CF910895DA
S1131D10CF93DF9300D000D0CDB7DEB79E838D8301
S1131D201C821B821A8219822AC02D813E818981DC
S1131D309A81880F991F820F931FFC0180819181E2
S1131D409C838B838B819C810E94060D882391F058
S1131D508B819C8160E00E94170D8B819C81FC012A
S1131D60808191810896FC01208131818B819C8145
S1131D70F901199589819A8101969A8389838D81C4
S1131D809E81FC012489358941E089819A818217E9
S1131D9093070CF040E0442341F683E590E023E50B
S1131DA030E0F9012081217FFC01208383E590E06C
S1131DB023E530E0F90120812160FC01208388952E
S1131DC083E590E023E530E0F90120812E7FFC01DA
S1131DD0208326960FB6F894DEBF0FBECDBFDF91E9
S1131DE0CF910895CF93DF931F921F92CDB7DEB7A3
S1131DF09A83898389819A81FC01808D918D8034B5
S1131E00910539F1813491053CF48130910569F0F3
S1131E1088309105A1F03BC08115F1E09F0719F1CD
S1131E20811524E0920749F132C081E890E021E86D
S1131E3030E0F90120812160FC01208331C081E878
S1131E4090E021E830E0F90120812260FC01208348
S1131E5027C081E890E021E830E0F9012081236087
S1131E60FC0120831DC081E890E021E830E0F90105
S1131E7020812460FC01208313C081E890E021E8E4
S1131E8030E0F90120812560FC01208309C081E84C
S1131E9090E021E830E0F90120812160FC012083F9
S1131EA00F900F90DF91CF9108951F920F920090A1
S1131EB05F000F92112400905B000F922F933F93C9
S1131EC04F935F936F937F938F939F93AF93BF933E
S1131ED0EF93FF93CF93DF9300D000D0CDB7DEB75D
S1131EE00E94650D9C838B831E821D821A82198237
S1131EF033C08B819C810E94560D9C0189819A81FB
S1131F00880F991F820F931FFC01808191819E830A
S1131F108D838D819E810E94CA0C21E0009709F077
S1131F2020E0222381F08D819E8161E00E94170DC3
S1131F308D819E810E94DC0C9C018D819E81B90162
S1131F400E94EE0C04C08D819E810E942A0D89811D
S1131F509A8101969A8389838B819C810E94440D86
S1131F609C0141E089819A81821793070CF040E03B
S1131F70442309F0BECF26960FB6F894DEBF0FBEF9
S1131F80CDBFDF91CF91FF91EF91BF91AF919F9121
S1131F908F917F916F915F914F913F912F910F900E
S1131FA000925B000F9000925F000F901F901895B5
S1131FB0CF93DF931F921F92CDB7DEB79A838983A5
S1131FC00F900F90DF91CF910895CF93DF931F92DD
S1131FD01F92CDB7DEB79A83898389819A81FC01E8
S1131FE0858196810F900F90DF91CF910895CF93C3
S1131FF0DF931F921F92CDB7DEB79A8389838981BD
S11320009A81FC01878190850F900F90DF91CF9189
S11320100895CF93DF931F921F92CDB7DEB79A83B3
S1132020898389819A81FC01818592850F900F9023
S1132030DF91CF910895CF93DF931F921F92CDB775
S1132040DEB79A83898389819A81FC01838594858B
S11320500F900F90DF91CF910895CF93DF9300D02D
S11320601F92CDB7DEB79A8389837C836B83898182
S11320709A812B813C81FC01318320830F900F9046
S11320800F900F90DF91CF910895CF93DF9300D0FD
S11320901F92CDB7DEB79A8389837C836B83898152
S11320A09A812B813C81FC01338322830F900F9012
S11320B00F900F90DF91CF910895CF93DF9300D0CD
S11320C01F92CDB7DEB79A8389837C836B83898122
S11320D09A812B813C81FC01358324830F900F90DE
S11320E00F900F90DF91CF910895CF93DF9300D09D
S11320F01F92CDB7DEB79A8389837C836B838981F2
S11321009A812B813C81FC01378326830F900F90A9
S11321100F900F90DF91CF910895CF93DF9300D06C
S11321201F92CDB7DEB79A8389837C836B838981C1
S11321309A812B813C81FC01318720870F900F907D
S11321400F900F90DF91CF910895CF93DF9300D03C
S11321501F92CDB7DEB79A8389837C836B83898191
S11321609A812B813C81FC01338722870F900F9049
S11321700F900F90DF91CF910895CF93DF9300D00C
S11321801F92CDB7DEB79A8389837C836B83898161
S11321909A812B813C81FC01358724870F900F9015
S11321A00F900F90DF91CF9108950F931F93CF93CA
S11321B0DF93CDB7DEB72A970FB6F894DEBF0FBE14
S11321C0CDBF9A8389837C836B835E834D833887F9
S11321D02F831A87098789819A8149855A852F8196
S11321E03885B9010E943A1289819A812AE432E041
S11321F0FC013183208389819A812B813C81FC01FC
S11322003087278389819A812D813E81FC01328721
S113221021872A960FB6F894DEBF0FBECDBFDF919B
S1132220CF911F910F910895CF93DF93CDB7DEB770
S11322302D970FB6F894DEBF0FBECDBF9D878C8758
S1132240CE0105960E944E088C859D85FC018781F0
S113225090859E012B5F3F4FB9010E9474059A83BC
S1132260898389819A81009709F062C01B861A8646
S11322708C859D85FC01878190859E01265F3F4F5B
S1132280B9010E945A069A83898389819A810097A9
S113229009F04EC08A859B85009709F449C08A8558
S11322A09B859C838B838B819C810E94E50F9C0181
S11322B08C859D85FC0181859285B9010E942D1034
S11322C08B819C810E94F70F9C018C859D85FC016C
S11322D081859285B9010E9445108B819C810E9461
S11322E009109C018C859D85FC0181859285B9012D
S11322F00E945D108B819C810E941B109C018C8527
S11323009D85FC0181859285B9010E9475108A859D
S11323109B85009769F08A859B85FC01808191816A
S11323200296FC01208131818A859B85F9011995EA
S113233089819A818E3FFFEF9F0719F18F3F2FEF1D
S113234092072CF48D3FEFEF9E0771F140C08F3F51
S1132350FFEF9F0719F00097D9F139C08C859D854F
S1132360FC01818592850E942F0C9C012F5F3F4FB9
S11323708C859D85FC0181859285B9010E948D1013
S113238028C08C859D85FC01818592850E94410C25
S11323909C012F5F3F4F8C859D85FC018185928533
S11323A0B9010E94A51015C08C859D85FC0181850D
S11323B092850E94530C9C012F5F3F4F8C859D8515
S11323C0FC0181859285B9010E94BD1002C001C043
S11323D00000CE0105960E9469082D960FB6F89468
S11323E0DEBF0FBECDBFDF91CF910895CF93DF93B2
S11323F01F921F92CDB7DEB79A83898389819A8110
S11324002AE432E0FC013183208389819A810E948D
S11324107C0280E090E081709927009721F0898107
S11324209A810E943D130F900F90DF91CF910895F0
S1132430CF93DF931F921F92CDB7DEB79A83898320
S113244089819A810E94F61189819A810E943D13A3
S11324500F900F90DF91CF910895CF93DF931F9248
S11324601F92CDB7DEB79A8389830F900F90DF91C7
S1132470CF910895CF93DF9300D000D0CDB7DEB7CE
S11324809A8389837C836B835E834D8389819A815C
S113249028E532E0FC013183208389819A812B81F4
S11324A03C81FC013383228389819A812D813E8181
S11324B0FC013583248389819A81FC011682269646
S11324C00FB6F894DEBF0FBECDBFDF91CF91089554
S11324D0CF93DF931F921F92CDB7DEB79A83898380
S11324E0F89489819A81FC0180819181FC01208189
S11324F0318189819A81F901199578940F900F900F
S1132500DF91CF9108950F931F93CF93DF93CDB7AE
S1132510DEB72A970FB6F894DEBF0FBECDBF9A83FD
S113252089837C836B835E834D8338872F831A87EB
S1132530098789819A8149855A852F813885B9010E
S11325400E943A1289819A8126E632E0FC013183A5
S1132550208389819A812B813C81FC0130872783E8
S113256089819A812D813E81FC01328721872A96B7
S11325700FB6F894DEBF0FBECDBFDF91CF911F9190
S11325800F910895CF93DF9300D01F92CDB7DEB79C
S11325909C838B838B819C81FC01818592850E9425
S11325A0650C9A8389838B819C81FC01878190854A
S11325B029813A81B9010E94740589819A81009721
S11325C069F089819A81FC01808191810296FC01E4
S11325D02081318189819A81F90119950F900F9099
S11325E00F900F90DF91CF910895CF93DF931F92B7
S11325F01F92CDB7DEB79A83898389819A8126E6B3
S113260032E0FC013183208389819A810E947C021B
S113261080E090E081709927009721F089819A8168
S11326200E943D130F900F90DF91CF910895CF93A7
S1132630DF931F921F92CDB7DEB79A838983898176
S11326409A810E94F51289819A810E943D130F900C
S11326500F90DF91CF910895CF93DF931F921F9234
S1132660CDB7DEB79A83898389819A810E949A15AE
S11326700F900F90DF91CF910895CF93DF931F9226
S11326801F92CDB7DEB79A83898389819A81009797
S113269021F089819A810E9435160F900F90DF9165
S11326A0CF910895CF93DF931F921F92CDB7DEB7DA
S11326B09A83898389819A810E949A150F900F9039
S11326C0DF91CF910895CF93DF931F921F92CDB7DF
S11326D0DEB79A83898389819A81009721F0898161
S11326E09A810E9435160F900F90DF91CF91089533
S11326F00F931F93CF93DF9300D01F92CDB7DEB714
S11327009C838B838B819C810E944C141A82198236
S11327108B819C81FC0186819781893EF3E09F0730
S11327202CF081E090E09A8389830DC08B819C8199
S1132730FC012681378188EE93E0B9010E9450158F
S11327409B013A83298308E910E08B819C81FC0179
S113275080819181A281B3812B813C81F901248103
S11327603581442737FD4095542FBC01CD010E948B
S11327706415DA01C90129813A81442737FD40955E
S1132780542FBC01CD010E946415DA01C901F8017E
S11327909183808381E990E021E930E0F90120818F
S11327A02860FC0120838B819C81FC0184819581BC
S11327B08034910539F1813491053CF481309105DF
S11327C069F088309105A1F03BC08115F1E09F07C5
S11327D019F1811524E0920749F132C081E990E0B2
S11327E021E930E0F90120812160FC01208331C01E
S11327F081E990E021E930E0F90120812260FC01C7
S1132800208327C081E990E021E930E0F9012081AB
S11328102360FC0120831DC081E990E021E930E0C0
S1132820F90120812460FC01208313C081E990E038
S113283021E930E0F90120812560FC01208309C0F1
S113284081E990E021E930E0F90120812160FC0177
S113285020830F900F900F900F90DF91CF911F91D5
S11328600F910895CF93DF931F921F92CDB7DEB7D8
S11328709A83898388E390E0FC018081882F90E02B
S11328808270992721E0009709F420E0822F0F90AD
S11328900F90DF91CF910895CF93DF931F921F92F2
S11328A0CDB7DEB79A83898381E990E0FC01108279
S11328B084E990E0FC011182108288E390E028E32F
S11328C030E0F90120812260FC0120830F900F90F9
S11328D0DF91CF910895ACD088F09F5790F0B92F35
S11328E09927B751A0F0D1F0660F771F881F991F61
S11328F01AF0BA95C9F712C0B13081F0CAD0B1E06C
S11329000895C7C0672F782F8827B85F39F0B93F7B
S1132910CCF3869577956795B395D9F73EF4909562
S11329208095709561957F4F8F4F9F4F0895E894E0
S113293009C097FB3EF490958095709561957F4F03
S11329408F4F9F4F9923A9F0F92F96E9BB279395B1
S1132950F695879577956795B795F111F8CFFAF4C1
S1132960BB0F11F460FF1BC06F5F7F4F8F4F9F4FF2
S113297016C0882311F096E911C0772321F09EE850
S1132980872F762F05C0662371F096E8862F70E0B6
S113299060E02AF09A95660F771F881FDAF7880F90
S11329A09695879597F908955DD080F09F3740F408
S11329B091110EF06FC060E070E080E89FEB089525
S11329C026F41B16611D711D811D01C01BC08823C7
S11329D071F4772321F09850872B762F07C0662354
S11329E011F499270DC09051862B70E060E02AF015
S11329F09A95660F771F881FDAF7880F9695879543
S1132A0097F908959F3F31F0915020F48795779579
S1132A106795B795880F911D9695879597F90895B1
S1132A2057FD9058440F551F59F05F3F71F047957B
S1132A30880F97FB991F61F09F3F79F08795089560
S1132A40121613061406551FF2CF4695F1DF08C07F
S1132A50161617061806991FF1CF8695710561059C
S1132A6008940895E5DFA0F0BEE7B91788F4BB2702
S1132A709F3860F41616B11D672F782F8827985F4A
S1132A80F7CF869577956795B11D93959639C8F3D9
S1132A900895E894BB2766277727CB0197F9089513
S1132AA097FB072E16F4009407D077FD09D00E94F7
S1132AB0861507FC05D03EF4909581959F4F0895A7
S1132AC0709561957F4F0895A1E21A2EAA1BBB1B36
S1132AD0FD010DC0AA1FBB1FEE1FFF1FA217B307E6
S1132AE0E407F50720F0A21BB30BE40BF50B661FFC
S1132AF0771F881F991F1A9469F7609570958095C0
S1132B0090959B01AC01BD01CF010895AA1BBB1B8D
S1132B1051E107C0AA1FBB1FA617B70710F0A61BD9
S1132B20B70B881F991F5A95A9F780959095BC01FA
S1132B30CD0108950F931F93CF93DF9382309105B6
S1132B4010F482E090E0E0917402F091750220E0CC
S1132B5030E0C0E0D0E023C04081518148175907DC
S1132B60A8F04817590761F482819381209719F0DE
S1132B709B838A832EC0909375028093740229C02C
S1132B802115310529F04217530710F0A90102C09D
S1132B90BE01DF0102811381EF019A01F801309730
S1132BA0D9F62115310509F1281B390B24303105DB
S1132BB090F412968D919C9113976115710521F0F3
S1132BC0FB019383828304C0909375028093740203
S1132BD0FD01329644C0FD01E20FF31F81939193EE
S1132BE0225031092D933C933AC0209172023091C6
S1132BF07302232B41F4209102023091030230939B
S1132C007302209372022091000230910102211577
S1132C10310541F42DB73EB74091040250910502AD
S1132C20241B350BE0917202F0917302E217F30753
S1132C30A0F42E1B3F0B2817390778F0AC014E5F28
S1132C405F4F2417350748F04E0F5F1F50937302F0
S1132C50409372028193919302C0E0E0F0E0CF01CF
S1132C60DF91CF911F910F910895EF92FF920F93EF
S1132C701F93CF93DF93009709F48FC0DC01129761
S1132C8013961C921E921297E0907402F0907502B3
S1132C90E114F10489F42D913C911197280F391F07
S1132CA080917202909173028217930789F5B09311
S1132CB07302A093720271C0E70120E030E001C00A
S1132CC0EA01CA17DB0738F44A815B819E0141158A
S1132CD05105B1F722C0BC0162507109FB01D383D5
S1132CE0C28300811181AC01400F511F4C175D0755
S1132CF061F448815981400F511F4E5F5F4F5183EA
S1132D0040834A815B81538342832115310529F431
S1132D10B0937502A093740240C0F901B383A283F7
S1132D20E90169917991C60FD71FAC17BD0779F4F2
S1132D30DC015E914E91460F571F4E5F5F4F5183EA
S1132D40408312968D919C91139793838283A0E084
S1132D50B0E002C0D7017C01F70182819381009722
S1132D60C9F7C701029620813181820F931F2091F8
S1132D707202309173022817390779F4109729F4F5
S1132D80109275021092740204C013961C921E9243
S1132D901297F0927302E0927202DF91CF911F9129
S1132DA00F91FF90EF900895FB01DC0102C00190A8
S1112DB00D9241505040D8F70895F894FFCF8B
S1132DBE00007602200000000000D500F300080198
S1132DCEBE011702000000000903E8040A05E5022B
S1132DDE681200000000C207E0070708160800008A
S1132DEE000069088B08A008C50800000000D60979
S1132DFEF8090D0A920A000000001411F6111812B7
S1132E0ED80F6812000000002D127C029A02D80F0F
S1132E1E681200000000C212F5121713D80F6812C0
S9030000FC
