S012000048656C69636F707465722E7372656303
S11300000C94DB000C94FC000C94FC000C94FC009D
S11300100C94FC000C94FC000C94FC000C94FC006C
S11300200C94FC000C94FC000C94FC000C94FC005C
S11300300C94FC000C94FC000C94FC000C94FC004C
S11300400C94FC000C94C4210C94FC000C94FC0053
S11300500C94FC000C94FC000C94FC000C94FC002C
S11300600C94FC000C94FC000C94FC000C94FC001C
S11300700C94FC000C94FC000C94FC000C94FC000C
S11300800C94FC000C94FC000C94FC000C94FC00FC
S11300900C94FC000C94FC000C94FC000C94FC00EC
S11300A00C94FC000C94FC000C94FC000C94FC00DC
S11300B00C94FC000C94FC000C94B4120C94FC0002
S11300C00C94FC000C94FC000C94FC000C94FC00BC
S11300D00C94FC000C94FC000C94FC000C94FC00AC
S11300E00C94FC0005A84CCDB2D44EB93836A90204
S11300F00C50B9918688083CA6AAAA2ABE00000022
S1130100803F0C946F0A0C9424170C9409260C94C9
S1130110F9250C94270B0C94DB230C9471220C947A
S11301205C0B0C94DE0A0C94A7130C94A1130C948E
S11301302A260C94FA080C94560B0C9468090C9417
S113014000090C94AB130C94EA220C94E2130C9463
S1130150DC130C9478220C94A3220C94420A0C9481
S1130160B7130C940A0A0C94AA130C9472220C94DC
S1130170C5130C94FF250C94EA130C9422260C94BA
S11301801C260C94A9220C9480220C94E2220C9438
S1130190B1220C94E3230C94340B0C94DC220C94C5
S11301A0F8250C9442090C94B7090C94BD130C94D3
S11301B0D5230C94D41311241FBECFEFD1E2DEBF9C
S11301C0CDBF00E00CBF12E0A0E0B2E0ECE4F0E64A
S11301D000E00BBF02C007900D92A23AB107D9F715
S11301E022E0A2EAB2E001C01D92AA3AB207E1F706
S11301F00E94AB0C0C9424300C940000FC0171831D
S113020060831282138214821582168217821086EA
S11302101186128613861486158616861786108A0A
S1130220118A128A138A148A158A168A178A108EDA
S1130230118E128E138E148E158E168E178E10A29A
S113024011A212A213A214A215A212A613A614A6F6
S113025015A616A617A610AA11AA12AA13AA14AABA
S113026015AA16AA17AA10AE11AE12AE13AE14AE8A
S113027015AEDC01AE5BBF4F1D921D921D921C9208
S11302801397DC01AA5BBF4F1D921D921D921C9215
S11302901397DC01A65BBF4F1D921D921D921C9209
S11302A01397DC01A25BBF4F1D921D921D921C92FD
S11302B01397DC01AE5ABF4F1D921D921D921C92E2
S11302C01397DC01AA5ABF4F1D921D921D921C92D6
S11302D01397DC01A65ABF4F1D921D921D921C92CA
S11302E01397DC01A25ABF4F1D921D921D921C92BE
S11302F01397DC01AE59BF4F1D921D921D921C92A3
S11303001397DC01AA59BF4F1D921D921D921C9296
S11303101397DC01A659BF4F1D921D921D921C928A
S11303201397DC01A259BF4F1D921D921D921C927E
S11303301397DC01AE57BF4F1D921D921D921C9264
S11303401397DC01AA57BF4F1D921D921D921C9258
S11303501397E657FF4F1082118212821382089579
S11303600F931F93CB01BA01A90198010E94682B36
S11303701F910F910895CF92DF92EF92FF920F9306
S11303801F93CB01BA01A90198010E94682BA70110
S113039096010E94AF2D1F910F91FF90EF90DF9077
S11303A0CF9008954F925F926F927F928F929F9217
S11303B0AF92BF92CF92DF92EF92FF920F931F936F
S11303C0CF93DF9300D01F92CDB7DEB749835A8312
S11303D06B837C83280139018E579F4FFC01208158
S11303E031814281538169817A818B819C810E9410
S11303F0AF2DA50194010E94AF2DA30192010E948B
S1130400692B762E672E582E492EA62EB72E082F2E
S1130410192F20E030E0A901C701B6010E94CD2BBD
S1130420882309F45AC020E030E0A901672D762D15
S1130430852D942D0E94AB2D18165CF4A70196010E
S1130440672D762D852D942D0E94CD2B88237CF14C
S113045038C020E030E0A901672D762D852D942D3C
S11304600E94CD2B88235CF4A7019601672D762D7D
S1130470852D942D0E94AB2D1816F4F00BC020E0AE
S113048030E0A901672D762D852D942D0E94CD2B6A
S1130490882319F1A7019601672D762D852D942DBA
S11304A00E94682BA62EB72E082F192F16C0A12C38
S11304B0B12C00E010E011C0A12CB12C00E010E040
S11304C00CC020E030E0A901672D762D852D942DF8
S11304D00E94CD2B8823F4F6C7CF6A2D7B2D802F65
S11304E0912F0F900F900F900F90DF91CF911F914C
S11304F00F91FF90EF90DF90CF90BF90AF909F90BF
S11305008F907F906F905F904F9008950F931F93FB
S1130510CB01BA01A90198010E94682B1F910F9188
S113052008954F925F926F927F928F929F92AF92B3
S1130530BF92CF92DF92EF92FF920F931F93CF93CC
S1130540DF93CDB7DEB728970FB6F894DEBF0FBEA2
S1130550CDBF2A013B0109831A832B833C8368A105
S113056079A1882777FD8095982F0E946F2C6D8341
S11305707E838F839887A5019401C301B2010E94F1
S1130580AF2DA70196010E94692B4B015C012C8DB4
S11305903D8D4E8D5F8D69817A818B819C810E9416
S11305A0AF2D9B01AC01C501B4010E94692B9B01D5
S11305B0AC016D817E818F8198850E94AF2D289634
S11305C00FB6F894DEBF0FBECDBFDF91CF911F9160
S11305D00F91FF90EF90DF90CF90BF90AF909F90DE
S11305E08F907F906F905F904F9008958F929F921D
S11305F0AF92BF92CF92DF92EF92FF920F931F932D
S1130600CF93DF93A42EB52ED62FC72F822E932EF1
S11306102C2D3D2D4E2D5F2D6A2D7B2D8D2F9C2F46
S11306200E94AB2D18166CF0202F312F482D592D18
S11306306A2D7B2D8D2F9C2F0E94CD2B882334F087
S113064009C0AC2CBD2CDE2DCF2D04C0A02EB12EA4
S1130650D82DC92D6A2D7B2D8D2F9C2FDF91CF9105
S11306601F910F91FF90EF90DF90CF90BF90AF90CC
S11306709F908F9008954F925F926F927F92AF9266
S1130680BF92CF92DF92EF92FF920F931F93CF937B
S1130690DF93CDB7DEB70E94682BA80197010E94B3
S11306A0AF2D2B013C012A893B894C895D89C60108
S11306B0B5010E94AF2D9B01AC01C301B2010E94A0
S11306C0682BDF91CF911F910F91FF90EF90DF90F6
S11306D0CF90BF90AF907F906F905F904F900895B0
S11306E08F929F92AF92BF92CF92DF92EF92FF923E
S11306F00F931F93CF93DF93A42EB52ED62FC72F1E
S1130700822E932E202F312F482D592D6A2D7B2D8B
S11307108D2F9C2F0E94CD2B88236CF02C2D3D2DEA
S11307204E2D5F2D6A2D7B2D8D2F9C2F0E94AB2D7E
S1130730181634F009C0A02EB12ED82DC92D04C02E
S1130740AC2CBD2CDE2DCF2D6A2D7B2D8D2F9C2F17
S1130750DF91CF911F910F91FF90EF90DF90CF9099
S1130760BF90AF909F908F900895DC01ED91FC9124
S1130770EF53FF4F80819181A281B3810196A11D26
S1130780B11D80839183A283B38308950F931F9334
S1130790CF93DF93042F152FD62FC72F20E030E0FF
S11307A044E353E4602F712F8D2F9C2F0E94AB2DB7
S11307B088237CF020E030E044EB53E4602F712F79
S11307C08D2F9C2F0E94682B062F172FD82FC92FEF
S11307D01AC020E030E044E353EC602F712F8D2FDA
S11307E09C2F0E94CD2B882374F420E030E044EB4E
S11307F053E4602F712F8D2F9C2F0E94692B062F9D
S1130800172FD82FC92F602F712F8D2F9C2FDF9179
S1130810CF911F910F9108952F923F924F925F9223
S11308206F927F928F929F92AF92BF92CF92DF92FC
S1130830EF92FF920F931F93CF93DF93CDB7DEB761
S11308402A970FB6F894DEBF0FBECDBF9A8789876B
S1130850DC012D903C901197F1018081813009F0E9
S1130860BEC0058116812781308541815281638113
S11308707481CD010E94B001AB01BC0189859A85C8
S11308800E94C6032B013C01A985BA851E96CD9012
S1130890DD90ED90FC905197F1010185128523853F
S11308A034854585568567857089CD010E94BB01D5
S11308B06B017C01A985BA8512968D909D90AD90AF
S11308C0BC901597F101018D128D238D348DB301E8
S11308D0A201CD010E94D20169837A838B839C8318
S11308E0D10155960D911D912D913C91589751969A
S11308F04D915D916D917C91549789859A850E9463
S113090086026D837E838F839887E985FA85828446
S11309109384A484B5841F9281E08F9381858F93FF
S113092080858F9387818F9386818F93C980DA80A6
S1130930EB80FC800D811E812F813885B301A201DB
S113094089859A850E9491020F900F900F900F90C5
S11309500F900F904B015C01E985FA85EA5AFF4F2D
S1130960C080D180E280F380E985FA85EE5AFF4F9A
S11309700081118122813381AB01BC0189859A8573
S11309800E94F602D10119966D937D938D939C93E9
S11309901C97A985BA85ED91FC9111978586968659
S11309A0A786B08AED91FC9189819A81AB81BC8143
S11309B0818F928FA38FB48FA985BA85ED91FC9115
S11309C01197458E568E678E70A2ED91FC918D81A4
S11309D09E81AF81B88581A392A3A3A3B4A32A96D1
S11309E00FB6F894DEBF0FBECDBFDF91CF911F913C
S11309F00F91FF90EF90DF90CF90BF90AF909F90BA
S1130A008F907F906F905F904F903F902F900895BC
S1130A102F923F924F925F926F927F928F929F920A
S1130A20AF92BF92CF92DF92EF92FF920F931F93F8
S1130A30CF93DF93CDB7DEB72A970FB6F894DEBF16
S1130A400FBECDBF1C01DC010D90BC91A02DBE8357
S1130A50AD838C91813009F0D0C0FD01E357FF4F85
S1130A600081118122813381FD01E757FF4F4081CD
S1130A70518162817381C1010E94B0012B013C014B
S1130A80F101E25BFF4FC080D180E280F380ED8111
S1130A90FE81EF56FF4FFA87E98700811181228199
S1130AA03381ED81FE81EB56FF4F4081518162819C
S1130AB07381C1010E94BB016B017C01F101EE5BFA
S1130AC0FF4F80809180A280B380ED81FE81EF553D
S1130AD0FF4F0081118122813381B301A201C10141
S1130AE00E94D20169837A838B839C83ED81FE818A
S1130AF0E356FF4F0081118122813381ED81FE8114
S1130B00E756FF4F4081518162817381C1010E9488
S1130B1086026D837E838F839887F101E65BFF4FA6
S1130B2080809180A280B3801F9281E08F93F10135
S1130B30EA5BFF4F83818F9382818F9381818F93AF
S1130B4080818F93C980DA80EB80FC800D811E81C7
S1130B502F813885B301A201C1010E9491020F9037
S1130B600F900F900F900F900F904B015C01F101CB
S1130B70E259FF4FC080D180E280F380F101E65951
S1130B80FF4F0081118122813381AB01BC01C1017E
S1130B900E94F602A985BA856D937D938D939C93EB
S1130BA01397D101ED91FC911197EB56FF4F808281
S1130BB09182A282B382ED91FC91EF55FF4F89811E
S1130BC09A81AB81BC8180839183A283B383D10159
S1130BD0ED91FC911197EB55FF4F40825182628257
S1130BE07382ED91FC91E755FF4F8D819E81AF811A
S1130BF0B88580839183A283B3832A960FB6F89431
S1130C00DEBF0FBECDBFDF91CF911F910F91FF903B
S1130C10EF90DF90CF90BF90AF909F908F907F9098
S1130C206F905F904F903F902F9008952F923F9236
S1130C304F925F926F927F928F929F92AF92BF92E8
S1130C40CF92DF92EF92FF920F931F93CF93DF9394
S1130C50CDB7DEB72A970FB6F894DEBF0FBECDBF6F
S1130C609A878987DC012D903C901197F10180814E
S1130C70813009F0BBC001A512A523A534A545A167
S1130C8056A167A170A5CD010E94B0012B013C01C2
S1130C90A985BA855E96CD90DD90ED90FC909197F4
S1130CA0F10101A912A923A934A945A556A567A54F
S1130CB070A9CD010E94BB016B017C01A985BA8595
S1130CC052968D909D90AD90BC905597F101EB5B41
S1130CD0FF4F0081118122813381B301A201CD0133
S1130CE00E94D20169837A838B839C83F10101ADD5
S1130CF012AD23AD34AD45A956A967A970AD898558
S1130D009A850E9486026D837E838F839887A98546
S1130D10BA855A968D909D90AD90BC905D971F9228
S1130D2081E08F9359968C9159978F9358968C9113
S1130D3058978F9357968C9157978F9356968C917B
S1130D408F93C980DA80EB80FC800D811E812F8116
S1130D503885B301A20189859A850E9491020F907A
S1130D600F900F900F900F900F90AB01BC01E9858D
S1130D70FA85EA58FF4FC080D180E280F380E9858C
S1130D80FA85EE58FF4F00811181228133818985D4
S1130D909A850E947003F101FD96608371838283BA
S1130DA09383A985BA85ED91FC91EB5BFF4F898113
S1130DB09A81AB81BC8180839183A283B383A9850B
S1130DC0BA85ED91FC911197EF5BFF4F4082518200
S1130DD062827382ED91FC91E75BFF4F8D819E816E
S1130DE0AF81B88580839183A283B3832A960FB69B
S1130DF0F894DEBF0FBECDBFDF91CF911F910F914D
S1130E00FF90EF90DF90CF90BF90AF909F908F9026
S1130E107F906F905F904F903F902F9008952F9206
S1130E203F924F925F926F927F928F929F92AF9276
S1130E30BF92CF92DF92EF92FF920F931F93CF93C3
S1130E40DF93CDB7DEB72A970FB6F894DEBF0FBE97
S1130E50CDBF9A878987DC012D903C901197F101D1
S1130E608081813009F0CAC0E75AFF4F00811181A7
S1130E7022813381F101EB5AFF4F4081518162811C
S1130E807381CD010E94B0012B013C01A985BA8573
S1130E90D696CD90DD90ED90FC90D997F101EF5965
S1130EA0FF4F0081118122813381F101E35AFF4F09
S1130EB04081518162817381CD010E94BB016B012C
S1130EC07C01E985FA8582A493A4A4A4B5A4F101C4
S1130ED0EB58FF4F0081118122813381B301A201BC
S1130EE089859A850E94D20169837A838B839C8346
S1130EF0F101E759FF4F0081118122813381F10112
S1130F00EB59FF4F408151816281738189859A85B4
S1130F100E9486026D837E838F839887A985BA8514
S1130F20D2968D909D90AD90BC90D5978FEF8F9376
S1130F308F93D1968C91D1978F93D0968C91D09793
S1130F408F939F968C919F978F939E968C918F935E
S1130F50C980DA80EB80FC800D811E812F81388569
S1130F60B301A20189859A850E9491020F900F9086
S1130F700F900F900F900F90AB01BC01E985FA859B
S1130F80E258FF4FC080D180E280F380E985FA8582
S1130F90E658FF4F008111812281338189859A852A
S1130FA00E947003F101E359FF4F608371838283D0
S1130FB09383A985BA85ED91FC91EB58FF4F898104
S1130FC09A81AB81BC8180839183A283B383A985F9
S1130FD0BA85ED91FC911197EF58FF4F40825182F1
S1130FE062827382ED91FC91E758FF4F8D819E815F
S1130FF0AF81B88580839183A283B3832A960FB689
S1131000F894DEBF0FBECDBFDF91CF911F910F913A
S1131010FF90EF90DF90CF90BF90AF909F908F9014
S11310207F906F905F904F903F902F9008954F92D4
S11310305F926F927F928F929F92AF92BF92CF9264
S1131040DF92EF92FF920F931F93CF93DF93EC0104
S113105088809980F4018081813009F045C0EF5A7D
S1131060FF4FA080B180C280D380EAA0FBA00CA176
S11310701DA1F401E35BFF4F208131814281538143
S1131080F401FD966081718182819381E9A5EF93DA
S1131090E8A5EF93EFA1EF93EEA1EF930E943B033A
S11310A00F900F900F900F902B013C01FE01E25A1C
S11310B0FF4FC080D180E280F380FE01E65AFF4FEB
S11310C00081118122813381AB01BC01CE010E94D8
S11310D0F602F40145A656A667A670AAE881F9812E
S11310E061AB72AB83AB94ABDF91CF911F910F9146
S11310F0FF90EF90DF90CF90BF90AF909F908F9034
S11311007F906F905F904F9008954F925F926F928F
S11311107F928F929F92AF92BF92CF92DF92EF9283
S1131120FF920F931F93CF93DF93EC0188809980F4
S1131130F4018081813009F04CC0EF57FF4FA0804B
S1131140B180C280D380EAACFBAC0CAD1DADF40120
S1131150E358FF4F2081318142815381F401E359E7
S1131160FF4F6081718182819381FE01FE96A3818C
S1131170AF93A281AF93A181AF93E081EF930E94DB
S11311803B030F900F900F900F902B013C01FE0139
S1131190EA59FF4FC080D180E280F380FE01EE590E
S11311A0FF4F0081118122813381AB01BC01CE014B
S11311B00E94F602F401E35AFF4F40825182628298
S11311C07382E881F981EF59FF4F608371838283D1
S11311D09383DF91CF911F910F91FF90EF90DF9058
S11311E0CF90BF90AF909F908F907F906F905F90C3
S11311F04F9008952AE032E0FC0131832083089562
S1131200BF92CF92DF92EF92FF920F931F93CF93EF
S1131210DF93EC01052F162FB72EE881F9810680A4
S1131220F781E02D642F19957C01E881F98106800E
S1131230F781E02D602FCE0119956C01E881F981C9
S11312400680F781E02D612FCE0119958C01E8818C
S1131250F9810680F781E02D6B2DCE011995960159
S11312602E293F29202B312B282B392B822F932FEA
S1131270DF91CF911F910F91FF90EF90DF90CF906E
S1131280BF900895EF92FF920F931F93CF93DF9334
S1131290EC018B01E881F981672F770F770B0680CA
S11312A0F781E02D19957C01E881F9810680F781A9
S11312B0E02D602FCE0119959C012E293F29822F04
S11312C0932FDF91CF911F910F91FF90EF9008958D
S11312D08F929F92AF92BF92CF92DF92EF92FF9242
S11312E00F931F93CF93DF93EC014A015B01E881D5
S11312F0F981672F7727882799270680F781E02DC2
S1131300CE0119957C01E881F981B50188279927D7
S11313100680F781E02DCE0119956C01E881F981F1
S113132099278B2D7A2D692D0680F781E02DCE012A
S113133019958C01E881F9810680F781E02D682DEB
S1131340CE011995EC28FD280E291F29082B192BED
S1131350802F912FDF91CF911F910F91FF90EF90EC
S1131360DF90CF90BF90AF909F908F9008958F9211
S11313709F92AF92BF92CF92DF92EF92FF920F9320
S11313801F93CF93DF93EC014A015B01E881F9815C
S1131390672F7727882799270680F781E02DCE01CC
S11313A019957C01E881F981B501992777FD90951C
S11313B0892F0680F781E02DCE0119956C01E88113
S11313C0F9819927B7FC9A958B2D7A2D692D068082
S11313D0F781E02DCE0119958C01E881F981068011
S11313E0F781E02D682DCE011995EC28FD280E29F2
S11313F01F29082B192B802F912FDF91CF911F913B
S11314000F91FF90EF90DF90CF90BF90AF909F909F
S11314108F900895EF92FF920F931F93CF93DF93D2
S1131420EC017B018E81882361F020E030E019C05B
S113143088859985009739F00E94E32A882319F05A
S11314400EC000EC10E0F801808188238CF70CC0FA
S11314502EEF3FEF8091C600F701808302C02FEF8B
S11314603FEF822F932F07C08091C00083FDF0CF00
S113147020E030E0EFCFDF91CF911F910F91FF90EB
S1131480EF900895FF920F931F93CF93DF93EC0196
S1131490F62E8E81882361F020E030E012C088852A
S11314A09985009739F00E94E32A882319F007C030
S11314B000EC10E0F801808185FFF1CF05C02FEF2B
S11314C03FEF822F932F05C0F092C60020E030E05A
S11314D0F8CFDF91CF911F910F91FF900895CF9393
S11314E0DF93EC018F81882329F18A819B81AC8170
S11314F0BD81880F991FAA1FBB1F880F991FAA1FA0
S1131500BB1F9C01AD01220F331F441F551F60E018
S113151074E284EF90E00E94AB2ECA01B9016150DD
S11315207109810991090E946D2C0E94AA2C0E94C4
S1131530412C28C08A819B81AC81BD81880F991F71
S1131540AA1FBB1F880F991FAA1FBB1F9C01AD01B7
S1131550220F331F441F551F220F331F441F551FD3
S113156060E074E284EF90E00E94AB2ECA01B901FE
S113157061507109810991090E946D2C0E94AA2C65
S11315800E94412C8E81811116C07093C500609316
S1131590C400E2ECF0E08081866080838F81882340
S11315A029F0E0ECF0E0808182608083E1ECF0E0FF
S11315B0808188618083DF91CF9108952AE032E0B1
S11315C0FC01318320830E946C260895FC018085F0
S11315D09185009711F00E94EF2A0895FC018085FF
S11315E09185009711F00E94E72A089587E084B955
S11315F0999A289AA19A8CB581658CBD0895FC01AD
S11316008081813011F428980895823009F4A198DA
S11316100895FC018081813011F4289A0895823064
S113162009F4A19A08956EBD0DB407FEFDCF089587
S11316301F93CF93DF93EC01142F0E94130B612FA0
S1131640CE010E94130BDF91CF911F91089541B1F8
S113165021E030E0FC01008402C0220F331F0A9411
S1131660E2F7242B21B90895FC018781882379F0BE
S113167042B121E030E0C901008402C0880F991F03
S11316800A94E2F78095842382B91782089542B1BF
S113169021E030E0C901008402C0880F991F0A9438
S11316A0E2F7842B82B981E0878308952AE832E047
S11316B0FC013183208308952AE832E0FC01318360
S11316C020830E946C2608950F931F93CF93DF937A
S11316D0DC01FB0115961D921D921D921C92189718
S11316E055961D921D921D921C925897EC01C3575A
S11316F0DF4F40E050E068EC72EC488359836A8322
S11317007B83EC01C356DF4F188219821A821B8235
S113171099961D921D921D921C929C97D9961D928A
S11317201D921D921C92DC97EC01C75ADF4F188260
S113173019821A821B82A759BF4F1D921D921D92B6
S11317401C92139780E090E0A0E4B0E48287938732
S1131750A487B5878FE692E1A3E0BCE382839383F9
S1131760A483B5838AE999E9A9E5BFE386839783CE
S1131770A087B1878DEC9CECACECBDE386879787A2
S1131780A08BB18B8FEC97EFA3E9BEE3828F938F8D
S1131790A48FB58F128A138A148A158A86EB93EF65
S11317A0ADEEBFE3868B978BA08FB18F168E178E0D
S11317B010A211A286EB93EFADEFBCE382A393A337
S11317C0A4A3B5A38FE892ECA5EFBCE386A397A3EB
S11317D0A0A7B1A78EE99FEEA7EBBFE382AB93ABC3
S11317E0A4ABB5AB12A613A614A615A680EF95E874
S11317F0A5E3B0E486A797A7A0ABB1AB16AA17AA36
S113180010AE11AE8FE79AE6ACEBBDE382AF93AFB7
S1131810A4AFB5AFEF01EE9686EA9BE9A4E4BDE37D
S113182088839983AA83BB83EF01CE57DF4F8DEC66
S11318309CECACE4BDE388839983AA83BB83DF017A
S1131840AA57BF4F40E050E060E87FE34D935D93BB
S11318506D937C931397EF01C657DF4F80E090E0C0
S1131860A0E8BFEB88839983AA83BB83EF01CE5A98
S1131870DF4F0FE812EC25E73FEB088319832A8337
S11318803B83EF01CA5ADF4F0FE812EC25E73FE331
S1131890088319832A833B83EF01C25ADF4F4883AD
S11318A059836A837B83EF01C65ADF4F8883998308
S11318B0AA83BB83EF01CA59DF4F488359836A83E4
S11318C07B83EF01CE59DF4F88839983AA83BB833F
S11318D0EF01C259DF4F80E090E0A0E0BFE38883CE
S11318E09983AA83BB83DF01A659BF4F1D921D9222
S11318F01D921C921397EF01C258DF4F80E090E0D5
S1131900A0EAB0E488839983AA83BB83EF01C65815
S1131910DF4F80E090E0A0EAB0EC88839983AA834B
S1131920BB83EF01CA58DF4F80E090E0A0E5B1E44B
S113193088839983AA83BB83EE58FF4F80E090E0AD
S1131940A0E5B1EC80839183A283B383DF91CF912F
S11319501F910F910895CF93DF93CDB7DEB76897AA
S11319600FB6F894DEBF0FBECDBF89EF90E00E94A2
S113197069261C01DC011C92FC0111821282138273
S1131980148215961D921D921D921C921897118611
S11319901286138614861D961D921D921D921C920A
S11319A05097118A128A138A148A55961D921D9291
S11319B01D921C925897118E128E138E148E5D9662
S11319C01D921D921D921C92909711A212A213A215
S11319D014A295961D921D921D921C92989711A681
S11319E012A613A614A69D961D921D921D921C92DA
S11319F0D09711AA12AA13AA14AAD5961D921D92C1
S1131A001D921C92D89711AE12AE13AE14AEFD9671
S1131A101082118212821382FC01EF5BFF4F10824D
S1131A20118212821382FC01EB5BFF4F1082118240
S1131A3012821382FC01E75BFF4F10821182128233
S1131A401382FC01E35BFF4F108211821282138226
S1131A50FC01EF5AFF4F1082118212821382FC01A3
S1131A60EB5AFF4F1082118212821382FC01E75A53
S1131A70FF4F1082118212821382FC01E35AFF4F3E
S1131A801082118212821382FC01EF59FF4F1082DF
S1131A90118212821382FC01EB59FF4F10821182D2
S1131AA012821382FC01E759FF4F108211821282C5
S1131AB01382FC01E359FF4F1082118212821382B8
S1131AC0FC01EF58FF4F1082118212821382FC0135
S1131AD0EB58FF4F1082118212821382FC01E758E7
S1131AE0FF4F1082118212821382FC01E358FF4FD0
S1131AF01082118212821382FC01EF57FF4F108271
S1131B00118212821382FC01EB57FF4F1082118263
S1131B1012821382FC01E757FF4F10821182128256
S1131B201382FC01E357FF4F108211821282138249
S1131B30FC01EF56FF4F1082118212821382FC01C6
S1131B40EB56FF4F1082118212821382FC01E7567A
S1131B50FF4F1082118212821382FC01E356FF4F61
S1131B601082118212821382FC01EF55FF4F108202
S1131B70118212821382FC01EB55FF4F10821182F5
S1131B8012821382FC01E755FF4F108211821282E8
S1131B901382FC01E355FF4F1082118212821382DB
S1131BA0FC01EF54FF4F1082118212821382FC0158
S1131BB0EB54FF4F1082118212821382FC01E7540E
S1131BC0FF4F1082118212821382FC01E354FF4FF3
S1131BD01082118212821382FC01EF53FF4F108294
S1131BE0118212821382FC01EB53FF4F1082118287
S1131BF012821382FC01E753FF4F1082118212827A
S1131C001382FC01E353FF4F10821182128213826C
S1131C10FC01EF52FF4F1082118212821382FC01E9
S1131C20EB52FF4F1082118212821382FC01E752A1
S1131C30FF4F1082118212821382FC01E352FF4F84
S1131C401082118212821382FC01EF51FF4F108225
S1131C50118212821382FC01EB51FF4F1082118218
S1131C6012821382FC01E751FF4F1082118212820B
S1131C701382FC01E351FF4F1082118212821382FE
S1131C80FC01EF50FF4F1082118212821382FC017B
S1131C90EB50FF4F10821182128213828EE890E083
S1131CA00E9469262C01B1010E94FE00B201C1010B
S1131CB00E94640B88E090E00E9469267C0180E029
S1131CC094E2A4EFB0E0F70180839183A283B3830D
S1131CD080E094E09583848384E690E09783868310
S1131CE08AE090E00E9469268C018AE092E0D801A3
S1131CF08D939C9380E990EDA3E0B0E0F80182839A
S1131D009383A483B5831682BB24B394B782F186EC
S1131D10E086C8010E946F0A82E090E00E94692672
S1131D206C01DC010D931C938DE090E00E94692608
S1131D309E878D876894EE24E2F8F12C00E010E091
S1131D409201A101B6010E94CD258BE090E00E9492
S1131D506926988B8F8704E010E021E030E0A10130
S1131D60B6010E9449268AE090E00E9469264C014F
S1131D7046E450E062E070E00E94112680E292E0C6
S1131D80F40191838083178283E090E091878087B8
S1131D9089E090E00E9469269C8B8B8B24E030E0E4
S1131DA045E050E0B1010E94C02389E090E00E9428
S1131DB069269E8B8D8B23E030E043E050E0B20136
S1131DC00E94C72289E090E00E946926988F8F8B39
S1131DD023E030E044E050E0B2010E948E2281E032
S1131DE090E00E9469268C01DC01BC920E94F60AF4
S1131DF08AE490E00E9469265C01FC0115A304A317
S1131E0017A216A211A610A613A612A615A614A60A
S1131E1017A616A611AA10AA12AA13AA14AA15AADA
S1131E2016AA17AA10AE11AE12AE13AE14AE15AEAA
S1131E30E82FFB2D84E2DF011D928A95E9F7CA2C75
S1131E40DB2C1BEDE12E1FE0F12E09EC1FE320E05B
S1131E5030E0A9016BED7FE089E490E40E9433292E
S1131E60C5010E9417220E948C129A8B898BFC0157
S1131E70378226820E94CB203C01B4010E94F120CB
S1131E806D857E85C3010E94F1206F857889C30129
S1131E900E94F1206D897E89C3010E94F1206F891F
S1131EA0788DC3010E94F1206B897C89C3010E9453
S1131EB0F120C10183559F4F988B8F8781010F5467
S1131EC01F4FAD85BE85ED91FC9111970190F08176
S1131ED0E02DCD011995EF85F889C080D180E2808D
S1131EE0F38020E030E0A901C701B6010E94CD2BA8
S1131EF0882371F0D8018D909D90AD90BC9020E026
S1131F0030E0A901C501B4010E94CD2B811116C096
S1131F10BFEFE1EEF4E0B150E040F040E1F700C083
S1131F200000CFCFC3010E944A21D3015A968C915D
S1131F308823C1F3C2010E94B503F4CF81010B527F
S1131F401F4FA5019401C701B6010E94802619867E
S1131F501A861B861C861D821E821F821886198281
S1131F601A821B821C82F101EB57FF4FE080F18043
S1131F7002811381F101EF54FF4F208131814281AD
S1131F805381F101E355FF4F608171818281938117
S1131F9088248394912C8C0E9D1E0F2EF5E0AF2E79
S1131FA0B12CF02DAC0EBD1E0F2EF9E0CF2ED12C8E
S1131FB0F02DCC0EDD1E0E946C27810107531F4FAC
S1131FC069857A858B859C850E943C2C0E946F2CA8
S1131FD0F8016083718382839383810103531F4FCC
S1131FE06D817E818F8198850E943C2C0E946F2C8C
S1131FF0D8016D937D938D939C93139781010F5218
S11320001F4F69817A818B819C810E943C2C0E94A4
S11320106F2CF8016083718382839383FFEF21EE39
S113202084E0F15020408040E1F700C0000081E0EE
S1132030D1018C93C3010E940B21C3010E948B2107
S113204089899A890E947F1389899A890E949B139E
S113205069CF0F931F93CF93DF93D901E80114162F
S1132060150674F4E62FF72F4E0F5F1F91918C9194
S1132070890F8C939881890F8883E417F507B1F74A
S1132080DF91CF911F910F9108952F923F924F921C
S11320905F926F927F928F929F92AF92BF92CF92F4
S11320A0DF92EF92FF920F931F93CF93DF9300D0B1
S11320B01F92CDB7DEB77C018B014DB65EB66115BC
S11320C0710509F473C04B829EB79C83DB01ED91CB
S11320D0FC910480F581E02DCB0119955C01C801C8
S11320E00E94B3134C016C01B5E0CB0ED11C1C0152
S11320F0E4E02E0E311C8DB79EB78C199D090FB6E6
S1132100F8949EBF0FBE8DBF6DB67EB6A1E0B0E061
S11321106A0E7B1E85EBEDB7FEB7818382E6D301A1
S113212011968C93119787ED12968C932DB73EB729
S11321302C5F3F4F482D592D6A2D7B2D822F932FD5
S11321400E941B301A8219828E010F5F1F4F9E015D
S11321502E5F3F4FA401B501C7010E942910F3016E
S1132160E80DF91D8A818383F301E20DF31D898152
S11321708083F701808191810E94E60A00E010E0EB
S1132180812C912C0C151D05A4F481149104D1F01B
S113219010C0C5010E9474263B812C81832F922F8D
S11321A00FB6F8949EBF0FBE8DBF1DC0812C912C1D
S11321B01AC0D7018D919C910E94EE0AA114B1041A
S11321C041F7EACFF70180819181D3016D913D01FF
S11321D0DC01ED91FC910680F781E02D19954C010D
S11321E00F5F1F4FCFCF882D992D0FB6F8945EBE89
S11321F00FBE4DBE0F900F900F900F90DF91CF91B7
S11322001F910F91FF90EF90DF90CF90BF90AF9010
S11322109F908F907F906F905F904F903F902F9002
S113222008952F923F924F925F926F927F928F9276
S11322309F92AF92BF92CF92DF92EF92FF920F9351
S11322401F93CF93DF9300D000D0CDB7DEB76C01DE
S11322504B01ADB6BEB61E82DC018D919C910E94ED
S1132260E60A00E0A9C0123621F48E81873D09F404
S1132270B6C0E114F10409F09AC09DC01D82F601B4
S113228080819181DC01ED91FC910088F189E02D40
S1132290BE016B5F7F4F19957C01009709F087C0E1
S11322A08D81823009F07AC02DB63EB6EDB7FEB707
S11322B0E95EF1090FB6F894FEBF0FBEEDBF4DB64F
S11322C05EB681E090E0480E591E320182E08183BF
S11322D001E010E0093E110509F486C0E114F1049F
S11322E009F486C053C01C821B821A821982D6014B
S11322F08D919C91DC01ED91FC910088F189E02D98
S1132300BE016C5F7F4F1995F60180819181DC01DC
S1132310ED91FC910088F189E02DBE016D5F7F4F46
S113232019957C018E010F5F1F4F9E012E5F3F4F59
S113233049EE50E0642D752DC6010E9429109A8142
S11323408C8198130FC099818B81981312C08D8151
S11323508230B1F4842D952D0E94731AF401918377
S1132360808314C00F2EFCEFEF2EFF24FA94F02D7F
S11323700DC00F2EFCEFEF2EFF24FA94F02D06C0B3
S11323800F2EFDEFEF2EFF24FA94F02D822D932DC6
S11323900FB6F8949EBF0FBE8DBF06C00F2EFDEF83
S11323A0EF2EFF24FA94F02DE114F10491F1D401FD
S11323B01D921C922EC0012F1E81D6018D919C91DD
S11323C0DC01ED91FC910088F189E02DBE016A5F8A
S11323D07F4F19957C01053B09F04BCF44CFE114A5
S11323E0F10409F44BCFE3CFE114F10479F67BCF88
S11323F0F60180819181DC01ED91FC91B301600FC4
S1132400711F0088F189E02D19957C010F5F1F4F22
S113241061CFF601808191810E94EE0A8E2D9F2D5D
S11324200FB6F894BEBE0FBEADBE26960FB6F89496
S1132430DEBF0FBECDBFDF91CF911F910F91FF90F3
S1132440EF90DF90CF90BF90AF909F908F907F9050
S11324506F905F904F903F902F900895CF92DF92AE
S1132460EF92FF920F931F93CF93DF93BC018827C2
S113247077FD8095982F0E946F2C20E030E04AEF82
S113248054E40E94682B2FE632E143E85AE30E94A9
S1132490AF2D20E030E040E85FE30E94682B062F78
S11324A0172FD82FC92FC62ED72EE82EF92E20E0AD
S11324B030E040E85FE30E94AB2D18166CF020E09A
S11324C030E040E85FEB602F712F8D2F9C2F0E942E
S11324D0CD2B8823A4F40AC0C12CD12C6894EE24FB
S11324E0E7F80F2EFFE3FF2EF02D09C0C12CD12CED
S11324F06894EE24E7F80F2EFFEBFF2EF02D6C2DE1
S11325007D2D8E2D9F2DDF91CF911F910F91FF90E7
S1132510EF90DF90CF900895CF93DF938091A20244
S11325209091A302892BC9F488E290E00E94692665
S1132530FC01178216820896A82FB92F80E2ED01BC
S113254019928A95E9F710821182128213821582F8
S11325501482F093A302E093A2028091A2029091CC
S1132560A302DF91CF9108951F920F920FB60F929D
S113257011240BB60F92EF92FF920F931F932F9398
S11325803F934F935F936F937F938F939F93AF93F7
S1132590BF93CF93DF93EF93FF930E948C12EC01D0
S11325A0F894409126015091270160E070E07894FE
S11325B0088119812A813B814017510762077307FB
S11325C05CF4DB01CA01805C9346AF4FBF4F801BB4
S11325D0910BA20BB30B06C0DB01CA01801B910B4C
S11325E0A20BB30B488359836A837B8381342FE125
S11325F09207A105B1051CF01D821C8267C0AC01C5
S1132600BD01475C574061097109433E574061056C
S1132610710508F056C00C811D81083011050CF0BD
S113262050C0EE80FF800E942E12F8013296EE0F09
S1132630FF1FEE0FFF1FEC0FFD1F6083718382836A
S1132640938305301105ECF120E030E0A901688D99
S1132650798D8A8D9B8D0E94CD2B88231CF4F701E4
S1132660108203C081E0F7018083F701808181112A
S113267026C088859985AA85BB85EF59FF4F80833D
S11326809183A283B3838C859D85AE85BF85F70135
S113269081AB92ABA3ABB4AB88899989AA89BB8976
S11326A0EF56FF4F80839183A283B3838C899D89E6
S11326B0AE89BF89F70181879287A387B4871D827A
S11326C01C828C819D8101969D838C83FF91EF9167
S11326D0DF91CF91BF91AF919F918F917F916F9136
S11326E05F914F913F912F911F910F91FF90EF9028
S11326F00F900BBE0F900FBE0F901F901895EAE03D
S1132700F1E080818D7F808383E080932001E1E28A
S1132710F1E088E1808380818064808380E49CE9A7
S113272090932901809328017894E3E7F0E0808175
S1132730806280830895E1E2F1E080818260808399
S113274008952EE232E0FC0131832083089580E075
S113275090E0089508952EE232E0FC013183208355
S11327600E946C260895FC018381948108952EE2D1
S113277032E0FC013183208308956115710521F055
S1132780FB012081FC0122830895CF93DF93EC01A8
S113279081E090E00E947126FC018A8180838E2F63
S11327A09F2FDF91CF9108952EE232E0FC01318317
S11327B020830E946C2608952EE232E0FC013183CE
S11327C0208308952EE232E0FC01318320830E94AD
S11327D06C260895CF93DF93EC0189EE90E00E947C
S11327E07126FC018A8180838D819E81AF81B885A9
S11327F081839283A383B48389859A85AB85BC85C1
S113280085839683A783B0878D859E85AF85B88998
S113281081879287A387B48789899A89AB89BC8980
S113282085879687A787B08B8D899E89AF89B88D58
S1132830818B928BA38BB48B898D9A8DAB8DBC8D40
S1132840858B968BA78BB08F8D8D9E8DAF8DB8A108
S1132850818F928FA38FB48F89A19AA1ABA1BCA1C0
S1132860858F968FA78FB0A38DA19EA1AFA1B8A588
S113287081A392A3A3A3B4A389A59AA5ABA5BCA540
S113288085A396A3A7A3B0A78DA59EA5AFA5B8A918
S113289081A792A7A3A7B4A789A99AA9ABA9BCA900
S11328A085A796A7A7A7B0AB8DA99EA9AFA9B8ADD8
S11328B081AB92ABA3ABB4AB89AD9AADABADBCADC0
S11328C085AB96ABA7ABB0AFDE01DD968D919D9144
S11328D00D90BC91A02D81AF92AFA3AFB4AF9F0177
S11328E0235C3F4FDE01AF5BBF4F4D915D916D9116
S11328F07C91D9014D935D936D937C9313979F01C4
S11329002F5B3F4FDE01AB5BBF4F4D915D916D91EE
S11329107C91D9014D935D936D937C9313979F01A3
S11329202B5B3F4FDE01A75BBF4F4D915D916D91D6
S11329307C91D9014D935D936D937C9313979F0183
S1132940275B3F4FDE01A35BBF4F4D915D916D91BE
S11329507C91D9014D935D936D937C9313979F0163
S1132960235B3F4FDE01AF5ABF4F4D915D916D9197
S11329707C91D9014D935D936D937C9313979F0143
S11329802F5A3F4FDE01AB5ABF4F4D915D916D9170
S11329907C91D9014D935D936D937C9313979F0123
S11329A02B5A3F4FDE01A75ABF4F4D915D916D9158
S11329B07C91D9014D935D936D937C9313979F0103
S11329C0275A3F4FDE01A35ABF4F4D915D916D9140
S11329D07C91D9014D935D936D937C9313979F01E3
S11329E0235A3F4FDE01AF59BF4F4D915D916D9119
S11329F07C91D9014D935D936D937C9313979F01C3
S1132A002F593F4FDE01AB59BF4F4D915D916D91F1
S1132A107C91D9014D935D936D937C9313979F01A2
S1132A202B593F4FDE01A759BF4F4D915D916D91D9
S1132A307C91D9014D935D936D937C9313979F0182
S1132A4027593F4FDE01A359BF4F4D915D916D91C1
S1132A507C91D9014D935D936D937C9313979F0162
S1132A6023593F4FDE01AF58BF4F4D915D916D919A
S1132A707C91D9014D935D936D937C9313979F0142
S1132A802F583F4FDE01AB58BF4F4D915D916D9173
S1132A907C91D9014D935D936D937C9313979F0122
S1132AA02B583F4FDE01A758BF4F4D915D916D915B
S1132AB07C91D9014D935D936D937C9313979F0102
S1132AC027583F4FDE01A358BF4F4D915D916D9143
S1132AD07C91D9014D935D936D937C9313979F01E2
S1132AE023583F4FDE01AF57BF4F4D915D916D911C
S1132AF07C91D9014D935D936D937C9313979F01C2
S1132B002F573F4FDE01AB57BF4F4D915D916D91F4
S1132B107C91D9014D935D936D937C9313979F01A1
S1132B202B573F4FDE01A757BF4F4D915D916D91DC
S1132B307C91D9014D935D936D937C9313979F0181
S1132B4027573F4FDE01A357BF4F4D915D916D91C4
S1132B507C91D9014D935D936D937C9313979F0161
S1132B6023573F4FDE01AF56BF4F4D915D916D919D
S1132B707C91D9014D935D936D937C9313979F0141
S1132B802F563F4FDE01AB56BF4F4D915D916D9176
S1132B907C91D9014D935D936D937C9313979F0121
S1132BA02B563F4FDE01A756BF4F4D915D916D915E
S1132BB07C91D9014D935D936D937C9313979F0101
S1132BC027563F4FDE01A356BF4F4D915D916D9146
S1132BD07C91D9014D935D936D937C9313979F01E1
S1132BE023563F4FDE01AF55BF4F4D915D916D911F
S1132BF07C91D9014D935D936D937C9313979F01C1
S1132C002F553F4FDE01AB55BF4F4D915D916D91F7
S1132C107C91D9014D935D936D937C9313979F01A0
S1132C202B553F4FDE01A755BF4F4D915D916D91DF
S1132C307C91D9014D935D936D937C9313979F0180
S1132C4027553F4FDE01A355BF4F4D915D916D91C7
S1132C507C91D9014D935D936D937C9313979F0160
S1132C6023553F4FDE01AF54BF4F4D915D916D91A0
S1132C707C91D9014D935D936D937C9313979F0140
S1132C802F543F4FDE01AB54BF4F4D915D916D9179
S1132C907C91D9014D935D936D937C9313979F0120
S1132CA02B543F4FDE01A754BF4F4D915D916D9161
S1132CB07C91D9014D935D936D937C9313979F0100
S1132CC027543F4FDE01A354BF4F4D915D916D9149
S1132CD07C91D9014D935D936D937C9313979F01E0
S1132CE023543F4FDE01AF53BF4F4D915D916D9122
S1132CF07C91D9014D935D936D937C9313979F01C0
S1132D002F533F4FDE01AB53BF4F4D915D916D91FA
S1132D107C91D9014D935D936D937C9313979F019F
S1132D202B533F4FDE01A753BF4F4D915D916D91E2
S1132D307C91D9014D935D936D937C9313979F017F
S1132D4027533F4FDE01A353BF4F4D915D916D91CA
S1132D507C91D9014D935D936D937C9313979F015F
S1132D6023533F4FDE01AF52BF4F4D915D916D91A3
S1132D707C91D9014D935D936D937C9313979F013F
S1132D802F523F4FDE01AB52BF4F4D915D916D917C
S1132D907C91D9014D935D936D937C9313979F011F
S1132DA02B523F4FDE01A752BF4F4D915D916D9164
S1132DB07C91D9014D935D936D937C9313979F01FF
S1132DC027523F4FDE01A352BF4F4D915D916D914C
S1132DD07C91D9014D935D936D937C9313979F01DF
S1132DE023523F4FCE018F519F4FDC014D915D9196
S1132DF06D917C91D9014D935D936D937C93139761
S1132E009F012F513F4FCE018B519F4FDC014D91BC
S1132E105D916D917C91D9014D935D936D937C93FC
S1132E201397DF01AB51BF4FC751DF4F4881598121
S1132E306A817B814D935D936D937C9313978E2F61
S1132E409F2FDF91CF910895CF93DF93FC01DB0196
S1132E50109709F445C38C91828311964D915D912D
S1132E606D917C911497458356836783708715967B
S1132E704D915D916D917C9118974187528763873D
S1132E80748719964D915D916D917C911C9745873E
S1132E9056876787708B1D964D915D916D917C91DE
S1132EA05097418B528B638B748B51964D915D91EE
S1132EB06D917C915497458B568B678B708F55968B
S1132EC04D915D916D917C915897418F528F638F95
S1132ED0748F59964D915D916D917C915C97458F5E
S1132EE0568F678F70A35D964D915D916D917C9126
S1132EF0909741A352A363A374A391964D915D91BE
S1132F006D917C91949745A356A367A370A795965A
S1132F104D915D916D917C91989741A752A763A7BC
S1132F2074A799964D915D916D917C919C9745A75D
S1132F3056A767A770AB9D964D915D916D917C915D
S1132F40D09741AB52AB63AB74ABD1964D915D91CD
S1132F506D917C91D49745AB56AB67AB70AFD5966A
S1132F604D915D916D917C91D89741AF52AF63AF14
S1132F7074AFEF01ED96D9964D915D916D917C9171
S1132F80DC97488359836A837B839F012F5B3F4F80
S1132F90CD01CD96EC01488159816A817B81E9019B
S1132FA0488359836A837B839F012B5B3F4FCD0109
S1132FB08F5B9F4FEC01488159816A817B81E901D4
S1132FC0488359836A837B839F01275B3F4FCD01ED
S1132FD08B5B9F4FEC01488159816A817B81E901B8
S1132FE0488359836A837B839F01235B3F4FCD01D1
S1132FF0875B9F4FEC01488159816A817B81E9019C
S1133000488359836A837B839F012F5A3F4FCD01A5
S1133010835B9F4FEC01488159816A817B81E9017F
S1133020488359836A837B839F012B5A3F4FCD0189
S11330308F5A9F4FEC01488159816A817B81E90154
S1133040488359836A837B839F01275A3F4FCD016D
S11330508B5A9F4FEC01488159816A817B81E90138
S1133060488359836A837B839F01235A3F4FCD0151
S1133070875A9F4FEC01488159816A817B81E9011C
S1133080488359836A837B839F012F593F4FCD0126
S1133090835A9F4FEC01488159816A817B81E90100
S11330A0488359836A837B839F012B593F4FCD010A
S11330B08F599F4FEC01488159816A817B81E901D5
S11330C0488359836A837B839F0127593F4FCD01EE
S11330D08B599F4FEC01488159816A817B81E901B9
S11330E0488359836A837B839F0123593F4FCD01D2
S11330F087599F4FEC01488159816A817B81E9019D
S1133100488359836A837B839F012F583F4FCD01A6
S113311083599F4FEC01488159816A817B81E90180
S1133120488359836A837B839F012B583F4FCD018A
S11331308F589F4FEC01488159816A817B81E90155
S1133140488359836A837B839F0127583F4FCD016E
S11331508B589F4FEC01488159816A817B81E90139
S1133160488359836A837B839F0123583F4FCD0152
S113317087589F4FEC01488159816A817B81E9011D
S1133180488359836A837B839F012F573F4FCD0127
S113319083589F4FEC01488159816A817B81E90101
S11331A0488359836A837B839F012B573F4FCD010B
S11331B08F579F4FEC01488159816A817B81E901D6
S11331C0488359836A837B839F0127573F4FCD01EF
S11331D08B579F4FEC01488159816A817B81E901BA
S11331E0488359836A837B839F0123573F4FCD01D3
S11331F087579F4FEC01488159816A817B81E9019E
S1133200488359836A837B839F012F563F4FCD01A7
S113321083579F4FEC01488159816A817B81E90181
S1133220488359836A837B839F012B563F4FCD018B
S11332308F569F4FEC01488159816A817B81E90156
S1133240488359836A837B839F0127563F4FCD016F
S11332508B569F4FEC01488159816A817B81E9013A
S1133260488359836A837B839F0123563F4FCD0153
S113327087569F4FEC01488159816A817B81E9011E
S1133280488359836A837B839F012F553F4FCD0128
S113329083569F4FEC01488159816A817B81E90102
S11332A0488359836A837B839F012B553F4FCD010C
S11332B08F559F4FEC01488159816A817B81E901D7
S11332C0488359836A837B839F0127553F4FCD01F0
S11332D08B559F4FEC01488159816A817B81E901BB
S11332E0488359836A837B839F0123553F4FCD01D4
S11332F087559F4FEC01488159816A817B81E9019F
S1133300488359836A837B839F012F543F4FCD01A8
S113331083559F4FEC01488159816A817B81E90182
S1133320488359836A837B839F012B543F4FCD018C
S11333308F549F4FEC01488159816A817B81E90157
S1133340488359836A837B839F0127543F4FCD0170
S11333508B549F4FEC01488159816A817B81E9013B
S1133360488359836A837B839F0123543F4FCD0154
S113337087549F4FEC01488159816A817B81E9011F
S1133380488359836A837B839F012F533F4FCD0129
S113339083549F4FEC01488159816A817B81E90103
S11333A0488359836A837B839F012B533F4FCD010D
S11333B08F539F4FEC01488159816A817B81E901D8
S11333C0488359836A837B839F0127533F4FCD01F1
S11333D08B539F4FEC01488159816A817B81E901BC
S11333E0488359836A837B839F0123533F4FCD01D5
S11333F087539F4FEC01488159816A817B81E901A0
S1133400488359836A837B839F012F523F4FCD01A9
S113341083539F4FEC01488159816A817B81E90183
S1133420488359836A837B839F012B523F4FCD018D
S11334308F529F4FEC01488159816A817B81E90158
S1133440488359836A837B839F0127523F4FCD0171
S11334508B529F4FEC01488159816A817B81E9013C
S1133460488359836A837B839F0123523F4FCD0155
S113347087529F4FEC01488159816A817B81E90120
S1133480488359836A837B839F012F513F4FCD012A
S113349083529F4FEC01488159816A817B81E90104
S11334A0488359836A837B839F012B513F4FCD010E
S11334B08F519F4FEC01488159816A817B81E901D9
S11334C0488359836A837B83E751FF4FAB51BF4FD6
S11334D04D915D916D917C9140835183628373839F
S11334E0DF91CF9108950F931F93CF93DF938C01B6
S11334F08DEE90E00E946926EC0182E08A8389EED9
S113350090E09C838B8386E492E0998388831D8278
S11335101E821F82188619861A861B861C861D86A3
S11335201E861F86188A198A1A8A1B8A1C8A1D8A73
S11335301E8A1F8A188E198E1A8E1B8E1C8E1D8E43
S11335401E8E1F8E18A219A21AA21BA21CA21DA2B3
S11335501EA21FA218A619A61AA61BA61CA61DA663
S11335601EA61FA618AA19AA1AAA1BAA1CAA1DAA33
S11335701EAA1FAA18AE19AE1AAE1BAE1CAEFE01CF
S1133580FD961082118212821382FE01EF5BFF4FBF
S11335901082118212821382FE01EB5BFF4F1082B4
S11335A0118212821382FE01E75BFF4F10821182A7
S11335B012821382FE01E35BFF4F1082118212829A
S11335C01382FE01EF5AFF4F10821182128213827E
S11335D0FE01EB5AFF4F1082118212821382FE0108
S11335E0E75AFF4F1082118212821382FE01E35ABE
S11335F0FF4F1082118212821382FE01EF59FF4F96
S11336001082118212821382FE01EB59FF4F108245
S1133610118212821382FE01E759FF4F1082118238
S113362012821382FE01E359FF4F1082118212822B
S11336301382FE01EF58FF4F10821182128213820F
S1133640FE01EB58FF4F1082118212821382FE0199
S1133650E758FF4F1082118212821382FE01E35851
S1133660FF4F1082118212821382FE01EF57FF4F27
S11336701082118212821382FE01EB57FF4F1082D7
S1133680118212821382FE01E757FF4F10821182CA
S113369012821382FE01E357FF4F108211821282BD
S11336A01382FE01EF56FF4F1082118212821382A1
S11336B0FE01EB56FF4F1082118212821382FE012B
S11336C0E756FF4F1082118212821382FE01E356E5
S11336D0FF4F1082118212821382FE01EF55FF4FB9
S11336E01082118212821382FE01EB55FF4F108269
S11336F0118212821382FE01E755FF4F108211825C
S113370012821382FE01E355FF4F1082118212824E
S11337101382FE01EF54FF4F108211821282138232
S1133720FE01EB54FF4F1082118212821382FE01BC
S1133730E754FF4F1082118212821382FE01E35478
S1133740FF4F1082118212821382FE01EF53FF4F4A
S11337501082118212821382FE01EB53FF4F1082FA
S1133760118212821382FE01E753FF4F10821182ED
S113377012821382FE01E353FF4F108211821282E0
S11337801382FE01EF52FF4F1082118212821382C4
S1133790FE01EB52FF4F1082118212821382FE014E
S11337A0E752FF4F1082118212821382FE01E3520C
S11337B0FF4F1082118212821382FE01EF51FF4FDC
S11337C01082118212821382FE01EB51FF4F10828C
S11337D0118212821382FE01E751FF4F108211827F
S11337E012821382B801CE010E9424178C2F9D2FC0
S11337F0DF91CF911F910F9108952F923F924F9295
S11338005F926F927F928F929F92AF92BF92CF926C
S1133810DF92EF92FF920F931F93CF93DF93CDB775
S1133820DEB7A2970FB6F894DEBF0FBECDBF8C01F2
S11338308DEE90E00E94692698A38F8F82E0EF8D31
S1133840F8A1828389EE90E09483838386E492E0F6
S113385091838083158216821782108611861286C0
S113386013861486158616861786108A118A128A7C
S1133870138A148A158A168A178A108E118E128E4C
S1133880138E148E158E168E178E10A211A212A2EC
S113389013A214A215A216A217A210A611A612A66C
S11338A013A614A615A616A617A610AA11AA12AA3C
S11338B013AA14AA15AA16AA17AA10AE11AE12AE0C
S11338C013AE14AEDF01DD961D921D921D921C9263
S11338D01397CF018F5B9F4FFC01108211821282DC
S11338E013822F8D38A12B5B3F4F3AA329A3F901F3
S11338F010821182128213822F8D38A1275B3F4FD1
S1133900F90110821182128213822F8D38A1235B58
S11339103F4FF90110821182128213822F8D38A138
S11339202F5A3F4FF90110821182128213822F8D78
S113393038A12B5A3F4FF90110821182128213824F
S11339402F8D38A1275A3F4FF9011082118212821C
S113395013822F8D38A1235A3F4F3A832983F901CB
S113396010821182128213826F8D78A16F597F4F5A
S1133970FB0110821182128213822F8D38A12B59E0
S11339803F4FF90110821182128213822F8D38A1C8
S113399027593F4F3C832B83F901108211821282F5
S11339A013822F8D38A123593F4F3E832D83F90174
S11339B010821182128213824F8C58A0F1E74F0EAD
S11339C0511CF20110821182128213822F8D38A1B0
S11339D02B583F4F38872F83F901108211821282AE
S11339E013822F8D38A127583F4F3A872987F90131
S11339F010821182128213822F8D38A123583F4FD7
S1133A003C872B87F90110821182128213822F8D39
S1133A1038A12F573F4F3E872D87F901108211821D
S1133A20128213822F8D38A12B573F4FF901108238
S1133A301182128213822F8D38A127573F4FF9012B
S1133A4010821182128213822F8D38A123573F4F87
S1133A50F90110821182128213822F8D38A12F5600
S1133A603F4FF90110821182128213822F8D38A1E7
S1133A702B563F4FF90110821182128213822F8D2F
S1133A8038A127563F4F388B2F87F90110821182B6
S1133A90128213822F8D38A123563F4F3A8B298BE4
S1133AA0F90110821182128213822F8D38A12F55B1
S1133AB03F4FF90110821182128213822F8D38A197
S1133AC02B553F4F3C8B2B8BF901108211821282B4
S1133AD013822F8D38A127553F4F3E8B2D8BF90133
S1133AE010821182128213822F8D38A123553F4FE9
S1133AF0388F2F8BF90110821182128213822F8D3D
S1133B0038A12F543F4F3A8F298FF9011082118227
S1133B10128213822F8D38A12B543F4F3C8F2B8F51
S1133B20F90110821182128213822F8D38A1275439
S1133B303F4F3E8F2D8FF901108211821282138222
S1133B402F8D38A123543F4FF90110821182128224
S1133B5013822F8D38A12F533F4FF9011082118208
S1133B60128213822F8D38A12B533F4FF9011082FB
S1133B701182128213822F8D38A127533F4FF901EE
S1133B8010821182128213822F8C38A0FDEC2F0E2A
S1133B90311CF10110821182128213822F8D38A1FF
S1133BA02F523F4FF90110821182128213822F8DFE
S1133BB038A12B523F4FF9011082118212821382D5
S1133BC06F8C78A0F9ED6F0E711CF30110821182D5
S1133BD012821382AF8CB8A0FDEDAF0EB11CF501BB
S1133BE010821182128213828F8C98A0F1EE8F0EB4
S1133BF0911CF4011082118212821382CF8CD8A0FE
S1133C00F5EECF0ED11CF6011082118212821382BE
S1133C10EF8CF8A0F9EEEF0EF11CF701108211827F
S1133C2012821382F8012181328143815481EF8D04
S1133C30F8A12583368347835087F80121A132A157
S1133C4043A154A1EF8DF8A1258B368B478B508F60
S1133C50F801218D328D438D548DEF8DF8A1258788
S1133C6036874787508BF801258D368D478D50A1B7
S1133C70EF8DF8A1218B328B438B548BF801218972
S1133C80328943895489EF8DF8A12187328743878C
S1133C905487F8012185328543855485EF8DF8A139
S1133CA0218F328F438F548F9801235B3F4FF9014B
S1133CB02081318142815381EF8DF8A125AB36AB50
S1133CC047AB50AFF80125A136A147A150A5EF8D10
S1133CD0F8A125A736A747A750AB9801275B3F4F0C
S1133CE0F9012081318142815381FC012083318398
S1133CF042835383C8018B5B9F4FFC012081318138
S1133D0042815381EF8DF8A121AF32AF43AF54AF5D
S1133D10C8018F5B9F4FFC01208131814281538117
S1133D202D933D934D935C931397F80185A996A920
S1133D30A7A9B0ADEF8DF8A181AB92ABA3ABB4ABA7
S1133D40F80181A992A9A3A9B4A9E9A1FAA1808340
S1133D509183A283B383F801FD9680819181A2812E
S1133D60B381E981FA8180839183A283B383F801CB
S1133D70EF5AFF4F80819181A281B381FB0180833F
S1133D809183A283B383F801E358FF4F808191812B
S1133D90A281B381F20180839183A283B383F8016A
S1133DA0EB5AFF4F80819181A281B381EB81FC8129
S1133DB080839183A283B383F801E758FF4F808106
S1133DC09181A281B381EB85FC8580839183A28359
S1133DD0B383F801EB58FF4F80819181A281B381B5
S1133DE0EF81F88580839183A283B383F801EF5830
S1133DF0FF4F80819181A281B381E985FA85808317
S1133E009183A283B383F801EB59FF4F80819181A1
S1133E10A281B381ED81FE8180839183A283B383E8
S1133E20F801EF59FF4F80819181A281B381ED8523
S1133E30FE8580839183A283B383F801E359FF4F06
S1133E4080819181A281B381EF85F88980839183F8
S1133E50A283B383F801EF57FF4F80819181A28140
S1133E60B381E989FA8980839183A283B383F801BA
S1133E70EB57FF4F80819181A281B381EB89FC894B
S1133E8080839183A283B383F801E755FF4F808138
S1133E909181A281B381EB8DFC8D80839183A28378
S1133EA0B383F801EF55FF4F80819181A281B381E3
S1133EB0EF89F88D80839183A283B383F801EB5556
S1133EC0FF4F80819181A281B381E98DFA8D808336
S1133ED09183A283B383F801E756FF4F23E132EFC6
S1133EE041E550E460817181828193810E94D42BE9
S1133EF0ED89FE896083718382839383F801EF5691
S1133F00FF4F80819181A281B381ED8DFE8D8083ED
S1133F109183A283B383F801E757FF4F8081918196
S1133F20A281B381F10180839183A283B383F801D9
S1133F30E354FF4F80819181A281B381F401808396
S1133F409183A283B383F801EB54FF4F8081918165
S1133F50A281B381F30180839183A283B383F801A7
S1133F60E754FF4F80819181A281B381F501808361
S1133F709183A283B383F801EF53FF4F8081918132
S1133F80A281B381F60180839183A283B383F80174
S1133F90EB53FF4F80819181A281B381F70180832C
S1133FA09183A283B3838F8D98A1A2960FB6F894C0
S1133FB0DEBF0FBECDBFDF91CF911F910F91FF9058
S1133FC0EF90DF90CF90BF90AF909F908F907F90B5
S1133FD06F905F904F903F902F900895EF92FF92D3
S1133FE00F931F93CF93DF938C01EB01FC01858129
S1133FF09681A781B08589839A83AB83BC838185AD
S11340009285A385B485898B9A8BAB8BBC8B81A954
S113401092A9A3A9B4A98DAB9EABAFABB8AF85A948
S113402096A9A7A9B0ADFB01E35BFF4F8083918301
S1134030A283B383F801EF59FF4F80819181A2815C
S1134040B381FB01EF5AFF4F80839183A283B38333
S1134050F801E359FF4F80819181A281B381FB0173
S1134060EB59FF4F80839183A283B383F801EF5808
S1134070FF4F80819181A281B381FB01E358FF4FFF
S113408080839183A283B383F801E356FF4F808139
S11340909181A281B381FB01EF57FF4F808391830C
S11340A0A283B383F801EB55FF4F80819181A281F4
S11340B0B381FB01EB57FF4F80839183A283B383CA
S11340C07B01F9E9EF0EF11CF801E755FF4F28E4F5
S11340D039EF41E550E460817181828193810E94CE
S11340E0AF2DF7016083718382839383F801EF52CC
S11340F0FF4F4081518162817381FE01E355FF4F7F
S11341004083518362837383F801EB52FF4F8081B4
S11341109181A281B381CF54DF4F88839983AA838D
S1134120BB83DF91CF911F910F91FF90EF90089582
S11341308F929F92AF92BF92EF92FF920F931F9331
S1134140CF93DF93EC01CB01BA017901442737FD0A
S11341504095542F0E94AB2E49015A0198014427DF
S113416037FD4095542FC501B4010E94AB2E3F8BFF
S11341702E8BF98EE88E1D8A1C8A1A8E81E08B8F15
S1134180DF91CF911F910F91FF90EF90BF90AF906F
S11341909F908F9008950F931F93CF93DF938091F7
S11341A0A4029091A502892B99F48CE190E00E94DD
S11341B06926EC0106E410E020E430E040E054E23B
S11341C064EF70E00E949820D093A502C093A402EB
S11341D08091A4029091A502DF91CF911F910F913C
S11341E00895FC01248935892A3031057CF4F901CC
S11341F0EE0FFF1FE80FF91F718360832F5F3F4F9E
S1134200FC01358B248B20E030E002C02FEF3FEF20
S1134210822F932F0895EF92FF920F931F93CF93C2
S1134220DF937C01DC0154968D919C91559718166F
S11342301906ACF48701C0E0D0E0F80181919191B6
S11342408F01DC01ED91FC910680F781E02D199539
S11342502196F70124893589C217D30774F3D7014E
S113426056968D919C9157979093890080938800DE
S1134270E1E8F0E0808188608083EFE6F0E080810F
S1134280826080837894DF91CF911F910F91FF908A
S1134290EF900895EF92FF920F931F93CF93DF93C4
S11342A07C01FC01138E128E8489958918161906D7
S11342B0F4F48701C0E0D0E0F801A191B1918F013D
S11342C016968C911697882359F016961C92169779
S11342D0ED91FC9111970084F185E02DCD011995A4
S11342E02196F70124893589C217D3072CF381E07D
S11342F0F701838F83B7817F83BF83B7816083BFD7
S1134300889583B78E7F83BFDF91CF911F910F91E3
S1134310FF90EF900895FC01808D918D803491057C
S1134320D9F034F48130910559F0089739F50EC06D
S11343308115F1E09F07B1F081159440F9F418C09C
S1134340E1E8F0E08081816080830895E1E8F0E0B5
S11343508081826080830895E1E8F0E08081836059
S113436080830895E1E8F0E080818460808308958B
S1134370E1E8F0E08081856080830895E1E8F0E081
S113438080818160808308951F920F920FB60F92EF
S113439011240BB60F922F933F934F935F936F9318
S11343A07F938F939F93AF93BF93CF93DF93EF93B9
S11343B0FF930E94CB20EC018B8D811102C081E020
S11343C08A8F8C899D8918161906E4F4DE0120E091
S11343D030E061E0ED91FD91428153814115510539
S11343E031F46683848195819383828304C0415030
S11343F05109538342832F5F3F4F4C895D892417B2
S1134400350744F3FF91EF91DF91CF91BF91AF91C5
S11344109F918F917F916F915F914F913F912F91D8
S11344200F900BBE0F900FBE0F901F901895CF9357
S1134430DF93EC018CA19DA10E94FF0A40E86BE68A
S11344408CA19DA10E94180B8CA19DA10E94090B17
S11344502FEF81EE94E0215080409040E1F700C0BE
S113446000008CA19DA10E94FF0A43E06BE68CA191
S11344709DA10E94180B8CA19DA10E94090B2FEFF6
S113448081EE94E0215080409040E1F700C00000AC
S11344908CA19DA10E94FF0A40E16AE68CA19DA126
S11344A00E94180B40E069E18CA19DA10E94180BA9
S11344B042E06AE18CA19DA10E94180B48E16BE1E6
S11344C08CA19DA10E94180B40E06CE18CA19DA1E0
S11344D00E94180B8CA19DA10E94090BDF91CF9122
S11344E0089508952AE832E0FC0131832083089579
S11344F02AE832E0FC01318320830E946C2608956F
S1134500CF93DF93EC018F8198850E9485088F817A
S113451098850E941708DF91CF9108950F931F93F8
S1134520CF93DF93EC018B01BA01A9010E941126FC
S113453082E592E09983888318870F83DF91CF9176
S11345401F910F9108952AE832E0FC013183208302
S113455008952AE832E0FC01318320830E946C260E
S11345600895CF93DF93EC018F8198850E9408050D
S11345708F8198850E940C048F8198850E9416066D
S11345808F8198850E940F07DF91CF9108950F9333
S11345901F93CF93DF93EC018B01BA01A9010E9411
S11345A0112680E692E09983888318870F83DF9130
S11345B0CF911F910F9108952AE832E0FC013183D5
S11345C0208308952AE832E0FC01318320830E948D
S11345D06C2608954F925F926F927F928F929F9272
S11345E0AF92BF92CF92DF92EF92FF920F931F93FD
S11345F0CF93DF93CDB7DEB764970FB6F894DEBFE1
S11346000FBECDBF4C0119861A861B861C861D82DF
S11346101E821F82188619821A821B821C82DC0168
S113462017960D911C911897F801E753FF4F60817D
S11346307181828193810E943C2C0E946F2C5B01CA
S11346406C01F801EB57FF4F80819181A281B38106
S11346508D879E87AF87B88BF801EF54FF4F808119
S11346609181A281B381898B9A8BAB8BBC8BF8012E
S1134670E355FF4F4080518062807380CE010196E4
S11346809F938F93CE0105969F938F93CE010996A6
S11346909F938F93C8018B529F4F9F938F93F801E1
S11346A0EF52FF4F60817181828193810E943C2C83
S11346B00E946F2C9F938F937F936F93F801E35322
S11346C0FF4F60817181828193810E943C2C0E9402
S11346D06F2C9F938F937F936F93ED84FE840F854C
S11346E0188929893A894B895C89C301B2010E94DE
S11346F09C28D4011796ED91FC91189789859A8589
S1134700AB85BC8585A396A3A7A3B0A7D4011796B0
S1134710ED91FC911897EB5AFF4F8D819E81AF81EB
S1134720B88580839183A283B383D4011796ED91D6
S1134730FC911897E757FF4F89819A81AB81BC811F
S113474080839183A283B3830FB6F894DEBF0FBE38
S1134750CDBF64960FB6F894DEBF0FBECDBFDF9118
S1134760CF911F910F91FF90EF90DF90CF90BF906A
S1134770AF909F908F907F906F905F904F9008952F
S11347800F931F93CF93DF93EC018B01BA01A9011F
S11347900E9411268EE692E09983888318870F83FE
S11347A0DF91CF911F910F9108952AE832E0FC0127
S11347B03183208308952AE832E0FC013183208389
S11347C00E946C260895CF92DF92EF92FF920F938E
S11347D01F93CF93DF93CDB7DEB727970FB6F89427
S11347E0DEBF0FBECDBF7C0183E08B8381E090E010
S11347F09D838C838AE392E09A838983BE016F5FF1
S11348007F4FD70117968D919C9118970E94451060
S11348108C01009709F055C11F821E82BE016A5F98
S11348207F4FF701878190850E9411118C010097B9
S113483009F047C1CE80DF80C114D10409F441C11D
S1134840D70119966D917C911A97C6010E94EE1FAB
S1134850F601858D968DA78DB0A1F701238534854A
S1134860F90182839383A483B583F60181A192A184
S1134870A3A1B4A1F70123853485F9018683978325
S1134880A087B187F60185A196A1A7A1B0A5F701DC
S113489023853485F90182879387A487B587F60138
S11348A081A592A5A3A5B4A5F70123853485F901B3
S11348B086879787A08BB18BF601E75BFF4F8081DA
S11348C09181A281B381F70123853485F901828B1B
S11348D0938BA48BB58BF601E35BFF4F80819181B1
S11348E0A281B381F70123853485F901868B978BE7
S11348F0A08FB18FF601EF5AFF4F80819181A28181
S1134900B381F70123853485F901828F938FA48FB6
S1134910B58FF601EB5AFF4F80819181A281B3815B
S1134920F70123853485F901868F978FA0A3B1A35E
S1134930F601E75AFF4F80819181A281B381F7018B
S113494023853485F90182A393A3A4A3B5A3F60117
S1134950EB59FF4F80819181A281B381F7012385B7
S11349603485F90186A397A3A0A7B1A7F601EB5755
S1134970FF4F80819181A281B381F7012385348522
S1134980F90182A793A7A4A7B5A7F601E757FF4F9C
S113499080819181A281B381F70123853485F90156
S11349A086A797A7A0ABB1ABF601E357FF4F808171
S11349B09181A281B381F70123853485F90182AB0A
S11349C093ABA4ABB5ABF601EF56FF4F8081918159
S11349D0A281B381F70123853485F90186AB97ABB6
S11349E0A0AFB1AFF601EB56FF4F80819181A28158
S11349F0B381F70123853485F90182AF93AFA4AF66
S1134A00B5AFF601EF55FF4F80819181A281B3814B
S1134A10F70123853485F901FE9680839183A2836F
S1134A20B383F601E354FF4F80819181A281B38166
S1134A30F70123853485F901EE5BFF4F8083918371
S1134A40A283B383F601EF53FF4F80819181A2814A
S1134A50B381F70123853485F901EA5BFF4F808335
S1134A609183A283B383F601EB53FF4F40815181BD
S1134A7062817381D7011B96ED91FC911C97E65BD3
S1134A80FF4F4083518362837383F601E753FF4FE3
S1134A9040815181628173811B96ED91FC911C9739
S1134AA0E25BFF4F40835183628373838E819F81D6
S1134AB0009739F0DC01ED91FC910280F381E02D47
S1134AC019950D3FBFEF1B07A1F12CF40C3F1F4FAD
S1134AD009F054C041C00E3F8FEF1807B9F00F3FE3
S1134AE01F4F09F04BC0D7011996ED91FC911A970D
S1134AF0EB54FF4F80819181A281B3810196A11D66
S1134B00B11D80839183A283B38338C0D7011996E2
S1134B10ED91FC911A97EB53FF4F80819181A28113
S1134B20B3810196A11DB11D80839183A283B383B8
S1134B3025C0D7011996ED91FC911A97E754FF4FC0
S1134B4080819181A281B3810196A11DB11D8083D1
S1134B509183A283B38312C0D7011996ED91FC917E
S1134B601A97E354FF4F80819181A281B38101960A
S1134B70A11DB11D80839183A283B38327960FB6B1
S1134B80F894DEBF0FBECDBFDF91CF911F910F917F
S1134B90FF90EF90DF90CF9008958F929F92AF9205
S1134BA0BF92CF92DF92EF92FF920F931F93CF9316
S1134BB0DF93EC014B015A016901B801A7010E947E
S1134BC011268CE792E09983888398868F82BA862F
S1134BD0A986DC86CB86DF91CF911F910F91FF9040
S1134BE0EF90DF90CF90BF90AF909F908F900895FB
S1134BF008952AE832E0FC01318320830895F89473
S1134C00DC01ED91FC910190F081E02D19957894EF
S1134C1008952AE832E0FC01318320830E946C2647
S1134C200895FC018AE892E0918380837383628310
S1134C3055834483168208952AE832E0FC013183C7
S1134C40208308952AE832E0FC01318320830E9406
S1134C506C2608950F931F93CF93DF938C01FC016F
S1134C60818592850E94FD1BEC01BC01F8018781BE
S1134C7090850E944510209739F0E881F9810280DF
S1134C80F381E02DCE011995DF91CF911F910F9102
S1134C900895CF92DF92EF92FF920F931F93CF93D9
S1134CA0DF93EC016B017A01A801B9010E9411267E
S1134CB088E992E099838883D886CF82FA86E98648
S1134CC0DF91CF911F910F91FF90EF90DF90CF90E4
S1134CD008950E94E12E0895009711F00E947C2F00
S1134CE008950E94E12E0895009711F00E947C2FF0
S1134CF0089525E33AEF4EE85CE30E94AF2D089552
S1134D004F925F926F927F928F929F92AF92BF92D7
S1134D10CF92DF92EF92FF920F931F93CF93DF9383
S1134D2000D01F92CDB7DEB769017A010E947926BF
S1134D302B013C01C701B6010E9479266B017C015D
S1134D40C301B2010E94122E9B01AC015058298369
S1134D503A834B835C83C701B6010E94D12B4B017C
S1134D605C019B01AC0169817A818B819C810E94E9
S1134D70AF2DD8016D937D938D939C931397C701A9
S1134D80B6010E94122E6B017C019B01AC0169816A
S1134D907A818B819C810E94AF2DF8016483758395
S1134DA086839783C301B2010E94D12BD801189640
S1134DB06D937D938D939C931B972601370177FA0E
S1134DC0709477F87094F8014486558666867786E1
S1134DD050968D929D92AD92BC925397148A158AE7
S1134DE0168A178A2B013C0177FA709477F870942D
S1134DF0A3019201C501B4010E94AF2DD8015896B8
S1134E006D937D938D939C935B97A3019201C7014E
S1134E10B6010E94AF2DF801648F758F868F978F2E
S1134E2029813A814B815C8120A331A342A353A3FE
S1134E300F900F900F900F90DF91CF911F910F91D2
S1134E40FF90EF90DF90CF90BF90AF909F908F90A6
S1134E507F906F905F904F9008958F929F92AF9242
S1134E60BF92CF92DF92EF92FF924B015C01CA0195
S1134E70B9010E94122E6B017C01A5019401C501A8
S1134E80B4010E94AF2D4B015C01A7019601C7013B
S1134E90B6010E94AF2D9B01AC01C501B4010E9473
S1134EA0AF2D9B01AC0160E070E080E89FE30E94BD
S1134EB0682B0E941C2E9B01AC0162E375EA82EC14
S1134EC09AE40E94D42BFF90EF90DF90CF90BF9094
S1134ED0AF909F908F9008952F923F924F925F9240
S1134EE06F927F928F929F92AF92BF92CF92DF92F6
S1134EF0EF92FF920F931F93CF93DF93CDB7DEB75B
S1134F002A970FB6F894DEBF0FBECDBF29013A0130
S1134F10ED82FE820F831887860115019A868986A1
S1134F200E9479266B017C01C301B2010E9479269B
S1134F302B013C01A701960162ED70E987EA9DE32C
S1134F400E942D2769837A838B839C83C701B601D2
S1134F500E94D12B4B015C012D813E814F815885EC
S1134F6069817A818B819C810E94692BA5019401BE
S1134F700E94AF2DB62EA72E982E892EC301B20102
S1134F800E94D12B9B01AC016B2D7A2D892D982D7C
S1134F900E94AF2DF8016083718382839383C301E0
S1134FA0B2010E94122E9B01AC016B2D7A2D892D2A
S1134FB0982D0E94AF2DF1016083718382839383C6
S1134FC0C701B6010E94122E6B017C0127E439E46B
S1134FD04EE75FE369817A818B819C810E94AF2DCA
S1134FE02D813E814F8158850E94692BA70196012E
S1134FF00E94AF2DE985FA85608371838283938350
S11350002A960FB6F894DEBF0FBECDBFDF91CF91C5
S11350101F910F91FF90EF90DF90CF90BF90AF90D2
S11350209F908F907F906F905F904F903F902F90C4
S113503008954F925F926F927F92AF92BF92CF92F8
S1135040DF92EF92FF920F931F93CF93DF93CDB72D
S1135050DEB76C970FB6F894DEBF0FBECDBF290143
S11350603A01E98EFA8E0B8F1C8F8E01035F1F4F5E
S11350702CE0F80111922A95E9F79B01AC01C601D5
S1135080B5010E94682B69837A838B839C83A30177
S113509092016EA57FA588A999A90E94682B6D83AA
S11350A07E838F839887298D3A8D4B8D5C8D6AA979
S11350B07BA98CA99DA90E94682B69877A878B8715
S11350C09C87A801BE016F5F7F4F8EA99FA90E9494
S11350D07E2A8D859E85AF85B889E8ADF9AD80833C
S11350E09183A283B38389899A89AB89BC89EAAD08
S11350F0FBAD80839183A283B3838D899E89AF891D
S1135100B88DECADFDAD80839183A283B3836C969F
S11351100FB6F894DEBF0FBECDBFDF91CF911F91C4
S11351200F91FF90EF90DF90CF90BF90AF907F9062
S11351306F905F904F9008952F923F924F925F929D
S11351406F927F928F929F92AF92BF92CF92DF9293
S1135150EF92FF920F931F93CF93DF93CDB7DEB7F8
S113516062970FB6F894DEBF0FBECDBF250136019E
S1135170E8A9ED87E9A9EE87EAA9EF87EBA9E88B0F
S1135180ECA9E98BEDA9EA8B3EA82FA819861A860B
S11351901B861C861D821E821F82188619821A8213
S11351A01B821C8288248394912C8C0E9D1E0F2EAE
S11351B0F5E0AF2EB12CF02DAC0EBD1E0F2EF9E094
S11351C0CF2ED12CF02DCC0EDD1E0E946C27A9848D
S11351D0BA84CB84DC842F923F928A898F939989F5
S11351E09F93E889EF938F858F939E859F93ED8599
S11351F0EF938C818F938B818F938A818F93898195
S11352008F9388858F938F818F938E818F938D81D8
S11352108F93ECA4FDA40EA51FA528A539A54AA526
S11352205BA5C301B2010E9419280FB6F894DEBF32
S11352300FBECDBF62960FB6F894DEBF0FBECDBFD2
S1135240DF91CF911F910F91FF90EF90DF90CF905E
S1135250BF90AF909F908F907F906F905F904F9092
S11352603F902F9008952F923F924F925F926F92AA
S11352707F928F929F92AF92BF92CF92DF92EF92E2
S1135280FF920F931F93CF93DF93CDB7DEB7699748
S11352900FB6F894DEBF0FBECDBF4B015C012901F0
S11352A03A01E982FA820B831C83D98EC88ECA0123
S11352B0B9010E94D12B6D837E838F839887C801A7
S11352C0B7010E94D12B6B017C019B01AC016D8164
S11352D07E818F8198850E94AF2DE88DF98D608342
S11352E0718382839383C501B4010E94122E69875E
S11352F07A878B879C87C301B2010E94122E698B27
S11353007A8B8B8B9C8B9B01AC0169857A858B8511
S11353109C850E94AF2D362E272E8D8B9E8BC5012A
S1135320B4010E94D12B6D877E878F87988B69810A
S11353307A818B819C810E94122E4B015C019D8994
S11353408E89232D322D492F582FC701B6010E9473
S1135350AF2D2B013C01A50194016D857E858F85C0
S113536098890E94AF2D9B01AC01C301B2010E9438
S1135370682BE88DF98D64837583868397832D85E7
S11353803E854F85588969897A898B899C890E94D1
S1135390AF2D062F172F89839F8B762F982F8F89F8
S11353A0272F312F492F582FC701B6010E94AF2D47
S11353B02B013C01A501940169857A858B859C8527
S11353C00E94AF2D9B01AC01C301B2010E94692B65
S11353D0E88DF98D6087718782879387A501940191
S11353E06D817E818F8198850E94AF2DE88DF98D26
S11353F06487758786879787A50194017D886E8861
S1135400632D722D872D962D0E94AF2D2B013C010B
S11354102D853E854F855889C701B6010E94AF2D61
S11354209B01AC01C301B2010E94692BE88DF98D87
S1135430608B718B828B938B99818F89202F312F75
S1135440492F582FC501B4010E94AF2D4B015C01B7
S113545029853A854B855C85C701B6010E94AF2D2D
S11354609B01AC01C501B4010E94682BE88DF98D44
S1135470648B758B868B978B89899A89AB89BC8958
S1135480B058808F918FA28FB38F29853A854B8531
S11354905C856D817E818F8198850E94AF2DE88D1A
S11354A0F98D648F758F868F978F2D853E854F85F7
S11354B058896D817E818F8198850E94AF2DE88DFA
S11354C0F98D60A371A382A393A369960FB6F89490
S11354D0DEBF0FBECDBFDF91CF911F910F91FF9023
S11354E0EF90DF90CF90BF90AF909F908F907F9080
S11354F06F905F904F903F902F9008954F925F92DE
S11355006F927F928F929F92AF92BF92CF92DF92CF
S1135510EF92FF920F931F93CF93DF934C01462E8C
S1135520572EE42FF52F8CE0DF011D928A95E9F7C1
S1135530E42EF52EA12CB12C0F2EF3E06F2E712C3E
S1135540F02D29C0F60161917191819191916F01C2
S1135550D8012D913D914D915D918D010E94AF2D0A
S11355609B01AC01F70160817181828193810E946A
S1135570692BD7016D937D938D939C9313972197FA
S113558009F7BCE0AB0EB11CE4E0EE0EF11CF4E252
S1135590AF16B10439F06401CA0CDB1C042D152DBF
S11355A0E301D0CFDF91CF911F910F91FF90EF9046
S11355B0DF90CF90BF90AF909F908F907F906F902F
S11355C05F904F90089588B38695817008951092E6
S11355D091001092950010929400C19A0895CF9270
S11355E0DF92EF92FF920F931F93CF93DF93EC011F
S11355F00E94E72A6E817F81693E23E0720734F4BA
S113560088EE93E00E94972E8B0102C001E010E027
S11356102C813D81442737FD4095542F6881798141
S11356208A819B810E94AB2E69017A0198014427EB
S113563037FD4095542FC701B6010E94AB2E30931D
S1135640990020939800E1E9F0E0808188608083EC
S11356508C819D8180349105D9F034F48130910599
S113566059F0089739F50EC0811521E09207B1F081
S113567081159440F9F418C0E1E9F0E0808181607B
S113568080831DC0E1E9F0E080818260808317C0DF
S1135690E1E9F0E080818360808311C0E1E9F0E01A
S11356A08081846080830BC0E1E9F0E080818560C3
S11356B0808305C0E1E9F0E0808181608083DF912F
S11356C0CF911F910F91FF90EF90DF90CF900895AD
S11356D05058BB27AA270ED0DCC1A5D130F0AAD1DF
S11356E020F031F49F3F11F41EF49AC10EF4E095BA
S11356F0E7FB67C1E92FEFD180F3BA17620773079D
S11357008407950718F071F49EF51EC20EF4E09517
S11357100B2EBA2FA02D0B01B90190010C01CA0167
S1135720A0011124FF27591B99F0593F50F4503E12
S113573068F11A16F040A22F232F342F4427585F04
S1135740F3CF469537952795A795F0405395C9F71C
S11357507EF41F16BA0B620B730B840BBAF09150D4
S1135760A1F0FF0FBB1F661F771F881FC2F70EC073
S1135770BA0F621F731F841F48F487957795679546
S1135780B795F7959E3F08F0B3CF9395880F08F02F
S11357909927EE0F979587950895EFD008F481E047
S11357A0089550D1E39586C10CD073C143D140F024
S11357B03AD130F021F45F3F19F003C15111C5C152
S11357C02FC189D198F39923C9F35523B1F3951BBC
S11357D0550BBB27AA2762177307840738F09F5F0E
S11357E05F4F220F331F441FAA1FA9F333D00E2E7D
S11357F03AF0E0E830D091505040E695001CCAF7EA
S113580029D0FE2F27D0660F771F881FBB1F2617AE
S113581037074807AB07B0E809F0BB0B802DBF0181
S1135820FF2793585F4F2AF09E3F510568F0C9C087
S11358308CC15F3FECF3983EDCF3869577956795D2
S1135840B795F7959F5FC9F7880F911D9695879532
S113585097F90895E1E0660F771F881FBB1F621751
S113586073078407BA0720F0621B730B840BBA0B0F
S1135870EE1F88F7E095089504D06894B11165C1CE
S1135880089531D188F09F5790F0B92F9927B751D7
S1135890A0F0D1F0660F771F881F991F1AF0BA95F0
S11358A0C9F712C0B13081F04FD1B1E008954CC1B5
S11358B0672F782F8827B85F39F0B93FCCF38695E6
S11358C077956795B395D9F73EF490958095709543
S11358D061957F4F8F4F9F4F0895E89409C097FBC0
S11358E03EF490958095709561957F4F8F4F9F4FB3
S11358F09923A9F0F92F96E9BB279395F6958795F7
S113590077956795B795F111F8CFFAF4BB0F11F4B9
S113591060FF1BC06F5F7F4F8F4F9F4F16C0882360
S113592011F096E911C0772321F09EE8872F762F96
S113593005C0662371F096E8862F70E060E02AF0D7
S11359409A95660F771F881FDAF7880F96958795C3
S113595097F90895E2D080F09F3740F491110EF04A
S1135960F4C060E070E080E89FEB089526F41B1615
S1135970611D711D811D2BC045C0990F0008550F75
S1135980AA0BE0E8FEEF16161706E807F907C0F0C1
S113599012161306E407F50798F0621B730B840BC9
S11359A0950B39F40A2661F0232B242B252B21F4A3
S11359B008950A2609F4A140A6958FEF811D811D43
S11359C0089597F99F6780E870E060E00895882360
S11359D071F4772321F09850872B762F07C0662324
S11359E011F499270DC09051862B70E060E02AF0E5
S11359F09A95660F771F881FDAF7880F9695879513
S1135A0097F908959F3F31F0915020F48795779549
S1135A106795B795880F911D9695879597F9089581
S1135A209FEF80EC089500240A94161617061806B2
S1135A300906089500240A9412161306140605068E
S1135A400895EECF50D0E8F3E894E0E0BB279F57E9
S1135A50F0F02AED3FE049EC06C0EE0FBB0F661FE5
S1135A60771F881F28F0B23A62077307840728F06B
S1135A70B25A620B730B840BE3959A9572F78038D4
S1135A8030F49A95BB0F661F771F881FD2F7904892
S1135A90BBCF092E0394000C11F4882352F0BB0FE2
S1135AA040F4BF2B11F460FF04C06F5F7F4F8F4F32
S1135AB09F4F0895EF93E0FF06C0A2EA2AED3FE06E
S1135AC049EC5FEB17DEE5DF0F90039401FC90587F
S1135AD0E4EEF0E0F6C057FD9058440F551F59F01E
S1135AE05F3F71F04795880F97FB991F61F09F3FC7
S1135AF079F087950895121613061406551FF2CFF0
S1135B004695F1DF08C0161617061806991FF1CF3F
S1135B1086957105610508940895E5DFA0F0BEE758
S1135B20B91788F4BB279F3860F41616B11D672F88
S1135B30782F8827985FF7CF869577956795B11D5D
S1135B4093959639C8F30895E894BB276627772779
S1135B50CB0197F9089511DF08F48FEF08950BD066
S1135B6098CF61DF28F066DF18F0952309F029CF7C
S1135B7057CF1124EACFAFDFA0F3959FD1F3950F50
S1135B8050E0551F629FF001729FBB27F00DB11DBD
S1135B90639FAA27F00DB11DAA1F649F6627B00D4D
S1135BA0A11D661F829F2227B00DA11D621F739F36
S1135BB0B00DA11D621F839FA00D611D221F749F44
S1135BC03327A00D611D231F849F600D211D822F8B
S1135BD0762F6A2F11249F5750408AF0E1F08823D2
S1135BE04AF0EE0FFF1FBB1F661F771F881F9150DF
S1135BF05040A9F79E3F510570F0E3CEA6CF5F3F1A
S1135C00ECF3983EDCF3869577956795B795F79511
S1135C10E7959F5FC1F7FE2B880F911D9695879599
S1135C2097F908959F930EDF0F9007FCEE5F42CF24
S1135C3011F40EF4F5CEE6CE56DFD0F39923D9F362
S1135C40CEF39F57550B87FF35D00024A0E640EADA
S1135C50900180585695979528F4805C660F771FBD
S1135C60881F20F026173707480730F4621B730B90
S1135C70840B202931294A2BA695179407942025B3
S1135C8031254A2758F7660F771F881F20F02617FB
S1135C903707480730F4620B730B840B200D311D5A
S1135CA0411DA09581F7B901842F9158880F9695CD
S1135CB08795089591505040660F771F881FD2F73B
S1135CC008959F938F937F936F93FF93EF939B011B
S1135CD0AC0145DFEF91FF9105D02F913F914F919A
S1135CE05F913DCFDF93CF931F930F93FF92EF927A
